:100000000C9434000C9451000C9451000C94510049
:100010000C9451000C9451000C9451000C9451001C
:100020000C9451000C9451000C9451000C9451000C
:100030000C9451000C9451000C9451000C945100FC
:100040000C9451000C9451000C9451000C945100EC
:100050000C9451000C9451000C9451000C945100DC
:100060000C9451000C94510011241FBECFEFD4E02A
:10007000DEBFCDBF12E0A0E0B1E0EEE2FAE202C0E6
:1000800005900D92A43CB107D9F713E0A4ECB2E0BF
:1000900001C01D92AF31B107E1F70E94C7130C9464
:1000A00015150C9400002D9A88E592E020E931E0C6
:1000B000F9013197F1F70197D9F72D988CE291E08A
:1000C00020E931E0F9013197F1F70197D9F7089567
:1000D000382F6330F1F06430A9F1623009F04AC082
:1000E000442361F024B181E090E002C0880F991FA1
:1000F0003A95E2F78095822384B9089524B181E08E
:1001000090E002C0880F991F3A95E2F7282B24B996
:100110000895442361F027B181E090E002C0880F88
:10012000991F3A95E2F78095822387B9089527B100
:1001300081E090E002C0880F991F3A95E2F7282BE2
:1001400027B90895442361F02AB181E090E002C00C
:10015000880F991F3A95E2F7809582238AB908950E
:100160002AB181E090E002C0880F991F3A95E2F72A
:10017000282B2AB90895282F633041F0643081F08C
:10018000623011F080E0089583B101C086B190E043
:1001900002C0959587952A95E2F78095817008951C
:1001A00089B190E002C0959587952A95E2F78095F0
:1001B00081700895382F6330F1F06430A9F1623016
:1001C00009F04AC0442361F425B181E090E002C007
:1001D000880F991F3A95E2F78095822385B9089593
:1001E00025B181E090E002C0880F991F3A95E2F7AF
:1001F000282B25B90895442361F428B181E090E0CB
:1002000002C0880F991F3A95E2F78095822388B93A
:10021000089528B181E090E002C0880F991F3A95B7
:10022000E2F7282B28B90895442361F42BB181E02B
:1002300090E002C0880F991F3A95E2F780958223DB
:100240008BB908952BB181E090E002C0880F991F0F
:100250003A95E2F7282B2BB90895382F662361F0E1
:1002600027B181E090E002C0880F991F3A95E2F72C
:100270008095822387B9089527B181E090E002C07C
:10028000880F991F3A95E2F7282B27B908954498CB
:10029000459884E061E00E942D0185E061E00E94C4
:1002A0002D010895359902C081E0089586B18295A7
:1002B0008F7080958170089520E030E05AE109C088
:1002C0002F5F3F4F349902C081E00895452F4A9532
:1002D000F1F728173907A0F380E0089525E104C05D
:1002E000922F9A95F1F784508823D1F70895EF92D1
:1002F000FF920F931F93CF93DF93082F0E94520119
:100300008823E1F784E060E00E942D018091BE0225
:10031000880F880F25E104C0922F9A95F1F7845039
:100320008823D1F785E060E00E942D018091BE0214
:10033000880F880F880F25E104C0922F9A95F1F756
:1003400084508823D1F785E061E00E942D018091DF
:10035000BE02880F880F25E104C0922F9A95F1F70D
:1003600084508823D1F711E0C0E0D0E0E02EFF24D4
:1003700005E1C7010C2E02C0959587950A94E2F716
:1003800080FF07C084E061E00E942D0181E0182712
:1003900004C084E060E00E942D018091BE02880FBD
:1003A000880F04C0902F9A95F1F784508823D1F7D5
:1003B00085E060E00E942D018091BE02880F880FC9
:1003C000880F04C0902F9A95F1F784508823D1F7B5
:1003D00085E061E00E942D018091BE02880F880FA8
:1003E00004C0902F9A95F1F784508823D1F7219675
:1003F000C830D10509F0BDCF112319F084E061E0C8
:1004000002C084E060E00E942D018091BE02880F4E
:10041000880F25E104C0922F9A95F1F78450882324
:10042000D1F785E060E00E942D018091BE02880F27
:10043000880F880F25E104C0922F9A95F1F7845018
:100440008823D1F785E061E00E942D018091BE02F2
:10045000880F880F25E104C0922F9A95F1F78450F8
:100460008823D1F784E061E00E942D018091BE02D3
:10047000880F880F25E104C0922F9A95F1F78450D8
:100480008823D1F785E060E00E942D018091BE02B3
:10049000880F880F880F25E104C0922F9A95F1F7F5
:1004A00084508823D1F785E061E00E942D0180917E
:1004B000BE02880F880F25E104C0922F9A95F1F7AC
:1004C00084508823D1F788EC90E00197F1F7DF9111
:1004D000CF911F910F91FF90EF900895AF92BF922F
:1004E000CF92DF92EF92FF920F931F93CF93DF9300
:1004F0005C013499FECF359BFECF8091BE02880F00
:10050000880F25E104C0922F9A95F1F78450882333
:10051000D1F785E060E00E942D018091BE02880F36
:10052000880F880F25E104C0922F9A95F1F7845027
:100530008823D1F785E061E00E942D018091BE0201
:10054000880F880F25E104C0922F9A95F1F7845007
:100550008823D1F7FF2411E0C0E0D0E031E0C32EC2
:10056000D12CEE24E39405E1349B09C0C6010C2E86
:1005700002C0880F991F0A94E2F7F82A1E2580917D
:10058000BE02880F880F04C0902F9A95F1F784500F
:100590008823D1F785E060E00E942D018091BE02A2
:1005A000880F880F880F04C0902F9A95F1F7845018
:1005B0008823D1F785E061E00E942D014091BE02C1
:1005C000842F880F880F04C0902F9A95F1F78450DC
:1005D0008823D1F72196C830D10509F0C5CF86B15F
:1005E00090E024E0969587952A95E1F781709070C8
:1005F000212F30E08217930719F02FEF3FEF5DC0F6
:10060000942F990F990F25E104C0822F8A95F1F755
:1006100094509923D1F785E060E00E942D018091EC
:10062000BE02880F880F880F25E104C0922F9A958B
:10063000F1F784508823D1F785E061E00E942D0115
:100640008091BE02880F880F25E104C0922F9A95F1
:10065000F1F784508823D1F784E060E00E942D01F7
:100660008091BE02880F880F25E104C0922F9A95D1
:10067000F1F784508823D1F785E060E00E942D01D6
:100680008091BE02880F880F880F25E104C0922F49
:100690009A95F1F784508823D1F785E061E00E94B4
:1006A0002D0184E061E00E942D0180E991E0019735
:1006B000F1F7F501F08220E030E0C901DF91CF9140
:1006C0001F910F91FF90EF90DF90CF90BF90AF9070
:1006D0000895EF92FF921F93CF93DF938091DB02F7
:1006E0009091DC02892B91F480EF0E947701809138
:1006F000BC020E9477011092070380EF0E947701ED
:100700008091BD020E94770110921803C0E0D0E0F2
:1007100040E9E42E41E0F42EC230D10519F0C43096
:10072000D105B9F484EF91E0F7013197F1F7019722
:10073000D9F789E40E94770184EF91E0F7013197BE
:10074000F1F70197D9F780EF0E94770189E40E94C1
:10075000770184EF91E0F7013197F1F70197D9F72D
:10076000FE01E65EFE4FE081F0E0EE5DFE4F10819F
:10077000812F0E94770184EF91E0F7013197F1F723
:100780000197D9F780EF0E947701812F0E947701AE
:1007900084EF91E0F7013197F1F70197D9F72196AE
:1007A000C830D10509F0B8CF81E08093C9028093A9
:1007B000CA02DF91CF911F91FF90EF900895CF92E1
:1007C000DF92EF92FF920F931F93CF93DF936C0111
:1007D00088EE93E020E931E0F9013197F1F70197D4
:1007E000D9F789E20E94770188EE93E020E931E0B1
:1007F000F9013197F1F70197D9F780EF0E9477015E
:1008000089E20E94770188EE93E020E931E0F90166
:100810003197F1F70197D9F789E40E94770188EEC3
:1008200093E020E931E0F9013197F1F70197D9F729
:1008300080EF0E94770189E40E947701E60101E0E0
:1008400010E050E9E52E51E0F52E21C088EE93E04E
:10085000F7013197F1F70197D9F789810E94770164
:1008600088EE93E0F7013197F1F70197D9F780EF20
:100870000E94770189810E94770188EE93E0F70159
:100880003197F1F70197D9F70F5F1F4F2196F601C6
:100890008081E82FF0E0E017F107C4F6EC0DFD1DB4
:1008A00081818093BE02DF91CF911F910F91FF90C4
:1008B000EF90DF90CF9008950F931F93CF93DF9326
:1008C000259A2D98C0E0D1E005E011E08881F8017B
:1008D000608141E00E9468008991F80161918F0177
:1008E00041E00E94DA00F1E0C530DF0779F7C0E0AF
:1008F000D0E0FE01E65FFE4FDE01AE5EBE4F8081BE
:100900006C9141E00E9468002196C830D10589F7BA
:10091000DF91CF911F910F9108959C011092C60213
:10092000009721F481E08093BE0215C081309105CB
:1009300021F484E08093BE0215C08230910521F439
:1009400084E08093BE0215C08330910521F484E0D9
:100950008093BE0215C02430310521F484E08093D9
:10096000BE0215C02530310521F484E08093BE021B
:1009700015C02630310521F484E08093BE0211C0F9
:100980002730310521F484E08093BE020DC0283069
:10099000310521F484E08093BE020DC02930310579
:1009A00031F02A30310519F02B30310521F484E083
:1009B0008093BE0214C02C30310589F484E080930A
:1009C000BE0281E08093D0021092D1021092D20236
:1009D0001092D3021092D40282E08093BB02C9012C
:1009E0000895CF93DF93EC011092C602009729F48B
:1009F0008FE692E00E94DF0318C08130910529F450
:100A000083E792E00E94DF0318C08230910529F449
:100A100088E792E00E94DF0318C08330910529F433
:100A20008DE792E00E94DF0318C0C430D10529F49D
:100A300082E892E00E94DF0318C0C530D10529F496
:100A400089E892E00E94DF0318C0C630D10529F47E
:100A50008EE892E00E94DF0318C0C730D10529F468
:100A60008EEA92E00E94DF0316C0C830D10529F457
:100A700085E992E00E94DF0316C0C930D10529F450
:100A80008AE992E00E94DF0324C0CA30D10519F43C
:100A900080EA92E005C0CB30D10529F485EA92E0E6
:100AA0000E94DF0319C0CC30D10599F481E0809316
:100AB000D0021092D1021092D2021092D302109260
:100AC000D40282E08093BB0285EB92E00E94DF03B8
:100AD00006C0CC30D10518F482E08093BB0281E0DF
:100AE0008093C9028093CA021092CB022D98CE0146
:100AF000DF91CF910895BF92CF92DF92EF92FF9254
:100B00000F931F93D82EB62E142FF22E8091C80269
:100B1000882329F08AE18A95F1F71092C802002310
:100B200071F08091BB02823011F489E501C086E347
:100B30000E9477018091C8028F5F8093C802EE20E7
:100B4000A1F08091BB02823029F480EE0E947701EF
:100B500084E104C080EE0E9477018DE10E9477015C
:100B60008091C8028F5F8093C802CC2071F0809181
:100B7000BB02823011F481E101C088E30E94770159
:100B80008091C8028F5F8093C8028091C802882339
:100B900029F08AE18A95F1F71092C802FF2019F036
:100BA00080EE0E947701812F0E94770184EF91E00F
:100BB00020E931E0F9013197F1F70197D9F7FF20EA
:100BC00019F080EE0E9477018091BB02823019F407
:100BD00080EF0E9477018091BB02823011F4812F57
:100BE00002C0812F80580E947701ED2DF0E063E074
:100BF000EE0FFF1F6A95E1F7EB0DF11DE152FD4F7E
:100C00001082002361F08091BB02823029F480EFD2
:100C10000E94770189E501C086EB0E947701EE20F2
:100C200091F08091BB02823041F480EE0E94770106
:100C300080EF0E94770184E104C080EE0E9477017A
:100C40008DE90E947701CC2061F08091BB02823057
:100C500029F480EF0E94770181E101C088EB0E94B6
:100C600077018AE18A95F1F781E08093C902809348
:100C7000CA021F910F91FF90EF90DF90CF90BF902D
:100C80000895982F843251F08D3141F0853131F043
:100C9000833421F0893211F08A3509F490E06C3008
:100CA000710529F48091BB02813009F446C3963165
:100CB00009F443C3963209F440C3953209F43DC3A5
:100CC0009E3209F43AC3992309F437C3663071059B
:100CD00009F45FC167307105C0F46330710509F430
:100CE000C0C06430710540F46130710559F1623063
:100CF000710509F0E5C266C06430710509F4E0C011
:100D00006530710509F0DCC216C16930710509F45E
:100D1000CDC16A30710548F46730710509F470C1BE
:100D20006830710509F0CCC281C16B30710509F4DE
:100D300039C26B30710508F408C26C30710509F0D6
:100D4000BFC279C29E3109F4B9C29C3209F4C0C253
:100D50009D3209F4CDC2943309F4B8C29B3209F430
:100D6000C9C2933209F4CAC29B3109F4C5C29C318D
:100D700009F4DEC2953309F4C5C29C3309F4A4C258
:100D8000943409F4B1C29D3409F4D4C29A3209F4FE
:100D9000BDC2913209F4BCC2923209F4C1C29A3187
:100DA00009F4B2C2933309F4BDC29B3309F4B6C24D
:100DB000923409F495C29B3409F484C2923309F049
:100DC00018C1A8C29E3109F48BC29C3209F480C2BA
:100DD0009D3209F48DC2943309F48EC29B3209F41A
:100DE0007BC2933209F470C29B3109F46FC29C310B
:100DF00009F480C2963309F477C29D3309F48AC29C
:100E00009E3309F467C2953409F48CC2953309F412
:100E100091C29C3309F452C2943409F475C29D34D2
:100E200009F45CC29A3209F471C2913209F470C2B9
:100E30009A3109F475C2933309F458C29B3309F40B
:100E40006DC2923409F45CC29B3409F465C29233DA
:100E500009F448C2913309F467C29A3309F030C2E9
:100E600065C29E3109F42AC29C3209F441C29D3206
:100E700009F45EC29B3109F425C2953309F44AC2D4
:100E80009C3309F42DC2943409F42EC29D3409F424
:100E900051C29A3209F43AC2913209F439C29A31F4
:100EA00009F432C2933309F40FC29B3309F436C2FA
:100EB000923411F499E841C29B3409F0E1C032C286
:100EC0009E3109F40BC29C3209F42CC29D3209F404
:100ED00025C29D3109F430C2953111F498EF2DC22D
:100EE000933209F4FDC19B3109F404C2953309F42E
:100EF000FFC19C3309F4ECC1943409F405C29D345C
:100F000009F418C29A3209F401C2913209F400C2FC
:100F10009A3109F4FFC1933309F4D8C19B3309F422
:100F2000CDC1923409F4E0C19B3409F4EBC1923392
:100F300009F05FC0C9C19E3109F4CEC19C3209F4E9
:100F4000C7C19D3209F4D4C19D3109F4F5C1953171
:100F500011F497E0F2C19B3109F4EAC19C3109F424
:100F6000DDC1943409F4D0C19D3409F4E3C19A324F
:100F700009F4CCC1913209F4CBC1923209F4A6C173
:100F80009A3109F4B1C1933309F4CCC19B3341F5D3
:100F90009BC19E3109F49EC19C3209F499C19D32D6
:100FA00009F4A6C1933209F48FC1953309F4A4C1A1
:100FB0009C3309F4A7C1943409F4A6C19D3409F403
:100FC000B9C19A3209F4A2C1913209F4A1C1923295
:100FD00009F492C19A3109F487C19B3309F49EC187
:100FE000923409F497C19B3409F46CC1923309F42B
:100FF00077C1913309F498C19A3309F04AC096C178
:101000009C3209F465C19D3209F472C1963309F42A
:101010006DC19D3309F468C19E3309F463C19634F0
:1010200009F458C1953409F028C14CC19E3109F426
:1010300045C19C3209F45CC19D3209F479C19B31F0
:1010400009F46EC1953309F465C19C3309F448C1B4
:10105000943409F449C19D3409F46CC19A3209F4FD
:1010600055C1913209F454C19A3109F44DC19B33F1
:1010700009F458C1923409F451C19B3409F424C1D4
:10108000923309F43FC1913309F438C19A3309F41A
:101090004BC1963309F451C19D3309F44EC19E33BF
:1010A00009F44BC1963409F04CC047C19C3209F495
:1010B0000FC19D3209F41CC1943309F41BC19B324A
:1010C00009F41AC1933209F4FFC09B3109F4FEC040
:1010D000963309F40BC19D3309F406C19E3309F41C
:1010E00001C1963409F4F6C0953309F4E7C09C3386
:1010F00009F408C1943409F407C19D3409F4F0C01F
:101100009A3209F403C1913209F402C1923209F40E
:10111000D9C09A3109F4FEC0933309F4FDC09B3362
:1011200009F4FCC0923409F4FBC09B3409F4FAC002
:10113000923309F4D3C0913309F4F6C09A3309F419
:10114000F5C0953409F0BCC0F8C09E3109F4BEC0AA
:101150009C3209F4EDC09D3209F4D0C0943309F4F7
:10116000B3C09B3209F4C0C09C3109F4CDC09D339B
:1011700009F4D4C0953409F4CBC0943409F4B8C050
:101180009D3409F4D7C09A3209F4B0C0913209F401
:1011900099C0923209F492C09A3109F499C09333FC
:1011A00071F5AAC09E3109F48FC09C3209F4C0C009
:1011B0009D3209F4A3C09B3209F492C0933209F422
:1011C0008BC09D3309F4AAC0953409F4A1C09533AE
:1011D00009F492C0943409F48BC09D3409F4AAC078
:1011E0009A3209F483C0913209F46CC0923209F446
:1011F0007BC09A3109F46CC0933309F45FC09B3310
:1012000009F484C0923409F47DC09B3409F462C0AF
:10121000923309F46FC0913309F486C09A3309F40C
:1012200085C0963309F489C09E3309F486C096348C
:1012300009F046C082C0953409F444C0963409F4DC
:1012400049C09E3309F44EC09D3309F44DC0963316
:1012500009F44CC09C32E1F19D3209F449C0943349
:1012600009F448C09B3209F447C0933209F446C0E0
:101270009B3161F19C3109F443C09533F9F09C3303
:1012800009F440C0943409F43FC09D3449F19A32C6
:10129000E9F19132E9F19A31E9F19333E9F19B33C4
:1012A000E9F19234E9F19B34E9F19233B9F09133E9
:1012B000D9F19A33D9F19E3119F43FC094ED3DC074
:1012C00090E03BC09EE439C09DED37C09DE535C040
:1012D00099E433C095E431C09EE82FC09EE32DC051
:1012E00092E52BC096E429C092ED27C09DE325C06E
:1012F00091E423C09BE521C094E51FC091EE1DC081
:101300009EE01BC09BED19C09CEC17C09AEC15C069
:101310009AE413C09CE411C096E30FC09EEC0DC08C
:1013200095E50BC095ED09C091EC07C099EC05C09F
:1013300091E603C09EE101C097E8892F0895EF92DE
:10134000FF921F93CF93DF937A011092D8021092ED
:10135000D7021092DA0290E0EC01CC0FDD1FCC0F27
:10136000DD1FC80FD91FC60FD11DFE01E95AFE4F60
:101370008081BA010E944106182F882351F18CE028
:10138000E816F10471F48091BB02813051F4FE0142
:10139000E950FE4F1081C15EDD4F8881882329F41A
:1013A00013C017FF02C010580FC08091BB028230DB
:1013B00029F489E50E94770189E504C086E30E944B
:1013C000770186E38093DA02812F0E9477011093E0
:1013D000D902DF91CF911F91FF90EF900895EF9286
:1013E000FF920F931F93CF93DF937A011092D9024C
:1013F00090E0EC01CC0FDD1FCC0FDD1FC80FD91F13
:10140000C60FD11DFE01E95AFE4F8081BA010E942C
:101410004106182F882389F18CE0E816F10461F465
:101420008091BB02813041F4FE01E950FE4F1081F2
:10143000C15EDD4F088106C017FD02C001E002C099
:10144000105800E08091BB02823029F480EF0E94A6
:101450007701812F02C0812F80580E9477010023DD
:1014600061F08091BB02823029F480EF0E94770105
:1014700089E501C086EB0E947701DF91CF911F9132
:101480000F91FF90EF900895FF920F931F93F82E06
:10149000062F142F1092D8021092D7021092DA025F
:1014A0008091BB02442371F5823029F489E50E94C2
:1014B000770189E504C086E30E94770186E3809383
:1014C000DA028091BB02602F70E02F2D30E0823075
:1014D00061F4F901EE0FFF1FEE0FFF1FE20FF31F84
:1014E000E60FF71FE95AFE4F0BC0F901EE0FFF1F81
:1014F000EE0FFF1FE20FF31FE60FF71FE955FE4F38
:10150000108122C0823071F44B3631F0443721F023
:10151000453711F0423731F480EE0E94770180EEBA
:101520008093DA028091BB02813071F41B3431F078
:101530001D3421F0183411F0103531F480EE0E9482
:10154000770180EE8093DA02812F0E947701109359
:10155000D9021F910F91FF9008950F931F93CF937E
:10156000DF93142F1092D9029091BB02442369F5A6
:10157000062F10E0C82FD0E09230B1F480EF0E9427
:101580007701FE01EE0FFF1FEE0FFF1FEC0FFD1F97
:10159000E00FF11FE95AFE4F80810E94770180EF32
:1015A0000E94770189E538C0FE01EE0FFF1FEE0FA4
:1015B000FF1FEC0FFD1FE00FF11FE955FE4F80816B
:1015C00080580E94770186EB27C0923059F44B3641
:1015D00031F0443721F0453711F0423719F480EEED
:1015E0000E9477018091BB02813059F41B3431F0A5
:1015F0001D3421F0183411F0103519F480EE0E94DA
:1016000077018091BB02823029F480EF0E9477013C
:10161000812F02C0812F80580E947701DF91CF91E6
:101620001F910F910895EF92FF921F93CF93DF9335
:101630008091DB029091DC02892B91F480EF0E9473
:1016400077018091BC020E9477011092070380EF1E
:101650000E9477018091BD020E94770110921803C9
:101660008091BB02823009F0D6C084EF91E020E97E
:1016700031E0F9013197F1F70197D9F789E20E943A
:10168000770184EF91E020E931E0F9013197F1F73A
:101690000197D9F780EF0E94770189E20E947701D4
:1016A00084EF91E020E931E0F9013197F1F70197FA
:1016B000D9F789E40E94770184EF91E020E931E0D5
:1016C000F9013197F1F70197D9F780EF0E9477017F
:1016D00089E40E9477018091C702813061F08130F6
:1016E00088F0823009F097C0C1E5D1E040E9E42EEE
:1016F00041E0F42E8DC0C5E4D1E030E9E32E31E0C5
:10170000F32E5BC0C6E3D1E020E9E22E21E0F22E09
:1017100029C0F7013197F1F70197D9F71881812F87
:101720000E94770184EF91E0F7013197F1F701977B
:10173000D9F780EF0E947701812F0E94770184EF13
:1017400091E0F7013197F1F70197D9F786E090E042
:101750006091C7020E940715219681E0C534D80721
:1017600009F459C084EF91E0D4CFF7013197F1F734
:101770000197D9F71881812F0E94770184EF91E0BA
:10178000F7013197F1F70197D9F780EF0E947701C0
:10179000812F0E94770184EF91E0F7013197F1F7F3
:1017A0000197D9F786E090E06091C7020E94071583
:1017B000219681E0C135D80771F184EF91E0D5CF52
:1017C000F7013197F1F70197D9F71881812F0E941E
:1017D000770184EF91E0F7013197F1F70197D9F79D
:1017E00080EF0E947701812F0E94770184EF91E0C2
:1017F000F7013197F1F70197D9F786E090E0609112
:10180000C7020E940715219681E0C735D80719F055
:1018100084EF91E0D5CF81E08093C9028093CA0222
:10182000DF91CF911F91FF90EF900895FF920F935A
:101830001F93CF93DF938091DB029091DC02892B81
:1018400091F480EF0E9477018091BC020E947701A1
:101850001092070380EF0E9477018091BD020E94E1
:1018600077011092180385E090E06091DB020E94FE
:1018700007158091BB02823009F060C084EF91E0CF
:1018800020E931E0F9013197F1F70197D9F789E2C1
:101890000E94770184EF91E020E931E0F90131976E
:1018A000F1F70197D9F780EF0E94770189E20E9452
:1018B000770184EF91E020E931E0F9013197F1F708
:1018C0000197D9F789E40E94770184EF91E020E93C
:1018D00031E0F9013197F1F70197D9F780EF0E94D4
:1018E000770189E40E947701CCE2D1E000E911E0C0
:1018F00022C0F8013197F1F70197D9F7F8808F2DC1
:101900000E94770184EF91E0F8013197F1F7019798
:10191000D9F780EF0E9477018F2D0E94770184EF25
:1019200091E0F8013197F1F70197D9F7219681E01D
:10193000C633D80719F084EF91E0DBCF81E08093C4
:10194000C9028093CA02DF91CF911F910F91FF903E
:1019500008954F925F926F927F928F929F92AF9273
:10196000BF92CF92DF92EF92FF920F931F93CF938C
:10197000DF931092C9021AE0812E11E0912EB2E19C
:10198000AB2EB1E0BB2ECC24DD24AAE16A2EF5E318
:101990007F2EF4018081F501608140E00E946800A3
:1019A000F4018081F501608140E00E94DA00862D1B
:1019B0008A95F1F700E011E0E5E0EE2EE1E0FE2E81
:1019C000E60173E0CC0FDD1F7A95E1F7C152DD4FE0
:1019D000F8018081F70160810E94BB008823C1F07B
:1019E000872D8A95F1F7F8018081F70160810E94C7
:1019F000BB009881882339F090FF02C0926001C03B
:101A0000916098830BC090FF09C09C7F9460F9CFD0
:101A1000888180FF03C08C7F846088830F5F1F4FA5
:101A20000894E11CF11C2196F1E005301F0781F6B6
:101A3000F40181914F01F50161915F0141E00E9444
:101A400068000894C11CD11CF8E0CF16D10409F03D
:101A5000A0CF8091CB02882309F48EC08091DD0253
:101A6000882311F11092DD0244EE52E090E020E074
:101A700030E00FC0808180FD91E03196E417F507DA
:101A8000C9F72F5F3F4FAF01485F5F4F28303105E7
:101A900049F0F90163E0EE0FFF1F6A95E1F7E152AB
:101AA000FD4FE8CF9093DD028091DD02882309F09D
:101AB0005CC08091070382FF0FC0109207038091E2
:101AC000DB029091DC02892B39F480EF0E947701D0
:101AD0008091BC020E9477018091180382FF0FC0A1
:101AE000109218038091DB029091DC02892B39F46B
:101AF00080EF0E9477018091BD020E94770124EE61
:101B0000C22E22E0D22EEE24FF241DC0F8018081D7
:101B100080FF08C0888190E00E94F1049093DC026D
:101B20008093DB020F5F1F4F21960C151D0571F787
:101B30000894E11CF11C88E090E0C80ED91E98E0E2
:101B4000E916F10491F0870193E0000F111F9A95B7
:101B5000E1F701521D4FE701CC0FDD1FCC0FDD1F58
:101B6000CE0DDF1DC95BDD4FD1CF8091CB02882325
:101B700019F081E08093C9028091C902882309F09D
:101B80007DC38091070380FF79C38091180380FF94
:101B900075C38091CA02882309F072C38091DB0269
:101BA0009091DC020C97A9F480910A0380FF08C091
:101BB00090E08091C602882309F491E09093C602D8
:101BC00080ED97E020E931E0F9013197F1F70197D5
:101BD000D9F78091BB02823009F076C2809112035E
:101BE00080FF10C08091DB029091DC02892B51F4C0
:101BF0008091C7028F5F833008F080E08093C70236
:101C00000E94130B8091020380FF12C08091C702D3
:101C1000813031F08091DB029091DC02892B41F020
:101C200081E08093CB028093C9028093DD022D9ADC
:101C30008091DF0280FF11C08091DB029091DC0275
:101C4000892B59F080E060E045E020E000E0EE24E0
:101C5000CC2415E0A12E0E947B058091E00280FF3C
:101C600011C08091DB029091DC02892B59F080E059
:101C700061E046E020E000E0EE24CC24B5E0AB2EAD
:101C80000E947B058091E10280FF11C08091DB0200
:101C90009091DC02892B59F080E062E044E020E082
:101CA00000E0EE24CC24A5E0AA2E0E947B058091C2
:101CB000E20280FF11C08091DB029091DC02892B4F
:101CC00059F080E063E04CE020E000E0EE24CC241A
:101CD000F5E0AF2E0E947B058091E30280FF11C0EA
:101CE0008091DB029091DC02892B59F080E064E066
:101CF00043E020E000E0EE24CC24E5E0AE2E0E949C
:101D00007B058091FB0280FF11C08091DB029091E6
:101D1000DC02892B59F083E064E04BE020E000E036
:101D2000EE24CC2475E0A72E0E947B058091FA0258
:101D300080FF11C08091DB029091DC02892B59F069
:101D400083E063E043E820E000E0EE24CC2455E0AB
:101D5000A52E0E947B058091F90280FF11C0809121
:101D6000DB029091DC02892B59F083E062E04AE0CB
:101D700020E000E0EE24CC2435E0A32E0E947B0579
:101D80008091F80280FF11C08091DB029091DC020B
:101D9000892B59F083E061E041E020E000E0EE248F
:101DA000CC2495E0A92E0E947B058091F70280FF4C
:101DB00011C08091DB029091DC02892B59F083E005
:101DC00060E049E020E000E0EE24CC2415E0A12E04
:101DD0000E947B058091E70280FF11C08091DB02A9
:101DE0009091DC02892B59F081E060E048E720E027
:101DF00000E0EE24CC24B2E3AB2E0E947B05809160
:101E0000E80280FF11C08091DB029091DC02892BF7
:101E100059F081E061E047E020E000E0EE24CC24CE
:101E2000A2E3AA2E0E947B058091F00280FF57C09A
:101E30008091DB029091DC02009709F450C0049776
:101E400009F03BC08AE00E94770184EF91E020E92D
:101E500031E0F9013197F1F70197D9F789E00E9454
:101E6000770184EF91E020E931E0F9013197F1F752
:101E70000197D9F780EF0E94770189E00E947701EE
:101E800080E197E220E931E0F9013197F1F701971C
:101E9000D9F780EF0E9477018AE00E94770184EFF2
:101EA00091E020E931E0F9013197F1F70197D9F795
:101EB00081E08093C9028093CA028091DB029091F5
:101EC000DC02039761F482E061E047E020E000E09B
:101ED000EE24E394CC24F5E0AF2E0E947B058091A4
:101EE000EF0280FF15C08091C702813031F08091F0
:101EF000DB029091DC02892B59F082E060E049E03E
:101F000020E000E0EE24CC24E5E0AE2E0E947B052C
:101F10008091030380FF17C08091C702823031F4A3
:101F20008091DB029091DC02892B69F084E064E00F
:101F300043E020E000E0EE24E394CC24C39475E079
:101F4000A72E0E947B0580911B0380FF17C0809104
:101F5000C702823031F48091DB029091DC02892B40
:101F600069F087E064E046E620E000E0EE24E394D8
:101F7000CC24C39455E0A52E0E947B0580911A03C2
:101F800080FF17C08091C702823031F48091DB025C
:101F90009091DC02892B69F087E063E041E720E063
:101FA00000E0EE24E394CC24C39435E0A32E0E94F9
:101FB0007B058091F30280FF15C08091C7028230BB
:101FC00031F48091DB029091DC02892B59F082E0A0
:101FD00064E04EE720E000E0EE24CC2495E0A92E5A
:101FE0000E947B0580910B0380FF0CC08091C7028B
:101FF000813031F08091DB029091DC02892B11F06D
:102000000E9469038091090380FF0CC08091C70280
:10201000813031F08091DB029091DC02892B11F04C
:102020000E94160C8091E90280FF11C08091DB02B2
:102030009091DC02892B59F081E062E04DE721E0CC
:1020400000E0EE24CC2415E0A12E0E947B058091B7
:10205000EA0280FF11C08091DB029091DC02892BA3
:1020600059F081E063E04AE721E000E0EE24CC246F
:10207000B5E0AB2E0E947B058091F10280FF11C07C
:102080008091DB029091DC02892B59F082E062E0C2
:102090004DE721E001E0EE24CC24A5E0AA2E0E9429
:1020A0007B058091F20280FFEBC08091DB02909172
:1020B000DC02892B09F4E4C082E063E04AE721E016
:1020C00001E0EE24CC24D5C0813009F0D9C0809144
:1020D000DF0280FF0BC080E060E04BE320E000E027
:1020E000EE24CC24F5E0AF2E0E947B058091E00227
:1020F00080FF0BC080E061E04CE320E000E0EE24D4
:10210000CC24E5E0AE2E0E947B058091E10280FFA9
:102110000BC080E062E04DE320E000E0EE24CC2440
:1021200075E0A72E0E947B058091E20280FF0BC024
:1021300080E063E04EE320E000E0EE24CC2455E0B4
:10214000A52E0E947B058091E30280FF0BC080E0FA
:1021500064E04FE320E000E0EE24CC2435E0A32E41
:102160000E947B058091FB0280FF0BC083E064E04E
:1021700040E420E000E0EE24CC2495E0A92E0E946B
:102180007B058091FA0280FF0BC083E063E041E4AD
:1021900020E000E0EE24CC2415E0A12E0E947B0577
:1021A0008091F90280FF0BC083E062E042E420E00E
:1021B00000E0EE24CC24B5E0AB2E0E947B0580919C
:1021C000F80280FF0BC083E061E043E420E000E020
:1021D000EE24CC24A5E0AA2E0E947B058091F70274
:1021E00080FF0BC083E060E044E420E000E0EE24E8
:1021F000CC24F5E0AF2E0E947B058091E70280FFA2
:102200000BC081E060E047E520E000E0EE24CC2454
:10221000E5E0AE2E0E947B058091E80280FF0BC0B6
:1022200081E061E048E520E000E0EE24CC2475E0A8
:10223000A72E0E947B0580911B0380FF0DC087E0C5
:1022400064E04EE020E000E0EE24E394CC24C3946C
:1022500055E0A52E0E947B0580911A0380FF10C0D7
:1022600087E063E043E520E000E0EE24E394CC2443
:10227000C39435E0A32E0E947B0502C01092CA02CF
:102280008091C902882309F071C28091DB0290918C
:10229000DC02892B09F095C08091070380FF10C0F4
:1022A00081FD0EC08091BC020E94770180910703DE
:1022B0008260809307038091C8028F5F8093C80279
:1022C0008091180380FF10C081FD0EC08091BD0277
:1022D0000E94770180911803826080931803809197
:1022E000C8028F5F8093C8028091070382FF0EC0EF
:1022F00080EF0E9477018091BC020E9477011092CA
:1023000007038091C8028F5F8093C80280911803F1
:1023100082FF0EC080EF0E9477018091BD020E9473
:102320007701109218038091C8028F5F8093C802D2
:102330008091C802882329F08AE18A95F1F71092EA
:10234000C80224EEC22E22E0D22EEE24FF2427C0A3
:10235000F801808180FF05C081FD03C088810E9453
:102360007701F801808182FF08C080EF0E94770129
:1023700088810E947701F80110820F5F1F4F21961C
:102380000C151D0529F70894E11CF11C88E090E06C
:10239000C80ED91E98E0E916F10409F4E7C18701D7
:1023A00093E0000F111F9A95E1F701521D4FE701CD
:1023B000CC0FDD1FCC0FDD1FCE0DDF1DC95ADE4F48
:1023C000C7CF8091CF028823E9F58091CC02882382
:1023D000C9F58091CD028823A9F58091070380FF7C
:1023E00002C081FF21C08091180380FF35C081FFAA
:1023F0001BC032C0453019F4992351F004C0473056
:1024000011F4913029F0808180FF02C051E004C0B6
:102410009F5F3196953071F72F5F3F4F2830310520
:1024200031F45093CF0218C050E020E030E0F901C1
:10243000B3E0EE0FFF1FBA95E1F7E152FD4F90E0D8
:10244000422FD8CF8091070380FD06C080911803EA
:1024500080FD02C01092CF0200E0EE24FF245CC198
:10246000E5E0CE1621F4DD2009F43DC107C0F7E018
:10247000CF1621F481E0D81609F435C1988190FF78
:10248000A2C091FDA0C08091CF02882369F4809101
:10249000070380FF02C0986098838091180380FF33
:1024A00003C0888180618883888183FF0EC084FD9A
:1024B0000CC08091BB02823011F4F20101C0F30123
:1024C00040818C2D6D2D0E94440A888184FF0AC0B2
:1024D00083FD08C04091DB025091DC028C2D6D2DF4
:1024E0000E949F09888183FD6BC084FD69C0809133
:1024F000C6029091BB02882309F450C01092D80202
:102500001092D7021092DA029230E9F4F4010081BD
:10251000043411F40BE614C00D3411F404E710C0B8
:10252000053111F405E70CC00C3111F402E708C0C5
:102530000B3631F0043721F0053711F0023719F46A
:1025400080EE8093DA028091BB028130E9F4F501DC
:102550000081083111F40BE414C0093111F40DE4C9
:1025600010C0003111F408E40CC00E3111F400E584
:1025700008C00B3431F00D3421F0083411F000356F
:1025800019F480EE8093DA020093D9028091DA0286
:10259000882391F080EE0E9477010EC01092D8023D
:1025A0001092D702923011F4F40101C0F50180813C
:1025B0008093D9021092DA028091D9020E947701A9
:1025C000888182608883888182FF8DC083FF0EC0EE
:1025D00084FD0CC08091BB02823011F4F20101C075
:1025E000F30140818C2D6D2D0E94AD0A888184FFFE
:1025F0000AC083FD08C04091DB025091DC028C2DA3
:102600006D2D0E94EF09888183FD6CC084FD6AC036
:102610008091C6029091BB02882309F44DC01092AC
:10262000D902923019F5F4010081043411F40BE65B
:1026300014C00D3411F404E710C0053111F405E79E
:102640000CC00C3111F402E708C00B3631F004372E
:1026500021F0053711F0023719F480EE0E9477015E
:1026600080EF0E947701802F0E9477018091BB024A
:102670008130C1F5F5010081083111F40BE414C07B
:10268000093111F40DE410C0003111F408E40CC05C
:102690000E3111F400E508C00B3431F00D3421F097
:1026A000083411F0003519F480EE0E947701802F74
:1026B00080580E94770116C0923039F480EF0E9452
:1026C0007701F4011081812F04C0F5011081812F61
:1026D00080580E9477018091D902811709F480E027
:1026E0008093D9021882D39421960894811C911C5E
:1026F0000894A11CB11C0894411C511C0894611C35
:10270000711CF5E0DF1609F0ABCE0894E11CF11C5A
:1027100088E0E816F10451F1CE2CE701A3E0CC0FDC
:10272000DD1FAA95E1F7C152DD4FC701880F991F40
:10273000880F991F8E0D9F1DE7E58E2EE1E09E2EDE
:10274000880E991E77EAA72E71E0B72EA80EB91E43
:102750006FE7462E61E0562E480E591E5FEC652E3F
:1027600051E0752E680E791EDD247ACEDF91CF916F
:102770001F910F91FF90EF90DF90CF90BF90AF909F
:102780009F908F907F906F905F904F900895DF9211
:10279000EF92FF920F931F93DF93CF9300D000D05F
:1027A0000F92CDB7DEB780E8809361001092610090
:1027B0000E9447010E945C048E010F5F1F4FC801F9
:1027C00060E070E045E050E00E94E51441E020E068
:1027D00030E0B801FB01E20FF31FD901A154BD4F56
:1027E00090818C91981340E02F5F3F4F2530310549
:1027F00089F74423A9F085E090E00E94F51490E069
:102800000E948D049093DC028093DB0286E090E0CE
:102810000E94F514833008F080E08093C7020DC059
:102820008FEB92E060E070E045E050E00E94FD1424
:1028300085E090E060E00E94071580EAE82E86E8D7
:10284000F82E81E0082F112DDD24D3940E9452012F
:10285000882309F46AC08091DB029091DC020C9716
:1028600009F063C08091D002882309F056C080919E
:10287000D1029091D202A091D302B091D4020097DC
:10288000A105B10509F049C050C08091CE028093E6
:10289000DE028EEC92E00E946E02892BF1F5E0924E
:1028A000D102F092D2020093D3021093D40280910D
:1028B000CE028E3E29F40E947701D092D00203C04E
:1028C0008AEF0E9477019091CE02923099F0933076
:1028D00028F4992341F0913001F50CC0923F89F022
:1028E0009F3FD9F415C08091DE02803FB1F4809102
:1028F000BB020BC08091DE02803F79F49093BB0253
:102900000CC08BEA0E94770183E80E94770105C022
:102910008AEA0E9477011092D00288EE93E00E942A
:102920005C01882309F0B1CF91CF8091D1029091C1
:10293000D202A091D302B091D4020097A105B105B3
:1029400059F00197A109B1098093D1029093D20265
:10295000A093D302B093D4028091DB029091DC0269
:102960000C9781F58091D902882361F18091D7027B
:102970009091D80201969093D8028093D702019744
:10298000895E934020F48091BB028230D9F480911B
:10299000D5029091D60201969093D6028093D502EB
:1029A00001978739910570F08091DA02882311F040
:1029B0000E9477018091D9020E9477011092D6027D
:1029C0001092D5020E94A90C41CFDC01CB01FC0181
:1029D000F999FECF06C0F2BDE1BDF89A319600B478
:1029E0000D9241505040B8F70895F999FECF92BD2D
:1029F00081BDF89A992780B50895DC01CB0103C009
:102A00002D910E94081541505040D0F70895262F6F
:102A1000F999FECF1FBA92BD81BD20BD0FB6F894C3
:0E2A2000FA9AF99A0FBE01960895F894FFCF26
:102A2E000100040302030302020202030405060767
:102A3E000001040404040404020200010101020066
:102A4E00010745161E26252E363D3E46212B342BDC
:102A5E004B1C1B3324231A224D1C2D2C431C4B21A3
:102A6E00443A32441B1A222B3C4B4B21443A3244FB
:102A7E001B1A224D3C2D24161E26252E151D242DE7
:102A8E002C1C1B232B3445463E3D364D44433C35D2
:102A9E00001A22212A5A4B423B3329003A31320680
:102AAE005800006B000000000000000000006600EF
:102ABE00747572000000000000000000000D0000A0
:102ACE000000760000000002030405061011121328
:102ADE00141E1F2021220B0A090807191817161594
:102AEE00002C2D2E2F1C2625242339003231303C6C
:102AFE003A00004B000000000000000000000E0035
:102B0E004D0050000000000000000000000F00000B
:102B1E00000001000000000203040506000000335F
:102B2E0034292B2B1A1B0C0B0A2808281B001B1AE6
:102B3E000027003535000D0D0C0700003433090158
:102B4E00010101010000000101010100010101016B
:102B5E000100010100000000000100010000000161
:102B6E00000100000000010102030405FFFFFFFF4A
:102B7E00FF09FFFFFFFF000C080706FFFFFFFFFF27
:102B8E00FFFFFF0BFFFFFFFFFFFFFFFFFFFF0A022D
:102B9E001A220103214D2104033A1B22040321367C
:102BAE002504051C2C1C2D43040332322104051C64
:102BBE0021442D3104032A43210404442D432104CE
:102BCE00031B1C3A04073B3C4D432C242D04051CCF
:102BDE004D4D4B2404044D21222C04021214015A93
:042BEE0058554E4F99
:00000001FF
