:100000000C9434000C9451000C9451000C94510049
:100010000C9451000C9451000C9451000C9451001C
:100020000C9451000C9451000C9451000C9451000C
:100030000C9451000C9451000C9451000C945100FC
:100040000C9451000C9451000C9451000C945100EC
:100050000C9451000C9451000C9451000C945100DC
:100060000C9451000C94510011241FBECFEFD8E026
:10007000DEBFCDBF12E0A0E0B1E0E8E7F5E302C0EB
:1000800005900D92A43DB107D9F713E0A4EDB2E0BD
:1000900001C01D92A733B107E1F70E9467190C94C4
:1000A000BA1A0C9400002D9A88E592E020E931E01C
:1000B000F9013197F1F70197D9F72D988CE291E08A
:1000C00020E931E0F9013197F1F70197D9F7089567
:1000D000382F6330F1F06430A9F1623009F04AC082
:1000E000442361F024B181E090E002C0880F991FA1
:1000F0003A95E2F78095822384B9089524B181E08E
:1001000090E002C0880F991F3A95E2F7282B24B996
:100110000895442361F027B181E090E002C0880F88
:10012000991F3A95E2F78095822387B9089527B100
:1001300081E090E002C0880F991F3A95E2F7282BE2
:1001400027B90895442361F02AB181E090E002C00C
:10015000880F991F3A95E2F7809582238AB908950E
:100160002AB181E090E002C0880F991F3A95E2F72A
:10017000282B2AB90895282F633041F0643081F08C
:10018000623011F080E0089583B101C086B190E043
:1001900002C0959587952A95E2F78095817008951C
:1001A00089B190E002C0959587952A95E2F78095F0
:1001B00081700895382F6330F1F06430A9F1623016
:1001C00009F04AC0442361F425B181E090E002C007
:1001D000880F991F3A95E2F78095822385B9089593
:1001E00025B181E090E002C0880F991F3A95E2F7AF
:1001F000282B25B90895442361F428B181E090E0CB
:1002000002C0880F991F3A95E2F78095822388B93A
:10021000089528B181E090E002C0880F991F3A95B7
:10022000E2F7282B28B90895442361F42BB181E02B
:1002300090E002C0880F991F3A95E2F780958223DB
:100240008BB908952BB181E090E002C0880F991F0F
:100250003A95E2F7282B2BB90895382F662361F0E1
:1002600027B181E090E002C0880F991F3A95E2F72C
:100270008095822387B9089527B181E090E002C07C
:10028000880F991F3A95E2F7282B27B908954498CB
:10029000459884E061E00E942D0185E061E00E94C4
:1002A0002D010895359902C081E0089586B18295A7
:1002B0008F7080958170089520E030E05AE109C088
:1002C0002F5F3F4F349902C081E00895452F4A9532
:1002D000F1F728173907A0F380E0089525E104C05D
:1002E000922F9A95F1F784508823D1F70895AF9211
:1002F000BF92CF92DF92EF92FF920F931F93CF9313
:10030000DF935C013499FECF359BFECF8091CD0207
:10031000880F880F25E104C0922F9A95F1F7845039
:100320008823D1F785E060E00E942D018091CD0205
:10033000880F880F880F25E104C0922F9A95F1F756
:1003400084508823D1F785E061E00E942D018091DF
:10035000CD02880F880F25E104C0922F9A95F1F7FE
:1003600084508823D1F7FF2411E0C0E0D0E031E0D1
:10037000C32ED12CEE24E39405E1349B09C0C601C1
:100380000C2E02C0880F991F0A94E2F7F82A1E2546
:100390008091CD02880F880F04C0902F9A95F1F7B5
:1003A00084508823D1F785E060E00E942D01809180
:1003B000CD02880F880F880F04C0902F9A95F1F70F
:1003C00084508823D1F785E061E00E942D0140919F
:1003D000CD02842F880F880F04C0902F9A95F1F7D3
:1003E00084508823D1F72196C830D10509F0C5CFB4
:1003F00086B190E024E0969587952A95E1F7817083
:100400009070212F30E08217930719F02FEF3FEF04
:100410005DC0942F990F990F25E104C0822F8A9512
:10042000F1F794509923D1F785E060E00E942D0107
:100430008091CD02880F880F880F25E104C0922F8C
:100440009A95F1F784508823D1F785E061E00E9406
:100450002D018091CD02880F880F25E104C0922FD5
:100460009A95F1F784508823D1F784E060E00E94E8
:100470002D018091CD02880F880F25E104C0922FB5
:100480009A95F1F784508823D1F785E060E00E94C7
:100490002D018091CD02880F880F880F25E104C0BF
:1004A000922F9A95F1F784508823D1F785E061E087
:1004B0000E942D0184E061E00E942D0180E991E01D
:1004C0000197F1F7F501F08220E030E0C901DF91FA
:1004D000CF911F910F91FF90EF90DF90CF90BF9041
:1004E000AF9008950F931F93CF93DF93259A2D9884
:1004F000C0E0D1E005E011E08881F801608141E0D1
:100500000E9468008991F80161918F0141E00E9489
:10051000DA00F1E0C530DF0779F7C0E0D0E0FE0196
:10052000E65FFE4FDE01AE5EBE4F80816C9141E022
:100530000E9468002196C830D10589F7DF91CF91DC
:100540001F910F9108959C011092D6021092D7022C
:10055000009721F481E08093CD0215C08130910590
:1005600021F484E08093CD0215C08230910521F4FE
:1005700084E08093CD0215C08330910521F484E09E
:100580008093CD0215C02430310521F484E080939E
:10059000CD0215C02530310521F484E08093CD02D1
:1005A00015C02630310521F484E08093CD0215C0BA
:1005B0002730310521F484E08093CD0215C0283026
:1005C000310521F484E08093CD0215C02930310536
:1005D00021F484E08093CD0211C02A30310521F44A
:1005E00084E08093CD020DC02B30310521F484E0EE
:1005F0008093CD020DC02C30310531F02D30310506
:1006000019F02E30310521F484E08093CD0214C01E
:100610002F30310589F484E08093CD0281E080930E
:10062000E2021092E3021092E4021092E5021092AC
:10063000E60282E08093CA02C9010895982F8432AD
:1006400051F08D3141F0853131F0833421F0893220
:1006500011F08A3509F490E06F30710529F480912A
:10066000CA02813009F446C3963109F443C3963275
:1006700009F440C3953209F43DC39E3209F43AC3EC
:10068000992309F437C36730710509F496C16830BE
:100690007105C0F46330710509F4C0C064307105A0
:1006A00040F46130710559F16230710509F0E5C21D
:1006B00066C06530710509F41BC16630710508F02C
:1006C00045C1DBC06A30710509F41CC26B3071058D
:1006D00048F46830710509F486C16930710509F084
:1006E000CCC2C1C16D30710509F498C06F3071057D
:1006F00009F47EC26B30710509F0BFC230C29E3171
:1007000009F4B9C29C3209F4C0C29D3209F4CDC2C9
:10071000943309F4B8C29B3209F4C9C2933209F484
:10072000CAC29B3109F4C5C29C3109F4DEC29533BB
:1007300009F4C5C29C3309F4A4C2943409F4B1C2CB
:100740009D3409F4D4C29A3209F4BDC2913209F43D
:10075000BCC2923209F4C1C29A3109F4B2C29333D5
:1007600009F4BDC29B3309F4B6C2923409F495C2B0
:100770009B3409F484C2923309F018C1A8C29E3197
:1007800009F48BC29C3209F480C29D3209F48DC2F7
:10079000943309F48EC29B3209F47BC2933209F47C
:1007A00070C29B3109F46FC29C3109F480C2963348
:1007B00009F477C29D3309F48AC29E3309F467C2F3
:1007C000953409F48CC2953309F491C29C3309F431
:1007D00052C2943409F475C29D3409F45CC29A3251
:1007E00009F471C2913209F470C29A3109F475C2E8
:1007F000933309F458C29B3309F46DC2923409F45F
:100800005CC29B3409F465C2923309F448C2913347
:1008100009F467C29A3309F030C265C29E3109F407
:100820002AC29C3209F441C29D3209F45EC29B3156
:1008300009F425C2953309F44AC29C3309F42DC248
:10084000943409F42EC29D3409F451C29A3209F449
:100850003AC2913209F439C29A3109F432C293335F
:1008600009F40FC29B3309F436C2923411F499E8AB
:1008700041C29B3409F0E1C032C29E3109F40BC27F
:100880009C3209F42CC29D3209F425C29D3109F431
:1008900030C2953111F498EF2DC2933209F4FDC1A5
:1008A0009B3109F404C2953309F4FFC19C3309F468
:1008B000ECC1943409F405C29D3409F418C29A328B
:1008C00009F401C2913209F400C29A3109F4FFC15E
:1008D000933309F4D8C19B3309F4CDC1923409F4A0
:1008E000E0C19B3409F4EBC1923309F05FC0C9C188
:1008F0009E3109F4CEC19C3209F4C7C19D3209F47E
:10090000D4C19D3109F4F5C1953111F497E0F2C1DC
:100910009B3109F4EAC19C3109F4DDC1943409F436
:10092000D0C19D3409F4E3C19A3209F4CCC19132AB
:1009300009F4CBC1923209F4A6C19A3109F4B1C1CC
:10094000933309F4CCC19B3341F59BC19E3109F42B
:100950009EC19C3209F499C19D3209F4A6C193321B
:1009600009F48FC1953309F4A4C19C3309F4A7C1DC
:10097000943409F4A6C19D3409F4B9C19A3209F43A
:10098000A2C1913209F4A1C1923209F492C19A3103
:1009900009F487C19B3309F49EC1923409F497C1CD
:1009A0009B3409F46CC1923309F477C1913309F493
:1009B00098C19A3309F04AC096C19C3209F465C1C6
:1009C0009D3209F472C1963309F46DC19D3309F467
:1009D00068C19E3309F463C1963409F458C1953453
:1009E00009F028C14CC19E3109F445C19C3209F47B
:1009F0005CC19D3209F479C19B3109F46EC1953314
:100A000009F465C19C3309F448C1943409F449C11F
:100A10009D3409F46CC19A3209F455C1913209F43C
:100A200054C19A3109F44DC19B3309F458C1923431
:100A300009F451C19B3409F424C1923309F43FC134
:100A4000913309F438C19A3309F44BC1963309F450
:100A500051C19D3309F44EC19E3309F44BC1963404
:100A600009F04CC047C19C3209F40FC19D3209F412
:100A70001CC1943309F41BC19B3209F41AC193328F
:100A800009F4FFC09B3109F4FEC0963309F40BC191
:100A90009D3309F406C19E3309F401C1963409F46B
:100AA000F6C0953309F4E7C09C3309F408C19434C7
:100AB00009F407C19D3409F4F0C09A3209F403C166
:100AC000913209F402C1923209F4D9C09A3109F481
:100AD000FEC0933309F4FDC09B3309F4FCC092348B
:100AE00009F4FBC09B3409F4FAC0923309F4D3C073
:100AF000913309F4F6C09A3309F4F5C0953409F03E
:100B0000BCC0F8C09E3109F4BEC09C3209F4EDC0EF
:100B10009D3209F4D0C0943309F4B3C09B3209F478
:100B2000C0C09C3109F4CDC09D3309F4D4C09534C4
:100B300009F4CBC0943409F4B8C09D3409F4D7C08B
:100B40009A3209F4B0C0913209F499C0923209F492
:100B500092C09A3109F499C0933371F5AAC09E31BD
:100B600009F48FC09C3209F4C0C09D3209F4A3C0BF
:100B70009B3209F492C0933209F48BC09D3309F47F
:100B8000AAC0953409F4A1C0953309F492C09434F5
:100B900009F48BC09D3409F4AAC09A3209F483C0C9
:100BA000913209F46CC0923209F47BC09A3109F495
:100BB0006CC0933309F45FC09B3309F484C0923452
:100BC00009F47DC09B3409F462C0923309F46FC00C
:100BD000913309F486C09A3309F485C0963309F439
:100BE00089C09E3309F486C0963409F046C082C09D
:100BF000953409F444C0963409F449C09E3309F48D
:100C00004EC09D3309F44DC0963309F44CC09C325C
:100C1000E1F19D3209F449C0943309F448C09B3294
:100C200009F447C0933209F446C09B3161F19C310D
:100C300009F443C09533F9F09C3309F440C094346F
:100C400009F43FC09D3449F19A32E9F19132E9F15A
:100C50009A31E9F19333E9F19B33E9F19234E9F107
:100C60009B34E9F19233B9F09133D9F19A33D9F148
:100C70009E3119F43FC094ED3DC090E03BC09EE42E
:100C800039C09DED37C09DE535C099E433C095E48A
:100C900031C09EE82FC09EE32DC092E52BC096E4A4
:100CA00029C092ED27C09DE325C091E423C09BE5B8
:100CB00021C094E51FC091EE1DC09EE01BC09BEDBE
:100CC00019C09CEC17C09AEC15C09AE413C09CE4C0
:100CD00011C096E30FC09EEC0DC095E50BC095EDDD
:100CE00009C091EC07C099EC05C091E603C09EE1F4
:100CF00001C097E8892F0895EF92FF920F931F93F9
:100D0000162FF42EE22E882329F18091ED028130F6
:100D100019F08230F9F40EC08091CA02823011F4C9
:100D200084E101C08DE160E00E946B0782E0809366
:100D3000ED0210C08091CA02823031F480EF60E091
:100D40000E946B0784E101C08DE960E00E946B079F
:100D50001092ED02112329F18091EE02813019F0F9
:100D60008230F9F40EC08091CA02823011F481E120
:100D700001C088E360E00E946B0782E08093EE028E
:100D800010C08091CA02823031F480EF60E00E948E
:100D90006B0781E101C088EB60E00E946B07109255
:100DA000EE02FF2029F18091EF02813019F08230AC
:100DB000F9F40EC08091CA02823011F482E101C0C0
:100DC0008AE260E00E946B0782E08093EF0210C02D
:100DD0008091CA02823031F480EF60E00E946B079C
:100DE00082E101C08AEA60E00E946B071092EF0284
:100DF000EE20A9F18091F102813019F0823079F56D
:100E000016C08091CA02823031F480EE60E00E9408
:100E10006B0781E105C080EE60E00E946B0788E30C
:100E200060E00E946B0782E08093F10218C080911D
:100E3000CA02823051F480EE60E00E946B0780EFBE
:100E400060E00E946B0781E105C080EE60E00E94D7
:100E50006B0788EB60E00E946B071092F1020023A1
:100E6000A9F18091F002813019F0823079F516C035
:100E70008091CA02823031F480EE60E00E946B07FC
:100E80008FE105C080EE60E00E946B078BE560E0BB
:100E90000E946B0782E08093F00218C08091CA0222
:100EA000823051F480EE60E00E946B0780EF60E0DA
:100EB0000E946B078FE105C080EE60E00E946B0727
:100EC0008BED60E00E946B071092F0021F910F9172
:100ED000FF90EF900895CF92DF92EF92FF920F93E1
:100EE0001F93CF93DF93082FE62E0E945201882391
:100EF000E1F784E060E00E942D018091CD02880F2F
:100F0000880F25E104C0922F9A95F1F78450882329
:100F1000D1F785E060E00E942D018091CD02880F1D
:100F2000880F880F25E104C0922F9A95F1F784501D
:100F30008823D1F785E061E00E942D018091CD02E8
:100F4000880F880F25E104C0922F9A95F1F78450FD
:100F50008823D1F711E0C0E0D0E0C02EDD2445E1C8
:100F6000F42EC6010C2E02C0959587950A94E2F7DF
:100F700080FF07C084E061E00E942D0181E0182716
:100F800004C084E060E00E942D018091CD02880FB2
:100F9000880F04C09F2D9A95F1F784508823D1F7CC
:100FA00085E060E00E942D018091CD02880F880FBE
:100FB000880F04C09F2D9A95F1F784508823D1F7AC
:100FC00085E061E00E942D018091CD02880F880F9D
:100FD00004C09F2D9A95F1F784508823D1F721966C
:100FE000C830D10509F0BDCF112319F084E061E0CC
:100FF00002C084E060E00E942D018091CD02880F44
:10100000880F25E104C0922F9A95F1F78450882328
:10101000D1F785E060E00E942D018091CD02880F1C
:10102000880F880F25E104C0922F9A95F1F784501C
:101030008823D1F785E061E00E942D018091CD02E7
:10104000880F880F25E104C0922F9A95F1F78450FC
:101050008823D1F784E061E00E942D018091CD02C8
:10106000880F880F25E104C0922F9A95F1F78450DC
:101070008823D1F785E060E00E942D018091CD02A8
:10108000880F880F880F25E104C0922F9A95F1F7F9
:1010900084508823D1F785E061E00E942D01809182
:1010A000CD02880F880F25E104C0922F9A95F1F7A1
:1010B00084508823D1F788EC90E00197F1F7EE2077
:1010C00009F466C08091CA029091ED028230C9F5A0
:1010D000992319F0043109F45BC08091EE02882352
:1010E00019F0013109F454C08091EF02882319F0FE
:1010F000023109F44DC08091F102882319F00131C9
:1011000009F446C08091F002882319F00F3109F4E8
:101110003FC08091F202882361F0003F51F081E0EE
:1011200061E041E021E001E00E947C061092F202C1
:101130002FC01092F202003F59F581E08093F20235
:1011400027C0992311F00D3919F18091EE028823FF
:1011500011F0083BE9F08091EF02882311F00A3A80
:10116000B9F08091F102882311F0083B89F0809159
:10117000F002882311F00B3D59F0003E49F0013890
:1011800038F081E061E041E021E001E00E947C066E
:10119000DF91CF911F910F91FF90EF90DF90CF9053
:1011A000089561E00E946B0708950F931F93CF93FA
:1011B000DF93142F1092EB029091CA02442369F539
:1011C000062F10E0C82FD0E09230B1F480EF0E94DB
:1011D000D108FE01EE0FFF1FEE0FFF1FEC0FFD1FEA
:1011E000E00FF11FE95AFE4F80810E94D10880EF85
:1011F0000E94D10882E138C0FE01EE0FFF1FEE0F02
:10120000FF1FEC0FFD1FE00FF11FE955FE4F80811E
:1012100080580E94D1088AEA27C0923059F44B3690
:1012200031F0443721F0453711F0423719F480EEA0
:101230000E94D1088091CA02813059F41B3431F0E8
:101240001D3421F0183411F0103519F480EE0E948D
:10125000D1088091CA02823029F480EF0E94D1081F
:10126000812F02C0812F80580E94D108DF91CF9139
:101270001F910F910895FF920F931F93F82E062F41
:10128000142F1092EA021092E9021092EC0280915F
:10129000CA02442371F5823029F482E10E94D10808
:1012A00082E104C08AE20E94D1088AE28093EC02C3
:1012B0008091CA02602F70E02F2D30E0823061F4FF
:1012C000F901EE0FFF1FEE0FFF1FE20FF31FE60FF6
:1012D000F71FE95AFE4F0BC0F901EE0FFF1FEE0F8B
:1012E000FF1FE20FF31FE60FF71FE955FE4F1081B6
:1012F00022C0823071F44B3631F0443721F045374B
:1013000011F0423731F480EE0E94D10880EE8093D4
:10131000EC028091CA02813071F41B3431F01D342B
:1013200021F0183411F0103531F480EE0E94D1080C
:1013300080EE8093EC02812F0E94D1081093EB0283
:101340001F910F91FF900895EF92FF920F931F93BB
:10135000CF93DF937A011092EB022091F302309148
:10136000F40290E070E0232B09F444C0EC01CC0FB0
:10137000DD1FCC0FDD1FC80FD91FC60FD71FFE0101
:10138000E95AFE4F8081BA010E941E03182F88235C
:1013900009F448C08FE0E816F10461F48091CA02B4
:1013A000813041F4FE01E950FE4F1081C15EDD4FF6
:1013B000088106C017FD02C001E002C0105800E01D
:1013C0008091CA02823029F480EF0E94D108812FD7
:1013D00002C0812F80580E94D108002319F180910A
:1013E000CA02823029F480EF0E94D10882E118C03D
:1013F0008AEA16C0FC01EE0FFF1FEE0FFF1FE80F79
:10140000F91FE60FF71FE95AFE4F108180EF0E9487
:10141000D108812F0E94D10880EF0E94D10884E179
:101420000E94D108DF91CF911F910F91FF90EF9013
:101430000895EF92FF921F93CF93DF937A0110925A
:10144000EA021092E9021092EC022091F30230912C
:10145000F40290E070E0232BB9F1EC01CC0FDD1F1A
:10146000CC0FDD1FC80FD91FC60FD71FFE01E95AC9
:10147000FE4F8081BA010E941E03182F8823D9F1E4
:101480008FE0E816F10471F48091CA02813051F4C2
:10149000FE01E950FE4F1081C15EDD4F8881882337
:1014A00029F424C017FF02C0105820C08091CA023E
:1014B000823029F482E10E94D10882E115C08AE2DB
:1014C0000E94D1088AE210C0FC01EE0FFF1FEE0F50
:1014D000FF1FE80FF91FE60FF71FE95AFE4F1081B3
:1014E00084E10E94D10884E18093EC02812F0E9464
:1014F000D1081093EB02DF91CF911F91FF90EF90F5
:101500000895CF92DF92EF92FF920F931F93CF93A4
:10151000DF936C018091F3029091F402892BB1F476
:1015200080EF60E00E946B078091CB0260E00E9438
:101530006B0710921F0380EF60E00E946B078091A1
:10154000CC0260E00E946B071092300388EE93E0BB
:1015500020E931E0F9013197F1F70197D9F789E2F4
:101560000E94D10888EE93E020E931E0F90131973B
:10157000F1F70197D9F780EF0E94D10889E20E9424
:10158000D10888EE93E020E931E0F9013197F1F7D5
:101590000197D9F789E40E94D10888EE93E020E909
:1015A00031E0F9013197F1F70197D9F780EF0E9407
:1015B000D10889E40E94D108E60101E010E040E989
:1015C000E42E41E0F42E21C088EE93E0F70131973C
:1015D000F1F70197D9F789810E94D10888EE93E04D
:1015E000F7013197F1F70197D9F780EF0E94D10801
:1015F00089810E94D10888EE93E0F7013197F1F7D5
:101600000197D9F70F5F1F4F2196F6018081E82FD0
:10161000F0E0E017F107C4F6EC0DFD1D8181809329
:10162000CD02DF91CF911F910F91FF90EF90DF904E
:10163000CF9008950F931F93CF93DF93EC01009108
:10164000F3021091F4021092D6021092D702209762
:1016500029F48FE692E00E94810A18C0C130D105BA
:1016600029F483E792E00E94810A18C0C230D105B4
:1016700029F488E792E00E94810A18C0C330D1059E
:1016800029F48DE792E00E94810A18C0C430D10588
:1016900029F48CE892E00E94810A18C0C530D10577
:1016A00029F483E992E00E94810A18C0C630D1056E
:1016B00029F488E992E00E94810A18C0C730D10558
:1016C00029F488EB92E00E94810A18C0C830D10545
:1016D00029F48FE992E00E94810A18C0C930D1052F
:1016E00029F484EA92E00E94810A18C0CA30D10528
:1016F00029F48AEA92E00E94810A18C0CB30D10511
:1017000029F48FEA92E00E94810A18C0CC30D105FA
:1017100029F485EC92E00E94810A26C0CD30D105E3
:1017200029F482E892E00E94810A23C0CE30D105DC
:1017300029F487E892E00E94810A1EC0CF30D105CB
:1017400099F481E08093E2021092E3021092E402A5
:101750001092E5021092E60282E08093CA028FEBBB
:1017600092E00E94810A0BC0C031D10510F0E8015F
:101770006ECFCF30D10519F082E08093CA0281E0AC
:101780008093DA028093DB021092DC02CE01DF91BB
:10179000CF911F910F910895EF92FF921F93CF93D6
:1017A000DF938091F3029091F402892BB1F480EFE2
:1017B00060E00E946B078091CB0260E00E946B07A3
:1017C00010921F0380EF60E00E946B078091CC02B3
:1017D00060E00E946B071092300389E20E94D108FA
:1017E00084EF91E020E931E0F9013197F1F70197B9
:1017F000D9F780EF0E94D10889E20E94D108C0E0A9
:10180000D0E050E9E52E51E0F52EC230D10519F0B7
:10181000C430D105B9F484EF91E0F7013197F1F7C5
:101820000197D9F789E40E94D10884EF91E0F7018C
:101830003197F1F70197D9F780EF0E94D10889E439
:101840000E94D10884EF91E0F7013197F1F70197F9
:10185000D9F7FE01E65EFE4FE081F0E0EE5DFE4F5F
:101860001081812F0E94D10884EF91E0F701319718
:10187000F1F70197D9F780EF0E94D108812F0E94DC
:10188000D10884EF91E0F7013197F1F70197D9F78B
:101890002196C830D10509F0B8CF81E08093DA02F3
:1018A0008093DB02DF91CF911F91FF90EF9008951D
:1018B000FF920F931F93082F162FF42E80EE60E0F7
:1018C0000E946B0782E160E00E946B0780EE60E09F
:1018D0000E946B078CE760E00E946B0788EE93E044
:1018E00020E931E0F9013197F1F70197D9F780EE5E
:1018F00060E00E946B0780EF60E00E946B0782E16E
:1019000060E00E946B0780EE60E00E946B0780EF52
:1019100060E00E946B078CE760E00E946B07002389
:1019200099F081E061E041E021E001E00E947C0665
:10193000E12FF0E063E0EE0FFF1F6A95E1F7EF0D96
:10194000F11DE950FD4F10821F910F91FF900895F6
:10195000EF92FF920F931F93182FF62EE42E81EE35
:1019600060E00E946B0784E160E00E946B0787E7FC
:1019700060E00E946B0781EE60E00E946B0780EFE1
:1019800060E00E946B0784E160E00E946B0780EFDB
:1019900060E00E946B0787E760E00E946B071123FD
:1019A00099F081E061E041E021E001E00E947C06E5
:1019B000EF2DF0E073E0EE0FFF1F7A95E1F7EE0DEB
:1019C000F11DE950FD4F108288EE93E020E931E0EF
:1019D000F9013197F1F70197D9F71F910F91FF9016
:1019E000EF9008957F928F929F92AF92BF92CF9285
:1019F000DF92EF92FF920F931F93DF93CF93CDB7B8
:101A0000DEB7D82E762E142FF22EBE2C9C2C809171
:101A1000D902882329F08AE18A95F1F71092D90238
:101A2000002371F08091CA02823011F482E101C07A
:101A30008AE20E94D1088091D9028F5F8093D902F7
:101A4000BB2071F08091CA02823011F484E101C0A0
:101A50008DE10E94D1088091D9028F5F8093D902D5
:101A6000992071F08091CA02823011F481E101C0A5
:101A700088E30E94D1088091D9028F5F8093D902B8
:101A8000AA20A1F08091CA02823029F480EE0E943F
:101A9000D10881E104C080EE0E94D10888E30E9451
:101AA000D1088091D9028F5F8093D9028820A1F05C
:101AB0008091CA02823029F480EE0E94D1088FE121
:101AC00004C080EE0E94D1088BE50E94D10880916D
:101AD000D9028F5F8093D9028091D902882329F09F
:101AE0008AE18A95F1F71092D902FF2019F080EE71
:101AF0000E94D108812F0E94D10888EE93E020E94E
:101B000031E0F9013197F1F70197D9F7FF2019F08A
:101B100080EE0E94D1088091CA02823019F480EFD1
:101B20000E94D1088091CA02823011F4812F02C034
:101B3000812F80580E94D108ED2CFF24C72CDD2472
:101B4000F701A3E0EE0FFF1FAA95E1F7EC0DFD1DD5
:101B5000E950FD4F1082002361F08091CA0282306B
:101B600029F480EF0E94D10882E101C08AEA0E9434
:101B7000D108BB2061F08091CA02823029F480EF45
:101B80000E94D10884E101C08DE90E94D10899200A
:101B900061F08091CA02823029F480EF0E94D1085E
:101BA00081E101C088EB0E94D108AA2091F08091C8
:101BB000CA02823041F480EE0E94D10880EF0E9478
:101BC000D10881E104C080EE0E94D10888EB0E9418
:101BD000D108882091F08091CA02823041F480EED1
:101BE0000E94D10880EF0E94D10881E104C080EEFC
:101BF0000E94D10888EB0E94D1088AE18A95F1F70A
:101C000081E061E041E021E001E00E947C06E3E048
:101C1000EE0CFF1CEA95E1F7EC0CFD1C87EF92E05F
:101C2000E80EF91EF7011082CF91DF911F910F91FD
:101C3000FF90EF90DF90CF90BF90AF909F908F90EC
:101C40007F900895FF920F931F93CF93DF9380911E
:101C5000F3029091F402892BB1F480EF60E00E94CE
:101C60006B078091CB0260E00E946B0710921F030C
:101C700080EF60E00E946B078091CC0260E00E94E0
:101C80006B071092300385E090E06091F3020E94B0
:101C9000AC1A86E090E06091D8020E94AC1A809164
:101CA000CA02823009F060C084EF91E020E931E09F
:101CB000F9013197F1F70197D9F789E20E94D1082C
:101CC00084EF91E020E931E0F9013197F1F70197D4
:101CD000D9F780EF0E94D10889E20E94D10884EFF1
:101CE00091E020E931E0F9013197F1F70197D9F757
:101CF00089E40E94D10884EF91E020E931E0F90104
:101D00003197F1F70197D9F780EF0E94D10889E464
:101D10000E94D108CCE2D1E000E911E022C0F80134
:101D20003197F1F70197D9F7F8808F2D0E94D108EC
:101D300084EF91E0F8013197F1F70197D9F780EF3F
:101D40000E94D1088F2D0E94D10884EF91E0F80104
:101D50003197F1F70197D9F7219681E0C633D8077B
:101D600019F084EF91E0DBCF81E08093DA02809379
:101D7000DB02DF91CF911F910F91FF9008958F9219
:101D80009F92AF92BF92CF92DF92EF92FF920F930A
:101D90001F931092DD02833309F482C08433B0F4C0
:101DA0008A3209F405C18B3250F4823209F408C139
:101DB000833209F44FC0813209F0AFC120C08133B2
:101DC00009F414C1823309F0A8C1FDC0853309F4B8
:101DD00024C1853308F455C18C3321F0843409F0D3
:101DE0009CC19CC081E08093DC0280ED97E020E9FB
:101DF00031E0F9013197F1F70197D9F793C12091BB
:101E0000F3023091F4022F30310531F022303105E8
:101E100019F02C30310579F41092D70290E08091BE
:101E2000D602882309F491E09093D60281E0809352
:101E3000DA028093DB022430310509F073C110927D
:101E4000D60290E08091D702882309F491E0909324
:101E5000D70263C18091F3029091F402892B09F0BB
:101E600061C190E08091D802882309F491E09093B9
:101E7000D80280EF60E00E946B078091CB0260E0A7
:101E80000E946B0710921F0380EF60E00E946B07B7
:101E90008091CC0260E00E946B07109230033DC13C
:101EA0008091F3029091F402049709F03BC18AE01B
:101EB0000E94D10884EF91E020E931E0F9013197E7
:101EC000F1F70197D9F789E00E94D10884EF91E0FA
:101ED00020E931E0F9013197F1F70197D9F780EF67
:101EE0000E94D10889E00E94D10880E197E220E9B0
:101EF00031E0F9013197F1F70197D9F780EF0E94AE
:101F0000D1088AE00E94D10884EF91E020E931E015
:101F1000F9013197F1F70197D9F7FFC08091F302EA
:101F20009091F4028530910591F500D0EDB7FEB7A0
:101F30009283818384E090E061E070E047E050E0CC
:101F400020E030E000E010E0EE24FF24CC24DD248B
:101F5000AA24BB24882499240E94F20C0F900F908D
:101F600082E10E94D10880E197E220E931E0F901A5
:101F70003197F1F70197D9F780EF0E94D10882E1FC
:101F80000E94D10881E08093DA028093DB02809185
:101F9000F3029091F402029709F0C4C08091CA0242
:101FA000813019F047E050E04EC048E550E04BC0AA
:101FB0008091CA02823009F0B5C00E94CC0BB2C039
:101FC0000E94220EAFC08091CA02813019F046E60D
:101FD00050E002C04EE050E000D085E090E0EDB768
:101FE000FEB79283818387E090E036C08091CA0279
:101FF000813019F041E750E002C043E550E000D0E5
:1020000085E090E0EDB7FEB79283818387E090E0B2
:1020100063E070E021E030E023C08091F302909112
:10202000F4028230910530F08B30910519F00A9757
:1020300009F078C08091CA02813019F043E050E085
:1020400002C04FE350E000D085E090E0EDB7FEB76E
:102050009283818384E090E064E070E020E030E0EF
:1020600000E010E0A1E0EA2EF12CF1E0CF2ED12C1F
:10207000AA24BB24882499240E94F20C0F900F906C
:1020800051C08091F3029091F402009789F084305E
:10209000910571F08530910559F08830910541F036
:1020A0008930910529F08C30910511F00E9731F5AA
:1020B0008091CA02813019F04EE750E002C046E438
:1020C00050E000D085E090E0EDB7FEB792838183C9
:1020D00082E090E064E070E020E030E000E010E0BA
:1020E000E1E0EE2EF12CB1E0CB2ED12CAA24BB24C2
:1020F000882499240E94F20C0F900F908091F30293
:102100009091F402029771F480E090E062E070E058
:1021100044E050E00E94580C05C081E08093DA0250
:102120008093DB021F910F91FF90EF90DF90CF9093
:10213000BF90AF909F908F9008954F925F926F9253
:102140007F928F929F92AF92BF92CF92DF92EF9247
:10215000FF920F931F93CF93DF931092DA027AE1ED
:10216000572E65E3662E772473948091DA028823D4
:1021700009F06AC05AE0852E51E0952E42E1A42E66
:1021800041E0B42ECC24DD24F4018081F50160818E
:1021900040E00E946800F4018081F501608140E028
:1021A0000E94DA00852D8A95F1F700E011E035E014
:1021B000E32E31E0F32EE60123E0CC0FDD1F2A955C
:1021C000E1F7C950DD4FF8018081F70160810E947D
:1021D000BB008823C1F0862D8A95F1F7F801808134
:1021E000F70160810E94BB009881882339F090FF3D
:1021F00002C0926001C0916098830BC090FF09C03B
:102200009C7F9460F9CF888180FF03C08C7F8460BD
:1022100088830F5F1F4F0894E11CF11C2196F1E0A9
:1022200005301F0781F6F40181914F01F50161919D
:102230005F0141E00E9468000894C11CD11CF8E0D5
:10224000CF16D10409F0A0CF8091F502882309F1BF
:102250001092F5024CEF52E020E030E011C0808196
:1022600080FF02C07092F5023196E417F507B9F7C6
:102270002F5F3F4F485F5F4F2830310509F475CF1E
:10228000F90193E0EE0FFF1F9A95E1F7E950FD4F3A
:10229000E6CF8091DD02882329F48091DC02882337
:1022A00009F47DC080911F0382FF11C010921F03AB
:1022B0008091F3029091F402892B49F480EF60E061
:1022C0000E946B078091CB0260E00E946B078091B7
:1022D000300382FF11C0109230038091F30290917D
:1022E000F402892B49F480EF60E00E946B07809133
:1022F000CC0260E00E946B0700E010E037C08091E4
:10230000DD02882399F0F701808180FF0FC0F8017A
:10231000EE0FFF1FEE0FFF1FE00FF11FEC0DFD1D75
:10232000E95AFE4F80810E94BF0E1BC08091DC02E3
:10233000882361F0F701808180FF08C0888190E0E8
:102340000E941A0B9093F4028093F3020894C11C2C
:10235000D11C0894E11CF11C2196F5E0CF16D104A4
:1023600071F60F5F1F4F08301105B1F07801B3E02F
:10237000EE0CFF1CBA95E1F787EF92E0E80EF91E2C
:10238000E801CC0FDD1FCC0FDD1FC00FD11FC95BD3
:10239000DD4FCC24DD24B3CF81E08093DA0280913D
:1023A000DA02882309F0E8C480911F0380FFE4C4A7
:1023B0008091300380FFE0C48091DB02882309F024
:1023C000DDC480910A0380FF07C081E08093DD02B5
:1023D0008093DA028093F5028091200380FF21C070
:1023E0008091F3029091F402892B21F48091D8021C
:1023F0008823B9F08091ED02882309F481E080936D
:10240000ED0281E060E040E020E000E00E947C0618
:1024100080ED97E020E931E0F9013197F1F701977C
:10242000D9F78091210380FF21C08091F302909120
:10243000F402892B21F48091D8028823B9F080918D
:10244000EE02882309F481E08093EE0280E061E0EF
:1024500040E020E000E00E947C0680ED97E020E96B
:1024600031E0F9013197F1F70197D9F7809107032E
:1024700080FF21C08091F3029091F402892B21F416
:102480008091D8028823B9F08091EF02882309F463
:1024900081E08093EF0280E060E041E020E000E036
:1024A0000E947C0680ED97E020E931E0F901319748
:1024B000F1F70197D9F78091080380FF21C080913F
:1024C000F3029091F402892B21F48091D8028823A1
:1024D000B9F08091F002882309F481E08093F00242
:1024E00080E060E040E020E001E00E947C0680EDBA
:1024F00097E020E931E0F9013197F1F70197D9F739
:102500008091310380FF21C08091F3029091F40209
:10251000892B21F48091D8028823B9F08091F102AF
:10252000882309F481E08093F10280E060E040E0DC
:1025300021E000E00E947C0680ED97E020E931E098
:10254000F9013197F1F70197D9F78091F70280FFF0
:1025500026C08091F3029091F402892B21F480919E
:10256000D8028823E1F08091CA02813011F045E061
:1025700001C04BE30F9285E0EDB7FEB7818380E0A9
:1025800060E020E00091EF02E090ED02C090EE02EA
:10259000A090F1028090F0020E94F20C0F908091C6
:1025A000F80280FF26C08091F3029091F402892BFB
:1025B00021F48091D8028823E1F08091CA02813011
:1025C00011F046E001C04CE30F9285E0EDB7FEB795
:1025D000818380E061E020E00091EF02E090ED0275
:1025E000C090EE02A090F1028090F0020E94F20CE6
:1025F0000F908091F90280FF26C08091F3029091A4
:10260000F402892B21F48091D8028823E1F0809193
:10261000CA02813011F044E001C04DE30F9285E021
:10262000EDB7FEB7818380E062E020E00091EF0229
:10263000E090ED02C090EE02A090F1028090F002D6
:102640000E94F20C0F908091FA0280FF26C08091C8
:10265000F3029091F402892B21F48091D80288230F
:10266000E1F08091CA02813011F04CE001C04EE3EC
:102670000F9285E0EDB7FEB7818380E063E020E054
:102680000091EF02E090ED02C090EE02A090F10206
:102690008090F0020E94F20C0F908091FB0280FF6C
:1026A00026C08091F3029091F402892B21F480914D
:1026B000D8028823E1F08091CA02813011F043E012
:1026C00001C04FE30F9285E0EDB7FEB7818380E054
:1026D00064E020E00091EF02E090ED02C090EE0295
:1026E000A090F1028090F0020E94F20C0F90809175
:1026F000130380FF26C08091F3029091F402892B8E
:1027000021F48091D8028823E1F08091CA028130BF
:1027100011F04BE001C040E40F9285E0EDB7FEB749
:10272000818383E064E020E00091EF02E090ED021D
:10273000C090EE02A090F1028090F0020E94F20C94
:102740000F908091120380FF26C08091F302909138
:10275000F402892B21F48091D8028823E1F0809142
:10276000CA02813011F043E801C041E40F9285E0D4
:10277000EDB7FEB7818383E063E020E00091EF02D4
:10278000E090ED02C090EE02A090F1028090F00285
:102790000E94F20C0F908091110380FF26C080915F
:1027A000F3029091F402892B21F48091D8028823BE
:1027B000E1F08091CA02813011F04AE001C042E4A8
:1027C0000F9285E0EDB7FEB7818383E062E020E001
:1027D0000091EF02E090ED02C090EE02A090F102B5
:1027E0008090F0020E94F20C0F908091100380FF05
:1027F00026C08091F3029091F402892B21F48091FC
:10280000D8028823E1F08091CA02813011F041E0C2
:1028100001C043E40F9285E0EDB7FEB7818383E00A
:1028200061E020E00091EF02E090ED02C090EE0246
:10283000A090F1028090F0020E94F20C0F90809123
:102840000F0380FF26C08091F3029091F402892B40
:1028500021F48091D8028823E1F08091CA0281306E
:1028600011F049E001C044E40F9285E0EDB7FEB7F6
:10287000818383E060E020E00091EF02E090ED02D0
:10288000C090EE02A090F1028090F0020E94F20C43
:102890000F908091FF0280FF26C08091F3029091FB
:1028A000F402892B21F48091D8028823E1F08091F1
:1028B000CA02813011F048E701C047E50F9285E078
:1028C000EDB7FEB7818381E060E020E00091EF0288
:1028D000E090ED02C090EE02A090F1028090F00234
:1028E0000E94F20C0F908091000380FF26C080911F
:1028F000F3029091F402892B21F48091D80288236D
:10290000E1F08091CA02813011F047E001C048E552
:102910000F9285E0EDB7FEB7818381E061E020E0B2
:102920000091EF02E090ED02C090EE02A090F10263
:102930008090F0020E94F20C0F908091170380FFAC
:1029400026C08091F3029091F402892B21F48091AA
:10295000D8028823E1F08091CA02813011F04DE065
:1029600001C04FE00F9285E0EDB7FEB7818384E0B0
:1029700060E020E00091EF02E090ED02C090EE02F6
:10298000A090F1028090F0020E94F20C0F908091D2
:10299000180380FF26C08091F3029091F402892BE6
:1029A00021F48091D8028823E1F08091CA0281301D
:1029B00011F047E701C045E40F9285E0EDB7FEB79F
:1029C000818384E061E020E00091EF02E090ED027D
:1029D000C090EE02A090F1028090F0020E94F20CF2
:1029E0000F908091010380FF26C08091F3029091A7
:1029F000F402892B21F48091D8028823E1F08091A0
:102A0000CA02813011F04BE701C04AE40F9285E021
:102A1000EDB7FEB7818381E062E020E00091EF0234
:102A2000E090ED02C090EE02A090F1028090F002E2
:102A30000E94F20C0F908091020380FF26C08091CB
:102A4000F3029091F402892B21F48091D80288231B
:102A5000E1F08091CA02813011F049E701C04EE4F3
:102A60000F9285E0EDB7FEB7818381E063E020E05F
:102A70000091EF02E090ED02C090EE02A090F10212
:102A80008090F0020E94F20C0F908091090380FF69
:102A900026C08091F3029091F402892B21F4809159
:102AA000D8028823E1F08091CA02813011F04CE70E
:102AB00001C047E30F9285E0EDB7FEB7818382E066
:102AC00062E020E00091EF02E090ED02C090EE02A3
:102AD000A090F1028090F0020E94F20C0F90809181
:102AE000030380FF0FC08091F3029091F402892BC1
:102AF00021F48091D802882329F081E061E044E04C
:102B00000E94580C80911B0380FF26C08091F30225
:102B10009091F402892B21F48091D8028823E1F06E
:102B20008091CA02813011F04EE701C046E40F9255
:102B300085E0EDB7FEB7818384E064E020E000919A
:102B4000EF02E090ED02C090EE02A090F1028090C2
:102B5000F0020E94F20C0F9080911A0380FF0FC0C8
:102B60008091F3029091F402892B21F48091D80294
:102B7000882329F081E064E043E00E94A80C809162
:102B80000B0380FF26C08091F3029091F402892B01
:102B900021F48091D8028823E1F08091CA0281302B
:102BA00011F040E701C042E50F9285E0EDB7FEB7B6
:102BB000818382E064E021E00091EF02E090ED0289
:102BC000C090EE02A090F1028090F0020E94F20C00
:102BD0000F9080912B0380FF26C08091F30290918B
:102BE000F402892B21F48091D8028823E1F08091AE
:102BF000CA02813011F04CE601C047E40F9285E033
:102C0000EDB7FEB7818386E064E021E00091EF023A
:102C1000E090ED02C090EE02A090F1028090F002F0
:102C20000E94F20C0F9080912A0380FF26C08091B1
:102C3000F3029091F402892B21F48091D802882329
:102C4000E1F08091CA02813011F04DE701C049E402
:102C50000F9285E0EDB7FEB7818386E063E021E067
:102C60000091EF02E090ED02C090EE02A090F10220
:102C70008090F0020E94F20C0F908091330380FF4D
:102C800026C08091F3029091F402892B21F4809167
:102C9000D8028823E1F08091CA02813011F041E727
:102CA00001C043E50F9285E0EDB7FEB7818387E071
:102CB00064E021E00091EF02E090ED02C090EE02AE
:102CC000A090F1028090F0020E94F20C0F9080918F
:102CD000320380FF26C08091F3029091F402892B89
:102CE00021F48091D8028823E1F08091CA028130DA
:102CF00011F049E601C04FE40F9285E0EDB7FEB751
:102D0000818387E063E021E00091EF02E090ED0233
:102D1000C090EE02A090F1028090F0020E94F20CAE
:102D20000F908091290380FF29C08091F302909138
:102D3000F402892B21F48091D8028823F9F0809144
:102D4000CA02813011F04AE701C041E50F9285E0E7
:102D5000EDB7FEB7818386E062E021E00091EF02EB
:102D6000E090ED02C090EE02A090F1028090F0029F
:102D70000E94F20C0F9002C01092DB028091DA02E6
:102D8000882309F093C28091F3029091F402892B79
:102D900009F09AC08091D802882309F095C08091EB
:102DA0001F0380FF10C081FD0EC08091CB020E94E6
:102DB000D10880911F03826080931F038091D90204
:102DC0008F5F8093D9028091300380FF10C081FD16
:102DD0000EC08091CC020E94D108809130038260A5
:102DE000809330038091D9028F5F8093D9028091C4
:102DF0001F0382FF0EC080EF0E94D1088091CB029A
:102E00000E94D10810921F038091D9028F5F809396
:102E1000D9028091300382FF0EC080EF0E94D1085A
:102E20008091CC020E94D108109230038091D90287
:102E30008F5F8093D9028091D902882329F08AE19B
:102E40008A95F1F71092D902FCEFCF2EF2E0DF2E37
:102E5000EE24FF2427C0F801808180FF05C081FD9A
:102E600003C088810E94D108F801808182FF08C0D8
:102E700080EF0E94D10888810E94D108F801108259
:102E80000F5F1F4F21960C151D0529F70894E11CB3
:102E9000F11C88E090E0C80ED91E98E0E916F10414
:102EA00009F404C28701E3E0000F111FEA95E1F77E
:102EB00009501D4FE701CC0FDD1FCC0FDD1FCE0DDC
:102EC000DF1DC95ADE4FC7CF8091E1028823E1F5AB
:102ED0008091DE028823C1F58091DF028823A1F56D
:102EE00080911F0380FF02C081FF20C080913003CA
:102EF00080FF34C081FF1AC031C0453019F49923D6
:102F000059F004C0473011F4913031F0808180FFD6
:102F100003C05093E10204C09F5F3196953069F77A
:102F20002F5F3F4F2830310521F418C020E030E0FA
:102F300051E0F90163E0EE0FFF1F6A95E1F7E950F8
:102F4000FD4F90E0422FD9CF80911F0380FD06C036
:102F50008091300380FD02C01092E10200E0EE2477
:102F6000FF2476C1E5E0CE1621F4DD2009F457C137
:102F700007C0F7E0CF1621F481E0D81609F44FC15D
:102F8000988190FFAFC091FDADC08091E102882390
:102F900069F480911F0380FF02C09860988380913C
:102FA000300380FF03C0888180618883888183FF2C
:102FB0000EC084FD0CC08091CA02823011F4F2016F
:102FC00001C0F30140818C2D6D2D0E943B09888149
:102FD00084FF0AC083FD08C04091F3025091F402BF
:102FE0008C2D6D2D0E94190A888183FD78C084FD87
:102FF00076C08091D602882329F48091D702882355
:1030000009F459C01092EA021092E9021092EC02FF
:103010008091CA02823021F5F4010081043411F458
:103020000BE61BC00D3411F404E717C0053109F499
:1030300039C10C3111F402E710C00A3331F4809128
:10304000D602882369F400E70BC00B3631F0043751
:1030500021F0053711F0023719F480EE8093EC026D
:103060008091CA028130E9F4F5010081083111F440
:103070000BE414C0093111F40DE410C0003111F457
:1030800008E40CC00E3111F400E508C00B3431F037
:103090000D3421F0083411F0003519F480EE8093DE
:1030A000EC020093EB028091EC028823A1F080EE09
:1030B0000E94D10810C01092EA021092E902809199
:1030C000CA02823011F4F40101C0F50180818093BD
:1030D000EB021092EC028091EB020E94D1088881F1
:1030E00082608883888182FF9AC083FF0EC084FD3E
:1030F0000CC08091CA02823011F4F20101C0F301C8
:1031000040818C2D6D2D0E94D508888184FF0AC0D6
:1031100083FD08C04091F3025091F4028C2D6D2D77
:103120000E94A409888183FD79C084FD77C08091C5
:10313000D602882329F48091D702882309F456C047
:103140001092EB028091CA02823051F5F4010081A5
:10315000043411F40BE61BC00D3411F404E717C05E
:10316000053109F4A1C00C3111F402E710C00A3393
:1031700031F48091D602882369F400E70BC00B3646
:1031800031F0043721F0053711F0023719F480EEE1
:103190000E94D10880EF0E94D108802F0E94D108A0
:1031A0008091CA028130D1F5F5010081083111F416
:1031B0000BE414C0093111F40DE410C0003111F416
:1031C00008E40CC00E3111F400E508C00B3431F0F6
:1031D0000D3421F0083411F0003519F480EE0E940E
:1031E000D108802F80580E94D10818C08091CA024F
:1031F000823039F480EF0E94D108F4011081812FD0
:1032000004C0F5011081812F80580E94D10880915F
:10321000EB02811709F480E08093EB021882D394CB
:1032200021960894811C911C0894A11CB11C08943F
:10323000411C511C0894611C711CF5E0DF1609F05B
:1032400091CE0894E11CF11C88E0E816F10471F1BC
:10325000CE2CE70153E0CC0FDD1F5A95E1F7C950A2
:10326000DD4FC701880F991F880F991F8E0D9F1D75
:1032700037E5832E31E0932E880E991E27EAA22E81
:1032800021E0B22EA80EB91E1FE7412E11E0512EEB
:10329000480E591EBFEC6B2EB1E07B2E680E791ED6
:1032A000DD2460CE05E7D9CE05E771CFDF91CF9160
:1032B0001F910F91FF90EF90DF90CF90BF90AF9054
:1032C0009F908F907F906F905F904F900895DF92C6
:1032D000EF92FF920F931F93DF93CF9300D000D014
:1032E0000F92CDB7DEB780E8809361001092610045
:1032F0000E9447010E9472028E010F5F1F4FC8019A
:1033000060E070E045E050E00E948A1A41E020E071
:1033100030E0B801FB01E20FF31FD901A253BD4F0A
:1033200090818C91981340E02F5F3F4F25303105FD
:1033300089F74423A9F085E090E00E949A1A90E072
:103340000E94A3029093F4028093F30286E090E03F
:103350000E949A1A833008F080E08093D80212C04D
:103360008EEC92E060E070E045E050E00E94A21A2E
:1033700085E090E060E00E94AC1A86E090E061E0B9
:103380000E94AC1AE0EAEE2EE6E8FE2EE1E00E2FF7
:10339000112DDD24D3940E945201882309F46AC0C0
:1033A0008091F3029091F4020F9709F063C080912D
:1033B000E202882309F056C08091E3029091E40272
:1033C000A091E502B091E6020097A105B10509F0D0
:1033D00049C050C08091E0028093F60280EE92E0F6
:1033E0000E947701892BF1F5E092E302F092E4026A
:1033F0000093E5021093E6028091E0028E3E29F4EC
:103400000E94D108D092E20203C08AEF0E94D10844
:103410009091E002923099F0933028F4992341F092
:10342000913001F50CC0923F89F09F3FD9F415C04F
:103430008091F602803FB1F48091CA020BC0809166
:10344000F602803F79F49093CA020CC08BEA0E9486
:10345000D10883E80E94D10805C08AEA0E94D108F9
:103460001092E20288EE93E00E945C01882309F04A
:10347000B1CF91CF8091E3029091E402A091E50257
:10348000B091E6020097A105B10559F00197A10995
:10349000B1098093E3029093E402A093E502B09314
:1034A000E6028091F3029091F4020F9781F58091EA
:1034B000EB02882361F18091E9029091EA02019682
:1034C0009093EA028093E9020197895E934020F489
:1034D0008091CA028230D9F48091E7029091E8028B
:1034E00001969093E8028093E7020197873991054E
:1034F00070F08091EC02882311F00E94D108809135
:10350000EB020E94D1081092E8021092E7020E949A
:103510009D1041CFDC01CB01FC01F999FECF06C023
:10352000F2BDE1BDF89A319600B40D924150504081
:10353000B8F70895F999FECF92BD81BDF89A992701
:1035400080B50895DC01CB0103C02D910E94AD1A16
:1035500041505040D0F70895262FF999FECF1FBA59
:1035600092BD81BD20BD0FB6F894FA9AF99A0FBEAC
:0835700001960895F894FFCFC5
:103578000100040302030302020202030405060712
:10358800000104040404040402020200000402000E
:10359800010945161E26252E363D3E46212B342B85
:1035A8004B1C1B3324231A224D1C2D2C431C4B214E
:1035B800443A32441B1A222B3C4B4B21443A3244A6
:1035C8001B1A224D3C2D24161E26252E151D242D92
:1035D8002C1C1B232B3445463E3D364D44433C357D
:1035E800001A22212A5A4B423B3329003A3132062B
:1035F8005800006B0000000000000000000066009A
:10360800747572000000000000000000000D00004A
:1036180000007600000000020304050610111213D2
:10362800141E1F2021220B0A09080719181716153E
:10363800002C2D2E2F1C2625242339003231303C16
:103648003A00004B000000000000000000000E00DF
:103658004D0050000000000000000000000F0000B6
:10366800000001000000000203040506000000330A
:1036780034292B2B1A1B0C0B0A2808281B001B1A91
:103688000027003535000D0D0C0700003433090103
:103698000101010100000001010101000101010116
:1036A800010001010000000000010001000000010C
:1036B800000100000000010102030405FFFF0DFFE7
:1036C800FF09FF0C0EFF000F080706FFFFFFFFFFB3
:1036D800FFFFFF0BFFFFFFFFFFFFFFFFFFFF0A02D8
:1036E8001A220103214D2104033A1B220403213627
:1036F8002504032116360403332C3E04051C2C1C18
:103708002D43040332322104051C21442D310403C6
:103718002A43210404442D432104031B1C3A0407B3
:103728003B3C4D432C242D04051C4D4D4B240404D7
:103738004D21222C04031B3A1B04021214015A586F
:04374800554E4F008B
:00000001FF
