:100000000C9434000C9451000C9451000C94510049
:100010000C9451000C9451000C9451000C9451001C
:100020000C9451000C9451000C9451000C9451000C
:100030000C9451000C9451000C9451000C945100FC
:100040000C9451000C9451000C9451000C945100EC
:100050000C9451000C9451000C9451000C945100DC
:100060000C9451000C94510011241FBECFEFD4E02A
:10007000DEBFCDBF11E0A0E0B1E0E6E7FDE102C0E8
:1000800005900D92A239B107D9F713E0A2E9B1E0CA
:1000900001C01D92AB33B107E1F70E940F010C9430
:1000A000B90E0C9400002091920130919301832F9E
:1000B000822351F081E0809396018093C6011092D3
:1000C00092011092930114C08091C601882321F0FF
:1000D000109296011092C60190E08091A3018823AE
:1000E00009F491E02923209392013923309393015D
:1000F0002091940130919501832F822351F081E06A
:10010000809397018093C7011092940110929501FA
:1001100008958091C701882321F0109297011092D1
:10012000C70190E08091A401882309F491E029237C
:100130002093940139233093950108952091AC01C7
:100140003091AD01832F822351F081E08093B00183
:100150008093C8011092AC011092AD0114C080913F
:10016000C801882321F01092B0011092C80190E0DC
:100170008091BD01882309F491E029232093AC01EB
:1001800039233093AD012091AE013091AF01832F1F
:10019000822351F081E08093B1018093C9011092D4
:1001A000AE011092AF0108958091C901882321F01A
:1001B0001092B1011092C90190E08091BE01882394
:1001C00009F491E029232093AE0139233093AF0144
:1001D00008951F93182F8091CA019091CB01892B0C
:1001E00071F4812F40E050E060E070E00E94CC08A4
:1001F00081E090E09093CB018093CA010EC086E627
:1002000040E050E060E070E00E94CC08812F40E0C8
:1002100050E060E070E00E94CC081F9108952F929A
:100220003F924F925F926F927F929F92AF92BF9256
:10023000CF92DF92EF92FF920F931F93CF93DF93B2
:1002400081E08093100210922E0310922D031092E1
:10025000CB011092CA0180E8809361001092610086
:100260000E9482070E94220780912E0390E00E9444
:10027000A70A80912D0390E00E94E00A1092C60127
:100280001092C7011092C8011092C9010E9406097C
:100290003C983D98449A459A8FEF89B983B18F6114
:1002A00083B91AB884B1807E84B9389A399A409A51
:1002B000419A9924AA24AA94BA2C0FEF1FEFCC24B8
:1002C000CA94DC2CEE24EA94FE2C23E2622E712CDC
:1002D0004424552490E4292E9CE9392E01C0992408
:1002E0000E9425088091920180939F018091AC012A
:1002F0008093B901809193018093A0018091AD0119
:100300008093BA01809194018093A1018091AE0104
:100310008093BB01809195018093A2018091AF01F0
:100320008093BC01809196018093A3018091B001DC
:100330008093BD0110929601809197018093A40152
:100340008091B1018093BE01109297018091980134
:100350008093A5018091B2018093BF0180919901A2
:100360008093A6018091B3018093C00180919A018E
:100370008093A7018091B4018093C10110929A01EA
:1003800080919B018093A8018091B5018093C20167
:1003900010929B0180919C018093A9018091B601EC
:1003A0008093C30110929C0180919D018093AA01CA
:1003B0008091B7018093C40110929D0180919E01AC
:1003C0008093AB01C1010197F1F78091100288235E
:1003D00049F082E991E00E94190B82E991E00E94C4
:1003E0002B0D0AC082E991E00E94190B8CEA91E082
:1003F0000E94520C0E949E000E945300909197010F
:10040000809198018923A1F480919601982381F429
:1004100020E030E080919E01882311F421E030E05B
:100420008091AB0190E028233923232B09F467C086
:1004300080E0992009F481E0982E882379F51092C4
:10044000A3011092A4011092A50128C010929A0154
:1004500010929B0110929C0110929D0110929601A6
:1004600010929701C1010197F1F780911002882342
:1004700049F082E991E00E94190B82E991E00E9423
:100480002B0D0AC082E991E00E94190B8CEA91E0E1
:100490000E94520C0E949E000E945300809196017F
:1004A0008823A1F680919701882381F68091980195
:1004B000882361F680919201882341F6809193010F
:1004C000882321F680919401882309F0BFCF809181
:1004D0009501882309F0BACF80ED97E0E0E9F1E0DB
:1004E0003197F1F70197D1F7AA24AA94BA2C0FEF0C
:1004F0001FEFCC24CA94DC2CEE24EA94FE2C992025
:1005000009F4BEC120E030E080919201882311F40B
:1005100021E030E080919F0190E028233923232BB4
:1005200091F080E090E029E0A216B10414F481E09B
:1005300090E0A80EB91E0FEF1FEFCC24CA94DC2C5C
:10054000EE24EA94FE2C20E030E080919301882391
:1005500011F421E030E08091A00190E028233923BC
:10056000232B91F080E090E00530110514F481E038
:1005700090E0080F191FAA24AA94BA2CCC24CA947C
:10058000DC2CEE24EA94FE2C20E030E080919501F2
:10059000882311F421E030E08091A20190E028232B
:1005A0003923232B91F080E090E022E0C216D104A1
:1005B00014F481E090E0C80ED91EAA24AA94BA2CA3
:1005C0000FEF1FEFEE24EA94FE2C20E030E0809144
:1005D0009401882311F421E030E08091A10190E0A2
:1005E00028233923232B91F080E090E028E0C216E5
:1005F000D10414F481E090E0E80EF91EAA24AA9434
:10060000BA2C0FEF1FEFCC24CA94DC2C20E030E092
:100610008091B201882311F421E030E08091BF0184
:1006200090E028233923232BE9F01092B201109295
:10063000BF018FEFE8168FEFF80699F022E0E2167F
:10064000F10479F480912D03833020F48F5F80933F
:100650002D0302C010922D0380912D0390E00E9483
:10066000E00A992420E030E080919901882311F478
:1006700021E030E08091A60190E028233923232B4C
:1006800069F01092B3011092C00190E080911002C5
:10069000882309F491E090931002992420E030E03F
:1006A00080919801882311F421E030E08091A50128
:1006B00090E028233923232B09F4CFC2109298010C
:1006C0001092A5018FEFA8168FEFB80691F42FEFC7
:1006D0000F3F120771F48FEFC8168FEFD80671F431
:1006E0002FEFE2162FEFF20609F05FC00E94460AD4
:1006F0005CC08FEFC8168FEFD80679F0C114D10413
:1007000049F021E0C216D10429F082E0C816D104D4
:1007100009F0E5CD0E946009E2CD2FEFA2162FEF80
:10072000B20659F0F501E050FF4F808140E050E003
:1007300068E473E40E94CC08D2CD8FEF0F3F180716
:10074000A1F10115110519F40E9492091FC0109220
:100750002E0310922D0380E090E00E94A70A809162
:100760002D0390E00E94E00A0130110519F40E9467
:10077000C60912C00230110519F480E090E012C0E1
:100780000330110519F481E090E00CC0043011052C
:1007900019F482E090E006C00530110509F09FCD04
:1007A00083E090E00E94FA099ACD2FEFE2162FEF36
:1007B000F20609F449C2E114F10429F41092CB01C4
:1007C0001092CA012CC081E0E816F10441F486E7DA
:1007D00040E050E060E070E00E94CC082CC022E0D5
:1007E000E216F10481F480912E03833020F48F5FB0
:1007F00080932E0302C010922E0380912E0390E06E
:100800000E94A70A1EC083E0E816F10441F48DE0BF
:1008100040E050E060E070E00E94CC081EC024E0A0
:10082000E216F10441F484E140E050E060E070E061
:100830000E94CC0818C085E0E816F10411F484E1A8
:1008400005C026E0E216F10441F481E140E050E009
:1008500060E070E00E94E908F7C187E0E816F10463
:1008600011F484E006C028E0E216F10409F0ECC1BE
:100870008CE040E050E060E070E00E94CC08E4C111
:10088000E114F10409F0E9C020E030E08091980122
:10089000882311F421E030E08091A50190E0282325
:1008A0003923232BE9F18091CA019091CB01892B47
:1008B000B9F180E090E0452811F481E090E02C014E
:1008C00086E640E050E060E070E00E94CC08E30182
:1008D000C65FDE4F41145104D1F089E560E070E05D
:1008E00020E030E040E050E00E946408888140E071
:1008F00050E060E070E00E94CC0889E561E070E0C3
:1009000020E030E040E050E00E94640807C08881A9
:1009100040E050E060E070E00E94CC080E942508B2
:10092000809192018823C1F0809198018823A1F4DD
:1009300083E26816710419F46624772403C00894CE
:10094000611C711CF301E65FFE4F80810E94E9008B
:100950000E94250844245524809193018823C1F0E6
:10096000809198018823A1F41614170424F083E2DF
:10097000682E712C03C0089461087108F301E65FCA
:10098000FE4F80810E94E9000E94250844245524DE
:1009900080919501882339F18091A201882319F56E
:1009A00080919801882349F089E561E070E020E0BA
:1009B00030E040E050E00E9464088091CA019091CC
:1009C000CB01892B29F01092CB011092CA0107C0EC
:1009D00089E240E050E060E070E00E94CC080E94B4
:1009E000250844245524809194018823B9F08091EE
:1009F000A101882399F480919801882379F41092B9
:100A0000CB011092CA0186E640E050E060E070E061
:100A10000E94CC080E942508442455248091990105
:100A2000882309F41AC18091A601882309F015C111
:100A300080919801882309F010C11092CB01109287
:100A4000CA018AE540E050E060E070E00E94CC0816
:100A50000E9425084424552400C190919201809160
:100A60009F01981771F060E070E0992311F461E044
:100A700070E08091190320E030E040E050E00E94F7
:100A80006408909193018091A001981771F060E043
:100A900070E0992311F461E070E080911A0320E086
:100AA00030E040E050E00E94640890919401809111
:100AB000A101981771F060E070E0992311F461E0F2
:100AC00070E080911B0320E030E040E050E00E94A5
:100AD0006408909195018091A201981771F060E0EF
:100AE00070E0992311F461E070E080911C0320E034
:100AF00030E040E050E00E94640820E030E0809167
:100B00009601882311F421E030E08091A30190E068
:100B100028233923232B41F080911D0340E050E02E
:100B200068E473E40E94CC0820E030E080919701F3
:100B3000882311F421E030E08091A40190E0282383
:100B40003923232B41F080911E0340E050E068E4FC
:100B500073E40E94CC08909198018091A5019817A8
:100B600071F060E070E0992311F461E070E0809131
:100B70001F0320E030E040E050E00E9464089091C4
:100B800099018091A601981771F060E070E09923B7
:100B900011F461E070E08091200320E030E040E05B
:100BA00050E00E94640890919A018091A7019817E3
:100BB00071F060E070E0992311F461E070E08091E1
:100BC000210320E030E040E050E00E946408909172
:100BD0009B018091A801981771F060E070E0992363
:100BE00011F461E070E08091220320E030E040E009
:100BF00050E00E94640890919C018091A90198178F
:100C000071F060E070E0992311F461E070E0809190
:100C1000230320E030E040E050E00E94640890911F
:100C20009D018091AA019817C1F060E070E09923BE
:100C300011F461E070E08091240320E030E040E0B6
:100C400050E00E94640809C09924AA24AA94BA2CEE
:100C50000FEF1FEFCC24CA94DC2C9091AC01809153
:100C6000B901981771F060E070E0992311F461E028
:100C700070E080912F0320E030E040E050E00E94DF
:100C800064089091AD018091BA01981771F060E00D
:100C900070E0992311F461E070E08091300320E06E
:100CA00030E040E050E00E9464089091AE018091F5
:100CB000BB01981771F060E070E0992311F461E0D6
:100CC00070E08091310320E030E040E050E00E948D
:100CD00064089091AF018091BC01981771F060E0B9
:100CE00070E0992311F461E070E08091320320E01C
:100CF00030E040E050E00E9464089091B0018091A3
:100D0000BD01981751F0992341F48091330340E0DD
:100D100050E068E473E40E94CC089091B1018091A6
:100D2000BE01981751F0992341F48091340340E0BB
:100D300050E068E473E40E94CC089091B201809185
:100D4000BF01981771F060E070E0992311F461E041
:100D500070E08091350320E030E040E050E00E94F8
:100D600064089091B3018091C001981771F060E020
:100D700070E0992311F461E070E08091360320E087
:100D800030E040E050E00E9464089091B40180910E
:100D9000C101981771F060E070E0992311F461E0EF
:100DA00070E08091370320E030E040E050E00E94A6
:100DB00064089091B5018091C201981771F060E0CC
:100DC00070E0992311F461E070E08091380320E035
:100DD00030E040E050E00E9464089091B6018091BC
:100DE000C301981771F060E070E0992311F461E09D
:100DF00070E08091390320E030E040E050E00E9454
:100E000064089091B7018091C401981709F468CAE9
:100E100060E070E0992311F461E070E080913A03A2
:100E200020E030E040E050E00E94640859CA20E42D
:100E30003CE904C0F9013197F1F70A971816190631
:100E4000CCF3089510922A0310922B030895209159
:100E50002B0330E0F901E253FE4F8083F901EE0FDE
:100E6000FF1FEE0FFF1FEF5EFD4F40835183628334
:100E70007383C901029662E470E00E945B0E809366
:100E80002B030895DC0180912A03EEECF1E0E80FDA
:100E9000F11D80818C93E0912A03F0E0EE0FFF1F9B
:100EA000EE0FFF1FEF5EFD4F80819181A281B38124
:100EB000FB0180839183A283B38380912A0390E016
:100EC000029662E470E00E945B0E80932A0308950C
:100ED000382F662361F027B181E090E002C0880FCF
:100EE000991F3A95E2F78095822387B9089527B133
:100EF00081E090E002C0880F991F3A95E2F7282B15
:100F000027B908954398429883E061E00E946807FA
:100F100082E061E00E9468070895329902C081E092
:100F2000089586B1869586958695809581700895F9
:100F30000E9427070895DF92EF92FF920F931F936D
:100F4000CF93DF93F82E0E948D07882309F075C098
:100F500083E060E00E9468071AE6812F8A95F1F726
:100F600082E060E00E94680785ED8A95F1F782E0F3
:100F700061E00E9468071A95F1F711E000E03AE697
:100F8000E32E25EDD22E8F2D90E0EC01C170D070B4
:100F9000F0FE03C083E061E002C083E060E00E94F5
:100FA00068078E2D8A95F1F782E060E00E9468075D
:100FB0008D2D8A95F1F782E061E00E9468078E2D01
:100FC0008A95F1F7CD2B29F080E0112309F481E017
:100FD000182F0F5F083011F0F694D5CF112319F0B8
:100FE00083E061E002C083E060E00E9468071AE6E7
:100FF000812F8A95F1F782E060E00E94680705ED95
:10100000802F8A95F1F782E061E00E946807812FC6
:101010008A95F1F783E061E00E946807812F8A9545
:10102000F1F782E060E00E9468070A95F1F782E03C
:1010300061E00E9468071A95F1F7DF91CF911F9147
:101040000F91FF90EF90DF90089590912B03809186
:101050002A039817A1F5089588EC90E00197F1F71D
:10106000329B31C008C00E949B0790912B03809156
:101070002A03981741F18CE293E066E273E00E9444
:10108000420780912C03803E71F3803F61F30E9400
:101090009B0760912603709127038091280390910C
:1010A00029030E948F0D80E49CE905C0FC01319763
:1010B000F1F76A50704016161706C4F308950E949F
:1010C0008D07882349F20895CF92DF92EF92FF9225
:1010D0001F93CF93DF93182FEB0169017A018237B9
:1010E00091F0833740F4893671F0893698F08B5649
:1010F000823080F408C0843768F0863720F08A3761
:1011000011F08D3739F480EE40E050E060E070E09F
:101110000E942707112371F0CD2B39F080EF40E0BA
:1011200050E060E070E00E942707812FB701A60120
:101130000E942707DF91CF911F91FF90EF90DF90E2
:10114000CF900895DF92EF92FF920F931F93CF936A
:10115000DF93D82EEB0179018A0180EE40E050E068
:1011600060E070E00E942707DD2071F0CD2B39F0A0
:1011700080EF40E050E060E070E00E9427078D2D96
:10118000B801A7010E942707DF91CF911F910F910E
:10119000FF90EF90DF900895DF92EF92FF920F9310
:1011A0001F93D82E7A018B0160E070E020E030E0E0
:1011B00048EC52E40E9464088D2D61E070E0A801C3
:1011C00097010E9464081F910F91FF90EF90DF90AC
:1011D0000895DF92EF92FF920F931F93D82E7A011A
:1011E0008B0160E070E020E030E048EC52E40E94C7
:1011F000A2088D2D61E070E0A80197010E94A2086D
:101200001F910F91FF90EF90DF90089585E78093F5
:10121000190382E780931A038BE680931B0384E70C
:1012200080931C038AE580931F0386E78093200345
:1012300008958BE440E050E060E070E00E94CC084C
:1012400084E440E050E060E070E00E94CC088CE173
:1012500040E050E060E070E00E94CC0883E240E0B3
:1012600050E060E070E00E94CC0889E540E050E08A
:1012700060E070E00E9427078EE140E050E068ECFB
:1012800072E40E94CC088EE140E050E060E070E043
:101290000E94CC0880EF40E050E060E070E00E94E7
:1012A000270789E540E050E060E070E00E942707F2
:1012B0008AE540E050E060E070E00E94CC080895CC
:1012C0008BE340E050E060E070E00E94CC0889E5EC
:1012D00040E050E060E070E00E9427078EE140E0CF
:1012E00050E068EC72E40E94CC088EE140E050E0EF
:1012F00060E070E00E94CC0880EF40E050E060E0E9
:1013000070E00E94270789E540E050E060E070E06F
:101310000E9427078AE540E050E060E070E00E940C
:10132000CC08089584E140E050E060E070E00E9465
:10133000270781E140E050E060E070E00E9427076D
:1013400083E040E050E060E070E00E94CC0880EF75
:1013500040E050E060E070E00E94270781E140E05B
:1013600050E060E070E00E94270780EF40E050E02E
:1013700060E070E00E94270784E140E050E060E018
:1013800070E00E9427070E940609089584E140E06A
:1013900050E060E070E00E94270781E140E050E00B
:1013A00060E070E00E94270781E740E050E060E0E5
:1013B00070E00E94CC0880EF40E050E060E070E018
:1013C0000E94270781E140E050E060E070E00E9469
:1013D000270780EF40E050E060E070E00E942707C0
:1013E00084E140E050E060E070E00E9427070E9446
:1013F00006090895CF93DF93EC0184E140E050E0CB
:1014000060E070E00E94270781E140E050E060E08A
:1014100070E00E94270786E640E050E06AEF73E440
:101420000E94CC0880EF40E050E060E070E00E9455
:10143000270781E140E050E060E070E00E9427076C
:1014400080EF40E050E060E070E00E94270784E118
:1014500040E050E060E070E00E9427070E9406092B
:10146000C230D10539F0C330D10531F0219759F49C
:1014700086E703C088E501C086E040E050E068E40C
:1014800073E40E94CC08DF91CF910895DF93CF934E
:10149000CDB7DEB72C970FB6F894DEBF0FBECDBF29
:1014A00080912E03882309F049C090E09E012F5FB0
:1014B0003F4F0AC0E92FF0E0D901AE0FBF1FE65B36
:1014C000FE4F80818C939F5F9C30A0F39093250307
:1014D00080911903853711F085E701C089818093D8
:1014E000190380911A03823711F082E701C08A81C3
:1014F00080931A0380911B038B3611F08BE601C099
:101500008B8180931B0380911C03843711F084E747
:1015100001C08C8180931C0380911F038A3511F0D8
:101520008AE501C08F8180931F0380912003863755
:1015300011F086E701C08885809320032C960FB6B2
:10154000F894DEBF0FBECDBFCF91DF9108958130FB
:101550009105A1F08230910511F1892B81F590E080
:101560000AC0E92FF0E0DF01A65BBE4F8C91E75E79
:10157000FC4F80839F5F9C30A0F30EC090E00AC0B8
:10158000E92FF0E0DF01AE59BE4F8C91E75EFC4FD2
:1015900080839F5F9C30A0F390932503089590E093
:1015A0000AC0E92FF0E0DF01A658BE4F8C91E75E3C
:1015B000FC4F80839F5F9C30A0F390932503089598
:1015C00081309105A1F08230910511F1892B81F5CF
:1015D00090E00AC0E92FF0E0DF01AA5ABE4F8C91DB
:1015E000E15DFC4F80839F5F9C30A0F30EC090E0D4
:1015F0000AC0E92FF0E0DF01A259BE4F8C91E15DF6
:10160000FC4F80839F5F9C30A0F390932503089547
:1016100090E00AC0E92FF0E0DF01AA57BE4F8C919D
:10162000E15DFC4F80839F5F9C30A0F39093250386
:101630000895FF920F931F93CF93DF93EC01409A8D
:101640007AE4F72E8F2D8A95F1F783B190E064E06C
:10165000969587956A95E1F701E010E0802791273C
:1016600081708C8786B129B190E054E0969587957A
:101670005A95E1F7802791272027282B217028836E
:1016800026B189B130E045E0369527954A95E1F7D6
:101690002027312790E09695879580279127822BE8
:1016A0008170898389B190E0969587959695879505
:1016B0008027912781708A8389B190E0A3E0969575
:1016C0008795AA95E1F78027912781708B834098B1
:1016D0008F2D8A95F1F789B199B182FDC1C093FD33
:1016E000BFC089B190E0F4E096958795FA95E1F74F
:1016F0008027912781708E8389B190E0E5E09695EF
:101700008795EA95E1F78027912781708D83409A2C
:101710008F2D8A95F1F789B190E074E096958795C1
:101720007A95E1F78027912781708F8389B190E0C6
:1017300065E0969587956A95E1F7802791278170F6
:10174000888740988F2D8A95F1F7409A8F2D8A953A
:10175000F1F740988F2D8A95F1F7E6B1A9B146B11E
:1017600029B169B189B190E053E0969587955A9572
:10177000E1F78027912770E07695679576956795D4
:10178000602771276823792350E095E056954795A7
:101790009A95E1F74027512730E036952795202785
:1017A0003127242B352BF0E0B4E0F695E795BA9578
:1017B000E1F7E027F127B0E0A027B127AE2BBF2B40
:1017C0002A232170822F90E068237923672B09F464
:1017D00042C0409A8F2D8A95F1F786B129B190E0E9
:1017E000A4E096958795AA95E1F780279127202771
:1017F000282B21702B8726B189B130E0F5E0369592
:101800002795FA95E1F72027312790E0969587955F
:1018100080279127822B81708A8789B190E09695E5
:10182000879596958795802791278170898789B1BB
:1018300090E063E0969587956A95E1F78027912778
:1018400081708C8340988F2D8A95F1F7409A8F2D67
:101850008A95F1F7409880E49FE10197F1F718C06D
:1018600089B190E054E0969587955A95E1F721E08B
:1018700030E08227932781708E8389B190E045E024
:10188000969587954A95E1F78227932781708F83F4
:10189000409A8AE48A95F1F7DF91CF911F910F91D9
:1018A000FF9008951F93FC01419A8AE48A95F1F70D
:1018B00089B190E066E0969587956A95E1F721E019
:1018C00030E0822793278170808383B190E053E0DA
:1018D000969587955A95E1F78227932781708183A2
:1018E00089B1128287FD02C081E0828383B190E0DA
:1018F0009695879596958795A1E0B0E08A279B27D6
:101900008170838341981AE4812F8A95F1F789B118
:1019100093B187FD8CC092FD8AC083B190E096950B
:1019200087958A279B278170868383B18A27817058
:101930008583419A812F8A95F1F783B190E096953E
:1019400087958A279B278170878383B18A27817037
:1019500080874198812F8A95F1F7419A812F8A9546
:10196000F1F74198812F8A95F1F769B123B189B1D7
:1019700043B150E056954795569547954A275B27C2
:10198000992787FD9095809590958827990F881FB6
:1019900099274823592370E086E0769567958A95C4
:1019A000E1F76A277B2730E073E0369527957A9533
:1019B000E1F72A273B2721702623822F90E0482336
:1019C0005923452B79F1419A812F8A95F1F789B1F5
:1019D00090E026E0969587952A95E1F78A279B2740
:1019E0008170838783B190E013E0969587951A956F
:1019F000E1F78A279B278170828789B1118687FD4D
:101A000002C081E0818783B186958695809581703B
:101A1000848341988AE4982F9A95F1F7419A8A95A0
:101A2000F1F7419880E49FE10197F1F70EC083B18F
:101A300090E09695879521E030E08227932781708A
:101A4000868383B1822781708783419A8AE48A954D
:101A5000F1F71F910895FC018085882319F081E03A
:101A600090E00BC089B190E036E0969587953A9565
:101A7000E1F78095909581709070808781858823AB
:101A800019F081E090E00AC089B1992787FD90950F
:101A9000809590958827990F881F99278187858140
:101AA000882319F081E090E006C083B190E0809532
:101AB00090958170907085838481882319F081E0EE
:101AC00090E008C083B190E09695879580959095B9
:101AD0008170907084838285882319F081E090E082
:101AE0000AC083B190E096958795969587958095E5
:101AF00090958170907082878385882319F081E0AA
:101B000090E00BC083B190E073E0969587957A954D
:101B1000E1F7809590958170907083870895ACE08F
:101B2000B0E0E5E9FDE00C94920E69837A838B8343
:101B30009C83CE010196BE016B5F7F4F0E94E30D37
:101B40008D81823061F1823050F1843021F48E81B8
:101B5000882351F12EC02F81388537FD20C06E813A
:101B60002F3131051CF06623F9F023C08EE190E09F
:101B7000821B930B29853A854B855C8504C056955D
:101B80004795379527958A95D2F76623B1F05095FA
:101B90004095309521953F4F4F4F5F4F0EC020E04D
:101BA00030E040E050E009C02FEF3FEF4FEF5FE73C
:101BB00004C020E030E040E050E8B901CA012C96B2
:101BC000E2E00C94AE0EFC01DB01408151812281E8
:101BD000622F6F7770E0221F2227221F9381892FA7
:101BE000880F822B282F30E0991F9927991F119673
:101BF0009C93119721153105A9F5411551056105F2
:101C0000710511F482E037C082E89FEF13969C9330
:101C10008E9312979A01AB0167E0220F331F441F86
:101C2000551F6A95D1F783E08C930DC0220F331FA7
:101C3000441F551F12968D919C91139701971396EF
:101C40009C938E931297203080E0380780E04807FD
:101C500080E4580758F314962D933D934D935C936D
:101C6000179708952F3F310579F441155105610506
:101C7000710519F484E08C93089564FF03C081E03A
:101C80008C9312C01C9210C02F57304013963C9377
:101C90002E93129783E08C9387E0440F551F661FA5
:101CA000771F8A95D1F7706414964D935D936D9369
:101CB0007C931797089597FB092E07260AD077FD86
:101CC00004D00CD006D000201AF4709561957F4F97
:101CD0000895F6F7909581959F4F0895AA1BBB1B19
:101CE00051E107C0AA1FBB1FA617B70710F0A61B1C
:101CF000B70B881F991F5A95A9F780959095BC013D
:101D0000CD0108952F923F924F925F926F927F92F2
:101D10008F929F92AF92BF92CF92DF92EF92FF92FB
:101D20000F931F93CF93DF93CDB7DEB7CA1BDB0BA7
:101D30000FB6F894DEBF0FBECDBF09942A8839884C
:101D400048885F846E847D848C849B84AA84B98453
:101D5000C884DF80EE80FD800C811B81AA81B9815F
:101D6000CE0FD11D0FB6F894DEBF0FBECDBFED0173
:061D70000895F894FFCF76
:101D7600161E26252E363D3E46451C322123242B93
:101D86003433433B424B3A31444D152D1B2C3C2AF0
:101D96001D22351A161E26252E363D3E46455B006B
:101DA6004A004F00590032005000530032005D00D7
:101DB60030003000300039006200151C444D2E16EC
:101DC60029242D232B2143423B4B361E33343132FB
:101DD600352C1D1B1C232E162B242D232B21434271
:101DE6003B4B361E33343132352C75726B742E16DE
:101DF600141129121A222D2B2334361E1C1B151DD5
:021E0600242C8A
:00000001FF
