:100000000C9472000C9493000C9493000C94930045
:100010000C9493000C9493000C9493000C94930014
:100020000C9493000C9493000C9493000C94930004
:100030000C9493000C9493000C9493000C949300F4
:100040000C9493000C9493000C9493000C949300E4
:100050000C9493000C9493000C9493000C949300D4
:100060000C9493000C9493000C9493000C949300C4
:100070000C9493000C9493000C9493000C949300B4
:100080000C9493000C9493000C9493000C949300A4
:100090000C9493000C9493000C9493000C94930094
:1000A0000C9493000C9493000C9493000C94930084
:1000B0000C9493000C9493000C9493000C94930074
:1000C0000C9493000C9493000C9493000C94930064
:1000D0000C9493000C9493000C9493000C94930054
:1000E0000C94930011241FBECFEFD1E2DEBFCDBF31
:1000F00000E00CBF14E0A0E0B2E0E4E3FFE200E0C7
:100100000BBF02C007900D92A635B107D9F715E0D5
:10011000A6E5B4E001C01D92AC31B107E1F70E9441
:100120003E160C9498170C940000382F643009F494
:1001300066C0653048F4623081F1633008F046C033
:10014000613009F0E0C010C0673009F48AC068303F
:1001500020F4653009F0D7C06BC0683009F49AC04C
:100160006C3009F0D0C0B3C0442361F021B181E00C
:1001700090E002C0880F991F3A95E2F7809582239C
:1001800081B9089521B181E090E002C0880F991FE4
:100190003A95E2F7282B21B90895442361F024B160
:1001A00081E090E002C0880F991F3A95E2F78095B0
:1001B000822384B9089524B181E090E002C0880FC1
:1001C000991F3A95E2F7282B24B90895442361F04A
:1001D00027B181E090E002C0880F991F3A95E2F7BD
:1001E0008095822387B9089527B181E090E002C00D
:1001F000880F991F3A95E2F7282B27B908954423D1
:1002000061F02AB181E090E002C0880F991F3A9511
:10021000E2F7809582238AB908952AB181E090E0BF
:1002200002C0880F991F3A95E2F7282B2AB9089542
:10023000442361F02DB181E090E002C0880F991F46
:100240003A95E2F7809582238DB908952DB181E02A
:1002500090E002C0880F991F3A95E2F7282B2DB93C
:100260000895442361F023B381E090E002C0880F39
:10027000991F3A95E2F78095822383BB089523B3B3
:1002800081E090E002C0880F991F3A95E2F7282B91
:1002900023BB0895442371F02091010181E090E097
:1002A00002C0880F991F3A95E2F7809582238093C8
:1002B000010108952091010181E090E002C0880FC2
:1002C000991F3A95E2F7282B2093010108954423C2
:1002D00071F020910A0181E090E002C0880F991F1F
:1002E0003A95E2F78095822380930A010895209140
:1002F0000A0181E090E002C0880F991F3A95E2F769
:10030000282B20930A010895282F6430E1F06530EE
:1003100038F46230A1F06330A0F4613061F40DC0B4
:100320006730A9F0683018F4653029F40EC06830E1
:1003300081F06C30C9F080E0089580B10CC083B1C9
:100340000AC086B108C089B106C08CB104C082B3AE
:1003500002C08091000190E002C0959587952A9592
:10036000E2F78095817008958091090190E002C0C4
:10037000959587952A95E2F7809581700895382F95
:10038000643009F466C0653048F4623081F163304E
:1003900008F046C0613009F0E0C010C0673009F4D1
:1003A0008AC0683020F4653009F0D7C06BC068306F
:1003B00009F49AC06C3009F0D0C0B3C0442361F492
:1003C00022B181E090E002C0880F991F3A95E2F7D0
:1003D0008095822382B9089522B181E090E002C025
:1003E000880F991F3A95E2F7282B22B908954423E4
:1003F00061F425B181E090E002C0880F991F3A9521
:10040000E2F78095822385B9089525B181E090E0D7
:1004100002C0880F991F3A95E2F7282B25B9089555
:10042000442361F428B181E090E002C0880F991F55
:100430003A95E2F78095822388B9089528B181E042
:1004400090E002C0880F991F3A95E2F7282B28B94F
:100450000895442361F42BB181E090E002C0880F3D
:10046000991F3A95E2F7809582238BB908952BB1B5
:1004700081E090E002C0880F991F3A95E2F7282B9F
:100480002BB90895442361F42EB181E090E002C0BD
:10049000880F991F3A95E2F7809582238EB90895C7
:1004A0002EB181E090E002C0880F991F3A95E2F7E3
:1004B000282B2EB90895442361F424B381E090E001
:1004C00002C0880F991F3A95E2F78095822384BB7A
:1004D000089524B381E090E002C0880F991F3A95F7
:1004E000E2F7282B24BB0895442371F420910201E4
:1004F00081E090E002C0880F991F3A95E2F780955D
:1005000082238093020108952091020181E090E00E
:1005100002C0880F991F3A95E2F7282B2093020119
:100520000895442371F420910B0181E090E002C012
:10053000880F991F3A95E2F78095822380930B01EB
:10054000089520910B0181E090E002C0880F991F6F
:100550003A95E2F7282B20930B010895382F662354
:1005600061F020B381E090E002C0880F991F3A95B6
:10057000E2F78095822380BB089520B381E090E06C
:1005800002C0880F991F3A95E2F7282B20BB0895E7
:100590008B988A9883E061E00E94AE0282E061E07D
:1005A0000E94AE0208957A9902C081E008958FB149
:1005B00086958695869580958170089520E030E037
:1005C0005AE109C02F5F3F4F7B9902C081E0089537
:1005D000452F4A95F1F728173907A0F380E00895D1
:1005E00025E104C0922F9A95F1F784508823D1F722
:1005F0000895EF92FF920F931F93CF93DF93082FED
:100600000E94D3028823E1F783E060E00E94AE02FB
:1006100080914F04880F880F25E104C0922F9A958E
:10062000F1F784508823D1F782E060E00E94AE02A7
:1006300080914F04880F880F880F25E104C0922F06
:100640009A95F1F784508823D1F782E061E00E9407
:10065000AE0280914F04880F880F25E104C0922FCD
:100660009A95F1F784508823D1F711E0C0E0D0E0EB
:10067000E02EFF2405E1C7010C2E02C09595879559
:100680000A94E2F780FF07C083E061E00E94AE02B7
:1006900081E0182704C083E060E00E94AE028091F0
:1006A0004F04880F880F04C0902F9A95F1F784505B
:1006B0008823D1F782E060E00E94AE0280914F046F
:1006C000880F880F880F04C0902F9A95F1F78450F7
:1006D0008823D1F782E061E00E94AE0280914F044E
:1006E000880F880F04C0902F9A95F1F784508823C3
:1006F000D1F72196C830D10509F0BDCF112319F0EB
:1007000083E061E002C083E060E00E94AE0280917D
:100710004F04880F880F25E104C0922F9A95F1F7B6
:1007200084508823D1F782E060E00E94AE0280917D
:100730004F04880F880F880F25E104C0922F9A95E7
:10074000F1F784508823D1F782E061E00E94AE0285
:1007500080914F04880F880F25E104C0922F9A954D
:10076000F1F784508823D1F783E061E00E94AE0264
:1007700080914F04880F880F25E104C0922F9A952D
:10078000F1F784508823D1F782E060E00E94AE0246
:1007900080914F04880F880F880F25E104C0922FA5
:1007A0009A95F1F784508823D1F782E061E00E94A6
:1007B000AE0280914F04880F880F25E104C0922F6C
:1007C0009A95F1F784508823D1F788EC90E001974F
:1007D000F1F7DF91CF911F910F91FF90EF90089566
:1007E000AF92BF92CF92DF92EF92FF920F931F933F
:1007F000CF93DF935C017B99FECF7A9BFECF8091F4
:100800004F04880F880F25E104C0922F9A95F1F7C5
:1008100084508823D1F782E060E00E94AE0280918C
:100820004F04880F880F880F25E104C0922F9A95F6
:10083000F1F784508823D1F782E061E00E94AE0294
:1008400080914F04880F880F25E104C0922F9A955C
:10085000F1F784508823D1F7FF2411E0C0E0D0E005
:1008600031E0C32ED12CEE24E39405E17B9B09C03B
:10087000C6010C2E02C0880F991F0A94E2F7F82ACD
:100880001E2580914F04880F880F04C0902F9A95E1
:10089000F1F784508823D1F782E060E00E94AE0235
:1008A00080914F04880F880F880F04C0902F9A956D
:1008B000F1F784508823D1F782E061E00E94AE0214
:1008C00040914F04842F880F880F04C0902F9A9571
:1008D000F1F784508823D1F72196C830D10509F06B
:1008E000C5CF8FB190E023E0969587952A95E1F7E3
:1008F00081709070212F30E08217930719F02FEF4D
:100900003FEF5DC0942F990F990F25E104C0822F0E
:100910008A95F1F794509923D1F782E060E00E9424
:10092000AE0280914F04880F880F880F25E104C024
:10093000922F9A95F1F784508823D1F782E061E0F5
:100940000E94AE0280914F04880F880F25E104C0F9
:10095000922F9A95F1F784508823D1F783E060E0D5
:100960000E94AE0280914F04880F880F25E104C0D9
:10097000922F9A95F1F784508823D1F782E060E0B6
:100980000E94AE0280914F04880F880F880F25E1E6
:1009900004C0922F9A95F1F784508823D1F782E012
:1009A00061E00E94AE0283E061E00E94AE0280E955
:1009B00091E00197F1F7F501F08220E030E0C90104
:1009C000DF91CF911F910F91FF90EF90DF90CF902B
:1009D000BF90AF900895EF92FF921F93CF93DF9354
:1009E00080916F0490917004892B91F480EF0E94A4
:1009F000F90280914D040E94F9021092B40480EF34
:100A00000E94F90280914E040E94F9021092CF04D4
:100A100089E20E94F90284EF91E020E931E0F901D6
:100A20003197F1F70197D9F780EF0E94F90289E237
:100A30000E94F902C0E0D0E040E9E42E41E0F42E4B
:100A4000C230D10519F0C430D105B9F484EF91E07A
:100A5000F7013197F1F70197D9F789E40E94F9027C
:100A600084EF91E0F7013197F1F70197D9F780EF23
:100A70000E94F90289E40E94F90284EF91E0F701F3
:100A80003197F1F70197D9F7FE01EE5BFD4FE08159
:100A9000F0E0E65BFD4F1081812F0E94F90284EFA8
:100AA00091E0F7013197F1F70197D9F780EF0E94B4
:100AB000F902812F0E94F90284EF91E0F70131974A
:100AC000F1F70197D9F72196C830D10509F0B8CFD1
:100AD00081E080935B0480935C04DF91CF911F9150
:100AE000FF90EF900895CF92DF92EF92FF920F93D5
:100AF0001F93CF93DF936C0188EE93E020E931E000
:100B0000F9013197F1F70197D9F789E20E94F902CB
:100B100088EE93E020E931E0F9013197F1F7019790
:100B2000D9F780EF0E94F90289E20E94F90288EE6B
:100B300093E020E931E0F9013197F1F70197D9F716
:100B400089E40E94F90288EE93E020E931E0F9019E
:100B50003197F1F70197D9F780EF0E94F90289E404
:100B60000E94F902E60101E010E050E9E52E51E0B3
:100B7000F52E21C088EE93E0F7013197F1F7019748
:100B8000D9F789810E94F90288EE93E0F701319745
:100B9000F1F70197D9F780EF0E94F90289810E944D
:100BA000F90288EE93E0F7013197F1F70197D9F751
:100BB0000F5F1F4F2196F6018081E82FF0E0E017CC
:100BC000F107C4F6EC0DFD1D818180934F04DF9188
:100BD000CF911F910F91FF90EF90DF90CF900895EC
:100BE0000F931F93CF93DF9381E062E041E00E9477
:100BF000950081E062E041E00E94BF01C0E0D2E0E8
:100C00000BE012E08881F801608141E00E949500CC
:100C10008991F80161918F0141E00E94BF01F2E0EA
:100C2000CB30DF0779F7C0E0D0E0FE01EA5EFD4F90
:100C3000DE01AD5DBD4F80816C9141E00E94950069
:100C40002196CD30D10589F7DF91CF911F910F917A
:100C500008959C01109263042B988C30910519F42F
:100C600081E080936304109258042115310521F42A
:100C700081E080934F0415C02130310521F484E0D8
:100C800080934F0415C02230310521F484E0809315
:100C90004F0415C02330310521F484E080934F04C4
:100CA00015C02430310521F484E080934F0415C031
:100CB0002530310521F484E080934F0415C026309F
:100CC000310521F484E080934F0411C027303105B1
:100CD00021F484E080934F040DC02830310521F4C5
:100CE00084E080934F040DC02930310531F02A3063
:100CF000310519F02B30310521F484E080934F0445
:100D000014C02C30310589F484E080934F0481E0D5
:100D10008093630410926404109265041092660438
:100D20001092670482E080934C04C9010895CF9328
:100D3000DF93EC01109263042B988C30910519F429
:100D400081E08093630410925804209729F48EEF79
:100D500093E00E94730518C0C130D10529F482E0E8
:100D600094E00E94730518C0C230D10529F487E0D1
:100D700094E00E94730518C0C330D10529F48CE0BB
:100D800094E00E94730518C0C430D10529F481E1B4
:100D900094E00E94730518C0C530D10529F488E19C
:100DA00094E00E94730518C0C630D10529F48DE186
:100DB00094E00E94730518C0C730D10529F48DE373
:100DC00094E00E94730516C0C830D10529F484E26E
:100DD00094E00E94730516C0C930D10529F489E258
:100DE00094E00E94730524C0CA30D10519F48FE243
:100DF00094E005C0CB30D10529F484E394E00E944F
:100E0000730519C0CC30D10599F481E08093630457
:100E100010926404109265041092660410926704A4
:100E200082E080934C0484E494E00E94730506C041
:100E3000CC30D10518F482E080934C0481E080939B
:100E40005B0480935C0410925E04CE01DF91CF912D
:100E50000895BF92CF92DF92EF92FF920F931F936C
:100E6000D82EB62E142FF22E80915A04882329F002
:100E70008AE18A95F1F710925A04002371F080916B
:100E80004C04823011F482E101C08AE20E94F9022E
:100E900080915A048F5F80935A04EE20A1F08091D4
:100EA0004C04823029F480EE0E94F90284E104C0EF
:100EB00080EE0E94F9028DE10E94F90280915A04AD
:100EC0008F5F80935A04CC2071F080914C04823063
:100ED00011F481E101C088E30E94F90280915A0473
:100EE0008F5F80935A0480915A04882329F08AE105
:100EF0008A95F1F710925A04FF2019F080EE0E94B3
:100F0000F902812F0E94F90284EF91E020E931E09B
:100F1000F9013197F1F70197D9F7FF2019F080EE29
:100F20000E94F90280914C04823019F480EF0E94F3
:100F3000F90280914C04823011F4812F02C0812F7C
:100F400080580E94F9022D2D30E08DE090E0289F1E
:100F5000F001299FF00D389FF00D1124EB0DF11DCC
:100F6000ED58FB4F1082002361F080914C048230D9
:100F700029F480EF0E94F90282E101C08AEA0E940E
:100F8000F902EE2091F080914C04823041F480EE21
:100F90000E94F90280EF0E94F90284E104C080EE11
:100FA0000E94F9028DE90E94F902CC2061F0809143
:100FB0004C04823029F480EF0E94F90281E101C0E3
:100FC00088EB0E94F9028AE18A95F1F781E080932B
:100FD0005B0480935C0410926E041F910F91FF904C
:100FE000EF90DF90CF90BF900895982F843251F00A
:100FF0008D3141F0853131F0833421F0893211F0A7
:101000008A3509F490E06C30710529F480914C0424
:10101000813009F446C3963109F443C3963209F48A
:1010200040C3953209F43DC39E3209F43AC3992373
:1010300009F437C36630710509F45FC16730710583
:10104000C0F46330710509F4C0C06430710540F428
:101050006130710559F16230710509F0E5C266C071
:101060006430710509F4E0C06530710509F0DCC237
:1010700016C16930710509F4CDC16A30710548F4B3
:101080006730710509F470C16830710509F0CCC290
:1010900081C16B30710509F439C26B30710508F4F8
:1010A00008C26C30710509F0BFC279C29E3109F4E3
:1010B000B9C29C3209F4C0C29D3209F4CDC2943346
:1010C00009F4B8C29B3209F4C9C2933209F4CAC206
:1010D0009B3109F4C5C29C3109F4DEC2953309F491
:1010E000C5C29C3309F4A4C2943409F4B1C29D343E
:1010F00009F4D4C29A3209F4BDC2913209F4BCC2D7
:10110000923209F4C1C29A3109F4B2C2933309F49C
:10111000BDC29B3309F4B6C2923409F495C29B3424
:1011200009F484C2923309F018C1A8C29E3109F4AF
:101130008BC29C3209F480C29D3209F48DC2943373
:1011400009F48EC29B3209F47BC2933209F470C257
:101150009B3109F46FC29C3109F480C2963309F4C3
:1011600077C29D3309F48AC29E3309F467C295346D
:1011700009F48CC2953309F491C29C3309F452C22C
:10118000943409F475C29D3409F45CC29A3209F4AE
:1011900071C2913209F470C29A3109F475C2933365
:1011A00009F458C29B3309F46DC2923409F45CC24D
:1011B0009B3409F465C2923309F448C2913309F4AF
:1011C00067C29A3309F030C265C29E3109F42AC25F
:1011D0009C3209F441C29D3209F45EC29B3109F48C
:1011E00025C2953309F44AC29C3309F42DC29434C4
:1011F00009F42EC29D3409F451C29A3209F43AC25C
:10120000913209F439C29A3109F432C2933309F4A4
:101210000FC29B3309F436C2923411F499E841C2EB
:101220009B3409F0E1C032C29E3109F40BC29C32FA
:1012300009F42CC29D3209F425C29D3109F430C253
:10124000953111F498EF2DC2933209F4FDC19B3111
:1012500009F404C2953309F4FFC19C3309F4ECC1CD
:10126000943409F405C29D3409F418C29A3209F481
:1012700001C2913209F400C29A3109F4FFC19333DB
:1012800009F4D8C19B3309F4CDC1923409F4E0C10B
:101290009B3409F4EBC1923309F05FC0C9C19E31A0
:1012A00009F4CEC19C3209F4C7C19D3209F4D4C1FE
:1012B0009D3109F4F5C1953111F497E0F2C19B31EC
:1012C00009F4EAC19C3109F4DDC1943409F4D0C1B8
:1012D0009D3409F4E3C19A3209F4CCC1913209F486
:1012E000CBC1923209F4A6C19A3109F4B1C193334A
:1012F00009F4CCC19B3341F59BC19E3109F49EC1D9
:101300009C3209F499C19D3209F4A6C1933209F4C3
:101310008FC1953309F4A4C19C3309F4A7C1943457
:1013200009F4A6C19D3409F4B9C19A3209F4A2C1E5
:10133000913209F4A1C1923209F492C19A3109F4AF
:1013400087C19B3309F49EC1923409F497C19B3441
:1013500009F46CC1923309F477C1913309F498C14F
:101360009A3309F04AC096C19C3209F465C19D3296
:1013700009F472C1963309F46DC19D3309F468C153
:101380009E3309F463C1963409F458C1953409F0C9
:1013900028C14CC19E3109F445C19C3209F45CC19D
:1013A0009D3209F479C19B3109F46EC1953309F47A
:1013B00065C19C3309F448C1943409F449C19D3492
:1013C00009F46CC19A3209F455C1913209F454C13F
:1013D0009A3109F44DC19B3309F458C1923409F490
:1013E00051C19B3409F424C1923309F43FC19133B4
:1013F00009F438C19A3309F44BC1963309F451C149
:101400009D3309F44EC19E3309F44BC1963409F063
:101410004CC047C19C3209F40FC19D3209F41CC174
:10142000943309F41BC19B3209F41AC1933209F4B5
:10143000FFC09B3109F4FEC0963309F40BC19D3304
:1014400009F406C19E3309F401C1963409F4F6C0CB
:10145000953309F4E7C09C3309F408C1943409F4C6
:1014600007C19D3409F4F0C09A3209F403C19132E6
:1014700009F402C1923209F4D9C09A3109F4FEC0CC
:10148000933309F4FDC09B3309F4FCC0923409F492
:10149000FBC09B3409F4FAC0923309F4D3C09133F2
:1014A00009F4F6C09A3309F4F5C0953409F0BCC0CC
:1014B000F8C09E3109F4BEC09C3209F4EDC09D32E3
:1014C00009F4D0C0943309F4B3C09B3209F4C0C00E
:1014D0009C3109F4CDC09D3309F4D4C0953409F48E
:1014E000CBC0943409F4B8C09D3409F4D7C09A3203
:1014F00009F4B0C0913209F499C0923209F492C053
:101500009A3109F499C0933371F5AAC09E3109F458
:101510008FC09C3209F4C0C09D3209F4A3C09B3235
:1015200009F492C0933209F48BC09D3309F4AAC028
:10153000953409F4A1C0953309F492C0943409F4A8
:101540008BC09D3409F4AAC09A3209F483C0913249
:1015500009F46CC0923209F47BC09A3109F46CC072
:10156000933309F45FC09B3309F484C0923409F4C7
:101570007DC09B3409F462C0923309F46FC091338B
:1015800009F486C09A3309F485C0963309F489C0FA
:101590009E3309F486C0963409F046C082C0953463
:1015A00009F444C0963409F449C09E3309F44EC08E
:1015B0009D3309F44DC0963309F44CC09C32E1F1DF
:1015C0009D3209F449C0943309F448C09B3209F4B0
:1015D00047C0933209F446C09B3161F19C3109F454
:1015E00043C09533F9F09C3309F440C0943409F4B6
:1015F0003FC09D3449F19A32E9F19132E9F19A31D3
:10160000E9F19333E9F19B33E9F19234E9F19B3449
:10161000E9F19233B9F09133D9F19A33D9F19E318E
:1016200019F43FC094ED3DC090E03BC09EE439C04A
:101630009DED37C09DE535C099E433C095E431C0D8
:101640009EE82FC09EE32DC092E52BC096E429C0F2
:1016500092ED27C09DE325C091E423C09BE521C006
:1016600094E51FC091EE1DC09EE01BC09BED19C00C
:101670009CEC17C09AEC15C09AE413C09CE411C00E
:1016800096E30FC09EEC0DC095E50BC095ED09C02B
:1016900091EC07C099EC05C091E603C09EE101C042
:1016A00097E8892F0895CF92DF92EF92FF921F93D0
:1016B000CF93DF937A0110926B0410926A04109218
:1016C0006D04C82FD0E0C62EDD248BE090E0C89FCB
:1016D000F001C99FF00DD89FF00D1124EC0DFD1DF8
:1016E000E158FD4F8081BA010E94F507182F882329
:1016F00099F18CE0E816F104B9F480914C04813042
:1017000099F4FE01EE0FFF1FEE0FFF1FEC0FFD1F00
:10171000EC0DFD1DDF01AA57BC4F1C91E255FC4F9B
:101720008081882329F413C017FF02C010580FC00E
:1017300080914C04823029F482E10E94F90282E116
:1017400004C08AE20E94F9028AE280936D04812F2C
:101750000E94F90210936C04DF91CF911F91FF90CA
:10176000EF90DF90CF900895CF92DF92EF92FF92AB
:101770000F931F93CF93DF937A0110926C04C82FBD
:10178000D0E0C62EDD248BE090E0C89FF001C99F19
:10179000F00DD89FF00D1124EC0DFD1DE158FD4F0B
:1017A0008081BA010E94F507182F8823D1F18CE0BF
:1017B000E816F104A9F480914C04813089F4FE010B
:1017C000EE0FFF1FEE0FFF1FEC0FFD1FEC0DFD1DB9
:1017D000DF01AA57BC4F1C91E255FC4F008106C0A7
:1017E00017FD02C001E002C0105800E080914C04D7
:1017F000823029F480EF0E94F902812F02C0812FEC
:1018000080580E94F902002361F080914C048230DC
:1018100029F480EF0E94F90282E101C08AEA0E9465
:10182000F902DF91CF911F910F91FF90EF90DF9020
:10183000CF900895FF920F931F93F82E062F142F29
:1018400010926B0410926A0410926D0480914C0403
:10185000442381F5823029F482E10E94F90282E179
:1018600004C08AE20E94F9028AE280936D048091AA
:101870004C04602F70E02F2D30E0823071F48BE04B
:1018800090E0289FF001299FF00D389FF00D112462
:10189000E60FF71FE158FD4F0BC0F901EE0FFF1FD8
:1018A000EE0FFF1FE20FF31FE60FF71FEA5CFC4F7E
:1018B000108122C0823071F44B3631F0443721F070
:1018C000453711F0423731F480EE0E94F90280EE84
:1018D00080936D0480914C04813071F41B3431F09D
:1018E0001D3421F0183411F0103531F480EE0E94CF
:1018F000F90280EE80936D04812F0E94F90210930B
:101900006C041F910F91FF9008950F931F93CF9335
:10191000DF93142F10926C0490914C04442379F5BA
:10192000062F10E0C82FD0E09230C1F480EF0E9463
:10193000F9028BE090E0C89FF001C99FF00DD89F9D
:10194000F00D1124E00FF11FE158FD4F80810E943E
:10195000F90280EF0E94F90282E138C0FE01EE0F29
:10196000FF1FEE0FFF1FEC0FFD1FE00FF11FEA5CE2
:10197000FC4F808180580E94F9028AEA27C0923089
:1019800059F44B3631F0443721F0453711F04237E6
:1019900019F480EE0E94F90280914C04813059F4D0
:1019A0001B3431F01D3421F0183411F0103519F4C6
:1019B00080EE0E94F90280914C04823029F480EF7D
:1019C0000E94F902812F02C0812F80580E94F902E3
:1019D000DF91CF911F910F910895EF92FF921F9386
:1019E000CF93DF9380916F0490917004892B91F4D1
:1019F00080EF0E94F90280914D040E94F90210923A
:101A0000B40480EF0E94F90280914E040E94F90212
:101A10001092CF0480914C04823009F0D6C084EF3C
:101A200091E020E931E0F9013197F1F70197D9F719
:101A300089E20E94F90284EF91E020E931E0F901A6
:101A40003197F1F70197D9F780EF0E94F90289E207
:101A50000E94F90284EF91E020E931E0F901319729
:101A6000F1F70197D9F789E40E94F90284EF91E038
:101A700020E931E0F9013197F1F70197D9F780EFCB
:101A80000E94F90289E40E94F90280915904813090
:101A900061F0813088F0823009F097C0C9E7D2E068
:101AA00090E9E92E91E0F92E8DC0CDE6D2E080E9F3
:101AB000E82E81E0F82E5BC0CEE5D2E010E9E12E01
:101AC00011E0F12E29C0F7013197F1F70197D9F70D
:101AD0001881812F0E94F90284EF91E0F70131977C
:101AE000F1F70197D9F780EF0E94F902812F0E9448
:101AF000F90284EF91E0F7013197F1F70197D9F7F7
:101B000086E090E0609159040E948A17219682E055
:101B1000CD36D80709F459C084EF91E0D4CFF7014E
:101B20003197F1F70197D9F71881812F0E94F902B7
:101B300084EF91E0F7013197F1F70197D9F780EF42
:101B40000E94F902812F0E94F90284EF91E0F701CF
:101B50003197F1F70197D9F786E090E06091590449
:101B60000E948A17219682E0C937D80771F184EF65
:101B700091E0D5CFF7013197F1F70197D9F71881A7
:101B8000812F0E94F90284EF91E0F7013197F1F77C
:101B90000197D9F780EF0E94F902812F0E94F90284
:101BA00084EF91E0F7013197F1F70197D9F786E0DB
:101BB00090E0609159040E948A17219682E0CF3705
:101BC000D80719F084EF91E0D5CF81E080935B04D2
:101BD00080935C04DF91CF911F91FF90EF90089567
:101BE000FF920F931F93CF93DF9380916F04909197
:101BF0007004892B91F480EF0E94F90280914D04CA
:101C00000E94F9021092B40480EF0E94F9028091C0
:101C10004E040E94F9021092CF0485E090E060919A
:101C20006F040E948A1780914C04823009F060C0D2
:101C300084EF91E020E931E0F9013197F1F7019764
:101C4000D9F789E20E94F90284EF91E020E931E0BE
:101C5000F9013197F1F70197D9F780EF0E94F90266
:101C600089E20E94F90284EF91E020E931E0F90174
:101C70003197F1F70197D9F789E40E94F90284EFCF
:101C800091E020E931E0F9013197F1F70197D9F7B7
:101C900080EF0E94F90289E40E94F902C4E5D2E0D3
:101CA00000E911E022C0F8013197F1F70197D9F767
:101CB000F8808F2D0E94F90284EF91E0F8013197AE
:101CC000F1F70197D9F780EF0E94F9028F2D0E945A
:101CD000F90284EF91E0F8013197F1F70197D9F714
:101CE000219682E0CE35D80719F084EF91E0DBCF62
:101CF00081E080935B0480935C04DF91CF911F911E
:101D00000F91FF9008952F923F924F925F926F92A2
:101D10007F928F929F92AF92BF92CF92DF92EF927B
:101D2000FF920F931F93CF93DF9310925B0481E098
:101D300062E00E948401882309F44DC085E38A95FE
:101D4000F1F781E062E00E948401882309F466C013
:101D500080915D04813059F580914A0490914B0443
:101D6000019790934B0480934A04E0E4FCE9319797
:101D7000F1F78436910508F051C080E991E0909325
:101D80004B0480934A0410925D042A98C0E9D1E084
:101D900007C084EC99E0FE013197F1F70197D9F77C
:101DA00081E062E00E948401882399F737C080E9CE
:101DB00091E090934B0480934A0481E080935D040A
:101DC0002A9A84EC99E020E931E0F9013197F1F7A2
:101DD0000197D9F723C080914A0490914B04805910
:101DE0009140B0F4209A289888EE93E020E931E001
:101DF000F9013197F1F70197D9F72098289A84ECE7
:101E000099E020E931E0F9013197F1F70197D9F72D
:101E100080E991E090934B0480934A0480915B04A5
:101E2000882309F072C056E1852E52E0952E43E2D8
:101E3000A42E42E0B42ECC24DD243AE1432E2DE042
:101E4000622E712C95E3592EF4018081F501608199
:101E500040E00E949500F4018081F501608140E03E
:101E60000E94BF01842D8A95F1F700E012E08BE01B
:101E7000E82E82E0F82EC69CE001C79CD00DD69CCF
:101E8000D00D1124CD58DB4FF8018081F70160811E
:101E90000E9484018823C1F0852D8A95F1F7F8010D
:101EA0008081F70160810E9484019881882339F044
:101EB00090FF02C0926001C0916098830BC090FFB8
:101EC00009C09C7F9460F9CF888180FF03C08C7F1C
:101ED000846088830F5F1F4F0894E11CF11C2196DA
:101EE000F2E00B301F0781F6F40181914F01F501FB
:101EF00061915F0141E00E9495000894C11CD11CD2
:101F0000FDE0CF16D10409F09FCF80915E048823B5
:101F100009F495C080917104882329F1109271040D
:101F200048E754E090E020E030E06DE070E00FC062
:101F3000808180FD91E03196E417F507C9F72F5FA6
:101F40003F4FAF01435F5F4F2830310551F0269F6F
:101F5000F001279FF00D369FF00D1124ED58FB4F37
:101F6000E7CF9093710480917104882309F060C0D9
:101F70008091B40482FF0FC01092B40480916F046A
:101F800090917004892B39F480EF0E94F9028091BE
:101F90004D040E94F9028091CF0482FF0FC010927D
:101FA000CF0480916F0490917004892B39F480EFF5
:101FB0000E94F90280914E040E94F902B8E7CB2EEC
:101FC000B4E0DB2EEE24FF24ADE0AA2EB12C1DC020
:101FD000F801808180FF08C0888190E00E94970608
:101FE0009093700480936F040F5F1F4F21960C1520
:101FF0001D0571F70894E11CF11C8DE090E0C80EFE
:10200000D91E98E0E916F10499F0EA9C8001EB9C56
:10201000100DFA9C100D11240D581B4FE701CC0F29
:10202000DD1FCC0FDD1FCE0DDF1DCA52DC4FD0CF20
:1020300080915E04882319F081E080935B04809195
:102040005B04882309F07CC38091B40480FF78C3CB
:102050008091CF0480FF74C380915C04882309F0D1
:102060006DC380916F04909170040C97E1F480919E
:10207000B70480FF08C090E080915804882309F4D9
:1020800091E0909358048091C20480FF03C081E0E6
:1020900080936E0480ED97E020E931E0F9013197FB
:1020A000F1F70197D9F780914C04823009F060C2B2
:1020B0008091C40480FF10C080916F0490917004DF
:1020C000892B51F4809159048F5F833008F080E0B0
:1020D000809359040E94ED0C8091AA0480FF14C0E3
:1020E00080915904813031F080916F049091700497
:1020F000892B51F01092630481E080935E048093F9
:102100005B04809371042B9A8091730480FF0FC04D
:1021100080915904823059F080E060E045E020E091
:1021200000E0EE24CC24E5E0AE2E0E942907809149
:10213000740480FF0FC080915904823059F080E010
:1021400061E046E020E000E0EE24CC2475E0A72E1C
:102150000E9429078091750480FF0FC08091590467
:10216000823059F080E062E044E020E000E0EE24BC
:10217000CC2455E0A52E0E9429078091760480FF8B
:102180000FC080915904823059F080E063E04CE048
:1021900020E000E0EE24CC2435E0A32E0E942907A5
:1021A0008091770480FF0FC080915904823059F0EC
:1021B00080E064E043E020E000E0EE24CC2495E001
:1021C000A92E0E94290780919E0480FF0FC0809154
:1021D0005904823059F083E064E04BE020E000E0F5
:1021E000EE24CC2415E0A12E0E94290780919D04A5
:1021F00080FF0FC080915904823059F083E063E082
:1022000043E820E000E0EE24CC24B5E0AB2E0E94B1
:10221000290780919C0480FF0FC08091590482306F
:1022200059F083E062E04AE020E000E0EE24CC24B4
:10223000A5E0AA2E0E94290780919B0480FF0FC071
:1022400080915904823059F083E061E041E020E060
:1022500000E0EE24CC24F5E0AF2E0E942907809107
:102260009A0480FF0FC080915904823059F083E0B6
:1022700060E049E020E000E0EE24CC24E5E0AE2E72
:102280000E9429078091800480FF0FC0809159042B
:10229000823059F081E060E048E720E000E0EE2481
:1022A000CC2472E3A72E0E9429078091810480FF2D
:1022B0000FC080915904823059F081E061E047E01D
:1022C00020E000E0EE24CC2452E3A52E0E94290752
:1022D00080918E0480FF57C080916F0490917004AC
:1022E000009709F450C0049709F03BC08AE00E94AF
:1022F000F90284EF91E020E931E0F9013197F1F73B
:102300000197D9F789E00E94F90284EF91E020E972
:1023100031E0F9013197F1F70197D9F780EF0E9489
:10232000F90289E00E94F90280E197E220E931E0B8
:10233000F9013197F1F70197D9F780EF0E94F9027F
:102340008AE00E94F90284EF91E020E931E0F9018E
:102350003197F1F70197D9F781E080935B0480937F
:102360005C0480916F0490917004039761F482E0A3
:1023700061E047E020E000E0EE24E394CC2435E087
:10238000A32E0E94290780918D0480FF15C08091A3
:102390005904813031F080916F0490917004892B41
:1023A00059F082E060E049E020E000E0EE24CC2437
:1023B00095E0A92E0E9429078091AB0480FF17C0E9
:1023C00080915904823031F480916F0490917004AF
:1023D000892B69F084E064E043E020E000E0EE2433
:1023E000E394CC24C39415E0A12E0E942907809188
:1023F000D20480FF17C080915904823031F480915B
:102400006F0490917004892B69F087E064E046E6E0
:1024100020E000E0EE24E394CC24C394B5E0AB2E9E
:102420000E9429078091D10480FF17C08091590430
:10243000823031F480916F0490917004892B69F09F
:1024400087E063E041E720E000E0EE24E394CC2461
:10245000C394A5E0AA2E0E9429078091910480FFD1
:1024600015C080915904823031F480916F049091AD
:102470007004892B59F082E064E04EE720E000E030
:10248000EE24CC24F5E0AF2E0E9429078091B804F9
:1024900080FF0CC080915904813031F080916F042D
:1024A00090917004892B11F00E94EB048091B60486
:1024B00080FF0CC080915904813031F080916F040D
:1024C00090917004892B11F00E94F00D809182048C
:1024D00080FF11C080916F0490917004892B59F096
:1024E00081E062E04DE721E000E0EE24CC24E5E06D
:1024F000AE2E0E9429078091830480FF11C0809135
:102500006F0490917004892B59F081E063E04AE7F1
:1025100021E000E0EE24CC2475E0A72E0E942907DC
:1025200080918F0480FF11C080916F04909170049E
:10253000892B59F082E062E04DE721E001E0EE24D2
:10254000CC2455E0A52E0E9429078091900480FF9D
:10255000F7C080916F0490917004892B09F4F0C04A
:1025600082E063E04AE721E001E0EE24CC24E1C010
:10257000813009F0E5C08091730480FF0CC080E0D9
:1025800060E04BE320E000E0EE24C0906E0435E014
:10259000A32E0E9429078091740480FF0CC080E064
:1025A00061E04CE320E000E0EE24C0906E0495E092
:1025B000A92E0E9429078091750480FF0CC080E03D
:1025C00062E04DE320E000E0EE24C0906E0415E0F0
:1025D000A12E0E9429078091760480FF0CC080E024
:1025E00063E04EE320E000E0EE24C0906E04B5E02E
:1025F000AB2E0E9429078091770480FF0CC080E0F9
:1026000064E04FE320E000E0EE24C0906E04A5E01B
:10261000AA2E0E94290780919E0480FF0CC083E0AF
:1026200064E040E420E000E0EE24C0906E04F5E0B9
:10263000AF2E0E94290780919D0480FF0CC083E08B
:1026400063E041E420E000E0EE24C0906E04E5E0A9
:10265000AE2E0E94290780919C0480FF0CC083E06D
:1026600062E042E420E000E0EE24C0906E0475E0F9
:10267000A72E0E94290780919B0480FF0CC083E055
:1026800061E043E420E000E0EE24C0906E0455E0F9
:10269000A52E0E94290780919A0480FF0CC083E038
:1026A00060E044E420E000E0EE24C0906E0435E0F9
:1026B000A32E0E9429078091800480FF0CC081E036
:1026C00060E047E520E000E0EE24C0906E0495E075
:1026D000A92E0E9429078091810480FF0CC081E00F
:1026E00061E048E520E000E0EE24C0906E0415E0D3
:1026F000A12E0E9429078091D20480FF0DC087E09F
:1027000064E04EE020E000E0EE24E394CC24C394A7
:10271000B5E0AB2E0E9429078091D10480FF10C044
:1027200087E063E043E520E000E0EE24E394CC247E
:10273000C394A5E0AA2E0E94290702C010925C044F
:1027400080915B04882309F086C280916F04909188
:102750007004892B09F09BC08091B40480FF10C0E5
:1027600081FD0EC080914D040E94F9028091B40455
:1027700082608093B40480915A048F5F80935A04DE
:102780008091CF0480FF10C081FD0EC080914E0467
:102790000E94F9028091CF0482608093CF048091DF
:1027A0005A048F5F80935A048091B40482FF0EC054
:1027B00080EF0E94F90280914D040E94F90210926C
:1027C000B40480915A048F5F80935A048091CF049F
:1027D00082FF0EC080EF0E94F90280914E040E9499
:1027E000F9021092CF0480915A048F5F80935A04AB
:1027F00080915A04882329F08AE18A95F1F7109292
:102800005A04F8E7CF2EF4E0DF2EEE24FF24EDE0AB
:102810008E2E912C7BE0A72EB12C26C0888180FFC4
:1028200006C081FD04C0F80180810E94F902888100
:1028300082FF08C080EF0E94F902F80180810E94A7
:10284000F902188221960F5F1F4FCC15DD0531F775
:102850000894E11CF11C8DE090E0C80ED91E98E0B0
:10286000E916F10409F4F7C1E89CE001E99CD00DF8
:10287000F89CD00D1124CD58DB4FEA9C8001EB9CD5
:10288000100DFA9C100D112401581D4FC7CF8091D7
:102890006204882309F040C080915F048823E1F539
:1028A000809160048823C1F58091B40480FF02C048
:1028B00081FF21C08091CF0480FF38C081FF1BC001
:1028C00035C0453019F4992351F004C0473011F454
:1028D000913029F0808180FF02C051E004C09F5FE9
:1028E0003196953071F72F5F3F4F2830310541F415
:1028F000509362041BC050E020E030E06DE070E0D7
:10290000269FF001279FF00D369FF00D1124ED5802
:10291000FB4F90E0422FD5CF8091B40480FD06C0DC
:102920008091CF0480FD02C01092620400E0CC24AC
:10293000DD246DE0262E312C5CC1E5E0AE1621F4DD
:10294000BB2009F43DC107C0F7E0AF1621F421E038
:10295000B21609F435C1988190FFA2C091FDA0C0C4
:1029600080916204882369F48091B40480FF02C0DE
:10297000986098838091CF0480FF03C08881806134
:102980008883888183FF0EC084FD0CC080914C0435
:10299000823011F4F20101C0F30140818A2D6B2DC8
:1029A0000E941A0C888184FF0AC083FD08C04091F0
:1029B0006F04509170048A2D6B2D0E94530B8881F7
:1029C00083FD6BC084FD69C08091580490914C04D4
:1029D000882309F450C010926B0410926A0410927C
:1029E0006D049230E9F4F7010081043411F40BE630
:1029F00014C00D3411F404E710C0053111F405E7DB
:102A00000CC00C3111F402E708C00B3631F004376A
:102A100021F0053711F0023719F480EE80936D0430
:102A200080914C048130E9F4F4010081083111F403
:102A30000BE414C0093111F40DE410C0003111F49D
:102A400008E40CC00E3111F400E508C00B3431F07D
:102A50000D3421F0083411F0003519F480EE809324
:102A60006D0400936C0480916D04882391F080EED6
:102A70000E94F9020EC010926B0410926A04923008
:102A800011F4F70101C0F401808180936C0410926D
:102A90006D0480916C040E94F902888182608883B1
:102AA000888182FF8DC083FF0EC084FD0CC08091A1
:102AB0004C04823011F4F20101C0F30140818A2DEF
:102AC0006B2D0E94850C888184FF0AC083FD08C09D
:102AD00040916F04509170048A2D6B2D0E94B40BAD
:102AE000888183FD6CC084FD6AC0809158049091F8
:102AF0004C04882309F44DC010926C04923019F5EF
:102B0000F7010081043411F40BE614C00D3411F404
:102B100004E710C0053111F405E70CC00C3111F4C5
:102B200002E708C00B3631F0043721F0053711F009
:102B3000023719F480EE0E94F90280EF0E94F90238
:102B4000802F0E94F90280914C048130C1F5F4017C
:102B50000081083111F40BE414C0093111F40DE4C3
:102B600010C0003111F408E40CC00E3111F400E57E
:102B700008C00B3431F00D3421F0083411F0003569
:102B800019F480EE0E94F902802F80580E94F90209
:102B900016C0923039F480EF0E94F902F7011081DB
:102BA000812F04C0F4011081812F80580E94F90206
:102BB00080916C04811709F480E080936C04188282
:102BC000B39421960894E11CF11C0894811C911C7B
:102BD0000894411C511C0894611C711CF5E0BF163F
:102BE00009F0ABCE0894C11CD11C28E0C216D10458
:102BF00091F1AC2CC29CE001C39CD00DD29CD00DB5
:102C00001124CD58DB4F8BE090E0C89E7001C99E27
:102C1000F00CD89EF00C1124EFE7F2E0EE0EFF1E50
:102C2000C601880F991F880F991F8C0D9D1D46E3C3
:102C3000842E43E0942E880E991E3EE0432E33E00E
:102C4000532E480E591E2EE5622E23E0722E680E7A
:102C5000791EBB2472CEDF91CF911F910F91FF900F
:102C6000EF90DF90CF90BF90AF909F908F907F902C
:102C70006F905F904F903F902F900895DF92EF926A
:102C8000FF920F931F93DF93CF9300D00F920F9279
:102C9000CDB7DEB780E88093610010926100229A80
:102CA0002A982098289A239A2B98279A80910B018A
:102CB000816080930B010E94C8020E94F0058E0182
:102CC0000F5F1F4FC80160E070E045E050E00E94D8
:102CD000681741E020E030E0B801FB01E20FF31F8C
:102CE000D901A05BBB4F90818C91981340E02F5F7E
:102CF0003F4F2530310589F74423A9F085E090E066
:102D00000E94781790E00E942906909370048093A7
:102D10006F0486E090E00E947817833008F080E02E
:102D2000809359040DC080E594E060E070E045E0D8
:102D300050E00E94801785E090E060E00E948A17D2
:102D400060EAE62E66E8F62E61E0062F112DDD24FE
:102D5000D3940E94D302882309F46AC080916F043F
:102D6000909170040C9709F063C0809163048823EC
:102D700009F056C08091640490916504A0916604A6
:102D8000B09167040097A105B10509F049C050C092
:102D9000809161048093720481E694E00E94F003C4
:102DA000892BF1F5E0926404F092650400936604C7
:102DB00010936704809161048E3E29F40E94F90209
:102DC000D092630403C08AEF0E94F90290916104DB
:102DD000923099F0933028F4992341F0913001F525
:102DE0000CC0923F89F09F3FD9F415C080917204C6
:102DF000803FB1F480914C040BC080917204803FFD
:102E000079F490934C040CC08BEA0E94F90283E899
:102E10000E94F90205C08AEA0E94F9021092630436
:102E200088EE93E00E94DE02882309F0B1CF91CFB3
:102E30008091640490916504A0916604B091670448
:102E40000097A105B10559F00197A109B109809337
:102E5000640490936504A0936604B0936704809122
:102E60006F04909170040C9781F580916C04882315
:102E700061F180916A0490916B04019690936B04C8
:102E800080936A040197895E934020F480914C04FA
:102E90008230D9F4809168049091690401969093EE
:102EA00069048093680401978739910570F08091D7
:102EB0006D04882311F00E94F90280916C040E9435
:102EC000F90210926904109268040E94830E41CFA7
:102ED000DC01CB01FC01F999FECF06C0F2BDE1BDDA
:102EE000F89A319600B40D9241505040B8F70895C9
:102EF000F999FECF92BD81BDF89A992780B50895C2
:102F0000DC01CB0103C02D910E948B174150504032
:102F1000D0F70895262FF999FECF1FBA92BD81BD33
:102F200020BD0FB6F894FA9AF99A0FBE019608954B
:042F3000F894FFCF43
:102F340007010701030507060402000C0704030345
:102F44000303010101010103050706040200020055
:102F5400060402010101010303030307070C0C0C1F
:102F64000405060405060500000808080202020C10
:102F74000000000100030200010845161E26252E4C
:102F8400363D3E46212B342B4B1C1B3324231A2263
:102F94004D1C2D2C431C4B21443A32441B1A222B2A
:102FA4003C4B4B21443A32441B1A224D3C2D2416EF
:102FB4001E26252E000000000000151D242D2C00C7
:102FC40000000000001C1B232B3400000000000044
:102FD40045463E3D360000000000004D44433C356C
:102FE400000000000000001A22212A000000000056
:102FF400005A4B423B3300000000000029003A31E4
:10300400320000000000000000000000000000008A
:1030140000000000000000000000000000000000AC
:10302400000000000000000000000000000000009C
:10303400000000000000000000000000000006582E
:1030440000006B0000000000000000000066007437
:103054007572000000000000000000000D00000078
:103064000076000000000203040506101112131478
:103074001E1F2021220B0A0908071918171615000C
:103084002C2D2E2F1C2625242339003231303C3A96
:1030940000004B000000000000000000000E004D86
:1030A4000050000000000000000000000F000000BD
:1030B4000001000000000203040506000000333490
:1030C400292B2B1A1B0C0B0A2808281B001B1A007F
:1030D40027003535000D0D0C0700003433090101BC
:1030E40001010100000001010101000101010101D0
:1030F40000010100000000000100010000000100C7
:103104000100000000010102030405FFFFFFFFFFAF
:1031140009FFFFFFFF000C080706FFFFFFFFFFFF8B
:10312400FFFF0BFFFFFFFFFFFFFFFFFFFF0A021A76
:10313400220103214D2104033A1B220403213625D5
:1031440004051C2C1C2D43040332322104051C21CC
:10315400442D3104032A43210404442D4321040350
:103164001B1C3A04073B3C4D432C242D04051C4DE9
:103174004D4B2404044D21222C049001021214010D
:063184005A58554E4F00A1
:00000001FF
