:100000000C9472000C9493000C9493000C94930045
:100010000C9493000C9493000C9493000C94930014
:100020000C9493000C9493000C9493000C94930004
:100030000C9493000C9493000C9493000C949300F4
:100040000C9493000C9493000C9493000C949300E4
:100050000C9493000C9493000C9493000C949300D4
:100060000C9493000C9493000C9493000C949300C4
:100070000C9493000C9493000C9493000C949300B4
:100080000C9493000C9493000C9493000C949300A4
:100090000C9493000C9493000C9493000C94930094
:1000A0000C9493000C9493000C9493000C94930084
:1000B0000C9493000C9493000C9493000C94930074
:1000C0000C9493000C9493000C9493000C94930064
:1000D0000C9493000C9493000C9493000C94930054
:1000E0000C94930011241FBECFEFD1E2DEBFCDBF31
:1000F00000E00CBF15E0A0E0B2E0E6ECF9E300E0C0
:100100000BBF02C007900D92AA32B107D9F716E0D3
:10011000AAE2B5E001C01D92A830B107E1F70E9444
:10012000711B0C94E11C0C940000382F643009F40E
:1001300066C0653048F4623081F1633008F046C033
:10014000613009F0E0C010C0673009F48AC068303F
:1001500020F4653009F0D7C06BC0683009F49AC04C
:100160006C3009F0D0C0B3C0442361F021B181E00C
:1001700090E002C0880F991F3A95E2F7809582239C
:1001800081B9089521B181E090E002C0880F991FE4
:100190003A95E2F7282B21B90895442361F024B160
:1001A00081E090E002C0880F991F3A95E2F78095B0
:1001B000822384B9089524B181E090E002C0880FC1
:1001C000991F3A95E2F7282B24B90895442361F04A
:1001D00027B181E090E002C0880F991F3A95E2F7BD
:1001E0008095822387B9089527B181E090E002C00D
:1001F000880F991F3A95E2F7282B27B908954423D1
:1002000061F02AB181E090E002C0880F991F3A9511
:10021000E2F7809582238AB908952AB181E090E0BF
:1002200002C0880F991F3A95E2F7282B2AB9089542
:10023000442361F02DB181E090E002C0880F991F46
:100240003A95E2F7809582238DB908952DB181E02A
:1002500090E002C0880F991F3A95E2F7282B2DB93C
:100260000895442361F023B381E090E002C0880F39
:10027000991F3A95E2F78095822383BB089523B3B3
:1002800081E090E002C0880F991F3A95E2F7282B91
:1002900023BB0895442371F02091010181E090E097
:1002A00002C0880F991F3A95E2F7809582238093C8
:1002B000010108952091010181E090E002C0880FC2
:1002C000991F3A95E2F7282B2093010108954423C2
:1002D00071F020910A0181E090E002C0880F991F1F
:1002E0003A95E2F78095822380930A010895209140
:1002F0000A0181E090E002C0880F991F3A95E2F769
:10030000282B20930A010895282F6430E1F06530EE
:1003100038F46230A1F06330A0F4613061F40DC0B4
:100320006730A9F0683018F4653029F40EC06830E1
:1003300081F06C30C9F080E0089580B10CC083B1C9
:100340000AC086B108C089B106C08CB104C082B3AE
:1003500002C08091000190E002C0959587952A9592
:10036000E2F78095817008958091090190E002C0C4
:10037000959587952A95E2F7809581700895382F95
:10038000643009F466C0653048F4623081F163304E
:1003900008F046C0613009F0E0C010C0673009F4D1
:1003A0008AC0683020F4653009F0D7C06BC068306F
:1003B00009F49AC06C3009F0D0C0B3C0442361F492
:1003C00022B181E090E002C0880F991F3A95E2F7D0
:1003D0008095822382B9089522B181E090E002C025
:1003E000880F991F3A95E2F7282B22B908954423E4
:1003F00061F425B181E090E002C0880F991F3A9521
:10040000E2F78095822385B9089525B181E090E0D7
:1004100002C0880F991F3A95E2F7282B25B9089555
:10042000442361F428B181E090E002C0880F991F55
:100430003A95E2F78095822388B9089528B181E042
:1004400090E002C0880F991F3A95E2F7282B28B94F
:100450000895442361F42BB181E090E002C0880F3D
:10046000991F3A95E2F7809582238BB908952BB1B5
:1004700081E090E002C0880F991F3A95E2F7282B9F
:100480002BB90895442361F42EB181E090E002C0BD
:10049000880F991F3A95E2F7809582238EB90895C7
:1004A0002EB181E090E002C0880F991F3A95E2F7E3
:1004B000282B2EB90895442361F424B381E090E001
:1004C00002C0880F991F3A95E2F78095822384BB7A
:1004D000089524B381E090E002C0880F991F3A95F7
:1004E000E2F7282B24BB0895442371F420910201E4
:1004F00081E090E002C0880F991F3A95E2F780955D
:1005000082238093020108952091020181E090E00E
:1005100002C0880F991F3A95E2F7282B2093020119
:100520000895442371F420910B0181E090E002C012
:10053000880F991F3A95E2F78095822380930B01EB
:10054000089520910B0181E090E002C0880F991F6F
:100550003A95E2F7282B20930B010895382F662354
:1005600061F020B381E090E002C0880F991F3A95B6
:10057000E2F78095822380BB089520B381E090E06C
:1005800002C0880F991F3A95E2F7282B20BB0895E7
:100590002091410530914205832F822351F081E063
:1005A00080934505809359051092410510924205AC
:1005B00014C080915905882321F0109245051092AE
:1005C000590590E080915105882309F491E0292391
:1005D0002093410539233093420520914305309102
:1005E0004405832F822351F081E080934605809358
:1005F0005A051092430510924405089580915A05BA
:10060000882321F01092460510925A0590E08091BF
:100610005205882309F491E02923209343053923C7
:10062000309344050895EF92FF920F931F938091AA
:10063000350260913C0241E00E94BF018AE4E82E4D
:100640008E2D8A95F1F780913002609137020E94D9
:1006500084018093410580913102609138020E94AB
:1006600084018093420580913202609139020E9498
:100670008401809343058091330260913A020E9485
:100680008401809344058091350260913C0240E0F2
:100690000E94BF018E2D8A95F1F780913202609100
:1006A00039020E948401182F8091330260913A022E
:1006B0000E948401182309F4B2C080913402609131
:1006C0003B020E948401809347058091360260912D
:1006D0003D020E948401809346058091350260911D
:1006E0003C0241E00E94BF018E2D8A95F1F7809176
:1006F000340260913B020E948401809348058091FE
:10070000360260913D020E948401809349058091E8
:10071000350260913C0240E00E94BF018E2D8A9517
:10072000F1F78091350260913C0241E00E94BF01E7
:100730008E2D8A95F1F78091350260913C0240E060
:100740000E94BF018E2D8A95F1F780913002609151
:1007500037020E948401182F809131026091380283
:100760000E948401082F80913202609139020E9418
:100770008401F82E8091330260913A020E94840134
:1007800001230F21082309F445C0809135026091AF
:100790003C0241E00E94BF018E2D8A95F1F78091C5
:1007A0003002609137020E94840180934C05809151
:1007B0003102609138020E94840180934B05809140
:1007C0003202609139020E94840180934A0580912F
:1007D000330260913A020E94840180934505809122
:1007E000350260913C0240E00E94BF018E2D8A9547
:1007F000F1F78091350260913C0241E00E94BF0117
:100800008E2D8A95F1F78091350260913C0240E08F
:100810000E94BF0180E49FE10197F1F710C0809131
:10082000340260913B020E948401809347058091CD
:10083000360260913D020E948401809348058091B8
:10084000350260913C0241E00E94BF018AE48A9532
:10085000F1F71F910F91FF90EF9008958B988A9870
:1008600083E061E00E94AE0282E061E00E94AE029D
:1008700008957A9902C081E008958FB18695869592
:10088000869580958170089520E030E05AE109C096
:100890002F5F3F4F7B9902C081E00895452F4A9515
:1008A000F1F728173907A0F380E0089525E104C087
:1008B000922F9A95F1F784508823D1F70895EF92FB
:1008C000FF920F931F93CF93DF93082F0E94390459
:1008D0008823E1F783E060E00E94AE028091240566
:1008E000880F880F25E104C0922F9A95F1F7845064
:1008F0008823D1F782E060E00E94AE028091240557
:10090000880F880F880F25E104C0922F9A95F1F780
:1009100084508823D1F782E061E00E94AE0280918A
:100920002405880F880F25E104C0922F9A95F1F7CE
:1009300084508823D1F711E0C0E0D0E0E02EFF24FE
:1009400005E1C7010C2E02C0959587950A94E2F740
:1009500080FF07C083E061E00E94AE0281E01827BB
:1009600004C083E060E00E94AE0280912405880FFD
:10097000880F04C0902F9A95F1F784508823D1F7FF
:1009800082E060E00E94AE0280912405880F880F0B
:10099000880F04C0902F9A95F1F784508823D1F7DF
:1009A00082E061E00E94AE0280912405880F880FEA
:1009B00004C0902F9A95F1F784508823D1F721969F
:1009C000C830D10509F0BDCF112319F083E061E0F3
:1009D00002C083E060E00E94AE0280912405880F8F
:1009E000880F25E104C0922F9A95F1F7845088234F
:1009F000D1F782E060E00E94AE0280912405880F6A
:100A0000880F880F25E104C0922F9A95F1F7845042
:100A10008823D1F782E061E00E94AE028091240534
:100A2000880F880F25E104C0922F9A95F1F7845022
:100A30008823D1F783E061E00E94AE028091240513
:100A4000880F880F25E104C0922F9A95F1F7845002
:100A50008823D1F782E060E00E94AE0280912405F5
:100A6000880F880F880F25E104C0922F9A95F1F71F
:100A700084508823D1F782E061E00E94AE02809129
:100A80002405880F880F25E104C0922F9A95F1F76D
:100A900084508823D1F788EC90E00197F1F7DF913B
:100AA000CF911F910F91FF90EF900895AF92BF9259
:100AB000CF92DF92EF92FF920F931F93CF93DF932A
:100AC0005C017B99FECF7A9BFECF80912405880F35
:100AD000880F25E104C0922F9A95F1F7845088235E
:100AE000D1F782E060E00E94AE0280912405880F79
:100AF000880F880F25E104C0922F9A95F1F7845052
:100B00008823D1F782E061E00E94AE028091240543
:100B1000880F880F25E104C0922F9A95F1F7845031
:100B20008823D1F7FF2411E0C0E0D0E031E0C32EEC
:100B3000D12CEE24E39405E17B9B09C0C6010C2E69
:100B400002C0880F991F0A94E2F7F82A1E258091A7
:100B50002405880F880F04C0902F9A95F1F78450D0
:100B60008823D1F782E060E00E94AE0280912405E4
:100B7000880F880F880F04C0902F9A95F1F7845042
:100B80008823D1F782E061E00E94AE024091240503
:100B9000842F880F880F04C0902F9A95F1F7845006
:100BA0008823D1F72196C830D10509F0C5CF8FB180
:100BB00090E023E0969587952A95E1F781709070F3
:100BC000212F30E08217930719F02FEF3FEF5DC020
:100BD000942F990F990F25E104C0822F8A95F1F780
:100BE00094509923D1F782E060E00E94AE02809198
:100BF0002405880F880F880F25E104C0922F9A954D
:100C0000F1F784508823D1F782E061E00E94AE02C0
:100C100080912405880F880F25E104C0922F9A95B2
:100C2000F1F784508823D1F783E060E00E94AE02A0
:100C300080912405880F880F25E104C0922F9A9592
:100C4000F1F784508823D1F782E060E00E94AE0281
:100C500080912405880F880F880F25E104C0922F0A
:100C60009A95F1F784508823D1F782E061E00E94E1
:100C7000AE0283E061E00E94AE0280E991E001975C
:100C8000F1F7F501F08220E030E0C901DF91CF916A
:100C90001F910F91FF90EF90DF90CF90BF90AF909A
:100CA00008950F931F93CF93DF93182FEB01042F19
:100CB000853441F0863420F481508A3030F402C00B
:100CC000893419F480EE0E945F04112309F1CD2BC1
:100CD00049F0013071F4E12FF0E0E959FB4F8081D8
:100CE000805814C0013059F4E12FF0E0E959FB4F6E
:100CF0000CC0023069F480EF0E945F0402C0023031
:100D000039F4E12FF0E0ED53FB4F80810E945F0446
:100D1000DF91CF911F910F9108950F931F93182F7B
:100D2000062F60E070E0402F0E94510688EE93E0AD
:100D300020E931E0F9013197F1F70197D9F7812FD7
:100D400061E070E0402F0E9451061F910F910895BD
:100D5000EF92FF921F93CF93DF9380915B05909169
:100D60005C05892B91F480EF0E945F04809122053D
:100D70000E945F041092A00580EF0E945F048091A2
:100D800023050E945F041092BB0589E20E945F0464
:100D900084EF91E020E931E0F9013197F1F7019713
:100DA000D9F780EF0E945F0489E20E945F04C0E0EF
:100DB000D0E040E9E42E41E0F42EC230D10519F034
:100DC000C430D105B9F484EF91E0F7013197F1F720
:100DD0000197D9F789E40E945F0484EF91E0F7015D
:100DE0003197F1F70197D9F780EF0E945F0489E40A
:100DF0000E945F0484EF91E0F7013197F1F70197CA
:100E0000D9F7FE01E85BFD4FE081F0E0E05BFD4FCC
:100E10001081812F0E945F0484EF91E0F7013197E8
:100E2000F1F70197D9F780EF0E945F04812F0E94AC
:100E30005F0484EF91E0F7013197F1F70197D9F75B
:100E40002196C830D10509F0B8CF81E080932D05F7
:100E500080932E05DF91CF911F91FF90EF90089521
:100E6000CF92DF92EF92FF920F931F93CF93DF9376
:100E70006C0188EE93E020E931E0F9013197F1F758
:100E80000197D9F789E20E945F0488EE93E020E998
:100E900031E0F9013197F1F70197D9F780EF0E941E
:100EA0005F0489E20E945F0488EE93E020E931E06C
:100EB000F9013197F1F70197D9F789E40E945F04AE
:100EC00088EE93E020E931E0F9013197F1F70197DD
:100ED000D9F780EF0E945F0489E40E945F04E60175
:100EE00001E010E050E9E52E51E0F52E21C088EE3A
:100EF00093E0F7013197F1F70197D9F789810E94C3
:100F00005F0488EE93E0F7013197F1F70197D9F785
:100F100080EF0E945F0489810E945F0488EE93E065
:100F2000F7013197F1F70197D9F70F5F1F4F21961E
:100F3000F6018081E82FF0E0E017F107C4F6EC0D30
:100F4000FD1D818180932405DF91CF911F910F9129
:100F5000FF90EF90DF90CF9008950F931F93CF9362
:100F6000DF93C0E3D2E007E312E08881F8016081FB
:100F700041E00E9495008991F80161918F0141E063
:100F80000E94BF01F2E0C733DF0779F78091350295
:100F900060913C0240E00E949500DF91CF911F914B
:100FA0000F9108950F931F93182F062F40E00E9472
:100FB000BF01812F602F40E00E94950084EC99E0F2
:100FC00020E931E0F9013197F1F70197D9F7812F45
:100FD000602F41E00E949500812F602F41E00E9428
:100FE000BF011F910F91089580913E0260913F02D1
:100FF00041E00E94950080913E0260913F0241E0F5
:101000000E94BF01809140026091410241E00E9434
:101010009500809140026091410241E00E94BF0131
:10102000809142026091430241E00E9495008091CC
:1010300042026091430241E00E94BF01809144025C
:101040006091450241E00E949500809144026091C8
:10105000450241E00E94BF01809146026091470233
:1010600041E00E949500809146026091470241E074
:101070000E94BF0108950F931F93CF93DF93C0E0A9
:10108000D2E00BE012E08881F801608141E00E942B
:1010900095008991F80161918F0141E00E94BF01A3
:1010A000F2E0CB30DF0779F7C0E0D0E0FE01EA5E86
:1010B000FD4FDE01AD5DBD4F80816C9141E00E942E
:1010C00095002196CD30D10589F7DF91CF911F9101
:1010D0000F910895CF93DF93EC01109235052B9873
:1010E00010922A05009721F481E08093240515C011
:1010F0008130910521F484E08093240515C082306D
:10110000910521F484E08093240515C08330910576
:1011100021F484E08093240515C0C430D10521F466
:1011200084E08093240515C0C530D10521F484E006
:101130008093240515C0C630D10521F484E0809346
:10114000240515C0C730D10521F484E0809324051F
:1011500015C0C830D10521F484E08093240515C062
:10116000C930D10521F484E08093240523C0CA301E
:10117000D10521F484E08093240532C0CB30D10521
:1011800021F484E0809324053AC0CC30D10591F459
:1011900084E08093240581E0809335051092360524
:1011A00010923705109238051092390582E080932D
:1011B000210525C0CE30D10599F484E08093240523
:1011C00081E0809335051092360510923705109214
:1011D00038051092390582E0809321052B9A0FC0C3
:1011E000CD30D10561F484E080932405109235055B
:1011F00081E0809321058EE494E00E943007CE01C7
:10120000DF91CF910895CF93DF93EC0110923505D4
:101210002B9810922A05009729F484E094E00E940C
:10122000300718C08130910529F488E094E00E94CD
:10123000300718C08230910529F48DE094E00E94B7
:10124000300718C08330910529F482E194E00E94B0
:10125000300718C0C430D10529F487E194E00E941A
:10126000300718C0C530D10529F48EE194E00E9402
:10127000300718C0C630D10529F483E294E00E94FB
:10128000300718C0C730D10529F483E494E00E94E8
:10129000300718C0C830D10529F48AE294E00E94D2
:1012A000300716C0C930D10529F48FE294E00E94BE
:1012B000300722C0CA30D10529F485E394E00E94AA
:1012C000300731C0CB30D10519F48AE394E035C042
:1012D000CC30D10589F481E0809335051092360534
:1012E00010923705109238051092390582E08093EC
:1012F00021058AE494E021C0CE30D105A1F481E03B
:1013000080933505109236051092370510923805F6
:101310001092390582E08093210584E594E00E94D3
:1013200030072B9A0CC0CD30D10549F41092350509
:1013300081E0809321058EE494E00E94300781E0F3
:1013400080932D0580932E0510923005CE01DF91FC
:10135000CF910895BF92CF92DF92EF92FF920F93B9
:101360001F93D82EB62E142FF22E80912C05882391
:1013700029F08AE18A95F1F710922C05002371F08B
:1013800080912105823011F482E101C08AE20E943D
:101390005F0480912C058F5F80932C05EE20A1F0D7
:1013A00080912105823029F480EE0E945F0484E15F
:1013B00004C080EE0E945F048DE10E945F04809172
:1013C0002C058F5F80932C05CC2071F08091210536
:1013D000823011F481E101C088E30E945F048091B2
:1013E0002C058F5F80932C0580912C05882329F094
:1013F0008AE18A95F1F710922C05FF2019F080EE12
:101400000E945F04812F0E945F0484EF91E020E935
:1014100031E0F9013197F1F70197D9F7FF2019F081
:1014200080EE0E945F0480912105823019F480EFE4
:101430000E945F0480912105823011F4812F02C047
:10144000812F80580E945F042D2D30E08DE090E0C8
:10145000289FF001299FF00D389FF00D1124EB0D0E
:10146000F11DE15AFA4F1082002361F080912105AD
:10147000823029F480EF0E945F0482E101C08AEA91
:101480000E945F04EE2091F080912105823041F4AA
:1014900080EE0E945F0480EF0E945F0484E104C03C
:1014A00080EE0E945F048DE90E945F04CC2061F011
:1014B00080912105823029F480EF0E945F0481E150
:1014C00001C088EB0E945F048AE18A95F1F781E010
:1014D00080932D0580932E051092400580935D0525
:1014E0001F910F91FF90EF90DF90CF90BF900895E4
:1014F000282F843251F08D3141F0853131F0833421
:1015000021F0893211F08A3509F420E0CB010C97E3
:10151000039728F480912105813009F442C32631D4
:1015200009F43FC3263209F43CC3253209F439C318
:101530002E3209F436C3222309F433C36730710510
:1015400009F492C168307105C0F46330710509F483
:10155000BCC06430710540F46130710539F162300E
:10156000710509F0E1C262C06530710509F417C167
:101570006630710508F041C1D7C06A30710509F4C1
:1015800018C26B30710548F46830710509F482C1E6
:101590006930710509F0C8C2BDC16B30710509F42D
:1015A00035C26F30710508F0BFC279C22E3109F41F
:1015B000B9C22C3209F4C0C22D3209F4CDC2243391
:1015C00009F4B8C22B3209F4C9C2233209F4CAC2E1
:1015D0002B3109F4C5C22C3109F4DEC2253309F4DC
:1015E000C5C22C3309F4A4C2243409F4B1C22D3489
:1015F00009F4D4C22A3209F4BDC2213209F4BCC2B2
:10160000223209F4C1C22A3109F4B2C2233309F4E7
:10161000BDC22B3309F4B6C2223409F495C22B346F
:1016200009F484C2223309F018C1A8C22E3109F48A
:101630008BC22C3209F480C22D3209F48DC22433BE
:1016400009F48EC22B3209F47BC2233209F470C232
:101650002B3109F46FC22C3109F480C2263309F40E
:1016600077C22D3309F48AC22E3309F467C22534B8
:1016700009F48CC2253309F491C22C3309F452C207
:10168000243409F475C22D3409F45CC22A3209F4F9
:1016900071C2213209F470C22A3109F475C22333B0
:1016A00009F458C22B3309F46DC2223409F45CC228
:1016B0002B3409F465C2223309F448C2213309F4FA
:1016C00067C22A3309F030C265C22E3109F42AC23A
:1016D0002C3209F441C22D3209F45EC22B3109F4D7
:1016E00025C2253309F44AC22C3309F42DC224340F
:1016F00009F42EC22D3409F451C22A3209F43AC237
:10170000213209F439C22A3109F432C2233309F4EF
:101710000FC22B3309F436C2223411F429E841C236
:101720002B3409F0E1C032C22E3109F40BC22C3245
:1017300009F42CC22D3209F425C22D3109F430C22E
:10174000253111F428EF2DC2233209F4FDC12B31CC
:1017500009F404C2253309F4FFC12C3309F4ECC1A8
:10176000243409F405C22D3409F418C22A3209F4CC
:1017700001C2213209F400C22A3109F4FFC1233326
:1017800009F4D8C12B3309F4CDC1223409F4E0C1E6
:101790002B3409F4EBC1223309F05FC0C9C12E31EB
:1017A00009F4CEC12C3209F4C7C12D3209F4D4C1D9
:1017B0002D3109F4F5C1253111F427E0F2C12B31A7
:1017C00009F4EAC12C3109F4DDC1243409F4D0C193
:1017D0002D3409F4E3C12A3209F4CCC1213209F4D1
:1017E000CBC1223209F4A6C12A3109F4B1C1233395
:1017F00009F4CCC12B3341F59BC12E3109F49EC1B4
:101800002C3209F499C12D3209F4A6C1233209F40E
:101810008FC1253309F4A4C12C3309F4A7C12434A2
:1018200009F4A6C12D3409F4B9C12A3209F4A2C1C0
:10183000213209F4A1C1223209F492C12A3109F4FA
:1018400087C12B3309F49EC1223409F497C12B348C
:1018500009F46CC1223309F477C1213309F498C12A
:101860002A3309F04AC096C12C3209F465C12D32E1
:1018700009F472C1263309F46DC12D3309F468C12E
:101880002E3309F463C1263409F458C1253409F014
:1018900028C14CC12E3109F445C12C3209F45CC178
:1018A0002D3209F479C12B3109F46EC1253309F4C5
:1018B00065C12C3309F448C1243409F449C12D34DD
:1018C00009F46CC12A3209F455C1213209F454C11A
:1018D0002A3109F44DC12B3309F458C1223409F4DB
:1018E00051C12B3409F424C1223309F43FC12133FF
:1018F00009F438C12A3309F44BC1263309F451C124
:101900002D3309F44EC12E3309F44BC1263409F0AE
:101910004CC047C12C3209F40FC12D3209F41CC14F
:10192000243309F41BC12B3209F41AC1233209F400
:10193000FFC02B3109F4FEC0263309F40BC12D334F
:1019400009F406C12E3309F401C1263409F4F6C0A6
:10195000253309F4E7C02C3309F408C1243409F411
:1019600007C12D3409F4F0C02A3209F403C1213231
:1019700009F402C1223209F4D9C02A3109F4FEC0A7
:10198000233309F4FDC02B3309F4FCC0223409F4DD
:10199000FBC02B3409F4FAC0223309F4D3C021333D
:1019A00009F4F6C02A3309F4F5C0253409F0BCC0A7
:1019B000F8C02E3109F4BEC02C3209F4EDC02D322E
:1019C00009F4D0C0243309F4B3C02B3209F4C0C0E9
:1019D0002C3109F4CDC02D3309F4D4C0253409F4D9
:1019E000CBC0243409F4B8C02D3409F4D7C02A324E
:1019F00009F4B0C0213209F499C0223209F492C02E
:101A00002A3109F499C0233371F5AAC02E3109F4A3
:101A10008FC02C3209F4C0C02D3209F4A3C02B3280
:101A200009F492C0233209F48BC02D3309F4AAC003
:101A3000253409F4A1C0253309F492C0243409F4F3
:101A40008BC02D3409F4AAC02A3209F483C0213294
:101A500009F46CC0223209F47BC02A3109F46CC04D
:101A6000233309F45FC02B3309F484C0223409F412
:101A70007DC02B3409F462C0223309F46FC02133D6
:101A800009F486C02A3309F485C0263309F489C0D5
:101A90002E3309F486C0263409F046C082C02534AE
:101AA00009F444C0263409F449C02E3309F44EC069
:101AB0002D3309F44DC0263309F44CC02C32E1F12A
:101AC0002D3209F449C0243309F448C02B3209F4FB
:101AD00047C0233209F446C02B3161F12C3109F49F
:101AE00043C02533F9F02C3309F440C0243409F401
:101AF0003FC02D3449F12A32E9F12132E9F12A318E
:101B0000E9F12333E9F12B33E9F12234E9F12B3404
:101B1000E9F12233B9F02133D9F12A33D9F12E3149
:101B200019F43FC024ED3DC020E03BC02EE439C095
:101B30002DED37C02DE535C029E433C025E431C093
:101B40002EE82FC02EE32DC022E52BC026E429C0AD
:101B500022ED27C02DE325C021E423C02BE521C0C1
:101B600024E51FC021EE1DC02EE01BC02BED19C0C7
:101B70002CEC17C02AEC15C02AE413C02CE411C0C9
:101B800026E30FC02EEC0DC025E50BC025ED09C0E6
:101B900021EC07C029EC05C021E603C02EE101C0FD
:101BA00027E8822F0895CF92DF92FF920F931F9321
:101BB000CF93DF93EA0110923D0510923C051092FD
:101BC0003F05082F10E0C62EDD248BE090E0089F33
:101BD000F001099FF00D189FF00D1124EC0DFD1D73
:101BE000EB57FD4F8081BA010E94780AF82E8823B6
:101BF00099F12C972397B8F480912105813099F4BD
:101C0000F801EE0FFF1FEE0FFF1FE00FF11FEC0DAD
:101C1000FD1DDF01A457BC4FFC90EC54FC4F8081AC
:101C20008823A9F005C0F7FE03C080E8F80E0FC0B6
:101C300080912105823029F482E10E945F0482E1D3
:101C400004C08AE20E945F048AE280933F058F2DE0
:101C50000E945F04F0923E05DF91CF911F910F919A
:101C6000FF90DF90CF900895CF92DF92EF92FF9296
:101C70000F931F93CF93DF93EA0110923E05E82E56
:101C8000FF24C62EDD248BE090E0E89EF001E99E63
:101C9000F00DF89EF00D1124EC0DFD1DEB57FD4FDE
:101CA0008081BA010E94780A182F8823C9F12C97E5
:101CB0002397A8F480912105813089F4F701EE0F74
:101CC000FF1FEE0FFF1FEE0DFF1DEC0DFD1DDF01D1
:101CD000A457BC4F1C91EC54FC4F008106C017FD6B
:101CE00002C001E002C0105800E08091210582305E
:101CF00029F480EF0E945F04812F02C0812F805859
:101D00000E945F04002361F080912105823029F454
:101D100080EF0E945F0482E101C08AEA0E945F04B2
:101D2000DF91CF911F910F91FF90EF90DF90CF90B7
:101D30000895FF920F931F93F82E062F142F1092E1
:101D40003D0510923C0510923F05809121054423EA
:101D500081F5823029F482E10E945F0482E104C0AF
:101D60008AE20E945F048AE280933F058091210508
:101D7000602F70E02F2D30E0823071F48BE090E026
:101D8000289FF001299FF00D389FF00D1124E60FD8
:101D9000F71FEB57FD4F0BC0F901EE0FFF1FEE0FC2
:101DA000FF1FE20FF31FE60FF71FE45CFC4F1081EB
:101DB00022C0823071F44B3631F0443721F0453780
:101DC00011F0423731F480EE0E945F0480EE809380
:101DD0003F0580912105813071F41B3431F01D34B1
:101DE00021F0183411F0103531F480EE0E945F04B8
:101DF00080EE80933F05812F0E945F0410933E0583
:101E00001F910F91FF9008950F931F93CF93DF932E
:101E1000142F10923E0590912105442379F5062F49
:101E200010E0C82FD0E09230C1F480EF0E945F0430
:101E30008BE090E0C89FF001C99FF00DD89FF00D96
:101E40001124E00FF11FEB57FD4F80810E945F04CA
:101E500080EF0E945F0482E138C0FE01EE0FFF1F99
:101E6000EE0FFF1FEC0FFD1FE00FF11FE45CFC4FB6
:101E7000808180580E945F048AEA27C0923059F41A
:101E80004B3631F0443721F0453711F0423719F421
:101E900080EE0E945F0480912105813059F41B344B
:101EA00031F01D3421F0183411F0103519F480EEA2
:101EB0000E945F0480912105823029F480EF0E9406
:101EC0005F04812F02C0812F80580E945F04DF9140
:101ED000CF911F910F910895CF92DF92EF92FF92D1
:101EE0000F931F93CF93DF93342FC82EDD24E62E5C
:101EF000FF248BE090E0C89EF001C99EF00DD89EB3
:101F0000F00D1124EE0DFF1DEB57FD4FE081EC3479
:101F100009F441C0ED34C8F4EC3009F46AC0ED3086
:101F200050F4E43009F45CC0E53009F44FC0E1300E
:101F300009F00EC167C0E13409F493C0E93409F433
:101F400086C0ED3009F004C1A8C0EB3669F1EC366B
:101F500050F4E83509F45FC0E63609F495C0E2357F
:101F600009F0F6C00FC0E43741F1E53720F4E2375D
:101F700009F0EEC062C0E53709F456C0E63709F053
:101F8000E7C079C080913205840F8093320597E0D5
:101F900021E0A4E023C080913205840F80933205B4
:101FA00097E021E0A4E081C080913205840F809306
:101FB000320597E021E0A7E05CC080913205840FF4
:101FC0008093320597E021E0A7E049C08091310578
:101FD000840F8093310595E020E0A0E080E066C0AA
:101FE00080913105840F8093310595E020E0A0E0D9
:101FF00040C080913105840F8093310595E020E049
:10200000A0E02DC080913105840F8093310595E0CB
:1020100020E0A3E04AC080913105840F8093310510
:1020200095E020E0A0E041C080913105840F8093CD
:10203000310595E020E0A0E008C080913105840FD3
:102040008093310595E020E0A3E084E02FC08091EB
:102050003105840F8093310595E020E0A3E083E013
:1020600025C080913105840F8093310595E020E0F3
:10207000A3E082E01BC080913105840F809331057D
:1020800095E020E0A3E0AACF80913105840F8093F2
:10209000310595E020E0A7E0A1CF80913105840FC4
:1020A0008093310595E020E0A7E081E00A2F10E061
:1020B000C82FD0E04DE050E0049FF001059FF00DE7
:1020C000149FF00D1124EC0FFD1FE15AFA4F70819F
:1020D0003F3F41F4809131058823F1F4809132052E
:1020E0008823D1F4892F90E0849FD001859FB00D83
:1020F000949FB00D1124A20FB11DA15ABA4FC49ED6
:10210000F001C59EF00DD49EF00D1124EE0DFF1DC3
:10211000E15AFA4F80818C938DE090E0089FD001C6
:10212000099FB00D189FB00D1124AC0FBD1FA15A0F
:10213000BA4F7871C89EF001C99EF00DD89EF00D7F
:102140001124EE0DFF1DE15AFA4F8081782B7C930C
:10215000DF91CF911F910F91FF90EF90DF90CF9083
:1021600008956F927F928F929F92AF92BF92CF927B
:10217000DF92EF92FF920F931F93109141051093FE
:102180004D050091420500934E05F0904305F092F5
:102190004F05E0904405E0925005D0904505D0925F
:1021A000510510924505C0904605C0925205109207
:1021B0004605B0904705B0925305A0904805A092FF
:1021C00054059090490590925505109249058090CC
:1021D0004A058092560510924A0570904B05709200
:1021E000570510924B0560904C056092580510926F
:1021F0004C0580E49CE90197F1F70E9413030E94CB
:10220000C80280914105811761F060E070E0882389
:1022100011F461E070E080915B04409121050E941F
:10222000510680914205801761F060E070E08823DC
:1022300011F461E070E080915C04409121050E94FE
:102240005106809143058F1561F060E070E08823AE
:1022500011F461E070E080915D04409121050E94DD
:102260005106809144058E1561F060E070E088238E
:1022700011F461E070E080915E04409121050E94BC
:102280005106809145058D1561F060E070E088236E
:1022900011F461E070E080915F04409121050E949B
:1022A0005106809146058C1561F060E070E088234E
:1022B00011F461E070E080916004409121050E947A
:1022C0005106809147058B1561F060E070E088232E
:1022D00011F461E070E080916104409121050E9459
:1022E0005106809148058A1561F060E070E088230E
:1022F00011F461E070E080916204409121050E9438
:10230000510680914905891561F060E070E08823ED
:1023100011F461E070E080916304409121050E9416
:10232000510680914A05881561F060E070E08823CD
:1023300011F461E070E080916404409121050E94F5
:10234000510680914B05871561F060E070E08823AD
:1023500011F461E070E080916504409121050E94D4
:10236000510680914C05861561F060E070E088238D
:1023700011F461E070E080916604409121050E94B3
:1023800051061F910F91FF90EF90DF90CF90BF907B
:10239000AF909F908F907F906F900895EF92FF92F3
:1023A0001F93CF93DF9380915B0590915C05892B00
:1023B00091F480EF0E945F04809122050E945F04E7
:1023C0001092A00580EF0E945F04809123050E9477
:1023D0005F041092BB0580912105823009F0D6C0C0
:1023E00084EF91E020E931E0F9013197F1F70197AD
:1023F000D9F789E20E945F0484EF91E020E931E09F
:10240000F9013197F1F70197D9F780EF0E945F0446
:1024100089E20E945F0484EF91E020E931E0F90154
:102420003197F1F70197D9F789E40E945F0484EFAF
:1024300091E020E931E0F9013197F1F70197D9F7FF
:1024400080EF0E945F0489E40E945F0480912B0565
:10245000813061F0813088F0823009F097C0CFE799
:10246000D2E090E9E92E91E0F92E8DC0C3E7D2E0E9
:1024700080E9E82E81E0F82E5BC0C4E6D2E010E9E6
:10248000E12E11E0F12E29C0F7013197F1F7019704
:10249000D9F71881812F0E945F0484EF91E0F70142
:1024A0003197F1F70197D9F780EF0E945F04812FF0
:1024B0000E945F0484EF91E0F7013197F1F70197F3
:1024C000D9F786E090E060912B050E94D31C2196FD
:1024D00082E0C337D80709F459C084EF91E0D4CF24
:1024E000F7013197F1F70197D9F71881812F0E94F1
:1024F0005F0484EF91E0F7013197F1F70197D9F785
:1025000080EF0E945F04812F0E945F0484EF91E0BE
:10251000F7013197F1F70197D9F786E090E06091E4
:102520002B050E94D31C219682E0CF37D80771F18A
:1025300084EF91E0D5CFF7013197F1F70197D9F703
:102540001881812F0E945F0484EF91E0F701319799
:10255000F1F70197D9F780EF0E945F04812F0E9465
:102560005F0484EF91E0F7013197F1F70197D9F714
:1025700086E090E060912B050E94D31C219682E0BA
:10258000C538D80719F084EF91E0D5CF81E080936A
:102590002D0580932E05DF91CF911F91FF90EF9035
:1025A0000895FF920F931F93CF93DF9380915B0564
:1025B00090915C05892B91F480EF0E945F048091DB
:1025C00022050E945F041092A00580EF0E945F0424
:1025D000809123050E945F041092BB0585E090E086
:1025E00060915B050E94D31C80912105823009F027
:1025F00060C084EF91E020E931E0F9013197F1F713
:102600000197D9F789E20E945F0484EF91E020E905
:1026100031E0F9013197F1F70197D9F780EF0E9486
:102620005F0489E20E945F0484EF91E020E931E0D9
:10263000F9013197F1F70197D9F789E40E945F0416
:1026400084EF91E020E931E0F9013197F1F701974A
:10265000D9F780EF0E945F0489E40E945F04CAE515
:10266000D2E000E911E022C0F8013197F1F70197BB
:10267000D9F7F8808F2D0E945F0484EF91E0F80174
:102680003197F1F70197D9F780EF0E945F048F2D02
:102690000E945F0484EF91E0F8013197F1F7019710
:1026A000D9F7219682E0C436D80719F084EF91E07B
:1026B000DBCF81E080932D0580932E05DF91CF91B4
:1026C0001F910F91FF9008952F923F924F925F922A
:1026D0006F927F928F929F92AF92BF92CF92DF9232
:1026E000EF92FF920F931F93CF93DF9310922D05DC
:1026F00081E062E00E948401882309F44DC085E3F3
:102700008A95F1F781E062E00E948401882309F450
:1027100066C080912F05813059F580911F059091F9
:10272000200501979093200580931F05E0E4FCE9C4
:102730003197F1F78436910508F051C08CE291E0B1
:102740009093200580931F0510922F052A98C0E9C9
:10275000D1E007C084EC99E0FE013197F1F70197D1
:10276000D9F781E062E00E948401882399F737C09D
:102770008CE291E09093200580931F0581E0809387
:102780002F052A9A84EC99E020E931E0F90131978C
:10279000F1F70197D9F723C080911F05909120058B
:1027A0008C529140B0F4209A289888EE93E020E96A
:1027B00031E0F9013197F1F70197D9F72098289A7C
:1027C00084EC99E020E931E0F9013197F1F70197C4
:1027D000D9F78CE291E09093200580931F055DE08E
:1027E000452E512C45E3242E3324339480912D051E
:1027F000882309F08CC036E1632E32E0732E23E289
:10280000822E22E0922EAA24BB240A2DF30180817D
:10281000F401608140E00E949500F3018081F401A1
:10282000608140E00E94BF018AE18A95F1F790E063
:10283000C92E92E0D92E8BE0E82E82E0F82EA49CDF
:10284000E001A59CD00DB49CD00D1124C15ADA4FE3
:1028500010E0F6018081F70160810E9484018823E5
:1028600051F1822D8A95F1F7F6018081F70160819F
:102870000E94840198818823C1F090FF0AC0926071
:102880009883083040F1153030F1802F612F40E0FF
:1028900009C0916098830830F0F01530E0F0802F87
:1028A000612F41E00E946C0F16C090FF14C09C7F06
:1028B0009460988306C0888180FF0DC08C7F8460FF
:1028C0008883083040F0153030F0802F612F4FEFB3
:1028D0000E946C0F18821F5F0894C11CD11C0894C1
:1028E000E11CF11C21961B3009F0B3CFF30181915B
:1028F0003F01F40161914F0141E00E94950008946D
:10290000A11CB11CFDE0AF16B10409F07ECF80918F
:102910005D05882311F110925D0544E655E020E045
:1029200030E011C0808180FF02C030925D05319699
:10293000E417F507B9F72F5F3F4F435F5F4F28302C
:10294000310509F453CF249DF001259DF00D349DF0
:10295000F00D1124E15AFA4FE5CF8091300588231C
:1029600009F4A0C08091A00582FF0FC01092A005BD
:1029700080915B0590915C05892B39F480EF0E9472
:102980005F04809122050E945F048091BB0582FF55
:102990000FC01092BB0580915B0590915C05892B5F
:1029A00039F480EF0E945F04809123050E945F0448
:1029B00080917D0580FF08C08091400260914102B6
:1029C0000E94D20710927D058091B10580FF08C05A
:1029D00080914202609143020E94D2071092B10599
:1029E0008091B00580FF08C0809146026091470247
:1029F0000E94D2071092B0058091AF0580FF08C0F9
:102A000080914402609145020E94D2071092AF0566
:102A10008091AE0580FF08C080913E0260913F0228
:102A20000E94D2071092AE0514E6C12E15E0D12EF9
:102A3000EE24FF24BDE0AB2EB12C1EC0F801808136
:102A400080FF08C0888190E00E94030990935C0594
:102A500080935B050F5F1F4F21960C151D0571F7C5
:102A60000894E11CF11CADE0CA2ED12CC00ED11E81
:102A7000F8E0EF16F10499F0EA9C8001EB9C100D50
:102A8000FA9C100D1124015A1A4FE701CC0FDD1FDB
:102A9000CC0FDD1FCE0DDF1DC452DC4FCFCF81E048
:102AA00080932D0580912D05882309F07DC38091A9
:102AB000A00580FF79C38091BB0580FF75C380911D
:102AC0002E05882309F06EC380915B0590915C050B
:102AD0000C970397E0F48091A30580FF08C090E075
:102AE00080912A05882309F491E090932A0580912A
:102AF000AE0580FF03C081E08093400580ED97E044
:102B000020E931E0F9013197F1F70197D9F7809188
:102B1000960580FF14C080912B05813031F08091A3
:102B20005B0590915C05892B51F01092350581E091
:102B30008093300580932D0580935D052B9A8091BD
:102B40002105823009F048C28091B00580FF10C095
:102B500080915B0590915C05892B51F480912B0548
:102B60008F5F833008F080E080932B050E94CE11A8
:102B700080915F0580FF0FC080912B05823059F056
:102B800080E060E045E020E000E0EE24CC24E5E0D9
:102B9000AE2E0E94AA098091600580FF0FC080912F
:102BA0002B05823059F080E061E046E020E000E053
:102BB000EE24CC2475E0A72E0E94AA09809161051D
:102BC00080FF0FC080912B05823059F080E062E0D9
:102BD00044E020E000E0EE24CC2455E0A52E0E9445
:102BE000AA098091620580FF0FC080912B05823079
:102BF00059F080E063E04CE020E000E0EE24CC24DB
:102C000035E0A32E0E94AA098091630580FF0FC0C2
:102C100080912B05823059F080E064E043E020E0B1
:102C200000E0EE24CC2495E0A92E0E94AA09809110
:102C30008A0580FF0FC080912B05823059F083E018
:102C400064E04BE020E000E0EE24CC2415E0A12E6F
:102C50000E94AA098091890580FF0FC080912B05F1
:102C6000823059F083E063E043E820E000E0EE24A6
:102C7000CC24B5E0AB2E0E94AA098091880580FF84
:102C80000FC080912B05823059F083E062E04AE06A
:102C900020E000E0EE24CC24A5E0AA2E0E94AA09A0
:102CA0008091870580FF0FC080912B05823059F0FD
:102CB00083E061E041E020E000E0EE24CC24F5E098
:102CC000AF2E0E94AA098091860580FF0FC08091D7
:102CD0002B05823059F083E060E049E020E000E01D
:102CE000EE24CC24E5E0AE2E0E94AA0980916C056A
:102CF00080FF0FC080912B05823059F081E060E0A9
:102D000048E720E000E0EE24CC2472E3A72E0E94E6
:102D1000AA0980916D0580FF0FC080912B0582303C
:102D200059F081E061E047E020E000E0EE24CC24AF
:102D300052E3A52E0E94AA0980917A0580FF57C010
:102D400080915B0590915C05009709F450C0049751
:102D500009F03BC08AE00E945F0484EF91E020E923
:102D600031E0F9013197F1F70197D9F789E00E9435
:102D70005F0484EF91E020E931E0F9013197F1F748
:102D80000197D9F780EF0E945F0489E00E945F04F9
:102D900080E197E220E931E0F9013197F1F70197FD
:102DA000D9F780EF0E945F048AE00E945F0484EFFD
:102DB00091E020E931E0F9013197F1F70197D9F776
:102DC00081E080932D0580932E0580915B05909185
:102DD0005C05039761F482E061E047E020E000E0F9
:102DE000EE24E394CC2435E0A32E0E94AA0980911E
:102DF000790580FF15C080912B05813031F08091DD
:102E00005B0590915C05892B59F082E060E049E018
:102E100020E000E0EE24CC2495E0A92E0E94AA092F
:102E20008091970580FF17C080912B05823031F487
:102E300080915B0590915C05892B69F084E064E0EA
:102E400043E020E000E0EE24E394CC24C39415E0BA
:102E5000A12E0E94AA098091BE0580FF17C0809113
:102E60002B05823031F480915B0590915C05892BB4
:102E700069F087E064E046E620E000E0EE24E394B9
:102E8000CC24C394B5E0AB2E0E94AA098091BD0565
:102E900080FF17C080912B05823031F480915B0553
:102EA00090915C05892B69F087E063E041E720E0C1
:102EB00000E0EE24E394CC24C394A5E0AA2E0E9463
:102EC000AA0980917D0580FF15C080912B05823075
:102ED00031F480915B0590915C05892B59F082E07B
:102EE00064E04EE720E000E0EE24CC24F5E0AF2ED5
:102EF0000E94AA098091A40580FF0CC080912B0537
:102F0000813031F080915B0590915C05892B11F047
:102F10000E94A8068091A20580FF0CC080912B051D
:102F2000813031F080915B0590915C05892B11F027
:102F30000E94D11280916E0580FF11C080915B05C7
:102F400090915C05892B59F081E062E04DE721E02A
:102F500000E0EE24CC24E5E0AE2E0E94AA09809188
:102F60006F0580FF11C080915B0590915C05892BF6
:102F700059F081E063E04AE721E000E0EE24CC2450
:102F800075E0A72E0E94AA0980917B0580FF11C0E1
:102F900080915B0590915C05892B59F082E062E09D
:102FA0004DE721E001E0EE24CC2455E0A52E0E945F
:102FB000AA0980917C0580FFF7C080915B05909104
:102FC0005C05892B09F4F0C082E063E04AE721E068
:102FD00001E0EE24CC24E1C0813009F0E5C080910D
:102FE0005F0580FF0CC080E060E04BE320E000E084
:102FF000EE24C090400535E0A32E0E94AA098091DE
:10300000600580FF0CC080E061E04CE320E000E060
:10301000EE24C090400595E0A92E0E94AA09809157
:10302000610580FF0CC080E062E04DE320E000E03D
:10303000EE24C090400515E0A12E0E94AA098091BF
:10304000620580FF0CC080E063E04EE320E000E01A
:10305000EE24C0904005B5E0AB2E0E94AA098091F5
:10306000630580FF0CC080E064E04FE320E000E0F7
:10307000EE24C0904005A5E0AA2E0E94AA098091E6
:103080008A0580FF0CC083E064E040E420E000E0BB
:10309000EE24C0904005F5E0AF2E0E94AA09809171
:1030A000890580FF0CC083E063E041E420E000E09C
:1030B000EE24C0904005E5E0AE2E0E94AA09809162
:1030C000880580FF0CC083E062E042E420E000E07D
:1030D000EE24C090400575E0A72E0E94AA098091B9
:1030E000870580FF0CC083E061E043E420E000E05E
:1030F000EE24C090400555E0A52E0E94AA098091BB
:10310000860580FF0CC083E060E044E420E000E03E
:10311000EE24C090400535E0A32E0E94AA098091BC
:103120006C0580FF0CC081E060E047E520E000E036
:10313000EE24C090400595E0A92E0E94AA09809136
:103140006D0580FF0CC081E061E048E520E000E013
:10315000EE24C090400515E0A12E0E94AA0980919E
:10316000BE0580FF0DC087E064E04EE020E000E097
:10317000EE24E394CC24C394B5E0AB2E0E94AA09BC
:103180008091BD0580FF10C087E063E043E520E04B
:1031900000E0EE24E394CC24C394A5E0AA2E0E9480
:1031A000AA0902C010922E0580912D05882309F0EE
:1031B00085C280915B0590915C05892B09F09BC0CD
:1031C0008091A00580FF10C081FD0EC08091220576
:1031D0000E945F048091A00582608093A005809189
:1031E0002C058F5F80932C058091BB0580FF10C05C
:1031F00081FD0EC0809123050E945F048091BB0574
:1032000082608093BB0580912C058F5F80932C0595
:103210008091A00582FF0EC080EF0E945F04809124
:1032200022050E945F041092A00580912C058F5FFB
:1032300080932C058091BB0582FF0EC080EF0E9419
:103240005F04809123050E945F041092BB0580916A
:103250002C058F5F80932C0580912C05882329F005
:103260008AE18A95F1F710922C05F4E6CF2EF5E06D
:10327000DF2EEE24FF24EDE08E2E912C7BE0A72E96
:10328000B12C26C0888180FF06C081FD04C0F801F2
:1032900080810E945F04888182FF08C080EF0E94C5
:1032A0005F04F80180810E945F04188221960F5FFD
:1032B0001F4FCC15DD0531F70894E11CF11C8DE0A2
:1032C00090E0C80ED91E98E0E916F10409F4F6C1A1
:1032D000E89CE001E99CD00DF89CD00D1124C15A66
:1032E000DA4FEA9C8001EB9C100DFA9C100D112422
:1032F0000B571D4FC7CF80913405882309F03FC07D
:10330000809131058823D9F5809132058823B9F55C
:103310008091A00580FF02C081FF20C08091BB0585
:1033200080FF37C081FF1AC034C0453019F499239B
:1033300059F004C0473011F4913031F0808180FFA2
:1033400003C05093340504C09F5F3196953069F7F0
:103350002F5F3F4F2830310531F41BC020E030E0B3
:103360006DE070E051E0269FF001279FF00D369F41
:10337000F00D1124E15AFA4F90E0422FD6CF809100
:10338000A00580FD06C08091BB0580FD02C01092A3
:10339000340500E0CC24DD246DE0262E312C5CC108
:1033A000E5E0AE1621F4BB2009F43DC107C0F7E00B
:1033B000AF1621F421E0B21609F435C1988190FFCF
:1033C000A2C091FDA0C080913405882369F480914A
:1033D000A00580FF02C0986098838091BB0580FFA4
:1033E00003C0888180618883888183FF0EC084FD4B
:1033F0000CC080912105823011F4F20101C0F3016B
:1034000040818A2D6B2D0E94990E888184FF0AC00D
:1034100083FD08C040915B0550915C058A2D6B2DA2
:103420000E94D30D888183FD6BC084FD69C08091AB
:103430002A0590912105882309F450C010923D057A
:1034400010923C0510923F059230E9F4F70100819B
:10345000043411F40BE614C00D3411F404E710C069
:10346000053111F405E70CC00C3111F402E708C076
:103470000B3631F0043721F0053711F0023719F41B
:1034800080EE80933F05809121058130E9F4F401BD
:103490000081083111F40BE414C0093111F40DE47A
:1034A00010C0003111F408E40CC00E3111F400E535
:1034B00008C00B3431F00D3421F0083411F0003520
:1034C00019F480EE80933F0500933E0580913F05FF
:1034D000882391F080EE0E945F040EC010923D059B
:1034E00010923C05923011F4F70101C0F401808183
:1034F00080933E0510923F0580913E050E945F0437
:10350000888182608883888182FF8DC083FF0EC09E
:1035100084FD0CC080912105823011F4F20101C0BC
:10352000F30140818A2D6B2D0E94040F888184FF56
:103530000AC083FD08C040915B0550915C058A2D4F
:103540006B2D0E94340E888183FD6CC084FD6AC09F
:1035500080912A0590912105882309F44DC010928D
:103560003E05923019F5F7010081043411F40BE6A1
:1035700014C00D3411F404E710C0053111F405E74F
:103580000CC00C3111F402E708C00B3631F00437DF
:1035900021F0053711F0023719F480EE0E945F0424
:1035A00080EF0E945F04802F0E945F0480912105BC
:1035B0008130C1F5F4010081083111F40BE414C02D
:1035C000093111F40DE410C0003111F408E40CC00D
:1035D0000E3111F400E508C00B3431F00D3421F048
:1035E000083411F0003519F480EE0E945F04802F3A
:1035F00080580E945F0416C0923039F480EF0E9418
:103600005F04F7011081812F04C0F4011081812F24
:1036100080580E945F0480913E05811709F480E084
:1036200080933E051882B39421960894E11CF11C06
:103630000894811C911C0894411C511C0894611C25
:10364000711CF5E0BF1609F0ABCE0894C11CD11C6B
:1036500028E0C216D10491F1AC2CC29CE001C39CBD
:10366000D00DD29CD00D1124C15ADA4F8BE090E0DE
:10367000C89E7001C99EF00CD89EF00C1124E5E89C
:10368000F2E0EE0EFF1EC601880F991F880F991FEA
:103690008C0D9D1D4CE3842E43E0942E880E991EC4
:1036A00034E1432E33E0532E480E591E24E6622E99
:1036B00023E0722E680E791EBB2472CEDF91CF916B
:1036C0001F910F91FF90EF90DF90CF90BF90AF9040
:1036D0009F908F907F906F905F904F903F902F9032
:1036E0000895DF92EF92FF920F931F93DF93CF9392
:1036F00000D00F920F92CDB7DEB780E880936100C3
:1037000010926100229A2A982098289A239A2B983E
:10371000279A80910B01816080930B010E942E04F7
:103720000E943B080E94AD070E94F40710925905C1
:1037300010925A0581E062E041E00E94950081E02C
:1037400062E041E00E94BF018E010F5F1F4FC80180
:1037500060E070E045E050E00E94B11C41E020E0F4
:1037600030E0B801FB01E20FF31FD901AB5DBA4FA6
:1037700090818C91981340E02F5F3F4F25303105A9
:1037800089F74423A9F085E090E00E94C11C90E0F5
:103790000E946A0890935C0580935B0586E090E048
:1037A0000E94C11C833008F080E080932B050DC07F
:1037B00085E295E060E070E045E050E00E94C91CC1
:1037C00085E090E060E00E94D31C60EAE62E66E8A7
:1037D000F62E61E0062F112DDD24D3940E943904CA
:1037E000882309F46BC080915B0590915C050C9770
:1037F000039708F063C080913505882309F056C00F
:103800008091360590913705A0913805B091390522
:103810000097A105B10509F049C050C0809133055A
:1038200080935E0583E395E00E945605892BF1F5B0
:10383000E0923605F092370500933805109339056C
:10384000809133058E3E29F40E945F04D0923505A5
:1038500003C08AEF0E945F0490913305923099F083
:10386000933028F4992341F0913001F50CC0923F38
:1038700089F09F3FD9F415C080915E05803FB1F477
:10388000809121050BC080915E05803F79F4909373
:1038900021050CC08BEA0E945F0483E80E945F044C
:1038A00005C08AEA0E945F041092350588EE93E015
:1038B0000E944404882309F0B1CF90CF809136054F
:1038C00090913705A0913805B09139050097A10571
:1038D000B10559F00197A109B1098093360590937C
:1038E0003705A0933805B093390580915B05909119
:1038F0005C050C97039780F580913E05882361F164
:1039000080913C0590913D05019690933D058093F3
:103910003C050197895E934020F480912105823017
:10392000D9F480913A0590913B05019690933B051F
:1039300080933A0501978739910570F080913F0592
:10394000882311F00E945F0480913E050E945F046D
:1039500010923B0510923A050E9464130E94B11028
:103960003DCFDC01CB01FC01F999FECF06C0F2BDD1
:10397000E1BDF89A319600B40D9241505040B8F72D
:103980000895F999FECF92BD81BDF89A992780B527
:103990000895DC01CB0103C02D910E94D41C41503D
:1039A0005040D0F70895262FF999FECF1FBA92BD47
:1039B00081BD20BD0FB6F894FA9AF99A0FBE019610
:0639C0000895F894FFCF0A
:1039C60007010701030507060402000C07040303A9
:1039D60003030101010101030507060402000200B9
:1039E600060402010101010303030307070C0C0C83
:1039F600040506040506050808080202020C04056B
:103A06000505050703050308000100030200010878
:103A160045161E26252E363D3E46212B342B4B1CA5
:103A26001B3324231A224D1C2D2C431C4B21443AB4
:103A360032441B1A222B3C4B4B21443A32441B1A6C
:103A4600224D3C2D24161E26252E000000000000C7
:103A5600151D242D2C0000000000001C1B232B34F8
:103A660000000000000045463E3D36000000000014
:103A7600004D44433C35000000000000001A22219E
:103A86002A0000000000005A4B423B3300000000B1
:103A9600000029003A31320000000000000000005A
:103AA600000000000000524C0000000000494100E8
:103AB6000000000000000000040C0558006B000028
:103AC600000000747566010072000000000000002E
:103AD600760D0000065800006B0000000000000094
:103AE600000000660074757200000000000000000F
:103AF60000000D000000007600000000020304052F
:103B06000610111213141E1F2021220B0A09080782
:103B16001918171615002C2D2E2F1C26252423398F
:103B2600003231303C3A00004B000000000000003B
:103B36000000000E004D00500000000000000000D4
:103B460000000F0000000001000000000203040551
:103B5600060000003334292B2B1A1B0C0B0A2808ED
:103B6600281B001B1A0027003535000D0D0C070019
:103B760000343309010101010100000001010101C6
:103B86000001010101010001010000000000010027
:103B96000100000001000100000000010102030411
:103BA60005FFFF0EFFFF09FF0DFFFF000C080706CC
:103BB600FFFFFFFFFFFFFFFF0BFFFFFFFFFFFFFF03
:103BC600FFFFFF0A021A220103214D2104033A1BBB
:103BD60022040321362504051C2C1C2D4304033224
:103BE600322104051C21442D3104032A43210404F7
:103BF600442D432104031B1C3A04073B3C4D432C34
:103C0600242D04051C4D4D4B2404024D2104044D66
:103C160021222C0405423224222C041B0B191A29BA
:103C2600255322170E100D0048504B4D5247494B55
:103C36004F511E302E2012212223172425263231E1
:103C4600181910131F14162F112D152C0203040515
:103C5600060708090A0B3B3C3D3E3F4041424344B0
:103C660057584F50514B4C4D4748495235374A4E9D
:103C76001C5345010E341D38461C392A363A290F85
:103C86000D33270075726B74706C7D71697A1C3206
:103C96002123242B3433433B424B3A31444D152DDB
:103CA6001B2C3C2A1D22351A161E26252E363D3E75
:103CB60046450506040C030B830A01097807697259
:103CC6007A6B73746C757D704A7C7B795A717776E2
:103CD600664914117E5A291259580E0D55414C2C1D
:0A3CE60001021214015A58554E4F06
:00000001FF
