:100000000C9472000C9493000C9493000C94930045
:100010000C9493000C9493000C9493000C94930014
:100020000C9493000C9493000C9493000C94930004
:100030000C9493000C9493000C9493000C949300F4
:100040000C9493000C9493000C9493000C949300E4
:100050000C9493000C9493000C9493000C949300D4
:100060000C9493000C9493000C9493000C949300C4
:100070000C9493000C9493000C9493000C949300B4
:100080000C9493000C9493000C9493000C949300A4
:100090000C9493000C9493000C9493000C94930094
:1000A0000C9493000C9493000C9493000C94930084
:1000B0000C9493000C9493000C9493000C94930074
:1000C0000C9493000C9493000C9493000C94930064
:1000D0000C9493000C9493000C9493000C94930054
:1000E0000C94930011241FBECFEFD1E2DEBFCDBF31
:1000F00000E00CBF15E0A0E0B2E0E8EBF4E400E0C3
:100100000BBF02C007900D92A636B107D9F716E0D3
:10011000A6E6B5E001C01D92AA34B107E1F70E943E
:10012000BB200C945A220C940000382F643009F440
:1001300066C0653048F4623081F1633008F046C033
:10014000613009F0E0C010C0673009F48AC068303F
:1001500020F4653009F0D7C06BC0683009F49AC04C
:100160006C3009F0D0C0B3C0442361F021B181E00C
:1001700090E002C0880F991F3A95E2F7809582239C
:1001800081B9089521B181E090E002C0880F991FE4
:100190003A95E2F7282B21B90895442361F024B160
:1001A00081E090E002C0880F991F3A95E2F78095B0
:1001B000822384B9089524B181E090E002C0880FC1
:1001C000991F3A95E2F7282B24B90895442361F04A
:1001D00027B181E090E002C0880F991F3A95E2F7BD
:1001E0008095822387B9089527B181E090E002C00D
:1001F000880F991F3A95E2F7282B27B908954423D1
:1002000061F02AB181E090E002C0880F991F3A9511
:10021000E2F7809582238AB908952AB181E090E0BF
:1002200002C0880F991F3A95E2F7282B2AB9089542
:10023000442361F02DB181E090E002C0880F991F46
:100240003A95E2F7809582238DB908952DB181E02A
:1002500090E002C0880F991F3A95E2F7282B2DB93C
:100260000895442361F023B381E090E002C0880F39
:10027000991F3A95E2F78095822383BB089523B3B3
:1002800081E090E002C0880F991F3A95E2F7282B91
:1002900023BB0895442371F02091010181E090E097
:1002A00002C0880F991F3A95E2F7809582238093C8
:1002B000010108952091010181E090E002C0880FC2
:1002C000991F3A95E2F7282B2093010108954423C2
:1002D00071F020910A0181E090E002C0880F991F1F
:1002E0003A95E2F78095822380930A010895209140
:1002F0000A0181E090E002C0880F991F3A95E2F769
:10030000282B20930A010895282F6430E1F06530EE
:1003100038F46230A1F06330A0F4613061F40DC0B4
:100320006730A9F0683018F4653029F40EC06830E1
:1003300081F06C30C9F080E0089580B10CC083B1C9
:100340000AC086B108C089B106C08CB104C082B3AE
:1003500002C08091000190E002C0959587952A9592
:10036000E2F78095817008958091090190E002C0C4
:10037000959587952A95E2F7809581700895382F95
:10038000643009F466C0653048F4623081F163304E
:1003900008F046C0613009F0E0C010C0673009F4D1
:1003A0008AC0683020F4653009F0D7C06BC068306F
:1003B00009F49AC06C3009F0D0C0B3C0442361F492
:1003C00022B181E090E002C0880F991F3A95E2F7D0
:1003D0008095822382B9089522B181E090E002C025
:1003E000880F991F3A95E2F7282B22B908954423E4
:1003F00061F425B181E090E002C0880F991F3A9521
:10040000E2F78095822385B9089525B181E090E0D7
:1004100002C0880F991F3A95E2F7282B25B9089555
:10042000442361F428B181E090E002C0880F991F55
:100430003A95E2F78095822388B9089528B181E042
:1004400090E002C0880F991F3A95E2F7282B28B94F
:100450000895442361F42BB181E090E002C0880F3D
:10046000991F3A95E2F7809582238BB908952BB1B5
:1004700081E090E002C0880F991F3A95E2F7282B9F
:100480002BB90895442361F42EB181E090E002C0BD
:10049000880F991F3A95E2F7809582238EB90895C7
:1004A0002EB181E090E002C0880F991F3A95E2F7E3
:1004B000282B2EB90895442361F424B381E090E001
:1004C00002C0880F991F3A95E2F78095822384BB7A
:1004D000089524B381E090E002C0880F991F3A95F7
:1004E000E2F7282B24BB0895442371F420910201E4
:1004F00081E090E002C0880F991F3A95E2F780955D
:1005000082238093020108952091020181E090E00E
:1005100002C0880F991F3A95E2F7282B2093020119
:100520000895442371F420910B0181E090E002C012
:10053000880F991F3A95E2F78095822380930B01EB
:10054000089520910B0181E090E002C0880F991F6F
:100550003A95E2F7282B20930B010895382F662354
:1005600061F020B381E090E002C0880F991F3A95B6
:10057000E2F78095822380BB089520B381E090E06C
:1005800002C0880F991F3A95E2F7282B20BB0895E7
:100590002091830530918405832F822351F081E0DF
:1005A0008093870580939B051092830510928405A4
:1005B00014C080919B05882321F01092870510922A
:1005C0009B0590E080919305882309F491E029230D
:1005D000209383053923309384052091850530913C
:1005E0008605832F822351F081E0809388058093D4
:1005F0009C051092850510928605089580919C05B2
:10060000882321F01092880510929C0590E080913B
:100610009405882309F491E0292320938505392343
:10062000309386050895EF92FF920F931F93809168
:10063000350260913C0241E00E94BF018AE4E82E4D
:100640008E2D8A95F1F780913002609137020E94D9
:1006500084018093830580913102609138020E9469
:1006600084018093840580913202609139020E9456
:100670008401809385058091330260913A020E9443
:100680008401809386058091350260913C0240E0B0
:100690000E94BF018E2D8A95F1F780913202609100
:1006A00039020E948401182F8091330260913A022E
:1006B0000E948401182309F4B2C080913402609131
:1006C0003B020E94840180938905809136026091EB
:1006D0003D020E94840180938805809135026091DB
:1006E0003C0241E00E94BF018E2D8A95F1F7809176
:1006F000340260913B020E94840180938A058091BC
:10070000360260913D020E94840180938B058091A6
:10071000350260913C0240E00E94BF018E2D8A9517
:10072000F1F78091350260913C0241E00E94BF01E7
:100730008E2D8A95F1F78091350260913C0240E060
:100740000E94BF018E2D8A95F1F780913002609151
:1007500037020E948401182F809131026091380283
:100760000E948401082F80913202609139020E9418
:100770008401F82E8091330260913A020E94840134
:1007800001230F21082309F445C0809135026091AF
:100790003C0241E00E94BF018E2D8A95F1F78091C5
:1007A0003002609137020E94840180938E0580910F
:1007B0003102609138020E94840180938D058091FE
:1007C0003202609139020E94840180938C058091ED
:1007D000330260913A020E948401809387058091E0
:1007E000350260913C0240E00E94BF018E2D8A9547
:1007F000F1F78091350260913C0241E00E94BF0117
:100800008E2D8A95F1F78091350260913C0240E08F
:100810000E94BF0180E49FE10197F1F710C0809131
:10082000340260913B020E9484018093890580918B
:10083000360260913D020E94840180938A05809176
:10084000350260913C0241E00E94BF018AE48A9532
:10085000F1F71F910F91FF90EF90089581E090E0E4
:10086000AC010090310202C0440F551F0A94E2F718
:100870000090330202C0880F991F0A94E2F7682F94
:10088000782F709520E030E0E0E826958091000117
:1008900090E084239523892B09F4206885B1872370
:1008A00085B98E2F8A95F1F785B1862B85B98E2F64
:1008B0008A95F1F73F5F383041F7822F0895CF9244
:1008C000DF92EF92FF920F931F9321E0C22ED22E60
:1008D000F601908101E010E098010090310202C021
:1008E000220F331F0A94E2F7822F80958923808399
:1008F00092E0E92E91E0F92EF7018081282B2083E8
:10090000F601808198010090320202C0220F331F4D
:100910000A94E2F7822B8083F7018081822B808307
:1009200044B1C8010090330202C0880F991F0A9495
:10093000E2F7482B44B945B1842B85B980EC90E0AF
:100940000197F1F7808120952823208380E88A95FC
:10095000F1F70E942E04982F917090938905982F9B
:10096000927090938A05982F947090938705982F92
:10097000987090938805982F907190938305982F85
:10098000907290938405982F907490938505807849
:1009900080938605F6013081C8010090320202C0C2
:1009A000880F991F0A94E2F7282F2095232320838C
:1009B000F7012081822B808394B10090330202C022
:1009C000000F111F0A94E2F7802F8095892384B9C4
:1009D00085B1082B05B91F910F91FF90EF90DF9023
:1009E000CF9008958B988A9883E061E00E94AE02D0
:1009F00082E061E00E94AE0208957A9902C081E02F
:100A000008958FB186958695869580958170089515
:100A100020E030E05AE109C02F5F3F4F7B9902C0D0
:100A200081E00895452F4A95F1F728173907A0F37B
:100A300080E0089525E104C0922F9A95F1F7845043
:100A40008823D1F70895EF92FF920F931F93CF93CE
:100A5000DF93082F0E94FD048823E1F783E060E024
:100A60000E94AE0280915F05880F880F25E104C0C7
:100A7000922F9A95F1F784508823D1F782E060E0B5
:100A80000E94AE0280915F05880F880F880F25E1D4
:100A900004C0922F9A95F1F784508823D1F782E011
:100AA00061E00E94AE0280915F05880F880F25E10A
:100AB00004C0922F9A95F1F784508823D1F711E062
:100AC000C0E0D0E0E02EFF2405E1C7010C2E02C0FB
:100AD000959587950A94E2F780FF07C083E061E06F
:100AE0000E94AE0281E0182704C083E060E00E940B
:100AF000AE0280915F05880F880F04C0902F9A95F1
:100B0000F1F784508823D1F782E060E00E94AE02C2
:100B100080915F05880F880F880F04C0902F9A95E9
:100B2000F1F784508823D1F782E061E00E94AE02A1
:100B300080915F05880F880F04C0902F9A95F1F778
:100B400084508823D1F72196C830D10509F0BDCF54
:100B5000112319F083E061E002C083E060E00E94AD
:100B6000AE0280915F05880F880F25E104C0922FA7
:100B70009A95F1F784508823D1F782E060E00E94D3
:100B8000AE0280915F05880F880F880F25E104C0B1
:100B9000922F9A95F1F784508823D1F782E061E093
:100BA0000E94AE0280915F05880F880F25E104C086
:100BB000922F9A95F1F784508823D1F783E061E072
:100BC0000E94AE0280915F05880F880F25E104C066
:100BD000922F9A95F1F784508823D1F782E060E054
:100BE0000E94AE0280915F05880F880F880F25E173
:100BF00004C0922F9A95F1F784508823D1F782E0B0
:100C000061E00E94AE0280915F05880F880F25E1A8
:100C100004C0922F9A95F1F784508823D1F788EC7D
:100C200090E00197F1F7DF91CF911F910F91FF9025
:100C3000EF900895AF92BF92CF92DF92EF92FF9222
:100C40000F931F93CF93DF935C017B99FECF7A9B29
:100C5000FECF80915F05880F880F25E104C0922F99
:100C60009A95F1F784508823D1F782E060E00E94E2
:100C7000AE0280915F05880F880F880F25E104C0C0
:100C8000922F9A95F1F784508823D1F782E061E0A2
:100C90000E94AE0280915F05880F880F25E104C095
:100CA000922F9A95F1F784508823D1F7FF2411E011
:100CB000C0E0D0E041E0C42ED12CEE24E39405E165
:100CC0007B9B09C0C6010C2E02C0880F991F0A9495
:100CD000E2F7F82A1E2580915F05880F880F04C06F
:100CE000902F9A95F1F784508823D1F782E060E045
:100CF0000E94AE0280915F05880F880F880F04C0A4
:100D0000902F9A95F1F784508823D1F782E061E023
:100D10000E94AE0240915F05842F880F880F04C0A7
:100D2000902F9A95F1F784508823D1F72196C830F7
:100D3000D10509F0C5CF8FB190E033E09695879546
:100D40003A95E1F781709070212F30E08217930778
:100D500019F02FEF3FEF5DC0942F990F990F25E108
:100D600004C0822F8A95F1F794509923D1F782E03D
:100D700060E00E94AE0280915F05880F880F880FA7
:100D800025E104C0922F9A95F1F784508823D1F77A
:100D900082E061E00E94AE0280915F05880F880FBB
:100DA00025E104C0922F9A95F1F784508823D1F75A
:100DB00083E060E00E94AE0280915F05880F880F9B
:100DC00025E104C0922F9A95F1F784508823D1F73A
:100DD00082E060E00E94AE0280915F05880F880F7C
:100DE000880F25E104C0922F9A95F1F7845088234B
:100DF000D1F782E061E00E94AE0283E061E00E94F0
:100E0000AE0280E991E00197F1F7F501F08220E070
:100E100030E0C901DF91CF911F910F91FF90EF90CA
:100E2000DF90CF90BF90AF9008950F931F93CF9313
:100E3000DF93182FEB01042F853441F0863420F422
:100E400081508A3030F402C0893419F480EE0E9457
:100E50002305112309F1CD2B49F0013071F4E12F65
:100E6000F0E0EE55FB4F8081805814C0013059F4FA
:100E7000E12FF0E0EE55FB4F0CC0023069F480EF3B
:100E80000E94230502C0023039F4E12FF0E0E25065
:100E9000FB4F80810E942305DF91CF911F910F911D
:100EA00008950F931F93182F062F60E070E0402FD6
:100EB0000E94150788EE93E020E931E0F9013197AF
:100EC000F1F70197D9F7812F61E070E0402F0E9480
:100ED00015071F910F910895EF92FF921F93CF93E3
:100EE000DF9380919D0590919E05892B91F480EF71
:100EF0000E94230580915D050E9423051092E20562
:100F000080EF0E94230580915E050E9423051092C8
:100F1000FD0589E20E94230584EF91E020E931E09C
:100F2000F9013197F1F70197D9F780EF0E94230576
:100F300089E20E942305C0E0D0E050E9E52E51E0AF
:100F4000F52EC230D10519F0C430D105B9F484EFC3
:100F500091E0F7013197F1F70197D9F789E40E9401
:100F6000230584EF91E0F7013197F1F70197D9F765
:100F700080EF0E94230589E40E94230584EF91E01D
:100F8000F7013197F1F70197D9F7FE01E85BFD4FC3
:100F9000E081F0E0E05BFD4F1081812F0E9423058E
:100FA00084EF91E0F7013197F1F70197D9F780EFDE
:100FB0000E942305812F0E94230584EF91E0F70111
:100FC0003197F1F70197D9F72196C830D10509F08B
:100FD000B8CF81E080936E0580936F05DF91CF914C
:100FE0001F91FF90EF900895CF92DF92EF92FF92C2
:100FF0000F931F93CF93DF936C0180919D05909188
:101000009E05892B91F480EF0E94230580915D0558
:101010000E9423051092E20580EF0E942305809133
:101020005E050E9423051092FD0588EE93E020E9FD
:1010300031E0F9013197F1F70197D9F789E20E9480
:10104000230588EE93E020E931E0F9013197F1F7CB
:101050000197D9F780EF0E94230589E20E942305BA
:1010600088EE93E020E931E0F9013197F1F701973B
:10107000D9F789E40E94230588EE93E020E931E066
:10108000F9013197F1F70197D9F780EF0E94230515
:1010900089E40E942305E60101E010E060E9E62E04
:1010A00061E0F62E21C088EE93E0F7013197F1F769
:1010B0000197D9F789810E94230588EE93E0F70113
:1010C0003197F1F70197D9F780EF0E9423058981C5
:1010D0000E94230588EE93E0F7013197F1F701971D
:1010E000D9F70F5F1F4F2196F6018081E82FF0E0BE
:1010F000E017F107C4F6EC0DFD1D818180935F05BB
:10110000DF91CF911F910F91FF90EF90DF90CF90E3
:101110000895FF920F931F93CF93DF93109266056C
:1011200090E080916A05882309F491E090936A0524
:10113000992311F010926B0580919D0590919E0569
:10114000892B91F480EF0E94230580915D050E9418
:1011500023051092E20580EF0E94230580915E0531
:101160000E9423051092FD0580915C05823009F0F4
:10117000B8C084EF91E020E931E0F9013197F1F74F
:101180000197D9F789E20E94230584EF91E020E9D5
:1011900031E0F9013197F1F70197D9F780EF0E941B
:1011A000230589E20E94230584EF91E020E931E0E4
:1011B000F9013197F1F70197D9F789E40E942305E6
:1011C00084EF91E020E931E0F9013197F1F70197DF
:1011D000D9F780EF0E94230589E40E9423058091BE
:1011E0006A05882329F4C8E8D2E000E911E051C07B
:1011F000C5E8D2E000E911E022C0F8013197F1F72B
:101200000197D9F7F8808F2D0E94230584EF91E094
:10121000F8013197F1F70197D9F780EF0E94230584
:101220008F2D0E94230584EF91E0F8013197F1F7AB
:101230000197D9F7219682E0C838D80719F084EFD2
:1012400091E0DBCFC1EAD2E000E911E047C0F8014C
:101250003197F1F70197D9F7F8808F2D0E94230578
:1012600084EF91E0F8013197F1F70197D9F780EF1A
:101270000E9423058F2D0E94230584EF91E0F80141
:101280003197F1F70197D9F7219682E0CC38D8074A
:10129000C9F284EF91E0DBCFF8013197F1F70197C4
:1012A000D9F7F8808F2D0E94230584EF91E0F80193
:1012B0003197F1F70197D9F780EF0E9423058F2D21
:1012C0000E94230584EF91E0F8013197F1F701972F
:1012D000D9F7219682E0C93AD80719F084EF91E056
:1012E000DBCF81E080936E0580936F05DF91CF9116
:1012F0001F910F91FF9008950F931F93CF93DF934A
:10130000C0E3D2E007E312E08881F801608141E0A8
:101310000E9495008991F80161918F0141E00E943E
:10132000BF01F2E0C733DF0779F7809135026091A2
:101330003C0240E00E949500DF91CF911F910F91F8
:1013400008950F931F93182F062F40E00E94BF01AE
:10135000812F602F40E00E94950084EC99E020E905
:1013600031E0F9013197F1F70197D9F7812F602F1B
:1013700041E00E949500812F602F41E00E94BF0153
:101380001F910F91089580913E0260913F0241E0CC
:101390000E94950080913E0260913F0241E00E94D0
:1013A000BF01809140026091410241E00E9495009E
:1013B000809140026091410241E00E94BF01809112
:1013C00042026091430241E00E94950080914202F6
:1013D0006091430241E00E94BF018091440260910C
:1013E000450241E00E9495008091440260914502CF
:1013F00041E00E94BF01809146026091470241E0B6
:101400000E949500809146026091470241E00E944F
:10141000BF0108950F931F93CF93DF93C0E0D2E0F5
:101420000BE012E08881F801608141E00E949500A4
:101430008991F80161918F0141E00E94BF01F2E0C2
:10144000CB30DF0779F7C0E0D0E0FE01EA5EFD4F68
:10145000DE01AD5DBD4F80816C9141E00E94950041
:101460002196CD30D10589F7DF91CF911F910F9152
:101470000895CF93DF93EC01109276052B9810928C
:101480006605009721F481E080935F0515C08130E7
:10149000910521F484E080935F0515C082309105A9
:1014A00021F484E080935F0515C08330910521F419
:1014B00084E080935F0515C0C430D10521F484E039
:1014C00080935F0515C0C530D10521F484E0809379
:1014D0005F0515C0C630D10521F484E080935F0517
:1014E00015C0C730D10521F484E080935F0515C095
:1014F000C830D10521F484E080935F0515C0C93060
:10150000D10521F484E080935F0523C0CA30D10562
:1015100021F484E080935F0532C0CB30D10521F403
:1015200084E080935F053AC0CC30D10591F484E02B
:1015300080935F0581E08093760510927705109285
:1015400078051092790510927A0582E080935C0507
:1015500025C0CE30D10599F484E080935F0581E009
:101560008093760510927705109278051092790590
:1015700010927A0582E080935C052B9A0FC0CD30E3
:10158000D10561F484E080935F051092760581E0D7
:1015900080935C0589E894E00E94F407CE01DF9116
:1015A000CF9108950F931F93CF93DF93EC01109188
:1015B0009D0500919E05109276052B981092660568
:1015C000009729F48FE394E00E94F40718C081305B
:1015D000910529F483E494E00E94F40718C0823056
:1015E000910529F488E494E00E94F40718C0833040
:1015F000910529F48DE494E00E94F40718C0C430EA
:10160000D10529F482E594E00E94F40718C0C530A2
:10161000D10529F489E594E00E94F40718C0C6308A
:10162000D10529F48EE594E00E94F40718C0C73074
:10163000D10529F48EE794E00E94F40718C0C83061
:10164000D10529F485E694E00E94F40718C0C9305A
:10165000D10529F48AE694E00E94F40724C0CA3038
:10166000D10529F480E794E00E94F40729C0CB302B
:10167000D10529F485E794E00E94F40738C0CC3006
:10168000D10589F481E08093760510927705109258
:1016900078051092790510927A0582E080935C05B6
:1016A00085E894E00AC0CD30D10551F4109276055A
:1016B00081E080935C0589E894E00E94F4071EC0F5
:1016C000CE30D105A1F481E08093760510927705A4
:1016D000109278051092790510927A0582E0809335
:1016E0005C058FE894E00E94F4072B9A07C0CF3086
:1016F000D10520F0812F902F9C01E90181E080939A
:101700006E0580936F0510927105CE01DF91CF9128
:101710001F910F910895BF92CF92DF92EF92FF92A7
:101720000F931F93D82EB62E142FF22E80916D0595
:10173000882329F08AE18A95F1F710926D0500233C
:1017400071F080915C05823011F482E101C08AE27F
:101750000E94230580916D058F5F80936D05EE20BB
:10176000A1F080915C05823029F480EE0E9423056F
:1017700084E104C080EE0E9423058DE10E942305D0
:1017800080916D058F5F80936D05CC2071F0809105
:101790005C05823011F481E101C088E30E942305D9
:1017A00080916D058F5F80936D0580916D05882315
:1017B00029F08AE18A95F1F710926D05FF2019F062
:1017C00080EE0E942305812F0E94230584EF91E083
:1017D00020E931E0F9013197F1F70197D9F7FF20BE
:1017E00019F080EE0E94230580915C05823019F487
:1017F00080EF0E94230580915C05823011F4812FD7
:1018000002C0812F80580E9423052D2D30E08DE0ED
:1018100090E0289FF001299FF00D389FF00D1124D2
:10182000EB0DF11DEF55FA4F1082002361F080910E
:101830005C05823029F480EF0E94230582E101C01B
:101840008AEA0E942305EE2091F080915C058230A7
:1018500041F480EE0E94230580EF0E94230584E17D
:1018600004C080EE0E9423058DE90E942305CC2050
:1018700061F080915C05823029F480EF0E9423059D
:1018800081E101C088EB0E9423058AE18A95F1F786
:1018900081E080936E0580936F051092810580939F
:1018A0009F051F910F91FF90EF90DF90CF90BF9019
:1018B0000895282F843251F08D3141F0853131F077
:1018C000833421F0893211F08A3509F420E0CB010C
:1018D0000C97039728F480915C05813009F442C38A
:1018E000263109F43FC3263209F43CC3253209F4FA
:1018F00039C32E3209F436C3222309F433C36730C7
:10190000710509F492C168307105C0F46330710546
:1019100009F4BCC06430710540F46130710539F1DF
:101920006230710509F0E1C262C06530710509F4E9
:1019300017C16630710508F041C1D7C06A30710522
:1019400009F418C26B30710548F46830710509F468
:1019500082C16930710509F0C8C2BDC16B30710523
:1019600009F435C26F30710508F0BFC279C22E315B
:1019700009F4B9C22C3209F4C0C22D3209F4CDC227
:10198000243309F4B8C22B3209F4C9C2233209F452
:10199000CAC22B3109F4C5C22C3109F4DEC2253389
:1019A00009F4C5C22C3309F4A4C2243409F4B1C229
:1019B0002D3409F4D4C22A3209F4BDC2213209F40B
:1019C000BCC2223209F4C1C22A3109F4B2C22333A3
:1019D00009F4BDC22B3309F4B6C2223409F495C20E
:1019E0002B3409F484C2223309F018C1A8C22E3165
:1019F00009F48BC22C3209F480C22D3209F48DC255
:101A0000243309F48EC22B3209F47BC2233209F449
:101A100070C22B3109F46FC22C3109F480C2263315
:101A200009F477C22D3309F48AC22E3309F467C250
:101A3000253409F48CC2253309F491C22C3309F4FE
:101A400052C2243409F475C22D3409F45CC22A321E
:101A500009F471C2213209F470C22A3109F475C245
:101A6000233309F458C22B3309F46DC2223409F42C
:101A70005CC22B3409F465C2223309F448C2213315
:101A800009F467C22A3309F030C265C22E3109F465
:101A90002AC22C3209F441C22D3209F45EC22B3124
:101AA00009F425C2253309F44AC22C3309F42DC2A6
:101AB000243409F42EC22D3409F451C22A3209F417
:101AC0003AC2213209F439C22A3109F432C223332D
:101AD00009F40FC22B3309F436C2223411F429E879
:101AE00041C22B3409F0E1C032C22E3109F40BC2DD
:101AF0002C3209F42CC22D3209F425C22D3109F4FF
:101B000030C2253111F428EF2DC2233209F4FDC172
:101B10002B3109F404C2253309F4FFC12C3309F435
:101B2000ECC1243409F405C22D3409F418C22A3258
:101B300009F401C2213209F400C22A3109F4FFC1BB
:101B4000233309F4D8C12B3309F4CDC1223409F46D
:101B5000E0C12B3409F4EBC1223309F05FC0C9C1E5
:101B60002E3109F4CEC12C3209F4C7C12D3209F44B
:101B7000D4C12D3109F4F5C1253111F427E0F2C1AA
:101B80002B3109F4EAC12C3109F4DDC1243409F404
:101B9000D0C12D3409F4E3C12A3209F4CCC1213279
:101BA00009F4CBC1223209F4A6C12A3109F4B1C12A
:101BB000233309F4CCC12B3341F59BC12E3109F4F9
:101BC0009EC12C3209F499C12D3209F4A6C12332E9
:101BD00009F48FC1253309F4A4C12C3309F4A7C13A
:101BE000243409F4A6C12D3409F4B9C12A3209F408
:101BF000A2C1213209F4A1C1223209F492C12A31D1
:101C000009F487C12B3309F49EC1223409F497C12A
:101C10002B3409F46CC1223309F477C1213309F460
:101C200098C12A3309F04AC096C12C3209F465C123
:101C30002D3209F472C1263309F46DC12D3309F434
:101C400068C12E3309F463C1263409F458C1253420
:101C500009F028C14CC12E3109F445C12C3209F4D8
:101C60005CC12D3209F479C12B3109F46EC12533E1
:101C700009F465C12C3309F448C1243409F449C17D
:101C80002D3409F46CC12A3209F455C1213209F40A
:101C900054C12A3109F44DC12B3309F458C12234FF
:101CA00009F451C12B3409F424C1223309F43FC192
:101CB000213309F438C12A3309F44BC1263309F41E
:101CC00051C12D3309F44EC12E3309F44BC12634D2
:101CD00009F04CC047C12C3209F40FC12D3209F470
:101CE0001CC1243309F41BC12B3209F41AC123325D
:101CF00009F4FFC02B3109F4FEC0263309F40BC1EF
:101D00002D3309F406C12E3309F401C1263409F438
:101D1000F6C0253309F4E7C02C3309F408C1243494
:101D200009F407C12D3409F4F0C02A3209F403C1C3
:101D3000213209F402C1223209F4D9C02A3109F44E
:101D4000FEC0233309F4FDC02B3309F4FCC0223458
:101D500009F4FBC02B3409F4FAC0223309F4D3C0D0
:101D6000213309F4F6C02A3309F4F5C0253409F00B
:101D7000BCC0F8C02E3109F4BEC02C3209F4EDC04D
:101D80002D3209F4D0C0243309F4B3C02B3209F446
:101D9000C0C02C3109F4CDC02D3309F4D4C0253492
:101DA00009F4CBC0243409F4B8C02D3409F4D7C0E9
:101DB0002A3209F4B0C0213209F499C0223209F460
:101DC00092C02A3109F499C0233371F5AAC02E318B
:101DD00009F48FC02C3209F4C0C02D3209F4A3C01D
:101DE0002B3209F492C0233209F48BC02D3309F44D
:101DF000AAC0253409F4A1C0253309F492C02434C3
:101E000009F48BC02D3409F4AAC02A3209F483C026
:101E1000213209F46CC0223209F47BC02A3109F462
:101E20006CC0233309F45FC02B3309F484C022341F
:101E300009F47DC02B3409F462C0223309F46FC069
:101E4000213309F486C02A3309F485C0263309F406
:101E500089C02E3309F486C0263409F046C082C0FA
:101E6000253409F444C0263409F449C02E3309F45A
:101E70004EC02D3309F44DC0263309F44CC02C322A
:101E8000E1F12D3209F449C0243309F448C02B3262
:101E900009F447C0233209F446C02B3161F12C31DB
:101EA00009F443C02533F9F02C3309F440C024343D
:101EB00009F43FC02D3449F12A32E9F12132E9F128
:101EC0002A31E9F12333E9F12B33E9F12234E9F145
:101ED0002B34E9F12233B9F02133D9F12A33D9F186
:101EE0002E3119F43FC024ED3DC020E03BC02EE46C
:101EF00039C02DED37C02DE535C029E433C025E4C8
:101F000031C02EE82FC02EE32DC022E52BC026E4E1
:101F100029C022ED27C02DE325C021E423C02BE5F5
:101F200021C024E51FC021EE1DC02EE01BC02BEDFB
:101F300019C02CEC17C02AEC15C02AE413C02CE4FD
:101F400011C026E30FC02EEC0DC025E50BC025ED1A
:101F500009C021EC07C029EC05C021E603C02EE131
:101F600001C027E8822F0895CF92DF92FF920F934E
:101F70001F93CF93DF93EA0110927E0510927D05A7
:101F800010928005082F10E0C62EDD248BE090E033
:101F9000089FF001099FF00D189FF00D1124EC0D22
:101FA000FD1DE054FD4F8081BA010E94590CF82EAE
:101FB000882399F12C972397B8F480915C058130A0
:101FC00099F4F801EE0FFF1FEE0FFF1FE00FF11F56
:101FD000EC0DFD1DDF01A953BC4FFC90E151FC4FFE
:101FE00080818823A9F005C0F7FE03C080E8F80EC1
:101FF0000FC080915C05823029F482E10E942305A4
:1020000082E104C08AE20E9423058AE2809380056F
:102010008F2D0E942305F0927F05DF91CF911F91B4
:102020000F91FF90DF90CF900895CF92DF92EF92C3
:10203000FF920F931F93CF93DF93EA0110927F05D6
:10204000E82EFF24C62EDD248BE090E0E89EF00110
:10205000E99EF00DF89EF00D1124EC0DFD1DE054ED
:10206000FD4F8081BA010E94590C182F8823C9F1B5
:102070002C972397A8F480915C05813089F4F701AF
:10208000EE0FFF1FEE0FFF1FEE0DFF1DEC0DFD1DF0
:10209000DF01A953BC4F1C91E151FC4F008106C0E8
:1020A00017FD02C001E002C0105800E080915C05FD
:1020B000823029F480EF0E942305812F02C0812FF6
:1020C00080580E942305002361F080915C058230D6
:1020D00029F480EF0E94230582E101C08AEA0E9470
:1020E0002305DF91CF911F910F91FF90EF90DF902B
:1020F000CF900895FF920F931F93F82E062F142F61
:1021000010927E0510927D051092800580915C05ED
:10211000442381F5823029F482E10E94230582E183
:1021200004C08AE20E9423058AE2809380058091A0
:102130005C05602F70E02F2D30E0823071F48BE071
:1021400090E0289FF001299FF00D389FF00D112499
:10215000E60FF71FE054FD4F0BC0F901EE0FFF1F14
:10216000EE0FFF1FE20FF31FE60FF71FE958FC4FBA
:10217000108122C0823071F44B3631F0443721F0A7
:10218000453711F0423731F480EE0E94230580EE8E
:102190008093800580915C05813071F41B3431F0AF
:1021A0001D3421F0183411F0103531F480EE0E9406
:1021B000230580EE80938005812F0E9423051093D4
:1021C0007F051F910F91FF9008950F931F93CF9359
:1021D000DF93142F10927F0590915C05442379F5CD
:1021E000062F10E0C82FD0E09230C1F480EF0E949B
:1021F00023058BE090E0C89FF001C99FF00DD89FA8
:10220000F00D1124E00FF11FE054FD4F80810E947A
:10221000230580EF0E94230582E138C0FE01EE0F06
:10222000FF1FEE0FFF1FEC0FFD1FE00FF11FE9581E
:10223000FC4F808180580E9423058AEA27C0923093
:1022400059F44B3631F0443721F0453711F042371D
:1022500019F480EE0E94230580915C05813059F4C9
:102260001B3431F01D3421F0183411F0103519F4FD
:1022700080EE0E94230580915C05823029F480EF76
:102280000E942305812F02C0812F80580E942305C0
:10229000DF91CF911F910F910895CF92DF92EF922E
:1022A000FF920F931F93CF93DF93742FC82EDD24DB
:1022B000E62EFF248BE090E0C89EF001C99EF00D51
:1022C000D89EF00D1124EE0DFF1DE054FD4FE0816E
:1022D000ED3009F472C0EE3060F4E430C9F1E5305D
:1022E00018F4E13099F44AC0E53041F1EC3071F472
:1022F0003AC0E23571F0E33518F4EC3439F414C027
:10230000E83509F445C0E23709F44CC050E090E0EC
:102310001CC080917305840F8093730551E097E092
:1023200031E0A4E020E053C080917305840F8093D6
:10233000730551E097E031E0A4E048C08091720558
:10234000840F8093720551E095E030E0A0E0EACF81
:1023500080917205840F8093720551E095E030E022
:10236000A0E022E034C080917205840F8093720552
:1023700051E095E030E0A0E023E029C080917205B3
:10238000840F8093720551E095E030E0A3E01EC019
:1023900080917205840F8093720551E095E030E0E2
:1023A000A0E014C080917205840F8093720551E003
:1023B00095E030E0A3E024E00AC080917205840F2C
:1023C0008093720551E095E030E0A7E021E0809134
:1023D0006805882329F0E63691F0E637D1F405C088
:1023E000E63619F0E637A9F40AC080917205870F26
:1023F0008093720551E095E030E0A3E009C0809140
:102400007205870F8093720551E095E030E0A7E0F8
:1024100020E080916905882381F0EB36E1F0EC360D
:1024200030F4E134F1F1E93409F045C031C0E4376A
:10243000D9F0E53709F03FC021C0EB36F9F0EC36B2
:1024400028F4E13489F0E934B1F505C0E43749F105
:10245000E53789F51DC080917305870F809373055B
:1024600097E031E0A7E025C080917305870F809346
:10247000730597E031E0A7E023E020C0809172056A
:10248000870F8093720595E030E0A0E024E016C04D
:1024900080917205870F8093720595E030E0A3E08C
:1024A000EBCF80917205870F8093720595E030E045
:1024B000A3E022E003C0552309F452C00A2F10E024
:1024C000C22FD0E04DE050E0049FF001059FF00DD9
:1024D000149FF00D1124EC0FFD1FEF55FA4F2081D2
:1024E0007F3F41F4809172058823F1F48091730558
:1024F0008823D1F4892F90E0849FD001859FB00D6F
:10250000949FB00D1124A30FB11DAF55BA4FC49EB7
:10251000F001C59EF00DD49EF00D1124EE0DFF1DAF
:10252000EF55FA4F80818C938DE090E0089FD001A9
:10253000099FB00D189FB00D1124AC0FBD1FAF55F2
:10254000BA4F2871C89EF001C99EF00DD89EF00DBB
:102550001124EE0DFF1DEF55FA4F8081282B2C938F
:10256000DF91CF911F910F91FF90EF90DF90CF906F
:1025700008956F927F928F929F92AF92BF92CF9267
:10258000DF92EF92FF920F931F93109183051093A8
:102590008F050091840500939005F0908505F092D9
:1025A0009105E0908605E0929205D0908705D09243
:1025B000930510928705C0908805C09294051092EB
:1025C0008805B0908905B0929505A0908A05A092E3
:1025D000960590908B059092970510928B058090B0
:1025E0008C058092980510928C0570908D057092E4
:1025F000990510928D0560908E0560929A05109253
:102600008E0580E49CE90197F1F78091820588238B
:1026100019F00E945F0404C00E9413030E94C802C4
:1026200080918305811761F060E070E0882311F4E8
:1026300061E070E08091960440915C050E9415076E
:1026400080918405801761F060E070E0882311F4C8
:1026500061E070E08091970440915C050E9415074D
:10266000809185058F1561F060E070E0882311F49A
:1026700061E070E08091980440915C050E9415072C
:10268000809186058E1561F060E070E0882311F47A
:1026900061E070E08091990440915C050E9415070B
:1026A000809187058D1561F060E070E0882311F45A
:1026B00061E070E080919A0440915C050E941507EA
:1026C000809188058C1561F060E070E0882311F43A
:1026D00061E070E080919B0440915C050E941507C9
:1026E000809189058B1561F060E070E0882311F41A
:1026F00061E070E080919C0440915C050E941507A8
:1027000080918A058A1561F060E070E0882311F4F9
:1027100061E070E080919D0440915C050E94150786
:1027200080918B05891561F060E070E0882311F4D9
:1027300061E070E080919E0440915C050E94150765
:1027400080918C05881561F060E070E0882311F4B9
:1027500061E070E080919F0440915C050E94150744
:1027600080918D05871561F060E070E0882311F499
:1027700061E070E08091A00440915C050E94150723
:1027800080918E05861561F060E070E0882311F479
:1027900061E070E08091A10440915C050E94150702
:1027A0001F910F91FF90EF90DF90CF90BF90AF906F
:1027B0009F908F907F906F900895EF92FF921F935C
:1027C000CF93DF9380919D0590919E05892B91F485
:1027D00080EF0E94230580915D050E9423051092E1
:1027E000E20580EF0E94230580915E050E9423058B
:1027F0001092FD0580915C05823009F0D6C084EF0F
:1028000091E020E931E0F9013197F1F70197D9F72B
:1028100089E20E94230584EF91E020E931E0F9018B
:102820003197F1F70197D9F780EF0E94230589E2EC
:102830000E94230584EF91E020E931E0F90131970E
:10284000F1F70197D9F789E40E94230584EF91E01D
:1028500020E931E0F9013197F1F70197D9F780EFDD
:102860000E94230589E40E94230580916705813039
:1028700061F0813088F0823009F097C0CFE7D2E074
:1028800030E9E32E31E0F32E8DC0C3E7D2E020E93A
:10289000E22E21E0F22E5BC0C4E6D2E090E9E92E00
:1028A00091E0F92E29C0F7013197F1F70197D9F797
:1028B0001881812F0E94230584EF91E0F701319761
:1028C000F1F70197D9F780EF0E942305812F0E942D
:1028D000230584EF91E0F7013197F1F70197D9F7DC
:1028E00086E090E0609167050E944C22219682E08C
:1028F000C337D80709F459C084EF91E0D4CFF7016A
:102900003197F1F70197D9F71881812F0E9423059C
:1029100084EF91E0F7013197F1F70197D9F780EF54
:102920000E942305812F0E94230584EF91E0F70187
:102930003197F1F70197D9F786E090E0609167054C
:102940000E944C22219682E0CF37D80771F184EFA4
:1029500091E0D5CFF7013197F1F70197D9F71881B9
:10296000812F0E94230584EF91E0F7013197F1F761
:102970000197D9F780EF0E942305812F0E9423053C
:1029800084EF91E0F7013197F1F70197D9F786E0ED
:1029900090E0609167050E944C22219682E0C53844
:1029A000D80719F084EF91E0D5CF81E080936E05D0
:1029B00080936F05DF91CF911F91FF90EF90089565
:1029C000FF920F931F93CF93DF9390E0809169055F
:1029D000882309F491E09093690580919D05909179
:1029E0009E05892B91F480EF0E94230580915D055F
:1029F0000E9423051092E20580EF0E94230580913A
:102A00005E050E9423051092FD0580915C058230D1
:102A100009F0BEC084EF91E020E931E0F90131977F
:102A2000F1F70197D9F789E20E94230584EF91E03D
:102A300020E931E0F9013197F1F70197D9F780EFFB
:102A40000E94230589E20E94230584EF91E020E99A
:102A500031E0F9013197F1F70197D9F789E40E9444
:102A6000230584EF91E020E931E0F9013197F1F796
:102A70000197D9F780EF0E94230589E40E9423057E
:102A800080916905882329F4C8E8D2E000E911E0C3
:102A900051C0C5E8D2E000E911E022C0F801319749
:102AA000F1F70197D9F7F8808F2D0E94230584EF65
:102AB00091E0F8013197F1F70197D9F780EF0E9483
:102AC00023058F2D0E94230584EF91E0F8013197B3
:102AD000F1F70197D9F7219682E0C838D80719F0A5
:102AE00084EF91E0DBCFC5E9D2E000E911E047C017
:102AF000F8013197F1F70197D9F7F8808F2D0E94EF
:102B0000230584EF91E0F8013197F1F70197D9F7A8
:102B100080EF0E9423058F2D0E94230584EF91E012
:102B2000F8013197F1F70197D9F7219682E0CC3877
:102B3000D807C9F284EF91E0DBCFF8013197F1F7C4
:102B40000197D9F7F8808F2D0E94230584EF91E03B
:102B5000F8013197F1F70197D9F780EF0E9423052B
:102B60008F2D0E94230584EF91E0F8013197F1F752
:102B70000197D9F7219682E0C13AD80719F084EF7E
:102B800091E0DBCF88E090E0609169050E944C22E3
:102B900081E080936E0580936F05DF91CF911F9147
:102BA0000F91FF900895FF920F931F93CF93DF93A0
:102BB00090E080916805882309F491E0909368057E
:102BC00080919D0590919E05892B91F480EF0E9444
:102BD000230580915D050E9423051092E20580EF98
:102BE0000E94230580915E050E9423051092FD0539
:102BF00080915C05823009F0BEC084EF91E020E94D
:102C000031E0F9013197F1F70197D9F789E20E9494
:102C1000230584EF91E020E931E0F9013197F1F7E4
:102C20000197D9F780EF0E94230589E20E942305CE
:102C300084EF91E020E931E0F9013197F1F7019754
:102C4000D9F789E40E94230584EF91E020E931E07F
:102C5000F9013197F1F70197D9F780EF0E94230529
:102C600089E40E94230580916805882329F4C8E837
:102C7000D2E000E911E051C0C5E8D2E000E911E07E
:102C800022C0F8013197F1F70197D9F7F8808F2D1D
:102C90000E94230584EF91E0F8013197F1F7019745
:102CA000D9F780EF0E9423058F2D0E94230584EF22
:102CB00091E0F8013197F1F70197D9F7219682E079
:102CC000C838D80719F084EF91E0DBCFCCE8D2E028
:102CD00000E911E047C0F8013197F1F70197D9F702
:102CE000F8808F2D0E94230584EF91E0F801319741
:102CF000F1F70197D9F780EF0E9423058F2D0E94ED
:102D0000230584EF91E0F8013197F1F70197D9F7A6
:102D1000219682E0CC38D807C9F284EF91E0DBCF6E
:102D2000F8013197F1F70197D9F7F8808F2D0E94BC
:102D3000230584EF91E0F8013197F1F70197D9F776
:102D400080EF0E9423058F2D0E94230584EF91E0E0
:102D5000F8013197F1F70197D9F7219682E0C5394B
:102D6000D80719F084EF91E0DBCF87E090E0609125
:102D700068050E944C2281E080936E0580936F0568
:102D8000DF91CF911F910F91FF900895FF920F93C4
:102D90001F93CF93DF9390E080918205882309F4FD
:102DA00091E09093820580919D0590919E05892BDD
:102DB00091F480EF0E94230580915D050E94230518
:102DC0001092E20580EF0E94230580915E050E942B
:102DD00023051092FD0580915C05823009F094C0B6
:102DE00084EF91E020E931E0F9013197F1F70197A3
:102DF000D9F789E20E94230584EF91E020E931E0D0
:102E0000F9013197F1F70197D9F780EF0E94230577
:102E100089E20E94230584EF91E020E931E0F90185
:102E20003197F1F70197D9F789E40E94230584EFE0
:102E300091E020E931E0F9013197F1F70197D9F7F5
:102E400080EF0E94230589E40E942305809182057A
:102E5000882329F4C9EAD2E000E911E04CC0C5EBAF
:102E6000D2E000E911E022C0F8013197F1F70197B3
:102E7000D9F7F8808F2D0E94230584EF91E0F801A7
:102E80003197F1F70197D9F780EF0E9423058F2D35
:102E90000E94230584EF91E0F8013197F1F7019743
:102EA000D9F7219682E0C03CD80741F184EF91E048
:102EB000DBCFF8013197F1F70197D9F7F8808F2D23
:102EC0000E94230584EF91E0F8013197F1F7019713
:102ED000D9F780EF0E9423058F2D0E94230584EFF0
:102EE00091E0F8013197F1F70197D9F7219682E047
:102EF000C53BD80719F084EF91E0DBCF89E090E083
:102F0000609182050E944C2281E080936E0580933F
:102F10006F05DF91CF911F910F91FF900895FF9260
:102F20000F931F93CF93DF9380919D0590919E0502
:102F3000892B91F480EF0E94230580915D050E940A
:102F400023051092E20580EF0E94230580915E0523
:102F50000E9423051092FD0585E090E060919D059B
:102F60000E944C2280915C05823009F060C084EFA1
:102F700091E020E931E0F9013197F1F70197D9F7B4
:102F800089E20E94230584EF91E020E931E0F90114
:102F90003197F1F70197D9F780EF0E94230589E275
:102FA0000E94230584EF91E020E931E0F901319797
:102FB000F1F70197D9F789E40E94230584EF91E0A6
:102FC00020E931E0F9013197F1F70197D9F780EF66
:102FD0000E94230589E40E942305CAE5D2E000E9A6
:102FE00011E022C0F8013197F1F70197D9F7F88085
:102FF0008F2D0E94230584EF91E0F8013197F1F7BE
:103000000197D9F780EF0E9423058F2D0E94230599
:1030100084EF91E0F8013197F1F70197D9F7219604
:1030200082E0C436D80719F084EF91E0DBCF81E06D
:1030300080936E0580936F05DF91CF911F910F9163
:10304000FF9008952F923F924F925F926F927F92DE
:103050008F929F92AF92BF92CF92DF92EF92FF92A8
:103060000F931F93CF93DF9310926E0581E062E080
:103070000E948401882309F44DC085E38A95F1F705
:1030800081E062E00E948401882309F466C0809197
:103090007005813059F580915A0590915B05019733
:1030A00090935B0580935A05E0E4FCE93197F1F7D2
:1030B0008436910508F051C08CE291E090935B0555
:1030C00080935A05109270052A98C0E9D1E007C094
:1030D00084EC99E0FE013197F1F70197D9F781E08F
:1030E00062E00E948401882399F737C08CE291E066
:1030F00090935B0580935A0581E0809370052A9A2E
:1031000084EC99E020E931E0F9013197F1F701977A
:10311000D9F723C080915A0590915B058C5291405C
:10312000B0F4209A289888EE93E020E931E0F90184
:103130003197F1F70197D9F72098289A84EC99E014
:1031400020E931E0F9013197F1F70197D9F78CE2E5
:1031500091E090935B0580935A05FDE04F2E512C32
:10316000E5E32E2E3324339480916E05882309F0F5
:103170008CC076E1672E72E0772E63E2862E62E0E5
:10318000962EAA24BB240A2DF3018081F4016081CC
:1031900040E00E949500F3018081F401608140E0ED
:1031A0000E94BF018AE18A95F1F750E0C52E52E0F6
:1031B000D52E4BE0E42E42E0F42EA49CE001A59C29
:1031C000D00DB49CD00D1124CF55DA4F10E0F6018C
:1031D0008081F70160810E948401882351F1822D52
:1031E0008A95F1F7F6018081F70160810E948401E0
:1031F00098818823C1F090FF0AC0926098830830BC
:1032000040F1153030F1802F612F40E009C091600E
:1032100098830830F0F01530E0F0802F612F41E006
:103220000E944D1116C090FF14C09C7F946098833B
:1032300006C0888180FF0DC08C7F84608883083041
:1032400040F0153030F0802F612F4FEF0E944D116C
:1032500018821F5F0894C11CD11C0894E11CF11C4A
:1032600021961B3009F0B3CFF30181913F01F401A6
:1032700061914F0141E00E9495000894A11CB11C8E
:10328000FDE0AF16B10409F07ECF80919F05882341
:1032900011F110929F0546EA55E020E030E011C0A0
:1032A000808180FF02C030929F053196E417F507B8
:1032B000B9F72F5F3F4F435F5F4F2830310509F467
:1032C00053CF249DF001259DF00D349DF00D112468
:1032D000EF55FA4FE5CF80917105882309F47CC042
:1032E0008091E20582FF0FC01092E20580919D055A
:1032F00090919E05892B39F480EF0E9423058091DF
:103300005D050E9423058091FD0582FF0FC010928C
:10331000FD0580919D0590919E05892B39F480EFE4
:103320000E94230580915E050E9423058091B205CD
:1033300080FF02C00E9489088091D50580FF02C0ED
:103340000E94E0148091D60580FF02C00E94D31530
:103350008091F20580FF02C00E94C61636EAC32E95
:1033600035E0D32EEE24FF242DE0A22EB12C1EC07A
:10337000F801808180FF08C0888190E00E94D20A15
:1033800090939E0580939D050F5F1F4F21960C150E
:103390001D0571F70894E11CF11C9DE0C92ED12C8C
:1033A000C00ED11EF8E0EF16F10499F0EA9C8001FE
:1033B000EB9C100DFA9C100D11240F551A4FE701CC
:1033C000CC0FDD1FCC0FDD1FCE0DDF1DC95EDB4F27
:1033D000CFCF81E080936E0580916E05882309F040
:1033E000A7C38091E20580FFA3C38091FD0580FF04
:1033F0009FC380916F05882309F098C380919D0534
:1034000090919E050C970397E0F48091E50580FF6D
:1034100008C090E080916605882309F491E09093BC
:1034200066058091F00580FF03C081E080938105EF
:1034300080ED97E020E931E0F9013197F1F701974C
:10344000D9F78091D80580FF14C08091670581303D
:1034500031F080919D0590919E05892B51F010923D
:10346000760581E08093710580936E0580939F05BA
:103470002B9A80915C05823009F072C28091F2052E
:1034800080FF10C080919D0590919E05892B51F47D
:10349000809167058F5F833008F080E08093670537
:1034A0000E94DD138091A10580FF0FC08091670508
:1034B000823059F080E060E045E020E000E0EE245A
:1034C000CC2415E0A12E0E948B0B8091A20580FFD9
:1034D0000FC080916705823059F080E061E046E0DE
:1034E00020E000E0EE24CC24B5E0AB2E0E948B0B54
:1034F0008091A30580FF0FC080916705823059F04D
:1035000080E062E044E020E000E0EE24CC24A5E08E
:10351000AA2E0E948B0B8091A40580FF0FC0809182
:103520006705823059F080E063E04CE020E000E085
:10353000EE24CC24F5E0AF2E0E948B0B8091A505E4
:1035400080FF0FC080916705823059F080E064E011
:1035500043E020E000E0EE24CC24E5E0AE2E0E9423
:103560008B0B8091CC0580FF0FC080916705823066
:1035700059F083E064E04BE020E000E0EE24CC244E
:1035800075E0A72E0E948B0B8091CB0580FF0FC0AA
:1035900080916705823059F083E063E043E820E0E2
:1035A00000E0EE24CC2455E0A52E0E948B0B8091E8
:1035B000CA0580FF0FC080916705823059F083E013
:1035C00062E04AE020E000E0EE24CC2435E0A32EC7
:1035D0000E948B0B8091C90580FF0FC08091670509
:1035E000823059F083E061E041E020E000E0EE2429
:1035F000CC2495E0A92E0E948B0B8091C80580FFFA
:103600000FC080916705823059F083E060E049E0A7
:1036100020E000E0EE24CC2415E0A12E0E948B0BCC
:103620008091AE0580FF0FC080916705823059F010
:1036300081E060E048E720E000E0EE24CC24B2E343
:10364000AB2E0E948B0B8091AF0580FF0FC0809145
:103650006705823059F081E061E047E020E000E05A
:10366000EE24CC24A2E3AA2E0E948B0B8091BC05F1
:1036700080FF57C080919D0590919E05009709F4A9
:1036800050C0049709F03BC08AE00E94230584EFF4
:1036900091E020E931E0F9013197F1F70197D9F78D
:1036A00089E00E94230584EF91E020E931E0F901EF
:1036B0003197F1F70197D9F780EF0E94230589E050
:1036C0000E94230580E197E220E931E0F90131977A
:1036D000F1F70197D9F780EF0E9423058AE00E9455
:1036E000230584EF91E020E931E0F9013197F1F70A
:1036F0000197D9F781E080936E0580936F058091E3
:103700009D0590919E05039761F482E061E047E09A
:1037100020E000E0EE24E394CC24F5E0AF2E0E94FC
:103720008B0B8091BB0580FF15C0809167058130B0
:1037300031F080919D0590919E05892B59F082E092
:1037400060E049E020E000E0EE24CC24E5E0AE2E8D
:103750000E948B0B8091D90580FF17C0809167056F
:10376000823031F480919D0590919E05892B69F0FE
:1037700084E064E043E020E000E0EE24E394CC2425
:10378000C39475E0A72E0E948B0B8091000680FFEA
:1037900017C080916705823031F480919D0590912A
:1037A0009E05892B69F087E064E046E620E000E0B2
:1037B000EE24E394CC24C39455E0A52E0E948B0BF9
:1037C0008091FF0580FF17C080916705823031F43A
:1037D00080919D0590919E05892B69F087E063E0BB
:1037E00041E720E000E0EE24E394CC24C39435E0EC
:1037F000A32E0E948B0B8091BF0580FF15C0809186
:103800006705823031F480919D0590919E05892B4A
:1038100059F082E064E04EE720E000E0EE24CC24A2
:1038200095E0A92E0E948B0B8091E60580FF0CC0CD
:1038300080916705813031F080919D0590919E05C2
:10384000892B11F00E946C078091E40580FF0CC069
:1038500080916705813031F080919D0590919E05A2
:10386000892B11F00E948F178091B00580FF11C045
:1038700080919D0590919E05892B59F081E062E031
:103880004DE721E000E0EE24CC2415E0A12E0E94BB
:103890008B0B8091B10580FF11C080919D059091A7
:1038A0009E05892B59F081E063E04AE721E000E0C2
:1038B000EE24CC24B5E0AB2E0E948B0B8091BD058D
:1038C00080FF11C080919D0590919E05892B59F034
:1038D00082E062E04DE721E001E0EE24CC24A5E0A7
:1038E000AA2E0E948B0B8091BE0580FF11C0809193
:1038F0009D0590919E05892B59F082E063E04AE78F
:1039000021E001E0EE24CC24F5E0AF2E0E948B0BE9
:103910008091F30580FF11C080919D0590919E05D7
:10392000892B59F086E064E04BE720E000E0EE24CC
:10393000CC24E5E0AE2E0E948B0B8091FE0580FF2B
:10394000F7C080919D0590919E05892B09F4F0C0E8
:1039500087E062E04CE720E000E0EE24CC24E1C008
:10396000813009F0E5C08091A10580FF0CC080E0A6
:1039700060E04BE320E000E0EE24C090810575E0BC
:10398000A72E0E948B0B8091A20580FF0CC080E0C7
:1039900061E04CE320E000E0EE24C090810555E0BA
:1039A000A52E0E948B0B8091A30580FF0CC080E0A8
:1039B00062E04DE320E000E0EE24C090810535E0B8
:1039C000A32E0E948B0B8091A40580FF0CC080E089
:1039D00063E04EE320E000E0EE24C090810595E036
:1039E000A92E0E948B0B8091A50580FF0CC080E062
:1039F00064E04FE320E000E0EE24C090810515E094
:103A0000A12E0E948B0B8091CC0580FF0CC083E01F
:103A100064E040E420E000E0EE24C0908105B5E0E1
:103A2000AB2E0E948B0B8091CB0580FF0CC083E0F6
:103A300063E041E420E000E0EE24C0908105A5E0D1
:103A4000AA2E0E948B0B8091CA0580FF0CC083E0D8
:103A500062E042E420E000E0EE24C0908105F5E061
:103A6000AF2E0E948B0B8091C90580FF0CC083E0B4
:103A700061E043E420E000E0EE24C0908105E5E051
:103A8000AE2E0E948B0B8091C80580FF0CC083E096
:103A900060E044E420E000E0EE24C090810575E0A1
:103AA000A72E0E948B0B8091AE0580FF0CC081E099
:103AB00060E047E520E000E0EE24C090810555E09D
:103AC000A52E0E948B0B8091AF0580FF0CC081E07A
:103AD00061E048E520E000E0EE24C090810535E09B
:103AE000A32E0E948B0B8091000680FF0DC087E003
:103AF00064E04EE020E000E0EE24E394CC24C394A4
:103B000095E0A92E0E948B0B8091FF0580FF10C0CD
:103B100087E063E043E520E000E0EE24E394CC247A
:103B2000C39415E0A12E0E948B0B02C010926F056A
:103B300080916E05882309F00BC380916A05882364
:103B400009F481C080916C05882309F070C08091D0
:103B5000E205882371F08091CB0580FF0AC0809137
:103B60004002609141020E94A1091092CB0510927F
:103B70006B058091E205882371F08091CC0580FF70
:103B80000AC080914202609143020E94A1091092F2
:103B9000CC0510926B058091E205882371F080912D
:103BA000A50580FF0AC080913E0260913F020E94FD
:103BB000A1091092A50510926B058091E20588235A
:103BC000D1F08091CA0580FF16C080916B058823D3
:103BD00039F010926B0510926A0510926C0509C0BD
:103BE00080914602609147020E94A10981E0809382
:103BF0006B051092CA058091EF0580FF0AC0809185
:103C00004402609145020E94A1091092EF051092B2
:103C10006B058091E2058823B1F08091A10580FFBA
:103C200012C01092A10581E080936C050CC08091B8
:103C3000E205882341F08091A10580FF04C0109225
:103C4000A10510926C0580919D0590919E05892B90
:103C500009F09BC08091E20580FF10C081FD0EC07D
:103C600080915D050E9423058091E205826080932A
:103C7000E20580916D058F5F80936D058091FD0554
:103C800080FF10C081FD0EC080915E050E9423055B
:103C90008091FD0582608093FD0580916D058F5FA9
:103CA00080936D058091E20582FF0EC080EF0E9437
:103CB000230580915D050E9423051092E205809105
:103CC0006D058F5F80936D058091FD0582FF0EC0AD
:103CD00080EF0E94230580915E050E9423051092CB
:103CE000FD0580916D058F5F80936D0580916D0559
:103CF000882329F08AE18A95F1F710926D05B6EADA
:103D0000CB2EB5E0DB2EEE24FF24ADE08A2E912CE5
:103D1000FBE0AF2EB12C26C0888180FF06C081FD5C
:103D200004C0F80180810E942305888182FF08C0B9
:103D300080EF0E942305F80180810E9423051882EC
:103D400021960F5F1F4FCC15DD0531F70894E11C5C
:103D5000F11C8DE090E0C80ED91E98E0E916F10440
:103D600009F4F6C1E89CE001E99CD00DF89CD00D67
:103D70001124CF55DA4FEA9C8001EB9C100DFA9C80
:103D8000100D112400541D4FC7CF80917505882355
:103D900009F03FC0809172058823D9F580917305A1
:103DA0008823B9F58091E20580FF02C081FF20C021
:103DB0008091FD0580FF37C081FF1AC034C04530B7
:103DC00019F4992359F004C0473011F4913031F0BF
:103DD000808180FF03C05093750504C09F5F3196BA
:103DE000953069F72F5F3F4F2830310531F41BC004
:103DF00020E030E06DE070E051E0269FF001279F69
:103E0000F00D369FF00D1124EF55FA4F90E0422F40
:103E1000D6CF8091E20580FD06C08091FD0580FD32
:103E200002C01092750500E0CC24DD24EDE02E2EBA
:103E3000312C5CC1E5E0AE1621F4BB2009F43DC194
:103E400007C0F7E0AF1621F421E0B21609F435C13E
:103E5000988190FFA2C091FDA0C080917505882334
:103E600069F48091E20580FF02C098609883809198
:103E7000FD0580FF03C0888180618883888183FF7E
:103E80000EC084FD0CC080915C05823011F4F201FB
:103E900001C0F30140818A2D6B2D0E947A10888128
:103EA00084FF0AC083FD08C040919D0550919E0586
:103EB0008A2D6B2D0E94B40F888183FD6BC084FD19
:103EC00069C08091660590915C05882309F450C013
:103ED00010927E0510927D05109280059230E9F4D3
:103EE000F7010081043411F40BE614C00D3411F411
:103EF00004E710C0053111F405E70CC00C3111F4D2
:103F000002E708C00B3631F0043721F0053711F015
:103F1000023719F480EE8093800580915C05813032
:103F2000E9F4F4010081083111F40BE414C0093103
:103F300011F40DE410C0003111F408E40CC00E318E
:103F400011F400E508C00B3431F00D3421F00834D1
:103F500011F0003519F480EE8093800500937F0501
:103F600080918005882391F080EE0E9423050EC089
:103F700010927E0510927D05923011F4F70101C078
:103F8000F401808180937F051092800580917F05E8
:103F90000E942305888182608883888182FF8DC08A
:103FA00083FF0EC084FD0CC080915C05823011F44B
:103FB000F20101C0F30140818A2D6B2D0E94E510B2
:103FC000888184FF0AC083FD08C040919D055091FF
:103FD0009E058A2D6B2D0E941510888183FD6CC073
:103FE00084FD6AC08091660590915C05882309F480
:103FF0004DC010927F05923019F5F701008104340D
:1040000011F40BE614C00D3411F404E710C00531AF
:1040100011F405E70CC00C3111F402E708C00B36AF
:1040200031F0043721F0053711F0023719F480EE32
:104030000E94230580EF0E942305802F0E94230504
:1040400080915C058130C1F5F4010081083111F4E3
:104050000BE414C0093111F40DE410C0003111F467
:1040600008E40CC00E3111F400E508C00B3431F047
:104070000D3421F0083411F0003519F480EE0E945F
:104080002305802F80580E94230516C0923039F4F2
:1040900080EF0E942305F7011081812F04C0F401F5
:1040A0001081812F80580E94230580917F05811700
:1040B00009F480E080937F051882B39421960894D8
:1040C000E11CF11C0894811C911C0894411C511C9A
:1040D0000894611C711CF5E0BF1609F0ABCE089482
:1040E000C11CD11C28E0C216D10491F1AC2CC29C99
:1040F000E001C39CD00DD29CD00D1124CF55DA4FD6
:104100008BE090E0C89E7001C99EF00CD89EF00C28
:104110001124E0ECF2E0EE0EFF1EC601880F991F9D
:10412000880F991F8C0D9D1D67E7862E63E0962EE4
:10413000880E991E5FE4452E53E0552E480E591EF9
:104140004FE9642E43E0742E680E791EBB2472CEB4
:10415000DF91CF911F910F91FF90EF90DF90CF9063
:10416000BF90AF909F908F907F906F905F904F9097
:104170003F902F900895DF92EF92FF920F931F933D
:10418000DF93CF9300D00F920F92CDB7DEB780E8C8
:104190008093610010926100229A2A982098289AB0
:1041A000239A2B98279A80910B01816080930B01B1
:1041B0000E94F2040E940A0A0E947C090E94C3091C
:1041C00010929B0510929C0581E062E041E00E9404
:1041D000950081E062E041E00E94BF018E010F5F27
:1041E0001F4FC80160E070E045E050E00E942A22C5
:1041F00041E020E030E0B801FB01E20FF31FD901FC
:10420000A05ABA4F90818C91981340E02F5F3F4F96
:104210002530310589F7442381F185E090E00E9443
:104220003A2290E00E94390A90939E0580939D0562
:1042300086E090E00E943A22833008F080E080938C
:10424000670587E090E00E943A22823008F080E023
:104250008093680588E090E00E943A22823008F05E
:1042600080E08093690589E090E00E943A228230E4
:1042700008F080E08093820521C080E695E060E050
:1042800070E045E050E00E94422285E090E060E06E
:104290000E944C2286E090E061E00E944C2287E080
:1042A00090E060E00E944C2288E090E060E00E9494
:1042B0004C2289E090E060E00E944C22A0EAEA2EC5
:1042C000A6E8FA2EA1E00A2F112DDD24D3940E9436
:1042D000FD04882309F46BC080919D0590919E0593
:1042E0000C97039708F063C080917605882309F046
:1042F00056C08091770590917805A0917905B0918D
:104300007A050097A105B10509F049C050C0809118
:1043100074058093A00584E795E00E941A06892B16
:10432000F1F5E0927705F092780500937905109306
:104330007A05809174058E3E29F40E942305D0925F
:10434000760503C08AEF0E94230590917405923090
:1043500099F0933028F4992341F0913001F50CC085
:10436000923F89F09F3FD9F415C08091A005803F0E
:10437000B1F480915C050BC08091A005803F79F479
:1043800090935C050CC08BEA0E94230583E80E9491
:10439000230505C08AEA0E9423051092760588EE5F
:1043A00093E00E940805882309F0B1CF90CF809157
:1043B000770590917805A0917905B0917A050097DD
:1043C000A105B10559F00197A109B10980937705BD
:1043D00090937805A0937905B0937A0580919D0517
:1043E00090919E050C97039780F580917F05882317
:1043F00061F180917D0590917E05019690937E05F7
:1044000080937D050197895E934020F480915C053F
:104410008230D9F480917B0590917C050196909330
:104420007C0580937B0501978739910570F0809119
:104430008005882311F00E94230580917F050E944A
:10444000230510927C0510927B050E9422180E9481
:10445000B9123DCFDC01CB01FC01F999FECF06C0BA
:10446000F2BDE1BDF89A319600B40D924150504032
:10447000B8F70895F999FECF92BD81BDF89A9927B2
:1044800080B50895DC01CB0103C02D910E944D221F
:1044900041505040D0F70895262FF999FECF1FBA0A
:1044A00092BD81BD20BD0FB6F894FA9AF99A0FBE5D
:0844B00001960895F894FFCF76
:1044B80007010701030507060402000C07040303AC
:1044C80003030101010101030507060402000200BC
:1044D800060402010101010303030307070C0C0C86
:1044E800040506040506050808080202020C04056E
:1044F8000505050703050308010400050200010876
:1045080045161E26252E363D3E46212B342B4B1CA8
:104518001B3324231A224D1C2D2C431C4B21443AB7
:1045280032441B1A222B3C4B4B21443A32441B1A6F
:10453800224D3C2D24443129442B2B2923244B295B
:10454800322D241C42213C2D1B442D1B2942324D67
:10455800212C1A22233C4331443B4435291C2C1C72
:104568002D431B3A233B4435292B1C3A4321443A1B
:10457800161E26252E000000000000151D242D2CD7
:104588000000000000001C1B232B3400000000006A
:104598000045463E3D360000000000004D44433CC7
:1045A80035000000000000001A22212A0000000047
:1045B80000005A4B423B3300000000000029003A3B
:1045C8003132000000000000000000000000000080
:1045D80000524C00000000004941000000000000AB
:1045E800000000040C0558006B0000000000747502
:1045F8006601007200000000000000760D00000651
:104608005800006B00000000000000000000660079
:10461800747572000000000000000000000D00002A
:1046280000007600000000020304050610111213B2
:10463800141E1F2021220B0A09080719181716151E
:10464800002C2D2E2F1C2625242339003231303CF6
:104658003A00004B000000000000000000000E00BF
:104668004D0050000000000000000000000F000096
:1046780000000100000000020304050600000033EA
:1046880034292B2B1A1B0C0B0A2808281B001B1A71
:104698000027003535000D0D0C07000034330901E3
:1046A80001010101000000010101010001010101F6
:1046B80001000101000000000001000100000001EC
:1046C800000100000000010102030405FFFF0EFFC6
:1046D800FF09FF0DFFFF000C080706FFFFFFFFFFA4
:1046E800FFFFFF0BFFFFFFFFFFFFFFFFFFFF0A02B8
:1046F8001A220103214D2104033A1B220403213607
:104708002504051C2C1C2D43040332322104051CEE
:1047180021442D3104032A43210404442D43210458
:10472800031B1C3A04073B3C4D432C242D04051C59
:104738004D4D4B2404024D2104044D21222C040527
:10474800423224222C041B0B191A29255322170E36
:10475800100D0048504B4D5247494B4F511E302EBB
:104768002012212223172425263231181910131F4D
:1047780014162F112D152C02030405060708090A23
:104788000B3B3C3D3E3F404142434457584F5051FC
:104798004B4C4D4748495235374A4E1C5345010E3C
:1047A800341D38461C392A363A290F0D332700752F
:1047B800726B74706C7D71697A1C322123242B34DE
:1047C80033433B424B3A31444D152D1B2C3C2A1D9B
:1047D80022351A161E26252E363D3E464505060468
:1047E8000C030B830A0109780769727A6B73746C7E
:1047F800757D704A7C7B795A717776664914117E8B
:104808005A291259580E0D55414C2C010212140107
:0648180053554741520018
:00000001FF
