:100000000C9446000C9465000C9465000C946500FB
:100010000C9465000C9465000C9465000C946500CC
:100020000C9465000C9465000C9465000C946500BC
:100030000C9465000C9465000C9465000C946500AC
:100040000C9465000C9465000C9465000C9465009C
:100050000C9465000C9465000C9465000C9465008C
:100060000C9465000C9465000C9465000C9465007C
:100070000C9465000C9465000C9465000C9465006C
:100080000C9465000C9465000C94650011241FBE4F
:10009000CFEFD0E1DEBFCDBF13E0A0E0B1E0EAE6F4
:1000A000FCE200E00BBF02C007900D92A234B10742
:1000B000D9F714E0A2E4B3E001C01D92A730B10764
:1000C000E1F70E94DD140C9433160C940000382FD5
:1000D000633009F441C0643030F4613059F062306B
:1000E00009F088C020C0643009F44FC0673009F0BF
:1000F00081C064C0442361F02AB381E090E002C073
:10010000880F991F3A95E2F7809582238ABB08955C
:100110002AB381E090E002C0880F991F3A95E2F778
:10012000282B2ABB0895442361F027B381E090E097
:1001300002C0880F991F3A95E2F78095822387BB0A
:10014000089527B381E090E002C0880F991F3A9587
:10015000E2F7282B27BB0895442361F024B381E004
:1001600090E002C0880F991F3A95E2F780958223AC
:1001700084BB089524B381E090E002C0880F991FEA
:100180003A95E2F7282B24BB0895442361F021B36C
:1001900081E090E002C0880F991F3A95E2F78095C0
:1001A000822381BB089521B381E090E002C0880FD3
:1001B000991F3A95E2F7282B21BB0895442371F04B
:1001C0002091640081E090E002C0880F991F3A9569
:1001D000E2F7809582238093640008952091640063
:1001E00081E090E002C0880F991F3A95E2F7282B32
:1001F000209364000895282F633089F0643028F438
:10020000613049F0623029F408C0643051F0673041
:1002100091F080E0089589B305C086B303C083B32D
:1002200001C080B390E002C0959587952A95E2F7CA
:100230008095817008958091630090E002C095954B
:1002400087952A95E2F7809581700895382F63305D
:1002500009F441C0643030F4613059F0623009F083
:1002600088C020C0643009F44FC0673009F081C0F5
:1002700064C0442361F42BB381E090E002C0880F96
:10028000991F3A95E2F7809582238BBB08952BB393
:1002900081E090E002C0880F991F3A95E2F7282B81
:1002A0002BBB0895442361F428B381E090E002C0A1
:1002B000880F991F3A95E2F78095822388BB0895AD
:1002C00028B381E090E002C0880F991F3A95E2F7C9
:1002D000282B28BB0895442361F425B381E090E0E6
:1002E00002C0880F991F3A95E2F78095822385BB5B
:1002F000089525B381E090E002C0880F991F3A95D8
:10030000E2F7282B25BB0895442361F422B381E052
:1003100090E002C0880F991F3A95E2F780958223FA
:1003200082BB089522B381E090E002C0880F991F3C
:100330003A95E2F7282B22BB0895442371F42091CB
:10034000650081E090E002C0880F991F3A95E2F7BE
:10035000809582238093650008952091650081E057
:1003600090E002C0880F991F3A95E2F7282B20935E
:1003700065000895382F662371F02091610081E0B7
:1003800090E002C0880F991F3A95E2F7809582238A
:100390008093610008952091610081E090E002C0A7
:1003A000880F991F3A95E2F7282B20936100089552
:1003B000E2E6F0E08081877F808380818B7F80838D
:1003C00083E061E00E94BA0182E061E00E94BA012C
:1003D0000895029902C081E0089580B186958695BE
:1003E000869580958170089520E030E05AE109C03B
:1003F0002F5F3F4F039902C081E00895452F4A9532
:10040000F1F728173907A0F380E0089525E104C02B
:10041000922F9A95F1F784508823D1F70895EF929F
:10042000FF920F931F93CF93DF93082F0E94E90150
:100430008823E1F783E060E00E94BA0180913B03EA
:10044000880F880F25E104C0922F9A95F1F7845008
:100450008823D1F782E060E00E94BA0180913B03DB
:10046000880F880F880F25E104C0922F9A95F1F725
:1004700084508823D1F782E061E00E94BA01809124
:100480003B03880F880F25E104C0922F9A95F1F75E
:1004900084508823D1F711E0C0E0D0E0E02EFF24A3
:1004A00005E1C7010C2E02C0959587950A94E2F7E5
:1004B00080FF07C083E061E00E94BA0181E0182755
:1004C00004C083E060E00E94BA0180913B03880F82
:1004D000880F04C0902F9A95F1F784508823D1F7A4
:1004E00082E060E00E94BA0180913B03880F880F90
:1004F000880F04C0902F9A95F1F784508823D1F784
:1005000082E061E00E94BA0180913B03880F880F6E
:1005100004C0902F9A95F1F784508823D1F7219643
:10052000C830D10509F0BDCF112319F083E061E097
:1005300002C083E060E00E94BA0180913B03880F13
:10054000880F25E104C0922F9A95F1F784508823F3
:10055000D1F782E060E00E94BA0180913B03880FEE
:10056000880F880F25E104C0922F9A95F1F78450E7
:100570008823D1F782E061E00E94BA0180913B03B9
:10058000880F880F25E104C0922F9A95F1F78450C7
:100590008823D1F783E061E00E94BA0180913B0398
:1005A000880F880F25E104C0922F9A95F1F78450A7
:1005B0008823D1F782E060E00E94BA0180913B037A
:1005C000880F880F880F25E104C0922F9A95F1F7C4
:1005D00084508823D1F782E061E00E94BA018091C3
:1005E0003B03880F880F25E104C0922F9A95F1F7FD
:1005F00084508823D1F788EC90E00197F1F7DF91E0
:10060000CF911F910F91FF90EF900895AF92BF92FD
:10061000CF92DF92EF92FF920F931F93CF93DF93CE
:100620005C010399FECF029BFECF80913B03880FB4
:10063000880F25E104C0922F9A95F1F78450882302
:10064000D1F782E060E00E94BA0180913B03880FFD
:10065000880F880F25E104C0922F9A95F1F78450F6
:100660008823D1F782E061E00E94BA0180913B03C8
:10067000880F880F25E104C0922F9A95F1F78450D6
:100680008823D1F7FF2411E0C0E0D0E031E0C32E91
:10069000D12CEE24E39405E1039B09C0C6010C2E86
:1006A00002C0880F991F0A94E2F7F82A1E2580914C
:1006B0003B03880F880F04C0902F9A95F1F7845060
:1006C0008823D1F782E060E00E94BA0180913B0369
:1006D000880F880F880F04C0902F9A95F1F78450E7
:1006E0008823D1F782E061E00E94BA0140913B0388
:1006F000842F880F880F04C0902F9A95F1F78450AB
:100700008823D1F72196C830D10509F0C5CF80B133
:1007100090E023E0969587952A95E1F78170907097
:10072000212F30E08217930719F02FEF3FEF5DC0C4
:10073000942F990F990F25E104C0822F8A95F1F724
:1007400094509923D1F782E060E00E94BA01809131
:100750003B03880F880F880F25E104C0922F9A95DC
:10076000F1F784508823D1F782E061E00E94BA015A
:1007700080913B03880F880F25E104C0922F9A9542
:10078000F1F784508823D1F783E060E00E94BA013A
:1007900080913B03880F880F25E104C0922F9A9522
:1007A000F1F784508823D1F782E060E00E94BA011B
:1007B00080913B03880F880F880F25E104C0922F9A
:1007C0009A95F1F784508823D1F782E061E00E9486
:1007D000BA0183E061E00E94BA0180E991E00197EB
:1007E000F1F7F501F08220E030E0C901DF91CF910F
:1007F0001F910F91FF90EF90DF90CF90BF90AF903F
:100800000895EF92FF921F93CF93DF9380915A0345
:1008100090915B03892B91F480EF0E940F028091ED
:1008200039030E940F0210929F0380EF0E940F0273
:1008300080913A030E940F021092BA0389E20E944B
:100840000F0284EF91E020E931E0F9013197F1F7EF
:100850000197D9F780EF0E940F0289E20E940F02F0
:10086000C0E0D0E040E9E42E41E0F42EC230D105F2
:1008700019F0C430D105B9F484EF91E0F701319754
:10088000F1F70197D9F789E40E940F0284EF91E014
:10089000F7013197F1F70197D9F780EF0E940F0226
:1008A00089E40E940F0284EF91E0F7013197F1F79C
:1008B0000197D9F7FE01E05DFE4FE081F0E0E85CD2
:1008C000FE4F1081812F0E940F0284EF91E0F7010B
:1008D0003197F1F70197D9F780EF0E940F02812F2E
:1008E0000E940F0284EF91E0F7013197F1F7019731
:1008F000D9F72196C830D10509F0B8CF81E08093AF
:10090000470380934803DF91CF911F91FF90EF90B1
:100910000895CF92DF92EF92FF920F931F93CF93A0
:10092000DF936C0188EE93E020E931E0F901319723
:10093000F1F70197D9F789E20E940F0288EE93E060
:1009400020E931E0F9013197F1F70197D9F780EF0C
:100950000E940F0289E20E940F0288EE93E020E9D4
:1009600031E0F9013197F1F70197D9F789E40E9455
:100970000F0288EE93E020E931E0F9013197F1F7B9
:100980000197D9F780EF0E940F0289E40E940F02BD
:10099000E60101E010E050E9E52E51E0F52E21C01E
:1009A00088EE93E0F7013197F1F70197D9F7898144
:1009B0000E940F0288EE93E0F7013197F1F701975B
:1009C000D9F780EF0E940F0289810E940F0288EE02
:1009D00093E0F7013197F1F70197D9F70F5F1F4FB8
:1009E0002196F6018081E82FF0E0E017F107C4F6C8
:1009F000EC0DFD1D818180933B03DF91CF911F9111
:100A00000F91FF90EF90DF90CF9008950F931F9379
:100A1000CF93DF93C0E0D1E00BE011E08881F801D3
:100A2000608141E00E9467008991F80161918F0126
:100A300041E00E942601F1E0CB30DF0779F7C0E00A
:100A4000D0E0FE01EA5EFE4FDE01AD5DBE4F80816B
:100A50006C9141E00E9467002196CD30D10589F765
:100A6000DF91CF911F910F9108959C0110924E0339
:100A7000809162008D7F80936200DB982C3031057D
:100A800019F481E080934E0310924403211531053F
:100A900021F481E080933B0315C02130310521F41E
:100AA00084E080933B0315C02230310521F484E0BB
:100AB00080933B0315C02330310521F484E08093FB
:100AC0003B0315C02430310521F484E080933B03BF
:100AD00015C02530310521F484E080933B0315C017
:100AE0002630310521F484E080933B0311C0273088
:100AF000310521F484E080933B030DC0283031059B
:100B000021F484E080933B030DC02930310531F09E
:100B10002A30310519F02B30310521F484E080931F
:100B20003B0314C02C30310589F484E080933B03EF
:100B300081E080934E0310924F0310925003109265
:100B400051031092520382E080933803C901089543
:100B5000CF93DF93EC0110924E03809162008D7F62
:100B600080936200DB98CC30D10519F481E080934A
:100B70004E0310924403209729F48CEE92E00E94D9
:100B8000890418C0C130D10529F480EF92E00E9499
:100B9000890418C0C230D10529F485EF92E00E9483
:100BA000890418C0C330D10529F48AEF92E00E946D
:100BB000890418C0C430D10529F48FEF92E00E9457
:100BC000890418C0C530D10529F486E093E00E945D
:100BD000890418C0C630D10529F48BE093E00E9447
:100BE000890418C0C730D10529F48BE293E00E9434
:100BF000890416C0C830D10529F482E193E00E942F
:100C0000890416C0C930D10529F487E193E00E9418
:100C1000890424C0CA30D10519F48DE193E005C0E0
:100C2000CB30D10529F482E293E00E94890419C0F7
:100C3000CC30D10599F481E080934E0310924F039C
:100C400010925003109251031092520382E080934D
:100C5000380382E393E00E94890406C0CC30D105BA
:100C600018F482E08093380381E0809347038093F7
:100C7000480310924903CE01DF91CF910895BF92AE
:100C8000CF92DF92EF92FF920F931F93D82EB62E42
:100C9000142FF22E80914603882329F08AE18A9549
:100CA000F1F710924603002371F0809138038230EF
:100CB00011F482E101C08AE20E940F028091460392
:100CC0008F5F80934603EE20A1F08091380382303D
:100CD00029F480EE0E940F0284E104C080EE0E949D
:100CE0000F028DE10E940F02809146038F5F809377
:100CF0004603CC2071F080913803823011F481E1F9
:100D000001C088E30E940F02809146038F5F8093A9
:100D1000460380914603882329F08AE18A95F1F7FA
:100D200010924603FF2019F080EE0E940F02812FDF
:100D30000E940F0284EF91E020E931E0F901319740
:100D4000F1F70197D9F7FF2019F080EE0E940F020A
:100D500080913803823019F480EF0E940F02809155
:100D60003803823011F4812F02C0812F80580E94F5
:100D70000F022D2D30E08DE090E0289FF001299F9B
:100D8000F00D389FF00D1124EB0DF11DE25AFC4FD0
:100D90001082002361F080913803823029F480EFC3
:100DA0000E940F0282E101C08AEA0E940F02EE2037
:100DB00091F080913803823041F480EE0E940F025E
:100DC00080EF0E940F0284E104C080EE0E940F02B7
:100DD0008DE90E940F02CC2061F0809138038230AF
:100DE00029F480EF0E940F0281E101C088EB0E948C
:100DF0000F028AE18A95F1F781E08093470380939F
:100E00004803109259031F910F91FF90EF90DF90CC
:100E1000CF90BF900895982F843251F08D3141F0DA
:100E2000853131F0833421F0893211F08A3509F4AB
:100E300090E06C30710529F480913803813009F419
:100E400046C3963109F443C3963209F440C3953240
:100E500009F43DC39E3209F43AC3992309F437C318
:100E60006630710509F45FC167307105C0F4633005
:100E7000710509F4C0C06430710540F4613071053A
:100E800059F16230710509F0E5C266C06430710540
:100E900009F4E0C06530710509F0DCC216C16930A3
:100EA000710509F4CDC16A30710548F467307105E8
:100EB00009F470C16830710509F0CCC281C16B3092
:100EC000710509F439C26B30710508F408C26C3041
:100ED000710509F0BFC279C29E3109F4B9C29C32D2
:100EE00009F4C0C29D3209F4CDC2943309F4B8C2EA
:100EF0009B3209F4C9C2933209F4CAC29B3109F486
:100F0000C5C29C3109F4DEC2953309F4C5C29C33D5
:100F100009F4A4C2943409F4B1C29D3409F4D4C2D2
:100F20009A3209F4BDC2913209F4BCC2923209F47A
:100F3000C1C29A3109F4B2C2933309F4BDC29B33E2
:100F400009F4B6C2923409F495C29B3409F484C200
:100F5000923309F018C1A8C29E3109F48BC29C32A9
:100F600009F480C29D3209F48DC2943309F48EC213
:100F70009B3209F47BC2933209F470C29B3109F4AD
:100F80006FC29C3109F480C2963309F477C29D3355
:100F900009F48AC29E3309F467C2953409F48CC2FD
:100FA000953309F491C29C3309F452C2943409F484
:100FB00075C29D3409F45CC29A3209F471C291324F
:100FC00009F470C29A3109F475C2933309F458C216
:100FD0009B3309F46DC2923409F45CC29B3409F46A
:100FE00065C2923309F448C2913309F467C29A3357
:100FF00009F030C265C29E3109F42AC29C3209F45C
:1010000041C29D3209F45EC29B3109F425C2953379
:1010100009F44AC29C3309F42DC2943409F42EC257
:101020009D3409F451C29A3209F43AC2913209F45A
:1010300039C29A3109F432C2933309F40FC29B3397
:1010400009F436C2923411F499E841C29B3409F094
:10105000E1C032C29E3109F40BC29C3209F42CC2A9
:101060009D3209F425C29D3109F430C2953111F445
:1010700098EF2DC2933209F4FDC19B3109F404C2EB
:10108000953309F4FFC19C3309F4ECC1943409F49D
:1010900005C29D3409F418C29A3209F401C2913292
:1010A00009F400C29A3109F4FFC1933309F4D8C19D
:1010B0009B3309F4CDC1923409F4E0C19B3409F4A7
:1010C000EBC1923309F05FC0C9C19E3109F4CEC1B2
:1010D0009C3209F4C7C19D3209F4D4C19D3109F491
:1010E000F5C1953111F497E0F2C19B3109F4EAC1E1
:1010F0009C3109F4DDC1943409F4D0C19D3409F464
:10110000E3C19A3209F4CCC1913209F4CBC19232D5
:1011100009F4A6C19A3109F4B1C1933309F4CCC1E1
:101120009B3341F59BC19E3109F49EC19C3209F469
:1011300099C19D3209F4A6C1933209F48FC1953348
:1011400009F4A4C19C3309F4A7C1943409F4A6C1DD
:101150009D3409F4B9C19A3209F4A2C1913209F45B
:10116000A1C1923209F492C19A3109F487C19B332B
:1011700009F49EC1923409F497C19B3409F46CC1FF
:10118000923309F477C1913309F498C19A3309F085
:101190004AC096C19C3209F465C19D3209F472C1FE
:1011A000963309F46DC19D3309F468C19E3309F487
:1011B00063C1963409F458C1953409F028C14CC173
:1011C0009E3109F445C19C3209F45CC19D3209F499
:1011D00079C19B3109F46EC1953309F465C19C3323
:1011E00009F448C1943409F449C19D3409F46CC12F
:1011F0009A3209F455C1913209F454C19A3109F473
:101200004DC19B3309F458C1923409F451C19B3448
:1012100009F424C1923309F43FC1913309F438C170
:101220009A3309F44BC1963309F451C19D3309F443
:101230004EC19E3309F44BC1963409F04CC047C1EE
:101240009C3209F40FC19D3209F41CC1943309F496
:101250001BC19B3209F41AC1933209F4FFC09B31C0
:1012600009F4FEC0963309F40BC19D3309F406C19D
:101270009E3309F401C1963409F4F6C0953309F49C
:10128000E7C09C3309F408C1943409F407C19D34C4
:1012900009F4F0C09A3209F403C1913209F402C191
:1012A000923209F4D9C09A3109F4FEC0933309F49B
:1012B000FDC09B3309F4FCC0923409F4FBC09B349D
:1012C00009F4FAC0923309F4D3C0913309F4F6C09B
:1012D0009A3309F4F5C0953409F0BCC0F8C09E31CA
:1012E00009F4BEC09C3209F4EDC09D3209F4D0C0AF
:1012F000943309F4B3C09B3209F4C0C09C3109F4A3
:10130000CDC09D3309F4D4C0953409F4CBC09434D6
:1013100009F4B8C09D3409F4D7C09A3209F4B0C0BA
:10132000913209F499C0923209F492C09A3109F4C9
:1013300099C0933371F5AAC09E3109F48FC09C32D5
:1013400009F4C0C09D3209F4A3C09B3209F492C0D5
:10135000933209F48BC09D3309F4AAC0953409F483
:10136000A1C0953309F492C0943409F48BC09D3424
:1013700009F4AAC09A3209F483C0913209F46CC00E
:10138000923209F47BC09A3109F46CC0933309F4AA
:101390005FC09B3309F484C0923409F47DC09B3450
:1013A00009F462C0923309F46FC0913309F486C026
:1013B0009A3309F485C0963309F489C09E3309F441
:1013C00086C0963409F046C082C0953409F444C002
:1013D000963409F449C09E3309F44EC09D3309F494
:1013E0004DC0963309F44CC09C32E1F19D3209F4B2
:1013F00049C0943309F448C09B3209F447C0933282
:1014000009F446C09B3161F19C3109F443C0953326
:10141000F9F09C3309F440C0943409F43FC09D3482
:1014200049F19A32E9F19132E9F19A31E9F19333D4
:10143000E9F19B33E9F19234E9F19B34E9F192331C
:10144000B9F09133D9F19A33D9F19E3119F43FC0F3
:1014500094ED3DC090E03BC09EE439C09DED37C0A7
:101460009DE535C099E433C095E431C09EE82FC0B6
:101470009EE32DC092E52BC096E429C092ED27C0D3
:101480009DE325C091E423C09BE521C094E51FC0E6
:1014900091EE1DC09EE01BC09BED19C09CEC17C0D7
:1014A0009AEC15C09AE413C09CE411C096E30FC0F7
:1014B0009EEC0DC095E50BC095ED09C091EC07C001
:1014C00099EC05C091E603C09EE101C097E8892F21
:1014D0000895CF92DF92EF92FF921F93CF93DF9305
:1014E0007A01109256031092550310925803C82F98
:1014F000D0E0C62EDD248BE090E0C89FF001C99FAC
:10150000F00DD89FF00D1124EC0DFD1DE359FE4F99
:101510008081BA010E940B07182F882399F18CE073
:10152000E816F104B9F480913803813099F4FE0192
:10153000EE0FFF1FEE0FFF1FEC0FFD1FEC0DFD1D4B
:10154000DF01AC58BD4F1C91E456FD4F80818823CC
:1015500029F413C017FF02C010580FC08091380340
:10156000823029F482E10E940F0282E104C08AE203
:101570000E940F028AE280935803812F0E940F027B
:1015800010935703DF91CF911F91FF90EF90DF9061
:10159000CF900895CF92DF92EF92FF920F931F9317
:1015A000CF93DF937A0110925703C82FD0E0C62E55
:1015B000DD248BE090E0C89FF001C99FF00DD89F1B
:1015C000F00D1124EC0DFD1DE359FE4F8081BA0191
:1015D0000E940B07182F8823D1F18CE0E816F10444
:1015E000A9F480913803813089F4FE01EE0FFF1FCA
:1015F000EE0FFF1FEC0FFD1FEC0DFD1DDF01AC58C2
:10160000BD4F1C91E456FD4F008106C017FD02C07E
:1016100001E002C0105800E080913803823029F4C4
:1016200080EF0E940F02812F02C0812F80580E94FC
:101630000F02002361F080913803823029F480EF9B
:101640000E940F0282E101C08AEA0E940F02DF912C
:10165000CF911F910F91FF90EF90DF90CF90089561
:10166000FF920F931F93F82E062F142F10925603FC
:10167000109255031092580380913803442381F54A
:10168000823029F482E10E940F0282E104C08AE2E2
:101690000E940F028AE28093580380913803602FE2
:1016A00070E02F2D30E0823071F48BE090E0289FC5
:1016B000F001299FF00D389FF00D1124E60FF71F60
:1016C000E359FE4F0BC0F901EE0FFF1FEE0FFF1F96
:1016D000E20FF31FE60FF71FEC5DFD4F108122C0F4
:1016E000823071F44B3631F0443721F0453711F038
:1016F000423731F480EE0E940F0280EE809358034F
:1017000080913803813071F41B3431F01D3421F0A5
:10171000183411F0103531F480EE0E940F0280EE83
:1017200080935803812F0E940F02109357031F913B
:101730000F91FF9008950F931F93CF93DF93142F72
:101740001092570390913803442379F5062F10E047
:10175000C82FD0E09230C1F480EF0E940F028BE0DE
:1017600090E0C89FF001C99FF00DD89FF00D1124A3
:10177000E00FF11FE359FE4F80810E940F0280EFBE
:101780000E940F0282E138C0FE01EE0FFF1FEE0F34
:10179000FF1FEC0FFD1FE00FF11FEC5DFD4F80817F
:1017A00080580E940F028AEA27C0923059F44B36C3
:1017B00031F0443721F0453711F0423719F480EE0B
:1017C0000E940F0280913803813059F41B3431F0AC
:1017D0001D3421F0183411F0103519F480EE0E94F8
:1017E0000F0280913803823029F480EF0E940F02AB
:1017F000812F02C0812F80580E940F02DF91CF916C
:101800001F910F910895EF92FF921F93CF93DF9353
:1018100080915A0390915B03892B91F480EF0E9491
:101820000F02809139030E940F0210929F0380EFF4
:101830000E940F0280913A030E940F021092BA0395
:1018400080913803823009F0D6C084EF91E020E91E
:1018500031E0F9013197F1F70197D9F789E20E9458
:101860000F0284EF91E020E931E0F9013197F1F7BF
:101870000197D9F780EF0E940F0289E20E940F02C0
:1018800084EF91E020E931E0F9013197F1F7019718
:10189000D9F789E40E940F0284EF91E020E931E05A
:1018A000F9013197F1F70197D9F780EF0E940F0204
:1018B00089E40E940F0280914503813061F08130FC
:1018C00088F0823009F097C0C7E6D1E090E9E92EB0
:1018D00091E0F92E8DC0CBE5D1E080E9E82E81E0E2
:1018E000F82E5BC0CCE4D1E010E9E12E11E0F12E3E
:1018F00029C0F7013197F1F70197D9F71881812FA6
:101900000E940F0284EF91E0F7013197F1F7019700
:10191000D9F780EF0E940F02812F0E940F0284EFFF
:1019200091E0F7013197F1F70197D9F786E090E060
:10193000609145030E942616219681E0CB35D80799
:1019400009F459C084EF91E0D4CFF7013197F1F752
:101950000197D9F71881812F0E940F0284EF91E03F
:10196000F7013197F1F70197D9F780EF0E940F0245
:10197000812F0E940F0284EF91E0F7013197F1F778
:101980000197D9F786E090E0609145030E94261602
:10199000219681E0C736D80771F184EF91E0D5CF69
:1019A000F7013197F1F70197D9F71881812F0E943C
:1019B0000F0284EF91E0F7013197F1F70197D9F722
:1019C00080EF0E940F02812F0E940F0284EF91E0AE
:1019D000F7013197F1F70197D9F786E090E0609130
:1019E00045030E942616219681E0CD36D80719F0CE
:1019F00084EF91E0D5CF81E0809347038093480343
:101A0000DF91CF911F91FF90EF900895FF920F9378
:101A10001F93CF93DF9380915A0390915B03892B9F
:101A200091F480EF0E940F02809139030E940F020F
:101A300010929F0380EF0E940F0280913A030E9450
:101A40000F021092BA0385E090E060915A030E9461
:101A5000261680913803823009F060C084EF91E04F
:101A600020E931E0F9013197F1F70197D9F789E2DF
:101A70000E940F0284EF91E020E931E0F9013197F3
:101A8000F1F70197D9F780EF0E940F0289E20E94D7
:101A90000F0284EF91E020E931E0F9013197F1F78D
:101AA0000197D9F789E40E940F0284EF91E020E9C1
:101AB00031E0F9013197F1F70197D9F780EF0E94F2
:101AC0000F0289E40E940F02C2E4D1E000E911E0B4
:101AD00022C0F8013197F1F70197D9F7F8808F2DDF
:101AE0000E940F0284EF91E0F8013197F1F701971E
:101AF000D9F780EF0E940F028F2D0E940F0284EF12
:101B000091E0F8013197F1F70197D9F7219681E03B
:101B1000CC34D80719F084EF91E0DBCF81E08093DB
:101B2000470380934803DF91CF911F910F91FF905E
:101B300008952F923F924F925F926F927F928F9271
:101B40009F92AF92BF92CF92DF92EF92FF920F934C
:101B50001F93CF93DF931092470356E1852E51E0F8
:101B6000952E43E2A42E41E0B42ECC24DD243AE1AC
:101B7000432E2DE0622E712C95E3592EF4018081C5
:101B8000F501608140E00E946700F4018081F50169
:101B9000608140E00E942601842D8A95F1F700E0E3
:101BA00011E08BE0E82E81E0F82EC69CE001C79C96
:101BB000D00DD69CD00D1124C25ADC4FF801808183
:101BC000F70160810E94FB008823C1F0852D8A9572
:101BD000F1F7F8018081F70160810E94FB00988194
:101BE000882339F090FF02C0926001C09160988311
:101BF0000BC090FF09C09C7F9460F9CF888180FF63
:101C000003C08C7F846088830F5F1F4F0894E11CA2
:101C1000F11C2196F1E00B301F0781F6F401819150
:101C20004F01F50161915F0141E00E946700089456
:101C3000C11CD11CFDE0CF16D10409F09FCF8091CB
:101C40004903882309F495C080915C03882329F116
:101C500010925C0343E653E090E020E030E06DE05A
:101C600070E00FC0808180FD91E03196E417F507A8
:101C7000C9F72F5F3F4FAF01435F5F4F28303105FA
:101C800051F0269FF001279FF00D369FF00D112493
:101C9000E25AFC4FE7CF90935C0380915C0388236A
:101CA00009F060C080919F0382FF0FC010929F03D4
:101CB00080915A0390915B03892B39F480EF0E9445
:101CC0000F02809139030E940F028091BA0382FFB4
:101CD0000FC01092BA0380915A0390915B03892B35
:101CE00039F480EF0E940F0280913A030E940F02A4
:101CF000B3E6CB2EB3E0DB2EEE24FF24ADE0AA2E1C
:101D0000B12C1DC0F801808180FF08C0888190E05F
:101D10000E94A80590935B0380935A030F5F1F4FA7
:101D200021960C151D0571F70894E11CF11C8DE03E
:101D300090E0C80ED91E98E0E916F10499F0EA9CEB
:101D40008001EB9C100DFA9C100D1124025A1C4FBF
:101D5000E701CC0FDD1FCC0FDD1FCE0DDF1DCC53F7
:101D6000DD4FD0CF80914903882319F081E0809323
:101D7000470380914703882309F07FC380919F0325
:101D800080FF7BC38091BA0380FF77C380914803B3
:101D9000882309F074C380915A0390915B030C97D8
:101DA000E1F48091A20380FF08C090E08091440399
:101DB000882309F491E0909344038091AD0380FF60
:101DC00003C081E08093590380ED97E020E931E082
:101DD000F9013197F1F70197D9F7809138038230F3
:101DE00009F065C28091AF0380FF10C080915A0353
:101DF00090915B03892B51F4809145038F5F833071
:101E000008F080E0809345030E94030C80919503C5
:101E100080FF19C080914503813031F080915A03D1
:101E200090915B03892B79F010924E0381E08093AF
:101E300049038093470380935C0380916200826032
:101E400080936200DB9A80915E0380FF0FC08091D7
:101E50004503823059F080E060E045E020E000E09A
:101E6000EE24CC24E5E0AE2E0E943F0680915F0375
:101E700080FF0FC080914503823059F080E061E01F
:101E800046E020E000E0EE24CC2475E0A72E0E947E
:101E90003F068091600380FF0FC080914503823030
:101EA00059F080E062E044E020E000E0EE24CC2441
:101EB00055E0A52E0E943F068091610380FF0FC070
:101EC00080914503823059F080E063E04CE020E0EF
:101ED00000E0EE24CC2435E0A32E0E943F06809142
:101EE000620380FF0FC080914503823059F080E08B
:101EF00064E043E020E000E0EE24CC2495E0A92E4D
:101F00000E943F068091890380FF0FC080914503A6
:101F1000823059F083E064E04BE020E000E0EE2402
:101F2000CC2415E0A12E0E943F068091880380FFFB
:101F30000FC080914503823059F083E063E043E8AD
:101F400020E000E0EE24CC24B5E0AB2E0E943F065A
:101F50008091870380FF0FC080914503823059F044
:101F600083E062E04AE020E000E0EE24CC24A5E03B
:101F7000AA2E0E943F068091860380FF0FC08091A9
:101F80004503823059F083E061E041E020E000E069
:101F9000EE24CC24F5E0AF2E0E943F06809185030D
:101FA00080FF0FC080914503823059F083E060E0EC
:101FB00049E020E000E0EE24CC24E5E0AE2E0E94D3
:101FC0003F0680916B0380FF0FC0809145038230F4
:101FD00059F081E060E048E720E000E0EE24CC2406
:101FE00072E3A72E0E943F0680916C0380FF0FC012
:101FF00080914503823059F081E061E047E020E0C4
:1020000000E0EE24CC2452E3A52E0E943F068091EE
:10201000790380FF57C080915A0390915B0300972A
:1020200009F450C0049709F03BC08AE00E940F02F7
:1020300084EF91E020E931E0F9013197F1F7019760
:10204000D9F789E00E940F0284EF91E020E931E0A6
:10205000F9013197F1F70197D9F780EF0E940F024C
:1020600089E00E940F0280E197E220E931E0F90166
:102070003197F1F70197D9F780EF0E940F028AE0BC
:102080000E940F0284EF91E020E931E0F9013197DD
:10209000F1F70197D9F781E08093470380934803D4
:1020A00080915A0390915B03039761F482E061E0B1
:1020B00047E020E000E0EE24E394CC2435E0A32EBA
:1020C0000E943F068091780380FF15C080914503F0
:1020D000813031F080915A0390915B03892B59F044
:1020E00082E060E049E020E000E0EE24CC2495E0CE
:1020F000A92E0E943F068091960380FF17C0809111
:102100004503823031F480915A0390915B03892B0F
:1021100069F084E064E043E020E000E0EE24E39432
:10212000CC24C39415E0A12E0E943F068091BD03EC
:1021300080FF17C080914503823031F480915A03AB
:1021400090915B03892B69F087E064E046E620E02C
:1021500000E0EE24E394CC24C394B5E0AB2E0E94BF
:102160003F068091BC0380FF17C0809145038230F9
:1021700031F480915A0390915B03892B69F087E0D9
:1021800063E041E720E000E0EE24E394CC24C39434
:10219000A5E0AA2E0E943F0680917C0380FF15C017
:1021A00080914503823031F480915A0390915B0312
:1021B000892B59F082E064E04EE720E000E0EE2455
:1021C000CC24F5E0AF2E0E943F068091A30380FF50
:1021D0000CC080914503813031F080915A03909179
:1021E0005B03892B11F00E9401048091A10380FF01
:1021F0000CC080914503813031F080915A03909159
:102200005B03892B11F00E94060D80916D0380FF06
:1022100011C080915A0390915B03892B59F081E0A2
:1022200062E04DE721E000E0EE24CC24E5E0AE2EB4
:102230000E943F0680916E0380FF11C080915A0377
:1022400090915B03892B59F081E063E04AE721E03C
:1022500000E0EE24CC2475E0A72E0E943F0680917A
:102260007A0380FF11C080915A0390915B03892B00
:1022700059F082E062E04DE721E001E0EE24CC2459
:1022800055E0A52E0E943F0680917B0380FFF7C09A
:1022900080915A0390915B03892B09F4F0C082E08E
:1022A00063E04AE721E001E0EE24CC24E1C0813084
:1022B00009F0E5C080915E0380FF0CC080E060E023
:1022C0004BE320E000E0EE24C090590335E0A32E5C
:1022D0000E943F0680915F0380FF0CC080E061E0B8
:1022E0004CE320E000E0EE24C090590395E0A92ED5
:1022F0000E943F068091600380FF0CC080E062E096
:102300004DE320E000E0EE24C090590315E0A12E3B
:102310000E943F068091610380FF0CC080E063E073
:102320004EE320E000E0EE24C0905903B5E0AB2E70
:102330000E943F068091620380FF0CC080E064E051
:102340004FE320E000E0EE24C0905903A5E0AA2E60
:102350000E943F068091890380FF0CC083E064E007
:1023600040E420E000E0EE24C0905903F5E0AF2EF9
:102370000E943F068091880380FF0CC083E063E0E9
:1023800041E420E000E0EE24C0905903E5E0AE2EE9
:102390000E943F068091870380FF0CC083E062E0CB
:1023A00042E420E000E0EE24C090590375E0A72E3F
:1023B0000E943F068091860380FF0CC083E061E0AD
:1023C00043E420E000E0EE24C090590355E0A52E40
:1023D0000E943F068091850380FF0CC083E060E08F
:1023E00044E420E000E0EE24C090590335E0A32E41
:1023F0000E943F0680916B0380FF0CC081E060E08B
:1024000047E520E000E0EE24C090590395E0A92EB6
:102410000E943F0680916C0380FF0CC081E061E068
:1024200048E520E000E0EE24C090590315E0A12E1D
:102430000E943F068091BD0380FF0DC087E064E0ED
:102440004EE020E000E0EE24E394CC24C394B5E019
:10245000AB2E0E943F068091BC0380FF10C087E036
:1024600063E043E520E000E0EE24E394CC24C39451
:10247000A5E0AA2E0E943F0602C010924803809158
:102480004703882309F086C280915A0390915B0329
:10249000892B09F09BC080919F0380FF10C081FDB4
:1024A0000EC0809139030E940F0280919F038260C9
:1024B00080939F03809146038F5F809346038091B2
:1024C000BA0380FF10C081FD0EC080913A030E94C4
:1024D0000F028091BA0382608093BA038091460311
:1024E0008F5F8093460380919F0382FF0EC080EF31
:1024F0000E940F02809139030E940F0210929F03E5
:10250000809146038F5F809346038091BA0382FFD8
:102510000EC080EF0E940F0280913A030E940F02CA
:102520001092BA03809146038F5F80934603809197
:102530004603882329F08AE18A95F1F71092460331
:10254000F3E6CF2EF3E0DF2EEE24FF24EDE08E2E17
:10255000912C7BE0A72EB12C26C0888180FF06C07D
:1025600081FD04C0F80180810E940F02888182FFF2
:1025700008C080EF0E940F02F80180810E940F02C4
:10258000188221960F5F1F4FCC15DD0531F7089497
:10259000E11CF11C8DE090E0C80ED91E98E0E91610
:1025A000F10409F4F7C1E89CE001E99CD00DF89C26
:1025B000D00D1124C25ADC4FEA9C8001EB9C100D17
:1025C000FA9C100D112403591E4FC7CF80914D0363
:1025D000882309F040C080914A038823E1F5809167
:1025E0004B038823C1F580919F0380FF02C081FFC8
:1025F00021C08091BA0380FF38C081FF1BC035C065
:10260000453019F4992351F004C0473011F491304A
:1026100029F0808180FF02C051E004C09F5F3196A5
:10262000953071F72F5F3F4F2830310541F45093BB
:102630004D031BC050E020E030E06DE070E0269FCD
:10264000F001279FF00D369FF00D1124E25AFC4F48
:1026500090E0422FD5CF80919F0380FD06C08091EE
:10266000BA0380FD02C010924D0300E0CC24DD24AB
:102670006DE0262E312C5CC1E5E0AE1621F4BB20C6
:1026800009F43DC107C0F7E0AF1621F481E0B816A8
:1026900009F435C1988190FFA2C091FDA0C080913E
:1026A0004D03882369F480919F0380FF02C09860E6
:1026B00098838091BA0380FF03C0888180618883FA
:1026C000888183FF0EC084FD0CC080913803823066
:1026D00011F4F20101C0F30140818A2D6B2D0E949B
:1026E000300B888184FF0AC083FD08C040915A03E3
:1026F00050915B038A2D6B2D0E94690A888183FDAE
:102700006BC084FD69C08091440390913803882395
:1027100009F450C0109256031092550310925803BA
:102720009230E9F4F7010081043411F40BE614C08F
:102730000D3411F404E710C0053111F405E70CC0A5
:102740000C3111F402E708C00B3631F0043721F0E8
:10275000053711F0023719F480EE80935803809109
:1027600038038130E9F4F4010081083111F40BE4FD
:1027700014C0093111F40DE410C0003111F408E463
:102780000CC00E3111F400E508C00B3431F00D34EB
:1027900021F0083411F0003519F480EE80935803CD
:1027A0000093570380915803882391F080EE0E9494
:1027B0000F020EC01092560310925503923011F47E
:1027C000F70101C0F40180818093570310925803F0
:1027D000809157030E940F028881826088838881DC
:1027E00082FF8DC083FF0EC084FD0CC08091380332
:1027F000823011F4F20101C0F30140818A2D6B2D6A
:102800000E949B0B888184FF0AC083FD08C0409111
:102810005A0350915B038A2D6B2D0E94CA0A88814E
:1028200083FD6CC084FD6AC080914403909138039D
:10283000882309F44DC010925703923019F5F7011F
:102840000081043411F40BE614C00D3411F404E7D4
:1028500010C0053111F405E70CC00C3111F402E78A
:1028600008C00B3631F0043721F0053711F002377C
:1028700019F480EE0E940F0280EF0E940F02802F59
:102880000E940F02809138038130C1F5F40100816C
:10289000083111F40BE414C0093111F40DE410C037
:1028A000003111F408E40CC00E3111F400E508C049
:1028B0000B3431F00D3421F0083411F0003519F4E7
:1028C00080EE0E940F02802F80580E940F0216C0D7
:1028D000923039F480EF0E940F02F7011081812FAE
:1028E00004C0F4011081812F80580E940F02809152
:1028F0005703811709F480E0809357031882B3943B
:1029000021960894E11CF11C0894811C911C0894E8
:10291000411C511C0894611C711CF5E0BF1609F0A4
:10292000ABCE0894C11CD11C88E0C816D10491F12B
:10293000AC2CC29CE001C39CD00DD29CD00D1124C4
:10294000C25ADC4FEBE0F0E0CE9E7001CF9EF00C5F
:10295000DE9EF00C11248DE691E0E80EF91EC60112
:10296000880F991F880F991F8C0D9D1D44E2842E9E
:1029700042E0942E880E991E3CEF432E31E0532EF8
:10298000480E591E2CE4622E22E0722E680E791E2B
:10299000BB2472CEDF91CF911F910F91FF90EF90EA
:1029A000DF90CF90BF90AF909F908F907F906F906F
:1029B0005F904F903F902F900895DF92EF92FF929B
:1029C0000F931F93DF93CF9300D000D00F92CDB71A
:1029D000DEB7D79ADF9880916100826080936100B2
:1029E000809162008D7F80936200D39ADB980E9471
:1029F000D8010E9406058E010F5F1F4FC80160E0DD
:102A000070E045E050E00E94041641E020E030E034
:102A1000B801FB01E20FF31FD901A45CBC4F908108
:102A20008C91981340E02F5F3F4F2530310589F797
:102A30004423A9F085E090E00E94141690E00E94E3
:102A4000350590935B0380935A0386E090E00E94E3
:102A50001416833008F080E0809345030DC08CE3AA
:102A600093E060E070E045E050E00E941C1685E0D5
:102A700090E060E00E94261660EAE62E66E8F62EF8
:102A800061E0062F112DDD24D3940E94E9018823F3
:102A900009F46AC080915A0390915B030C9709F086
:102AA00063C080914E03882309F056C080914F0384
:102AB00090915003A0915103B09152030097A1054A
:102AC000B10509F049C050C080914C0380935D036B
:102AD0008CE493E00E940603892BF1F5E0924F030A
:102AE000F0925003009351031093520380914C03D2
:102AF0008E3E29F40E940F02D0924E0303C08AEF4B
:102B00000E940F0290914C03923099F0933028F478
:102B1000992341F0913001F50CC0923F89F09F3F1D
:102B2000D9F415C080915D03803FB1F480913803E2
:102B30000BC080915D03803F79F4909338030CC003
:102B40008BEA0E940F0283E80E940F0205C08AEA06
:102B50000E940F0210924E0388EE93E00E94F4014F
:102B6000882309F0B1CF91CF80914F03909150030A
:102B7000A0915103B09152030097A105B10559F0FE
:102B80000197A109B10980934F0390935003A0933B
:102B90005103B093520380915A0390915B030C97B9
:102BA00081F580915703882361F1809155039091BD
:102BB0005603019690935603809355030197895EBF
:102BC000934020F4809138038230D9F480915303EC
:102BD000909154030196909354038093530301976B
:102BE0008739910570F080915803882311F00E9475
:102BF0000F02809157030E940F021092540310920B
:102C000053030E94990D41CFDC01CB01FC01E199F6
:102C1000FECF06C0FFBBEEBBE09A31960DB20D921F
:102C200041505040B8F70895E199FECF9FBB8EBB4D
:102C3000E09A99278DB30895DC01CB0103C02D9153
:102C40000E94271641505040D0F70895262FE19951
:102C5000FECF9FBB8EBB2DBB0FB6F894E29AE19AD4
:0A2C60000FBE01960895F894FFCF0F
:102C6A00030101070503010407050303030704041D
:102C7A00040407020202040603000204060000021A
:102C8A0004060702020704040404070303030303F8
:102C9A00000100030200010845161E26252E363DB6
:102CAA003E46212B342B4B1C1B3324231A224D1C4A
:102CBA002D2C431C4B21443A32441B1A222B3C4BE9
:102CCA004B21443A32441B1A224D3C2D24161E260F
:102CDA00252E000000000000151D242D2C000000E8
:102CEA000000001C1B232B34000000000000454696
:102CFA003E3D360000000000004D44433C350000D4
:102D0A0000000000001A22212A0000000000005AD8
:102D1A004B423B3300000000000029003A313200E8
:102D2A000000000000000000000000000000000099
:102D3A000000000000000000000000000000000089
:102D4A000000000000000000000000000000000079
:102D5A00000000000000000000000000065800000B
:102D6A006B0000000000000000000066007475722D
:102D7A00000000000000000000000D0000000076C6
:102D8A0000000000020304050610111213141E1F8E
:102D9A002021220B0A0908071918171615002C2DCD
:102DAA002E2F1C2625242339003231303C3A0000CC
:102DBA004B000000000000000000000E004D005013
:102DCA00000000000000000000000F0000000001E9
:102DDA000000000002030405060000003334292B1A
:102DEA002B1A1B0C0B0A2808281B001B1A00270089
:102DFA003535000D0D0C07000034330901010101BE
:102E0A0001000000010101010001010101010001AD
:102E1A0001000000000001000100000001000100A3
:102E2A00000000010102030405FFFFFFFFFF09FF85
:102E3A00FFFFFF000C080706FFFFFFFFFFFFFFFF72
:102E4A000BFFFFFFFFFFFFFFFFFFFF0A021A22012E
:102E5A0003214D2104033A1B2204032136250405CC
:102E6A001C2C1C2D43040332322104051C21442D41
:102E7A003104032A43210404442D432104031B1C67
:102E8A003A04073B3C4D432C242D04051C4D4D4B65
:102E9A002404044D21222C04021214015A58554EBE
:022EAA004F00D7
:00000001FF
