:100000000C9446000C9465000C9465000C946500FB
:100010000C9465000C9465000C9465000C946500CC
:100020000C9465000C9465000C9465000C946500BC
:100030000C9465000C9465000C9465000C946500AC
:100040000C9465000C9465000C9465000C9465009C
:100050000C9465000C9465000C9465000C9465008C
:100060000C9465000C9465000C9465000C9465007C
:100070000C9465000C9465000C9465000C9465006C
:100080000C9465000C9465000C94650011241FBE4F
:10009000CFEFD0E1DEBFCDBF14E0A0E0B1E0E0E9FA
:1000A000F8E300E00BBF02C007900D92AA32B1073F
:1000B000D9F715E0AAE2B4E001C01D92A930B1075A
:1000C000E1F70E94D81A0C94461C0C940000382FBB
:1000D000633009F444C0643030F4613071F0623050
:1000E00009F0A4C023C0653009F46BC0653008F482
:1000F0004FC0673009F09AC07DC0442361F02AB335
:1001000081E090E002C0880F991F3A95E2F7809550
:1001100082238ABB08952AB381E090E002C0880F51
:10012000991F3A95E2F7282B2ABB0895442361F0E2
:1001300027B381E090E002C0880F991F3A95E2F75B
:100140008095822387BB089527B381E090E002C0A9
:10015000880F991F3A95E2F7282B27BB089544236F
:1001600061F024B381E090E002C0880F991F3A95B6
:10017000E2F78095822384BB089524B381E090E068
:1001800002C0880F991F3A95E2F7282B24BB0895E7
:10019000442361F021B381E090E002C0880F991FF1
:1001A0003A95E2F78095822381BB089521B381E0DF
:1001B00090E002C0880F991F3A95E2F7282B21BBE7
:1001C0000895442361F022B181E090E002C0880FDD
:1001D000991F3A95E2F78095822382B9089522B15A
:1001E00081E090E002C0880F991F3A95E2F7282B32
:1001F00022B90895442371F02091640081E090E0D9
:1002000002C0880F991F3A95E2F780958223809368
:10021000640008952091640081E090E002C0880F9E
:10022000991F3A95E2F7282B209364000895282F10
:10023000633099F0643028F4613059F0623039F459
:100240000AC0653071F0653050F06730A1F080E091
:10025000089589B307C086B305C083B303C080B3D4
:1002600001C081B190E002C0959587952A95E2F78B
:100270008095817008958091630090E002C095950B
:1002800087952A95E2F7809581700895382F63301D
:1002900009F444C0643030F4613071F0623009F028
:1002A000A4C023C0653009F46BC0653008F44FC0AA
:1002B000673009F09AC07DC0442361F42BB381E01C
:1002C00090E002C0880F991F3A95E2F7809582234B
:1002D0008BBB08952BB381E090E002C0880F991F7B
:1002E0003A95E2F7282B2BBB0895442361F428B3F9
:1002F00081E090E002C0880F991F3A95E2F780955F
:10030000822388BB089528B381E090E002C0880F63
:10031000991F3A95E2F7282B28BB0895442361F4EE
:1003200025B381E090E002C0880F991F3A95E2F76B
:100330008095822385BB089525B381E090E002C0BB
:10034000880F991F3A95E2F7282B25BB089544237F
:1003500061F422B381E090E002C0880F991F3A95C2
:10036000E2F78095822382BB089522B381E090E07A
:1003700002C0880F991F3A95E2F7282B22BB0895F7
:10038000442361F423B181E090E002C0880F991FFB
:100390003A95E2F78095822383B9089523B181E0ED
:1003A00090E002C0880F991F3A95E2F7282B23B9F5
:1003B0000895442371F42091650081E090E002C02B
:1003C000880F991F3A95E2F7809582238093650004
:1003D00008952091650081E090E002C0880F991F88
:1003E0003A95E2F7282B209365000895382F66236D
:1003F00071F02091610081E090E002C0880F991FA8
:100400003A95E2F7809582238093610008952091C8
:10041000610081E090E002C0880F991F3A95E2F7F1
:10042000282B2093610008952091420430914304C9
:10043000832F822351F081E08093460480935A04F5
:10044000109242041092430414C080915A048823ED
:1004500021F01092460410925A0490E080915204C8
:10046000882309F491E0292320934204392330930F
:1004700043042091440430914504832F822351F09A
:1004800081E08093470480935B04109244041092AF
:100490004504089580915B04882321F0109247045D
:1004A00010925B0490E080915304882309F491E05A
:1004B0002923209344043923309345040895EF926F
:1004C000FF920F931F938091350160913C0141E0B1
:1004D0000E9446018AE4E82E8E2D8A95F1F78091DC
:1004E0003001609137010E9417018093420480918E
:1004F0003101609138010E9417018093430480917B
:100500003201609139010E94170180934404809167
:10051000330160913A010E94170180934504809154
:10052000350160913C0140E00E9446018E2D8A9584
:10053000F1F780913201609139010E941701182F63
:100540008091330160913A010E941701182309F448
:10055000B2C08091340160913B010E9417018093E9
:1005600048048091360160913D010E9417018093FB
:1005700047048091350160913C0141E00E944601B1
:100580008E2D8A95F1F78091340160913B010E9494
:100590001701809349048091360160913D010E94CA
:1005A000170180934A048091350160913C0140E03D
:1005B0000E9446018E2D8A95F1F780913501609158
:1005C0003C0141E00E9446018E2D8A95F1F7809111
:1005D000350160913C0140E00E9446018E2D8A95D4
:1005E000F1F780913001609137010E941701182FB7
:1005F00080913101609138010E941701082F80918C
:100600003201609139010E941701F82E8091330167
:1006100060913A010E94170101230F21082309F478
:1006200045C08091350160913C0141E00E94460146
:100630008E2D8A95F1F780913001609137010E94EB
:10064000170180934D0480913101609138010E941F
:10065000170180934C0480913201609139010E940E
:10066000170180934B048091330160913A010E94FD
:100670001701809346048091350160913C0140E070
:100680000E9446018E2D8A95F1F780913501609187
:100690003C0141E00E9446018E2D8A95F1F7809140
:1006A000350160913C0140E00E94460180E49FE1F9
:1006B0000197F1F710C08091340160913B010E94D5
:1006C0001701809348048091360160913D010E949A
:1006D0001701809349048091350160913C0141E00C
:1006E0000E9446018AE48A95F1F71F910F91FF90CD
:1006F000EF900895E2E6F0E08081877F808380813B
:100700008B7F808383E061E00E94F60182E061E0FC
:100710000E94F6010895029902C081E0089580B117
:1007200086958695869580958170089520E030E0C5
:100730005AE109C02F5F3F4F039902C081E008953D
:10074000452F4A95F1F728173907A0F380E008955F
:1007500025E104C0922F9A95F1F784508823D1F7B0
:100760000895EF92FF920F931F93CF93DF93082F7B
:100770000E948B038823E1F783E060E00E94F6018A
:1007800080912304880F880F25E104C0922F9A9549
:10079000F1F784508823D1F782E060E00E94F601EF
:1007A00080912304880F880F880F25E104C0922FC1
:1007B0009A95F1F784508823D1F782E061E00E9496
:1007C000F60180912304880F880F25E104C0922F41
:1007D0009A95F1F784508823D1F711E0C0E0D0E07A
:1007E000E02EFF2405E1C7010C2E02C095958795E8
:1007F0000A94E2F780FF07C083E061E00E94F601FF
:1008000081E0182704C083E060E00E94F601809137
:100810002304880F880F04C0902F9A95F1F7845015
:100820008823D1F782E060E00E94F60180912304E2
:10083000880F880F880F04C0902F9A95F1F7845085
:100840008823D1F782E061E00E94F60180912304C1
:10085000880F880F04C0902F9A95F1F78450882351
:10086000D1F72196C830D10509F0BDCF112319F079
:1008700083E061E002C083E060E00E94F6018091C5
:100880002304880F880F25E104C0922F9A95F1F771
:1008900084508823D1F782E060E00E94F6018091C5
:1008A0002304880F880F880F25E104C0922F9A95A2
:1008B000F1F784508823D1F782E061E00E94F601CD
:1008C00080912304880F880F25E104C0922F9A9508
:1008D000F1F784508823D1F783E061E00E94F601AC
:1008E00080912304880F880F25E104C0922F9A95E8
:1008F000F1F784508823D1F782E060E00E94F6018E
:1009000080912304880F880F880F25E104C0922F5F
:100910009A95F1F784508823D1F782E061E00E9434
:10092000F60180912304880F880F25E104C0922FDF
:100930009A95F1F784508823D1F788EC90E00197DD
:10094000F1F7DF91CF911F910F91FF90EF900895F4
:10095000AF92BF92CF92DF92EF92FF920F931F93CD
:10096000CF93DF935C010399FECF029BFECF809172
:100970002304880F880F25E104C0922F9A95F1F780
:1009800084508823D1F782E060E00E94F6018091D4
:100990002304880F880F880F25E104C0922F9A95B1
:1009A000F1F784508823D1F782E061E00E94F601DC
:1009B00080912304880F880F25E104C0922F9A9517
:1009C000F1F784508823D1F7FF2411E0C0E0D0E094
:1009D00031E0C32ED12CEE24E39405E1039B09C042
:1009E000C6010C2E02C0880F991F0A94E2F7F82A5C
:1009F0001E2580912304880F880F04C0902F9A959C
:100A0000F1F784508823D1F782E060E00E94F6017C
:100A100080912304880F880F880F04C0902F9A9527
:100A2000F1F784508823D1F782E061E00E94F6015B
:100A300040912304842F880F880F04C0902F9A952B
:100A4000F1F784508823D1F72196C830D10509F0F9
:100A5000C5CF80B190E023E0969587952A95E1F780
:100A600081709070212F30E08217930719F02FEFDB
:100A70003FEF5DC0942F990F990F25E104C0822F9D
:100A80008A95F1F794509923D1F782E060E00E94B3
:100A9000F60180912304880F880F880F25E104C098
:100AA000922F9A95F1F784508823D1F782E061E084
:100AB0000E94F60180912304880F880F25E104C06D
:100AC000922F9A95F1F784508823D1F783E060E064
:100AD0000E94F60180912304880F880F25E104C04D
:100AE000922F9A95F1F784508823D1F782E060E045
:100AF0000E94F60180912304880F880F880F25E15A
:100B000004C0922F9A95F1F784508823D1F782E0A0
:100B100061E00E94F60183E061E00E94F60180E955
:100B200091E00197F1F7F501F08220E030E0C90192
:100B3000DF91CF911F910F91FF90EF90DF90CF90B9
:100B4000BF90AF9008950F931F93CF93DF93182F0B
:100B5000EB01042F853441F0863420F481508A3033
:100B600030F402C0893419F480EE0E94B1031123DD
:100B700009F1CD2B49F0013071F4E12FF0E0EA5991
:100B8000FC4F8081805814C0013059F4E12FF0E00F
:100B9000EA59FC4F0CC0023069F480EF0E94B103A7
:100BA00002C0023039F4E12FF0E0EE53FC4F8081B7
:100BB0000E94B103DF91CF911F910F9108950F9380
:100BC0001F93182F062F60E070E0402F0E94A305AE
:100BD00088EE93E020E931E0F9013197F1F70197D0
:100BE000D9F7812F61E070E0402F0E94A3051F918B
:100BF0000F910895EF92FF921F93CF93DF9380910F
:100C00005C0490915D04892B91F480EF0E94B10304
:100C1000809121040E94B1031092A10480EF0E94F0
:100C2000B103809122040E94B1031092BC0489E2B6
:100C30000E94B10384EF91E020E931E0F90131979E
:100C4000F1F70197D9F780EF0E94B10389E20E9482
:100C5000B103C0E0D0E040E9E42E41E0F42EC23020
:100C6000D10519F0C430D105B9F484EF91E0F70152
:100C70003197F1F70197D9F789E40E94B10384EF26
:100C800091E0F7013197F1F70197D9F780EF0E94D2
:100C9000B10389E40E94B10384EF91E0F701319739
:100CA000F1F70197D9F7FE01E95BFE4FE081F0E033
:100CB000E15BFE4F1081812F0E94B10384EF91E030
:100CC000F7013197F1F70197D9F780EF0E94B1034F
:100CD000812F0E94B10384EF91E0F7013197F1F782
:100CE0000197D9F72196C830D10509F0B8CF81E036
:100CF00080932E0480932F04DF91CF911F91FF905A
:100D0000EF900895CF92DF92EF92FF920F931F938F
:100D1000CF93DF936C0188EE93E020E931E0F90195
:100D20003197F1F70197D9F789E20E94B10388EE74
:100D300093E020E931E0F9013197F1F70197D9F714
:100D400080EF0E94B10389E20E94B10388EE93E034
:100D500020E931E0F9013197F1F70197D9F789E4FA
:100D60000E94B10388EE93E020E931E0F901319768
:100D7000F1F70197D9F780EF0E94B10389E40E944F
:100D8000B103E60101E010E050E9E52E51E0F52E57
:100D900021C088EE93E0F7013197F1F70197D9F779
:100DA00089810E94B10388EE93E0F7013197F1F752
:100DB0000197D9F780EF0E94B10389810E94B103A6
:100DC00088EE93E0F7013197F1F70197D9F70F5FBC
:100DD0001F4F2196F6018081E82FF0E0E017F10720
:100DE000C4F6EC0DFD1D818180932304DF91CF912A
:100DF0001F910F91FF90EF90DF90CF9008950F9388
:100E00001F93CF93DF93C0E3D1E007E311E0888124
:100E1000F801608141E00E9467008991F8016191C9
:100E20008F0141E00E944601F1E0C733DF0779F707
:100E30008091350160913C0140E00E946700DF91A4
:100E4000CF911F910F9108950F931F93182F062F85
:100E500040E00E944601812F602F40E00E94670021
:100E600084EC99E020E931E0F9013197F1F701973D
:100E7000D9F7812F602F41E00E946700812F602FFA
:100E800041E00E9446011F910F91089580913E011B
:100E900060913F0141E00E94670080913E016091B6
:100EA0003F0141E00E944601809140016091410173
:100EB00041E00E946700809140016091410141E062
:100EC0000E94460180912A046091420141E00E9403
:100ED000670080912A046091420141E00E9446012E
:100EE000809143016091440141E00E94670080913C
:100EF00043016091440141E00E9446018091450117
:100F00006091460141E00E94670080914501609137
:100F1000460141E00E94460108950F931F93CF932D
:100F2000DF93C0E0D1E00BE011E08881F80160813F
:100F300041E00E9467008991F80161918F0141E0D1
:100F40000E944601F1E0CB30DF0779F7C0E0D0E046
:100F5000FE01EA5EFE4FDE01AD5DBE4F80816C9109
:100F600041E00E9467002196CD30D10589F7DF91DD
:100F7000CF911F910F910895CF93DF93EC011092C1
:100F80003604809162008D7F8093620010922B0462
:100F9000209721F481E08093230415C0C130D1054E
:100FA00021F484E08093230415C0C230D10521F4DC
:100FB00084E08093230415C0C330D10521F484E07C
:100FC0008093230415C0C430D10521F484E08093BC
:100FD000230415C0C530D10521F484E08093230497
:100FE00015C0C630D10521F484E08093230415C0D8
:100FF000C730D10521F484E08093230415C0C830A4
:10100000D10521F484E08093230415C0C930D105B3
:1010100021F484E08093230423C0CA30D10521F455
:1010200084E08093230436C0CB30D10521F484E0E2
:10103000809323043EC0CC30D10591F484E08093AA
:10104000230481E080933604109237041092380410
:101050001092390410923A0482E08093200429C04F
:10106000CE30D105B9F484E08093230481E08093ED
:1010700036041092370410923804109239041092FA
:101080003A0482E080932004809162008260809321
:1010900062000FC0CD30D10561F484E08093230459
:1010A0001092360481E0809320048DE493E00E9446
:1010B0008206CE01DF91CF910895CF93DF93EC01AB
:1010C00010923604809162008D7F809362001092AE
:1010D0002B04209729F483E093E00E94820618C035
:1010E000C130D10529F487E093E00E94820618C040
:1010F000C230D10529F48CE093E00E94820618C02A
:10110000C330D10529F481E193E00E94820618C022
:10111000C430D10529F486E193E00E94820618C00C
:10112000C530D10529F48DE193E00E94820618C0F4
:10113000C630D10529F482E293E00E94820618C0ED
:10114000C730D10529F482E493E00E94820618C0DA
:10115000C830D10529F489E293E00E94820616C0C6
:10116000C930D10529F48EE293E00E94820622C0A4
:10117000CA30D10529F484E393E00E94820635C089
:10118000CB30D10519F489E393E039C0CC30D105D7
:1011900089F481E080933604109237041092380469
:1011A0001092390410923A0482E08093200489E47A
:1011B00093E025C0CE30D105C1F481E080933604A0
:1011C00010923704109238041092390410923A04A5
:1011D00082E08093200483E593E00E948206809160
:1011E00062008260809362000CC0CD30D10549F46A
:1011F0001092360481E0809320048DE493E00E94F5
:10120000820681E080932E0480932F041092310493
:10121000CE01DF91CF910895BF92CF92DF92EF92EE
:10122000FF920F931F93D82EB62E142FF22E80917B
:101230002D04882329F08AE18A95F1F710922D0474
:10124000002371F080912004823011F482E101C00A
:101250008AE20E94B10380912D048F5F80932D0458
:10126000EE20A1F080912004823029F480EE0E94CB
:10127000B10384E104C080EE0E94B1038DE10E94BD
:10128000B10380912D048F5F80932D04CC2071F0E9
:1012900080912004823011F481E101C088E30E9432
:1012A000B10380912D048F5F80932D0480912D04D4
:1012B000882329F08AE18A95F1F710922D04FF2006
:1012C00019F080EE0E94B103812F0E94B10384EFD8
:1012D00091E020E931E0F9013197F1F70197D9F771
:1012E000FF2019F080EE0E94B1038091200482302B
:1012F00019F480EF0E94B10380912004823011F430
:10130000812F02C0812F80580E94B1032D2D30E023
:101310008DE090E0289FF001299FF00D389FF00D9F
:101320001124EB0DF11DE05AFB4F1082002361F0F8
:1013300080912004823029F480EF0E94B10382E181
:1013400001C08AEA0E94B103EE2091F0809120044E
:10135000823041F480EE0E94B10380EF0E94B1031D
:1013600084E104C080EE0E94B1038DE90E94B103C4
:10137000CC2061F080912004823029F480EF0E941B
:10138000B10381E101C088EB0E94B1038AE18A9533
:10139000F1F781E080932E0480932F041092410492
:1013A00080935E041F910F91FF90EF90DF90CF909C
:1013B000BF900895282F843251F08D3141F085314E
:1013C00031F0833421F0893211F08A3509F420E0BC
:1013D000CB010C97039728F480912004813009F405
:1013E00042C3263109F43FC3263209F43CC32532F7
:1013F00009F439C32E3209F436C3222309F433C366
:101400006730710509F492C168307105C0F463302A
:10141000710509F4BCC06430710540F46130710598
:1014200039F16230710509F0E1C262C065307105C1
:1014300009F417C16630710508F041C1D7C06A30A0
:10144000710509F418C26B30710548F468307105F4
:1014500009F482C16930710509F0C8C2BDC16B30A1
:10146000710509F435C26F30710508F0BFC279C249
:101470002E3109F4B9C22C3209F4C0C22D3209F45C
:10148000CDC2243309F4B8C22B3209F4C9C22332C5
:1014900009F4CAC22B3109F4C5C22C3109F4DEC2E9
:1014A000253309F4C5C22C3309F4A4C2243409F449
:1014B000B1C22D3409F4D4C22A3209F4BDC221329A
:1014C00009F4BCC2223209F4C1C22A3109F4B2C201
:1014D000233309F4BDC22B3309F4B6C2223409F414
:1014E00095C22B3409F484C2223309F018C1A8C272
:1014F0002E3109F48BC22C3209F480C22D3209F44A
:101500008DC2243309F48EC22B3209F47BC22332FC
:1015100009F470C22B3109F46FC22C3109F480C276
:10152000263309F477C22D3309F48AC22E3309F425
:1015300067C2253409F48CC2253309F491C22C33D7
:1015400009F452C2243409F475C22D3409F45CC282
:101550002A3209F471C2213209F470C22A3109F425
:1015600075C2233309F458C22B3309F46DC22234F7
:1015700009F45CC22B3409F465C2223309F448C271
:10158000213309F467C22A3309F030C265C22E3113
:1015900009F42AC22C3209F441C22D3209F45EC288
:1015A0002B3109F425C2253309F44AC22C3309F43E
:1015B0002DC2243409F42EC22D3409F451C22A322A
:1015C00009F43AC2213209F439C22A3109F432C28B
:1015D000233309F40FC22B3309F436C2223411F439
:1015E00029E841C22B3409F0E1C032C22E3109F49E
:1015F0000BC22C3209F42CC22D3209F425C22D3134
:1016000009F430C2253111F428EF2DC2233209F438
:10161000FDC12B3109F404C2253309F4FFC12C3379
:1016200009F4ECC1243409F405C22D3409F418C2BC
:101630002A3209F401C2213209F400C22A3109F424
:10164000FFC1233309F4D8C12B3309F4CDC12234AF
:1016500009F4E0C12B3409F4EBC1223309F05FC077
:10166000C9C12E3109F4CEC12C3209F4C7C12D32C3
:1016700009F4D4C12D3109F4F5C1253111F427E065
:10168000F2C12B3109F4EAC12C3109F4DDC1243453
:1016900009F4D0C12D3409F4E3C12A3209F4CCC1D4
:1016A000213209F4CBC1223209F4A6C12A3109F44E
:1016B000B1C1233309F4CCC12B3341F59BC12E3189
:1016C00009F49EC12C3209F499C12D3209F4A6C146
:1016D000233209F48FC1253309F4A4C12C3309F452
:1016E000A7C1243409F4A6C12D3409F4B9C12A32A2
:1016F00009F4A2C1213209F4A1C1223209F492C134
:101700002A3109F487C12B3309F49EC1223409F42C
:1017100097C12B3409F46CC1223309F477C121330A
:1017200009F498C12A3309F04AC096C12C3209F451
:1017300065C12D3209F472C1263309F46DC12D3310
:1017400009F468C12E3309F463C1263409F458C181
:10175000253409F028C14CC12E3109F445C12C3281
:1017600009F45CC12D3209F479C12B3109F46EC141
:10177000253309F465C12C3309F448C1243409F434
:1017800049C12D3409F46CC12A3209F455C1213202
:1017900009F454C12A3109F44DC12B3309F458C15D
:1017A000223409F451C12B3409F424C1223309F441
:1017B0003FC1213309F438C12A3309F44BC1263320
:1017C00009F451C12D3309F44EC12E3309F44BC134
:1017D000263409F04CC047C12C3209F40FC12D3218
:1017E00009F41CC1243309F41BC12B3209F41AC1BA
:1017F000233209F4FFC02B3109F4FEC0263309F46B
:101800000BC12D3309F406C12E3309F401C126346E
:1018100009F4F6C0253309F4E7C02C3309F408C1F4
:10182000243409F407C12D3409F4F0C02A3209F434
:1018300003C1213209F402C1223209F4D9C02A318C
:1018400009F4FEC0233309F4FDC02B3309F4FCC0B6
:10185000223409F4FBC02B3409F4FAC0223309F412
:10186000D3C0213309F4F6C02A3309F4F5C0253476
:1018700009F0BCC0F8C02E3109F4BEC02C3209F406
:10188000EDC02D3209F4D0C0243309F4B3C02B329B
:1018900009F4C0C02C3109F4CDC02D3309F4D4C0F3
:1018A000253409F4CBC0243409F4B8C02D3409F42C
:1018B000D7C02A3209F4B0C0213209F499C02232CB
:1018C00009F492C02A3109F499C0233371F5AAC0F2
:1018D0002E3109F48FC02C3209F4C0C02D3209F426
:1018E000A3C02B3209F492C0233209F48BC02D33EC
:1018F00009F4AAC0253409F4A1C0253309F492C023
:10190000243409F48BC02D3409F4AAC02A3209F416
:1019100083C0213209F46CC0223209F47BC02A3121
:1019200009F46CC0233309F45FC02B3309F484C07D
:10193000223409F47DC02B3409F462C0223309F447
:101940006FC0213309F486C02A3309F485C02633D9
:1019500009F489C02E3309F486C0263409F046C044
:1019600082C0253409F444C0263409F449C02E331A
:1019700009F44EC02D3309F44DC0263309F44CC090
:101980002C32E1F12D3209F449C0243309F448C066
:101990002B3209F447C0233209F446C02B3161F1E0
:1019A0002C3109F443C02533F9F02C3309F440C03D
:1019B000243409F43FC02D3449F12A32E9F12132AF
:1019C000E9F12A31E9F12333E9F12B33E9F122344A
:1019D000E9F12B34E9F12233B9F02133D9F12A337B
:1019E000D9F12E3119F43FC024ED3DC020E03BC0B9
:1019F0002EE439C02DED37C02DE535C029E433C0C4
:101A000025E431C02EE82FC02EE32DC022E52BC0E7
:101A100026E429C022ED27C02DE325C021E423C000
:101A20002BE521C024E51FC021EE1DC02EE01BC008
:101A30002BED19C02CEC17C02AEC15C02AE413C0FA
:101A40002CE411C026E30FC02EEC0DC025E50BC021
:101A500025ED09C021EC07C029EC05C021E603C033
:101A60002EE101C027E8822F0895CF92DF92FF92E6
:101A70000F931F93CF93DF93EA0110923E041092CD
:101A80003D0410924004082F10E0C62EDD248BE0A8
:101A900090E0089FF001099FF00D189FF00D1124B0
:101AA000EC0DFD1DEC57FE4F8081BA010E94DA0952
:101AB000F82E882399F12C972397B8F4809120046D
:101AC000813099F4F801EE0FFF1FEE0FFF1FE00FBA
:101AD000F11FEC0DFD1DDF01A557BD4FFC90ED542E
:101AE000FD4F80818823A9F005C0F7FE03C080E880
:101AF000F80E0FC080912004823029F482E10E9408
:101B0000B10382E104C08AE20E94B1038AE28093B9
:101B100040048F2D0E94B103F0923F04DF91CF91DA
:101B20001F910F91FF90DF90CF900895CF92DF9299
:101B3000EF92FF920F931F93CF93DF93EA011092DE
:101B40003F04E82EFF24C62EDD248BE090E0E89EC3
:101B5000F001E99EF00DF89EF00D1124EC0DFD1D35
:101B6000EC57FE4F8081BA010E94DA09182F8823B2
:101B7000C9F12C972397A8F480912004813089F42F
:101B8000F701EE0FFF1FEE0FFF1FEE0DFF1DEC0D17
:101B9000FD1DDF01A557BD4F1C91ED54FD4F008188
:101BA00006C017FD02C001E002C0105800E080919D
:101BB0002004823029F480EF0E94B103812F02C0FB
:101BC000812F80580E94B103002361F0809120048E
:101BD000823029F480EF0E94B10382E101C08AEAD9
:101BE0000E94B103DF91CF911F910F91FF90EF9071
:101BF000DF90CF900895FF920F931F93F82E062F3A
:101C0000142F10923E0410923D04109240048091D3
:101C10002004442381F5823029F482E10E94B1033B
:101C200082E104C08AE20E94B1038AE28093400408
:101C300080912004602F70E02F2D30E0823071F40D
:101C40008BE090E0289FF001299FF00D389FF00D68
:101C50001124E60FF71FEC57FE4F0BC0F901EE0FF2
:101C6000FF1FEE0FFF1FE20FF31FE60FF71FE55CEC
:101C7000FD4F108122C0823071F44B3631F0443771
:101C800021F0453711F0423731F480EE0E94B10364
:101C900080EE8093400480912004813071F41B34E5
:101CA00031F01D3421F0183411F0103531F480EE8C
:101CB0000E94B10380EE80934004812F0E94B10303
:101CC00010933F041F910F91FF9008950F931F935E
:101CD000CF93DF93142F10923F049091200444235C
:101CE00079F5062F10E0C82FD0E09230C1F480EFD4
:101CF0000E94B1038BE090E0C89FF001C99FF00DF6
:101D0000D89FF00D1124E00FF11FEC57FE4F80819A
:101D10000E94B10380EF0E94B10382E138C0FE014E
:101D2000EE0FFF1FEE0FFF1FEC0FFD1FE00FF11F67
:101D3000E55CFD4F808180580E94B1038AEA27C08C
:101D4000923059F44B3631F0443721F0453711F0D9
:101D5000423719F480EE0E94B10380912004813053
:101D600059F41B3431F01D3421F0183411F01035C2
:101D700019F480EE0E94B10380912004823029F48E
:101D800080EF0E94B103812F02C0812F80580E94F2
:101D9000B103DF91CF911F910F910895CF92DF9200
:101DA000EF92FF920F931F93CF93DF93342FC82EA0
:101DB000DD24E62EFF248BE090E0C89EF001C99E52
:101DC000F00DD89EF00D1124EE0DFF1DEC57FE4FC7
:101DD000E081EC3409F442C0ED34C0F4EC3009F495
:101DE0006BC0ED3050F4E43009F45DC0E53009F427
:101DF00050C0E13009F00FC168C0E13409F440C0BF
:101E0000E934A9F1ED3009F006C1AAC0EB3609F4B6
:101E10006EC0EC3650F4E83509F460C0E63609F4DB
:101E20008DC0E23509F0F7C010C0E43709F47CC07A
:101E3000E53720F4E23709F0EEC062C0E53709F477
:101E400069C0E63709F0E7C082C080913304840F8F
:101E50008093330497E021E0A4E023C08091330411
:101E6000840F8093330497E021E0A4E081C0809147
:101E70003304840F8093330497E021E0A7E05CC033
:101E800080913304840F8093330497E021E0A7E02E
:101E900049C080913204840F8093320495E020E0A1
:101EA000A0E080E066C080913204840F8093320409
:101EB00095E020E0A0E040C080913204840F809340
:101EC000320495E020E0A0E02DC080913204840F20
:101ED0008093320495E020E0A3E04AC08091320470
:101EE000840F8093320495E020E0A0E041C080910F
:101EF0003204840F8093320495E020E0A0E008C013
:101F000080913204840F8093320495E020E0A3E0B6
:101F100084E02FC080913204840F8093320495E0D6
:101F200020E0A3E083E025C080913204840F8093F9
:101F3000320495E020E0A3E082E01BC080913204EF
:101F4000840F8093320495E020E0A3E0AACF809133
:101F50003204840F8093320495E020E0A7E0A1CF03
:101F600080913204840F8093320495E020E0A7E052
:101F700081E00A2F10E0C82FD0E04DE050E0049F30
:101F8000F001059FF00D149FF00D1124EC0FFD1FC3
:101F9000E05AFB4F70813F3F41F480913204882327
:101FA000F1F4809133048823D1F4892F90E0849F49
:101FB000D001859FB00D949FB00D1124A20FB11DCB
:101FC000A05ABB4FC49EF001C59EF00DD49EF00DEB
:101FD0001124EE0DFF1DE05AFB4F80818C938DE0A4
:101FE00090E0089FD001099FB00D189FB00D1124FB
:101FF000AC0FBD1FA05ABB4F7871C89EF001C99E9F
:10200000F00DD89EF00D1124EE0DFF1DE05AFB4F90
:102010008081782B7C93DF91CF911F910F91FF905E
:10202000EF90DF90CF9008956F927F928F929F9262
:10203000AF92BF92CF92DF92EF92FF920F931F93D6
:102040001091420410934E040091430400934F04F6
:10205000F0904404F0925004E0904504E092510462
:10206000D0904604D092520410924604C090470487
:10207000C092530410924704B0904804B0925404A4
:10208000A0904904A092550490904A04909256045E
:1020900010924A0480904B048092570410924B0493
:1020A00070904C047092580410924C0460904D044F
:1020B0006092590410924D0480E49CE90197F1F775
:1020C0000E945F020E94140280914204811761F015
:1020D00060E070E0882311F461E070E080915A03C1
:1020E000409120040E94A30580914304801761F071
:1020F00060E070E0882311F461E070E080915B03A0
:10210000409120040E94A305809144048F1561F042
:1021100060E070E0882311F461E070E080915C037E
:10212000409120040E94A305809145048E1561F022
:1021300060E070E0882311F461E070E080915D035D
:10214000409120040E94A305809146048D1561F002
:1021500060E070E0882311F461E070E080915E033C
:10216000409120040E94A305809147048C1561F0E2
:1021700060E070E0882311F461E070E080915F031B
:10218000409120040E94A305809148048B1561F0C2
:1021900060E070E0882311F461E070E080916003FA
:1021A000409120040E94A305809149048A1561F0A2
:1021B00060E070E0882311F461E070E080916103D9
:1021C000409120040E94A30580914A04891561F082
:1021D00060E070E0882311F461E070E080916203B8
:1021E000409120040E94A30580914B04881561F062
:1021F00060E070E0882311F461E070E08091630397
:10220000409120040E94A30580914C04871561F041
:1022100060E070E0882311F461E070E08091640375
:10222000409120040E94A30580914D04861561F021
:1022300060E070E0882311F461E070E08091650354
:10224000409120040E94A3051F910F91FF90EF90F1
:10225000DF90CF90BF90AF909F908F907F906F90C6
:102260000895EF92FF921F93CF93DF9380915C04C8
:1022700090915D04892B91F480EF0E94B1038091CD
:1022800021040E94B1031092A10480EF0E94B103C7
:10229000809122040E94B1031092BC04809120041A
:1022A000823009F0D6C084EF91E020E931E0F901F5
:1022B0003197F1F70197D9F789E20E94B10384EFD2
:1022C00091E020E931E0F9013197F1F70197D9F771
:1022D00080EF0E94B10389E20E94B10384EF91E094
:1022E00020E931E0F9013197F1F70197D9F789E455
:1022F0000E94B10384EF91E020E931E0F9013197C8
:10230000F1F70197D9F780EF0E94B10389E40E94A9
:10231000B10380912C04813061F0813088F08230EB
:1023200009F097C0CEE7D1E090E9E92E91E0F92ECF
:102330008DC0C2E7D1E080E9E82E81E0F82E5BC0D5
:10234000C3E6D1E010E9E12E11E0F12E29C0F7013A
:102350003197F1F70197D9F71881812F0E94B103C6
:1023600084EF91E0F7013197F1F70197D9F780EF0A
:102370000E94B103812F0E94B10384EF91E0F70125
:102380003197F1F70197D9F786E090E060912C043E
:102390000E94391C219681E0C237D80709F459C040
:1023A00084EF91E0D4CFF7013197F1F70197D9F796
:1023B0001881812F0E94B10384EF91E0F7013197DA
:1023C000F1F70197D9F780EF0E94B103812F0E94A6
:1023D000B10384EF91E0F7013197F1F70197D9F755
:1023E00086E090E060912C040E94391C219681E0E7
:1023F000CE37D80771F184EF91E0D5CFF70131974F
:10240000F1F70197D9F71881812F0E94B10384EF6A
:1024100091E0F7013197F1F70197D9F780EF0E942A
:10242000B103812F0E94B10384EF91E0F70131974E
:10243000F1F70197D9F786E090E060912C040E94B3
:10244000391C219681E0C438D80719F084EF91E057
:10245000D5CF81E080932E0480932F04DF91CF911C
:102460001F91FF90EF900895FF920F931F93CF93CA
:10247000DF9380915C0490915D04892B91F480EF4F
:102480000E94B103809121040E94B1031092A10423
:1024900080EF0E94B103809122040E94B103109248
:1024A000BC0485E090E060915C040E94391C80913E
:1024B0002004823009F060C084EF91E020E931E02F
:1024C000F9013197F1F70197D9F789E20E94B10339
:1024D00084EF91E020E931E0F9013197F1F70197BC
:1024E000D9F780EF0E94B10389E20E94B10384EF23
:1024F00091E020E931E0F9013197F1F70197D9F73F
:1025000089E40E94B10384EF91E020E931E0F90110
:102510003197F1F70197D9F780EF0E94B10389E471
:102520000E94B103C9E5D1E000E911E022C0F80141
:102530003197F1F70197D9F7F8808F2D0E94B103F9
:1025400084EF91E0F8013197F1F70197D9F780EF27
:102550000E94B1038F2D0E94B10384EF91E0F80136
:102560003197F1F70197D9F7219681E0C336D80763
:1025700019F084EF91E0DBCF81E080932E0480930B
:102580002F04DF91CF911F910F91FF9008952F920B
:102590003F924F925F926F927F928F929F92AF92F3
:1025A000BF92CF92DF92EF92FF920F931F93CF9340
:1025B000DF9310922E0486E061E00E9417018823C9
:1025C00009F44DC085E38A95F1F786E061E00E9449
:1025D0001701882309F466C080913004813059F5D1
:1025E00080911E0490911F04019790931F04809383
:1025F0001E04E0E4FCE93197F1F78436910508F018
:1026000051C08CE291E090931F0480931E041092BD
:102610003004DF98C0E9D1E007C084EC99E0FE0106
:102620003197F1F70197D9F786E061E00E94170131
:10263000882399F737C08CE291E090931F04809330
:102640001E0481E080933004DF9A84EC99E020E955
:1026500031E0F9013197F1F70197D9F723C0809163
:102660001E0490911F048C529140B0F4D59ADD98CD
:1026700088EE93E020E931E0F9013197F1F7019715
:10268000D9F7D598DD9A84EC99E020E931E0F90199
:102690003197F1F70197D9F78CE291E090931F04FD
:1026A00080931E045DE0452E512C45E3242E3324F7
:1026B000339480912E04882309F08CC036E1632E78
:1026C00031E0732E23E2822E21E0922EAA24BB2435
:1026D0000A2DF3018081F401608140E00E946700CF
:1026E000F3018081F401608140E00E9446018AE1AB
:1026F0008A95F1F790E0C92E91E0D92E8BE0E82E73
:1027000081E0F82EA49CE001A59CD00DB49CD00DD6
:102710001124C05ADB4F10E0F6018081F70160817F
:102720000E941701882351F1822D8A95F1F7F60155
:102730008081F70160810E94170198818823C1F090
:1027400090FF0AC092609883083040F1153030F154
:10275000802F612F40E009C0916098830830F0F02D
:102760001530E0F0802F612F41E00E94CE0E16C0A0
:1027700090FF14C09C7F9460988306C0888180FF7E
:102780000DC08C7F84608883083040F0153030F0B5
:10279000802F612F4FEF0E94CE0E18821F5F08948A
:1027A000C11CD11C0894E11CF11C21961B3009F0BE
:1027B000B3CFF30181913F01F40161914F0141E0F9
:1027C0000E9467000894A11CB11CFDE0AF16B10483
:1027D00009F07ECF80915E04882311F110925E048F
:1027E00045E654E020E030E011C0808180FF02C067
:1027F00030925E043196E417F507B9F72F5F3F4F2B
:10280000435F5F4F2830310509F453CF249DF00119
:10281000259DF00D349DF00D1124E05AFB4FE5CFBE
:1028200080913104882309F4A0C08091A10482FF23
:102830000FC01092A10480915C0490915D04892BDB
:1028400039F480EF0E94B103809121040E94B1030A
:102850008091BC0482FF0FC01092BC0480915C0484
:1028600090915D04892B39F480EF0E94B10380912F
:1028700022040E94B10380917E0480FF08C08091F1
:102880004001609141010E94240710927E048091D2
:10289000B20480FF08C080912A04609142010E9426
:1028A00024071092B2048091B10480FF08C0809187
:1028B0004501609146010E9424071092B104809165
:1028C000B00480FF08C080914301609144010E94E0
:1028D00024071092B0048091AF0480FF08C080915B
:1028E0003E0160913F010E9424071092AF0415E65B
:1028F000C12E14E0D12EEE24FF24BDE0AB2EB12C6E
:102900001EC0F801808180FF08C0888190E00E948D
:102910005D0890935D0480935C040F5F1F4F2196C8
:102920000C151D0571F70894E11CF11CADE0CA2ED1
:10293000D12CC00ED11EF8E0EF16F10499F0EA9CFC
:102940008001EB9C100DFA9C100D1124005A1B4FB6
:10295000E701CC0FDD1FCC0FDD1FCE0DDF1DC552F3
:10296000DD4FCFCF81E080932E0480912E04882309
:1029700009F081C38091A10480FF7DC38091BC04D4
:1029800080FF79C380912F04882309F072C380915E
:102990005C0490915D040C970397E0F48091A4048B
:1029A00080FF08C090E080912B04882309F491E017
:1029B00090932B048091AF0480FF03C081E080934B
:1029C000410480ED97E020E931E0F9013197F1F71A
:1029D0000197D9F78091970480FF18C080912C044B
:1029E000813031F080915C0490915D04892B71F00D
:1029F0001092360481E08093310480932E048093FA
:102A00005E04809162008260809362008091200465
:102A1000823009F048C28091B10480FF10C08091DB
:102A20005C0490915D04892B51F480912C048F5F9C
:102A3000833008F080E080932C040E943111809153
:102A4000600480FF0FC080912C04823059F080E038
:102A500060E045E020E000E0EE24CC24E5E0AE2E8E
:102A60000E940C098091610480FF0FC080912C04AA
:102A7000823059F080E061E046E020E000E0EE24A2
:102A8000CC2475E0A72E0E940C098091620480FF7F
:102A90000FC080912C04823059F080E062E044E065
:102AA00020E000E0EE24CC2455E0A52E0E940C0985
:102AB0008091630480FF0FC080912C04823059F014
:102AC00080E063E04CE020E000E0EE24CC2435E040
:102AD000A32E0E940C098091640480FF0FC0809196
:102AE0002C04823059F080E064E043E020E000E014
:102AF000EE24CC2495E0A92E0E940C0980918B0431
:102B000080FF0FC080912C04823059F083E064E094
:102B10004BE020E000E0EE24CC2415E0A12E0E9442
:102B20000C0980918A0480FF0FC080912C048230B0
:102B300059F083E063E043E820E000E0EE24CC2499
:102B4000B5E0AB2E0E940C098091890480FF0FC074
:102B500080912C04823059F083E062E04AE020E06A
:102B600000E0EE24CC24A5E0AA2E0E940C0980915E
:102B7000880480FF0FC080912C04823059F083E0DC
:102B800061E041E020E000E0EE24CC24F5E0AF2E4F
:102B90000E940C098091870480FF0FC080912C0453
:102BA000823059F083E060E049E020E000E0EE246C
:102BB000CC24E5E0AE2E0E940C0980916D0480FFCC
:102BC0000FC080912C04823059F081E060E048E72A
:102BD00020E000E0EE24CC2472E3A72E0E940C0932
:102BE00080916E0480FF0FC080912C04823059F0D8
:102BF00081E061E047E020E000E0EE24CC2452E3F5
:102C0000A52E0E940C0980917B0480FF57C0809103
:102C10005C0490915D04009709F450C0049709F09A
:102C20003BC08AE00E94B10384EF91E020E931E0EB
:102C3000F9013197F1F70197D9F789E00E94B103C3
:102C400084EF91E020E931E0F9013197F1F7019744
:102C5000D9F780EF0E94B10389E00E94B10380E1BF
:102C600097E220E931E0F9013197F1F70197D9F7BF
:102C700080EF0E94B1038AE00E94B10384EF91E0EB
:102C800020E931E0F9013197F1F70197D9F781E0B7
:102C900080932E0480932F0480915C0490915D04B6
:102CA000039761F482E061E047E020E000E0EE2479
:102CB000E394CC2435E0A32E0E940C0980917A0481
:102CC00080FF15C080912C04813031F080915C042C
:102CD00090915D04892B59F082E060E049E020E0AA
:102CE00000E0EE24CC2495E0A92E0E940C098091EE
:102CF000980480FF17C080912C04823031F48091B9
:102D00005C0490915D04892B69F084E064E043E009
:102D100020E000E0EE24E394CC24C39415E0A12E3F
:102D20000E940C098091BF0480FF17C080912C0481
:102D3000823031F480915C0490915D04892B69F0BC
:102D400087E064E046E620E000E0EE24E394CC2453
:102D5000C394B5E0AB2E0E940C098091BE0480FFA5
:102D600017C080912C04823031F480915C049091E2
:102D70005D04892B69F087E063E041E720E000E033
:102D8000EE24E394CC24C394A5E0AA2E0E940C095F
:102D900080917E0480FF15C080912C04823031F434
:102DA00080915C0490915D04892B59F082E064E08D
:102DB0004EE720E000E0EE24CC24F5E0AF2E0E94A8
:102DC0000C098091A50480FF0CC080912C048130F7
:102DD00031F080915C0490915D04892B11F00E9488
:102DE000FA058091A30480FF0CC080912C048130EF
:102DF00031F080915C0490915D04892B11F00E9468
:102E0000341280916F0480FF11C080915C04909116
:102E10005D04892B59F081E062E04DE721E000E09C
:102E2000EE24CC24E5E0AE2E0E940C0980917004C3
:102E300080FF11C080915C0490915D04892B59F052
:102E400081E063E04AE721E000E0EE24CC2475E075
:102E5000A72E0E940C0980917C0480FF11C08091F4
:102E60005C0490915D04892B59F082E062E04DE7AB
:102E700021E001E0EE24CC2455E0A52E0E940C09AF
:102E800080917D0480FFF7C080915C0490915D0487
:102E9000892B09F4F0C082E063E04AE721E001E019
:102EA000EE24CC24E1C0813009F0E5C080916004BB
:102EB00080FF0CC080E060E04BE320E000E0EE2407
:102EC000C090410435E0A32E0E940C09809161045A
:102ED00080FF0CC080E061E04CE320E000E0EE24E5
:102EE000C090410495E0A92E0E940C0980916204D3
:102EF00080FF0CC080E062E04DE320E000E0EE24C3
:102F0000C090410415E0A12E0E940C098091630439
:102F100080FF0CC080E063E04EE320E000E0EE24A0
:102F2000C0904104B5E0AB2E0E940C09809164046E
:102F300080FF0CC080E064E04FE320E000E0EE247E
:102F4000C0904104A5E0AA2E0E940C0980918B0438
:102F500080FF0CC083E064E040E420E000E0EE2469
:102F6000C0904104F5E0AF2E0E940C0980918A04C4
:102F700080FF0CC083E063E041E420E000E0EE2449
:102F8000C0904104E5E0AE2E0E940C0980918904B6
:102F900080FF0CC083E062E042E420E000E0EE2429
:102FA000C090410475E0A72E0E940C09809188040E
:102FB00080FF0CC083E061E043E420E000E0EE2409
:102FC000C090410455E0A52E0E940C098091870411
:102FD00080FF0CC083E060E044E420E000E0EE24E9
:102FE000C090410435E0A32E0E940C0980916D042D
:102FF00080FF0CC081E060E047E520E000E0EE24C7
:10300000C090410495E0A92E0E940C0980916E04A5
:1030100080FF0CC081E061E048E520E000E0EE24A4
:10302000C090410415E0A12E0E940C098091BF04BC
:1030300080FF0DC087E064E04EE020E000E0EE2479
:10304000E394CC24C394B5E0AB2E0E940C0980918C
:10305000BE0480FF10C087E063E043E520E000E0AD
:10306000EE24E394CC24C394A5E0AA2E0E940C097C
:1030700002C010922F0480912E04882309F085C28B
:1030800080915C0490915D04892B09F09BC0809134
:10309000A10480FF10C081FD0EC0809121040E9418
:1030A000B1038091A10482608093A10480912D04DA
:1030B0008F5F80932D048091BC0480FF10C081FD40
:1030C0000EC0809122040E94B1038091BC048260F2
:1030D0008093BC0480912D048F5F80932D04809198
:1030E000A10482FF0EC080EF0E94B10380912104F1
:1030F0000E94B1031092A10480912D048F5F8093F0
:103100002D048091BC0482FF0EC080EF0E94B103A9
:10311000809122040E94B1031092BC0480912D047E
:103120008F5F80932D0480912D04882329F08AE1FC
:103130008A95F1F710922D04F5E6CF2EF4E0DF2EFC
:10314000EE24FF24EDE08E2E912C7BE0A72EB12CF7
:1031500026C0888180FF06C081FD04C0F8018081FF
:103160000E94B103888182FF08C080EF0E94B103F2
:10317000F80180810E94B103188221960F5F1F4FD2
:10318000CC15DD0531F70894E11CF11C8DE090E0D1
:10319000C80ED91E98E0E916F10409F4F6C1E89CBE
:1031A000E001E99CD00DF89CD00D1124C05ADB4FF2
:1031B000EA9C8001EB9C100DFA9C100D11240C5719
:1031C0001E4FC7CF80913504882309F03FC08091FE
:1031D00032048823D9F5809133048823B9F580918E
:1031E000A10480FF02C081FF20C08091BC0480FF49
:1031F00037C081FF1AC034C0453019F4992359F003
:1032000004C0473011F4913031F0808180FF03C059
:103210005093350404C09F5F3196953069F72F5F56
:103220003F4F2830310531F41BC020E030E06DE025
:1032300070E051E0269FF001279FF00D369FF00DC2
:103240001124E05AFB4F90E0422FD6CF8091A10489
:1032500080FD06C08091BC0480FD02C01092350440
:1032600000E0CC24DD246DE0262E312C5CC1E5E0AD
:10327000AE1621F4BB2009F43DC107C0F7E0AF163C
:1032800021F421E0B21609F435C1988190FFA2C063
:1032900091FDA0C080913504882369F48091A10438
:1032A00080FF02C0986098838091BC0480FF03C0B7
:1032B000888180618883888183FF0EC084FD0CC073
:1032C00080912004823011F4F20101C0F3014081A9
:1032D0008A2D6B2D0E94FB0D888184FF0AC083FD1F
:1032E00008C040915C0450915D048A2D6B2D0E94B2
:1032F000350D888183FD6BC084FD69C080912B04EE
:1033000090912004882309F450C010923E0410923A
:103310003D04109240049230E9F4F7010081043436
:1033200011F40BE614C00D3411F404E710C005319C
:1033300011F405E70CC00C3111F402E708C00B369C
:1033400031F0043721F0053711F0023719F480EE1F
:1033500080934004809120048130E9F4F4010081DD
:10336000083111F40BE414C0093111F40DE410C05C
:10337000003111F408E40CC00E3111F400E508C06E
:103380000B3431F00D3421F0083411F0003519F40C
:1033900080EE8093400400933F0480914004882392
:1033A00091F080EE0E94B1030EC010923E04109284
:1033B0003D04923011F4F70101C0F4018081809343
:1033C0003F041092400480913F040E94B103888121
:1033D00082608883888182FF8DC083FF0EC084FD58
:1033E0000CC080912004823011F4F20101C0F3017D
:1033F00040818A2D6B2D0E94660E888184FF0AC051
:1034000083FD08C040915C0450915D048A2D6B2DB2
:103410000E94960D888183FD6CC084FD6AC08091F6
:103420002B0490912004882309F44DC010923F048E
:10343000923019F5F7010081043411F40BE614C041
:103440000D3411F404E710C0053111F405E70CC088
:103450000C3111F402E708C00B3631F0043721F0CB
:10346000053711F0023719F480EE0E94B10380EFA6
:103470000E94B103802F0E94B1038091200481300B
:10348000C1F5F4010081083111F40BE414C00931D5
:1034900011F40DE410C0003111F408E40CC00E3139
:1034A00011F400E508C00B3431F00D3421F008347C
:1034B00011F0003519F480EE0E94B103802F80587E
:1034C0000E94B10316C0923039F480EF0E94B1031C
:1034D000F7011081812F04C0F4011081812F8058E1
:1034E0000E94B10380913F04811709F480E080932A
:1034F0003F041882B39421960894E11CF11C0894AF
:10350000811C911C0894411C511C0894611C711C65
:10351000F5E0BF1609F0ABCE0894C11CD11C28E021
:10352000C216D10491F1AC2CC29CE001C39CD00D19
:10353000D29CD00D1124C05ADB4F8BE090E0C89E86
:103540007001C99EF00CD89EF00C1124E4E8F1E063
:10355000EE0EFF1EC601880F991F880F991F8C0D54
:103560009D1D4BE3842E42E0942E880E991E33E17C
:10357000432E32E0532E480E591E23E6622E22E0DF
:10358000722E680E791EBB2472CEDF91CF911F91EF
:103590000F91FF90EF90DF90CF90BF90AF909F90F2
:1035A0008F907F906F905F904F903F902F900895F5
:1035B000DF92EF92FF920F931F93DF93CF9300D090
:1035C00000D00F92CDB7DEB7D79ADF98D598DD9AA5
:1035D00080916100826080936100809162008D7FA4
:1035E00080936200D49ADC9A0E947A030E948D072D
:1035F0000E94FF060E94460710925A0410925B0434
:1036000086E061E041E00E94670086E061E041E021
:103610000E9446018E010F5F1F4FC80160E070E0FD
:1036200045E050E00E94171C41E020E030E0B80186
:10363000FB01E20FF31FD901AC5DBB4F90818C9170
:10364000981340E02F5F3F4F2530310589F7442321
:10365000A9F085E090E00E94271C90E00E94BC0742
:1036600090935D0480935C0486E090E00E94271CA8
:10367000833008F080E080932C040DC084E294E055
:1036800060E070E045E050E00E942F1C85E090E093
:1036900060E00E94391C60EAE62E66E8F62E61E0E2
:1036A000062F112DDD24D3940E948B03882309F467
:1036B0006BC080915C0490915D040C97039708F0B7
:1036C00063C080913604882309F056C08091370486
:1036D00090913804A0913904B0913A040097A10563
:1036E000B10509F049C050C08091340480935F0453
:1036F00084E394E00E94A804892BF1F5E09237045A
:10370000F09238040093390410933A048091340401
:103710008E3E29F40E94B103D092360403C08AEF92
:103720000E94B10390913404923099F0933028F4C0
:10373000992341F0913001F50CC0923F89F09F3FF1
:10374000D9F415C080915F04803FB1F480912004CA
:103750000BC080915F04803F79F4909320040CC0EB
:103760008BEA0E94B10383E80E94B10305C08AEA94
:103770000E94B1031092360488EE93E00E949603F3
:10378000882309F0B1CF90CF80913704909138040D
:10379000A0913904B0913A040097A105B10559F000
:1037A0000197A109B1098093370490933804A0933D
:1037B0003904B0933A0480915C0490915D040C97B5
:1037C000039780F580913F04882361F180913D0447
:1037D00090913E04019690933E0480933D0401979E
:1037E000895E934020F4809120048230D9F4809146
:1037F0003B0490913C04019690933C0480933B04DD
:1038000001978739910570F080914004882311F069
:103810000E94B10380913F040E94B10310923C04C6
:1038200010923B040E94C7120E9414103DCFDC018D
:10383000CB01FC01E199FECF06C0FFBBEEBBE09AD5
:1038400031960DB20D9241505040B8F70895E1996C
:10385000FECF9FBB8EBBE09A99278DB30895DC0104
:10386000CB0103C02D910E943A1C41505040D0F72B
:103870000895262FE199FECF9FBB8EBB2DBB0FB6BF
:10388000F894E29AE19A0FBE01960895F894FFCF5A
:1038900003010107050301040705030303070404EB
:1038A00004040702020204060300020406000002E8
:1038B00004060702020704040404070303030303C6
:1038C00005040302010005050505050503000202C4
:1038D0000102020705060500010003020001084578
:1038E000161E26252E363D3E46212B342B4B1C1B07
:1038F0003324231A224D1C2D2C431C4B21443A32D5
:10390000441B1A222B3C4B4B21443A32441B1A22B3
:103910004D3C2D24161E26252E000000000000150B
:103920001D242D2C0000000000001C1B232B340044
:10393000000000000045463E3D360000000000004B
:103940004D44433C35000000000000001A22212AAB
:103950000000000000005A4B423B33000000000012
:103960000029003A31320000000000000000000091
:103970000000000000524C0000000000494100001F
:1039800000000000000000040C0558006B0000005F
:1039900000007475660100720000000000000076EF
:1039A0000D0000065800006B000000000000000041
:1039B0000000660074757200000000000000000046
:1039C000000D000000007600000000020304050660
:1039D00010111213141E1F2021220B0A09080719A7
:1039E00018171615002C2D2E2F1C262524233900E0
:1039F0003231303C3A00004B000000000000000073
:103A000000000E004D00500000000000000000000B
:103A1000000F000000000100000000020304050682
:103A20000000003334292B2B1A1B0C0B0A28082802
:103A30001B001B1A0027003535000D0D0C07000078
:103A400034330901010101010000000101010100FD
:103A5000010101010100010100000000000100015D
:103A60000000000100010000000001010203040544
:103A7000FFFF0EFFFF09FF0DFFFF000C080706FF09
:103A8000FFFFFFFFFFFFFF0BFFFFFFFFFFFFFFFF3A
:103A9000FFFF0A021A220103214D2104033A1B22CF
:103AA000040321362504051C2C1C2D43040332324B
:103AB0002104051C21442D3104032A43210404441C
:103AC0002D432104031B1C3A04073B3C4D432C248B
:103AD0002D04051C4D4D4B2404024D2104044D21A1
:103AE000222C0405423224222C041B0B191A2925EE
:103AF0005322170E100D0048504B4D5247494B4F63
:103B0000511E302E2012212223172425263231184F
:103B10001910131F14162F112D152C02030405065E
:103B20000708090A0B3B3C3D3E3F40414243445796
:103B3000584F50514B4C4D4748495235374A4E1C0F
:103B40005345010E341D38461C392A363A290F0DCB
:103B500033270075726B74706C7D71697A1C322129
:103B600023242B3433433B424B3A31444D152D1B18
:103B70002C3C2A1D22351A161E26252E363D3E4681
:103B8000450506040C030B830A0109780769727A5C
:103B90006B73746C757D704A7C7B795A717776662D
:103BA0004914117E5A291259580E0D55414C2C01B9
:0A3BB000021214015A58554E4F003E
:00000001FF
