:100000000C9472000C9493000C9493000C94930045
:100010000C9493000C9493000C9493000C94930014
:100020000C9493000C9493000C9493000C94930004
:100030000C9493000C9493000C9493000C949300F4
:100040000C9493000C9493000C9493000C949300E4
:100050000C9493000C9493000C9493000C949300D4
:100060000C9493000C9493000C9493000C949300C4
:100070000C9493000C9493000C9493000C949300B4
:100080000C9493000C9493000C9493000C949300A4
:100090000C9493000C9493000C9493000C94930094
:1000A0000C9493000C9493000C9493000C94930084
:1000B0000C9493000C9493000C9493000C94930074
:1000C0000C9493000C9493000C9493000C94930064
:1000D0000C9493000C9493000C9493000C94930054
:1000E0000C94930011241FBECFEFD1E2DEBFCDBF31
:1000F00000E00CBF15E0A0E0B2E0EEE7F8E300E0BE
:100100000BBF02C007900D92A032B107D9F715E0DE
:10011000A0E2B5E001C01D92AE3FB107E1F70E9439
:10012000CF1A0C943D1C0C940000382F643009F455
:1001300066C0653048F4623081F1633008F046C033
:10014000613009F0E0C010C0673009F48AC068303F
:1001500020F4653009F0D7C06BC0683009F49AC04C
:100160006C3009F0D0C0B3C0442361F021B181E00C
:1001700090E002C0880F991F3A95E2F7809582239C
:1001800081B9089521B181E090E002C0880F991FE4
:100190003A95E2F7282B21B90895442361F024B160
:1001A00081E090E002C0880F991F3A95E2F78095B0
:1001B000822384B9089524B181E090E002C0880FC1
:1001C000991F3A95E2F7282B24B90895442361F04A
:1001D00027B181E090E002C0880F991F3A95E2F7BD
:1001E0008095822387B9089527B181E090E002C00D
:1001F000880F991F3A95E2F7282B27B908954423D1
:1002000061F02AB181E090E002C0880F991F3A9511
:10021000E2F7809582238AB908952AB181E090E0BF
:1002200002C0880F991F3A95E2F7282B2AB9089542
:10023000442361F02DB181E090E002C0880F991F46
:100240003A95E2F7809582238DB908952DB181E02A
:1002500090E002C0880F991F3A95E2F7282B2DB93C
:100260000895442361F023B381E090E002C0880F39
:10027000991F3A95E2F78095822383BB089523B3B3
:1002800081E090E002C0880F991F3A95E2F7282B91
:1002900023BB0895442371F02091010181E090E097
:1002A00002C0880F991F3A95E2F7809582238093C8
:1002B000010108952091010181E090E002C0880FC2
:1002C000991F3A95E2F7282B2093010108954423C2
:1002D00071F020910A0181E090E002C0880F991F1F
:1002E0003A95E2F78095822380930A010895209140
:1002F0000A0181E090E002C0880F991F3A95E2F769
:10030000282B20930A010895282F6430E1F06530EE
:1003100038F46230A1F06330A0F4613061F40DC0B4
:100320006730A9F0683018F4653029F40EC06830E1
:1003300081F06C30C9F080E0089580B10CC083B1C9
:100340000AC086B108C089B106C08CB104C082B3AE
:1003500002C08091000190E002C0959587952A9592
:10036000E2F78095817008958091090190E002C0C4
:10037000959587952A95E2F7809581700895382F95
:10038000643009F466C0653048F4623081F163304E
:1003900008F046C0613009F0E0C010C0673009F4D1
:1003A0008AC0683020F4653009F0D7C06BC068306F
:1003B00009F49AC06C3009F0D0C0B3C0442361F492
:1003C00022B181E090E002C0880F991F3A95E2F7D0
:1003D0008095822382B9089522B181E090E002C025
:1003E000880F991F3A95E2F7282B22B908954423E4
:1003F00061F425B181E090E002C0880F991F3A9521
:10040000E2F78095822385B9089525B181E090E0D7
:1004100002C0880F991F3A95E2F7282B25B9089555
:10042000442361F428B181E090E002C0880F991F55
:100430003A95E2F78095822388B9089528B181E042
:1004400090E002C0880F991F3A95E2F7282B28B94F
:100450000895442361F42BB181E090E002C0880F3D
:10046000991F3A95E2F7809582238BB908952BB1B5
:1004700081E090E002C0880F991F3A95E2F7282B9F
:100480002BB90895442361F42EB181E090E002C0BD
:10049000880F991F3A95E2F7809582238EB90895C7
:1004A0002EB181E090E002C0880F991F3A95E2F7E3
:1004B000282B2EB90895442361F424B381E090E001
:1004C00002C0880F991F3A95E2F78095822384BB7A
:1004D000089524B381E090E002C0880F991F3A95F7
:1004E000E2F7282B24BB0895442371F420910201E4
:1004F00081E090E002C0880F991F3A95E2F780955D
:1005000082238093020108952091020181E090E00E
:1005100002C0880F991F3A95E2F7282B2093020119
:100520000895442371F420910B0181E090E002C012
:10053000880F991F3A95E2F78095822380930B01EB
:10054000089520910B0181E090E002C0880F991F6F
:100550003A95E2F7282B20930B010895382F662354
:1005600061F020B381E090E002C0880F991F3A95B6
:10057000E2F78095822380BB089520B381E090E06C
:1005800002C0880F991F3A95E2F7282B20BB0895E7
:100590002091370530913805832F822351F081E077
:1005A00080933B0580934F051092370510923805D4
:1005B00014C080914F05882321F010923B051092C2
:1005C0004F0590E080914705882309F491E02923A5
:1005D0002093370539233093380520913905309120
:1005E0003A05832F822351F081E080933C0580936C
:1005F00050051092390510923A05089580915005E2
:10060000882321F010923C051092500590E08091D3
:100610004805882309F491E02923209339053923DB
:1006200030933A050895EF92FF920F931F938091B4
:10063000350260913C0241E00E94BF018AE4E82E4D
:100640008E2D8A95F1F780913002609137020E94D9
:1006500084018093370580913102609138020E94B5
:1006600084018093380580913202609139020E94A2
:100670008401809339058091330260913A020E948F
:10068000840180933A058091350260913C0240E0FC
:100690000E94BF018E2D8A95F1F780913202609100
:1006A00039020E948401182F8091330260913A022E
:1006B0000E948401182309F4B2C080913402609131
:1006C0003B020E94840180933D0580913602609137
:1006D0003D020E94840180933C0580913502609127
:1006E0003C0241E00E94BF018E2D8A95F1F7809176
:1006F000340260913B020E94840180933E05809108
:10070000360260913D020E94840180933F058091F2
:10071000350260913C0240E00E94BF018E2D8A9517
:10072000F1F78091350260913C0241E00E94BF01E7
:100730008E2D8A95F1F78091350260913C0240E060
:100740000E94BF018E2D8A95F1F780913002609151
:1007500037020E948401182F809131026091380283
:100760000E948401082F80913202609139020E9418
:100770008401F82E8091330260913A020E94840134
:1007800001230F21082309F445C0809135026091AF
:100790003C0241E00E94BF018E2D8A95F1F78091C5
:1007A0003002609137020E9484018093420580915B
:1007B0003102609138020E9484018093410580914A
:1007C0003202609139020E94840180934005809139
:1007D000330260913A020E94840180933B0580912C
:1007E000350260913C0240E00E94BF018E2D8A9547
:1007F000F1F78091350260913C0241E00E94BF0117
:100800008E2D8A95F1F78091350260913C0240E08F
:100810000E94BF0180E49FE10197F1F710C0809131
:10082000340260913B020E94840180933D058091D7
:10083000360260913D020E94840180933E058091C2
:10084000350260913C0241E00E94BF018AE48A9532
:10085000F1F71F910F91FF90EF9008958B988A9870
:1008600083E061E00E94AE0282E061E00E94AE029D
:1008700008957A9902C081E008958FB18695869592
:10088000869580958170089520E030E05AE109C096
:100890002F5F3F4F7B9902C081E00895452F4A9515
:1008A000F1F728173907A0F380E0089525E104C087
:1008B000922F9A95F1F784508823D1F70895EF92FB
:1008C000FF920F931F93CF93DF93082F0E94390459
:1008D0008823E1F783E060E00E94AE0280911A0570
:1008E000880F880F25E104C0922F9A95F1F7845064
:1008F0008823D1F782E060E00E94AE0280911A0561
:10090000880F880F880F25E104C0922F9A95F1F780
:1009100084508823D1F782E061E00E94AE0280918A
:100920001A05880F880F25E104C0922F9A95F1F7D8
:1009300084508823D1F711E0C0E0D0E0E02EFF24FE
:1009400005E1C7010C2E02C0959587950A94E2F740
:1009500080FF07C083E061E00E94AE0281E01827BB
:1009600004C083E060E00E94AE0280911A05880F07
:10097000880F04C0902F9A95F1F784508823D1F7FF
:1009800082E060E00E94AE0280911A05880F880F15
:10099000880F04C0902F9A95F1F784508823D1F7DF
:1009A00082E061E00E94AE0280911A05880F880FF4
:1009B00004C0902F9A95F1F784508823D1F721969F
:1009C000C830D10509F0BDCF112319F083E061E0F3
:1009D00002C083E060E00E94AE0280911A05880F99
:1009E000880F25E104C0922F9A95F1F7845088234F
:1009F000D1F782E060E00E94AE0280911A05880F74
:100A0000880F880F25E104C0922F9A95F1F7845042
:100A10008823D1F782E061E00E94AE0280911A053E
:100A2000880F880F25E104C0922F9A95F1F7845022
:100A30008823D1F783E061E00E94AE0280911A051D
:100A4000880F880F25E104C0922F9A95F1F7845002
:100A50008823D1F782E060E00E94AE0280911A05FF
:100A6000880F880F880F25E104C0922F9A95F1F71F
:100A700084508823D1F782E061E00E94AE02809129
:100A80001A05880F880F25E104C0922F9A95F1F777
:100A900084508823D1F788EC90E00197F1F7DF913B
:100AA000CF911F910F91FF90EF900895AF92BF9259
:100AB000CF92DF92EF92FF920F931F93CF93DF932A
:100AC0005C017B99FECF7A9BFECF80911A05880F3F
:100AD000880F25E104C0922F9A95F1F7845088235E
:100AE000D1F782E060E00E94AE0280911A05880F83
:100AF000880F880F25E104C0922F9A95F1F7845052
:100B00008823D1F782E061E00E94AE0280911A054D
:100B1000880F880F25E104C0922F9A95F1F7845031
:100B20008823D1F7FF2411E0C0E0D0E031E0C32EEC
:100B3000D12CEE24E39405E17B9B09C0C6010C2E69
:100B400002C0880F991F0A94E2F7F82A1E258091A7
:100B50001A05880F880F04C0902F9A95F1F78450DA
:100B60008823D1F782E060E00E94AE0280911A05EE
:100B7000880F880F880F04C0902F9A95F1F7845042
:100B80008823D1F782E061E00E94AE0240911A050D
:100B9000842F880F880F04C0902F9A95F1F7845006
:100BA0008823D1F72196C830D10509F0C5CF8FB180
:100BB00090E023E0969587952A95E1F781709070F3
:100BC000212F30E08217930719F02FEF3FEF5DC020
:100BD000942F990F990F25E104C0822F8A95F1F780
:100BE00094509923D1F782E060E00E94AE02809198
:100BF0001A05880F880F880F25E104C0922F9A9557
:100C0000F1F784508823D1F782E061E00E94AE02C0
:100C100080911A05880F880F25E104C0922F9A95BC
:100C2000F1F784508823D1F783E060E00E94AE02A0
:100C300080911A05880F880F25E104C0922F9A959C
:100C4000F1F784508823D1F782E060E00E94AE0281
:100C500080911A05880F880F880F25E104C0922F14
:100C60009A95F1F784508823D1F782E061E00E94E1
:100C7000AE0283E061E00E94AE0280E991E001975C
:100C8000F1F7F501F08220E030E0C901DF91CF916A
:100C90001F910F91FF90EF90DF90CF90BF90AF909A
:100CA00008950F931F93CF93DF93182FEB01042F19
:100CB000853441F0863420F481508A3030F402C00B
:100CC000893419F480EE0E945F04112309F1CD2BC1
:100CD00049F0013071F4E12FF0E0E35AFB4F8081DD
:100CE000805814C0013059F4E12FF0E0E35AFB4F73
:100CF0000CC0023069F480EF0E945F0402C0023031
:100D000039F4E12FF0E0E754FB4F80810E945F044B
:100D1000DF91CF911F910F9108950F931F93182F7B
:100D2000062F60E070E0402F0E945106812F61E0A5
:100D300070E0402F0E9451061F910F910895EF928D
:100D4000FF921F93CF93DF938091510590915205AD
:100D5000892B91F480EF0E945F04809118050E9416
:100D60005F041092960580EF0E945F048091190540
:100D70000E945F041092B10589E20E945F0484EF33
:100D800091E020E931E0F9013197F1F70197D9F7C6
:100D900080EF0E945F0489E20E945F04C0E0D0E01F
:100DA00040E9E42E41E0F42EC230D10519F0C43000
:100DB000D105B9F484EF91E0F7013197F1F701978C
:100DC000D9F789E40E945F0484EF91E0F70131973D
:100DD000F1F70197D9F780EF0E945F0489E40E9440
:100DE0005F0484EF91E0F7013197F1F70197D9F7AC
:100DF000FE01E25CFD4FE081F0E0EA5BFD4F108117
:100E0000812F0E945F0484EF91E0F7013197F1F7A1
:100E10000197D9F780EF0E945F04812F0E945F0441
:100E200084EF91E0F7013197F1F70197D9F7219617
:100E3000C830D10509F0B8CF81E0809323058093B5
:100E40002405DF91CF911F91FF90EF900895CF92ED
:100E5000DF92EF92FF920F931F93CF93DF936C017A
:100E600088EE93E020E931E0F9013197F1F701973D
:100E7000D9F789E20E945F0488EE93E020E931E02F
:100E8000F9013197F1F70197D9F780EF0E945F04DC
:100E900089E20E945F0488EE93E020E931E0F901E5
:100EA0003197F1F70197D9F789E40E945F0488EE42
:100EB00093E020E931E0F9013197F1F70197D9F793
:100EC00080EF0E945F0489E40E945F04E60101E074
:100ED00010E050E9E52E51E0F52E21C088EE93E0B8
:100EE000F7013197F1F70197D9F789810E945F04E3
:100EF00088EE93E0F7013197F1F70197D9F780EF8A
:100F00000E945F0489810E945F0488EE93E0F701EC
:100F10003197F1F70197D9F70F5F1F4F2196F6012F
:100F20008081E82FF0E0E017F107C4F6EC0DFD1D1D
:100F3000818180931A05DF91CF911F910F91FF90CE
:100F4000EF90DF90CF9008950F931F93CF93DF938F
:100F5000C0E3D2E007E312E08881F801608141E05C
:100F60000E9495008991F80161918F0141E00E94F2
:100F7000BF01F2E0C733DF0779F780913502609156
:100F80003C0240E00E949500DF91CF911F910F91AC
:100F900008950F931F93CF93DF93C0E0D2E00BE04F
:100FA00012E08881F801608141E00E9495008991FA
:100FB000F80161918F0141E00E94BF01F2E0CB3066
:100FC000DF0779F7C0E0D0E0FE01EA5EFD4FDE0109
:100FD000AD5DBD4F80816C9141E00E9495002196EE
:100FE000CD30D10589F7DF91CF911F910F910895F1
:100FF000CF93DF93EC0110922B052B9810922005D4
:10100000009721F481E080931A0515C08130910585
:1010100021F484E080931A0515C08230910521F4F3
:1010200084E080931A0515C08330910521F484E093
:1010300080931A0515C0C430D10521F484E0809353
:101040001A0515C0C530D10521F484E080931A0536
:1010500015C0C630D10521F484E080931A0515C06F
:10106000C730D10521F484E080931A0515C0C8303B
:10107000D10521F484E080931A0515C0C930D1054B
:1010800021F484E080931A0523C0CA30D10521F4ED
:1010900084E080931A0532C0CB30D10521F484E07E
:1010A00080931A053AC0CC30D10591F484E0809346
:1010B0001A0581E080932B0510922C0510922D05C6
:1010C00010922E0510922F0582E08093170525C0FF
:1010D000CE30D10599F484E080931A0581E08093A5
:1010E0002B0510922C0510922D0510922E051092B2
:1010F0002F0582E0809317052B9A0FC0CD30D105C4
:1011000061F484E080931A0510922B0581E08093AE
:10111000170584E494E00E942707CE01DF91CF9168
:101120000895CF93DF93EC0110922B052B9810922A
:101130002005009729F48AEF93E00E94270718C042
:101140008130910529F48EEF93E00E94270718C0A3
:101150008230910529F483E094E00E94270718C0AB
:101160008330910529F488E094E00E94270718C095
:10117000C430D10529F48DE094E00E94270718C0FF
:10118000C530D10529F484E194E00E94270718C0F6
:10119000C630D10529F489E194E00E94270718C0E0
:1011A000C730D10529F489E394E00E94270718C0CD
:1011B000C830D10529F480E294E00E94270716C0C8
:1011C000C930D10529F485E294E00E94270722C0A6
:1011D000CA30D10529F48BE294E00E94270731C080
:1011E000CB30D10519F480E394E035C0CC30D10583
:1011F00089F481E080932B0510922C0510922D0527
:1012000010922E0510922F0582E08093170580E43E
:1012100094E021C0CE30D105A1F481E080932B056C
:1012200010922C0510922D0510922E0510922F056C
:1012300082E0809317058AE494E00E9427072B9AA6
:101240000CC0CD30D10549F410922B0581E080937C
:10125000170584E494E00E94270781E0809323052A
:101260008093240510922605CE01DF91CF91089539
:10127000BF92CF92DF92EF92FF920F931F93D82EDF
:10128000B62E142FF22E80912205882329F08AE1B0
:101290008A95F1F710922205002371F080911705CD
:1012A000823011F482E101C08AE20E945F048091E1
:1012B00022058F5F80932205EE20A1F08091170513
:1012C000823029F480EE0E945F0484E104C080EE45
:1012D0000E945F048DE10E945F04809122058F5F70
:1012E00080932205CC2071F080911705823011F493
:1012F00081E101C088E30E945F04809122058F5F35
:101300008093220580912205882329F08AE18A951D
:10131000F1F710922205FF2019F080EE0E945F0481
:10132000812F0E945F0484EF91E020E931E0F90110
:101330003197F1F70197D9F7FF2019F080EE0E945D
:101340005F0480911705823019F480EF0E945F04DA
:1013500080911705823011F4812F02C0812F8058AF
:101360000E945F042D2D30E08DE090E0289FF00179
:10137000299FF00D389FF00D1124EB0DF11DEB5A54
:10138000FA4F1082002361F080911705823029F412
:1013900080EF0E945F0482E101C08AEA0E945F043C
:1013A000EE2091F080911705823041F480EE0E948A
:1013B0005F0480EF0E945F0484E104C080EE0E941D
:1013C0005F048DE90E945F04CC2061F080911705D5
:1013D000823029F480EF0E945F0481E101C088EB34
:1013E0000E945F048AE18A95F1F781E080932305EA
:1013F0008093240510923605809353051F910F9119
:10140000FF90EF90DF90CF90BF900895282F843207
:1014100051F08D3141F0853131F0833421F0893242
:1014200011F08A3509F420E0CB010C97039728F4DA
:1014300080911705813009F442C3263109F43FC376
:10144000263209F43CC3253209F439C32E3209F49B
:1014500036C3222309F433C36730710509F492C1FE
:1014600068307105C0F46330710509F4BCC06430A4
:10147000710540F46130710539F16230710509F090
:10148000E1C262C06530710509F417C166307105AB
:1014900008F041C1D7C06A30710509F418C26B3039
:1014A000710548F46830710509F482C1693071052D
:1014B00009F0C8C2BDC16B30710509F435C26F3087
:1014C000710508F0BFC279C22E3109F4B9C22C32BD
:1014D00009F4C0C22D3209F4CDC2243309F4B8C2D4
:1014E0002B3209F4C9C2233209F4CAC22B3109F4E0
:1014F000C5C22C3109F4DEC2253309F4C5C22C3330
:1015000009F4A4C2243409F4B1C22D3409F4D4C2BC
:101510002A3209F4BDC2213209F4BCC2223209F4D4
:10152000C1C22A3109F4B2C2233309F4BDC22B333C
:1015300009F4B6C2223409F495C22B3409F484C2EA
:10154000223309F018C1A8C22E3109F48BC22C3203
:1015500009F480C22D3209F48DC2243309F48EC2FD
:101560002B3209F47BC2233209F470C22B3109F407
:101570006FC22C3109F480C2263309F477C22D33AF
:1015800009F48AC22E3309F467C2253409F48CC2E7
:10159000253309F491C22C3309F452C2243409F4DE
:1015A00075C22D3409F45CC22A3209F471C22132A9
:1015B00009F470C22A3109F475C2233309F458C200
:1015C0002B3309F46DC2223409F45CC22B3409F4C4
:1015D00065C2223309F448C2213309F467C22A33B1
:1015E00009F030C265C22E3109F42AC22C3209F446
:1015F00041C22D3209F45EC22B3109F425C22533D4
:1016000009F44AC22C3309F42DC2243409F42EC241
:101610002D3409F451C22A3209F43AC2213209F4B4
:1016200039C22A3109F432C2233309F40FC22B33F1
:1016300009F436C2223411F429E841C22B3409F0EE
:10164000E1C032C22E3109F40BC22C3209F42CC293
:101650002D3209F425C22D3109F430C2253111F49F
:1016600028EF2DC2233209F4FDC12B3109F404C245
:10167000253309F4FFC12C3309F4ECC1243409F4F7
:1016800005C22D3409F418C22A3209F401C22132EC
:1016900009F400C22A3109F4FFC1233309F4D8C187
:1016A0002B3309F4CDC1223409F4E0C12B3409F401
:1016B000EBC1223309F05FC0C9C12E3109F4CEC19C
:1016C0002C3209F4C7C12D3209F4D4C12D3109F4EB
:1016D000F5C1253111F427E0F2C12B3109F4EAC13B
:1016E0002C3109F4DDC1243409F4D0C12D3409F4BE
:1016F000E3C12A3209F4CCC1213209F4CBC1223230
:1017000009F4A6C12A3109F4B1C1233309F4CCC1CB
:101710002B3341F59BC12E3109F49EC12C3209F4C3
:1017200099C12D3209F4A6C1233209F48FC12533A2
:1017300009F4A4C12C3309F4A7C1243409F4A6C1C7
:101740002D3409F4B9C12A3209F4A2C1213209F4B5
:10175000A1C1223209F492C12A3109F487C12B3385
:1017600009F49EC1223409F497C12B3409F46CC1E9
:10177000223309F477C1213309F498C12A3309F0DF
:101780004AC096C12C3209F465C12D3209F472C1E8
:10179000263309F46DC12D3309F468C12E3309F4E1
:1017A00063C1263409F458C1253409F028C14CC15D
:1017B0002E3109F445C12C3209F45CC12D3209F4F3
:1017C00079C12B3109F46EC1253309F465C12C337D
:1017D00009F448C1243409F449C12D3409F46CC119
:1017E0002A3209F455C1213209F454C12A3109F4CD
:1017F0004DC12B3309F458C1223409F451C12B34A3
:1018000009F424C1223309F43FC1213309F438C15A
:101810002A3309F44BC1263309F451C12D3309F49D
:101820004EC12E3309F44BC1263409F04CC047C1D8
:101830002C3209F40FC12D3209F41CC1243309F4F0
:101840001BC12B3209F41AC1233209F4FFC02B311A
:1018500009F4FEC0263309F40BC12D3309F406C187
:101860002E3309F401C1263409F4F6C0253309F4F6
:10187000E7C02C3309F408C1243409F407C12D341E
:1018800009F4F0C02A3209F403C1213209F402C17B
:10189000223209F4D9C02A3109F4FEC0233309F4F5
:1018A000FDC02B3309F4FCC0223409F4FBC02B34F7
:1018B00009F4FAC0223309F4D3C0213309F4F6C085
:1018C0002A3309F4F5C0253409F0BCC0F8C02E3124
:1018D00009F4BEC02C3209F4EDC02D3209F4D0C099
:1018E000243309F4B3C02B3209F4C0C02C3109F4FD
:1018F000CDC02D3309F4D4C0253409F4CBC0243431
:1019000009F4B8C02D3409F4D7C02A3209F4B0C0A4
:10191000213209F499C0223209F492C02A3109F423
:1019200099C0233371F5AAC02E3109F48FC02C322F
:1019300009F4C0C02D3209F4A3C02B3209F492C0BF
:10194000233209F48BC02D3309F4AAC0253409F4DD
:10195000A1C0253309F492C0243409F48BC02D347E
:1019600009F4AAC02A3209F483C0213209F46CC0F8
:10197000223209F47BC02A3109F46CC0233309F404
:101980005FC02B3309F484C0223409F47DC02B34AA
:1019900009F462C0223309F46FC0213309F486C010
:1019A0002A3309F485C0263309F489C02E3309F49B
:1019B00086C0263409F046C082C0253409F444C0EC
:1019C000263409F449C02E3309F44EC02D3309F4EE
:1019D0004DC0263309F44CC02C32E1F12D3209F40C
:1019E00049C0243309F448C02B3209F447C02332DC
:1019F00009F446C02B3161F12C3109F443C0253381
:101A0000F9F02C3309F440C0243409F43FC02D34DC
:101A100049F12A32E9F12132E9F12A31E9F123339E
:101A2000E9F12B33E9F12234E9F12B34E9F12233E6
:101A3000B9F02133D9F12A33D9F12E3119F43FC04D
:101A400024ED3DC020E03BC02EE439C02DED37C071
:101A50002DE535C029E433C025E431C02EE82FC080
:101A60002EE32DC022E52BC026E429C022ED27C09D
:101A70002DE325C021E423C02BE521C024E51FC0B0
:101A800021EE1DC02EE01BC02BED19C02CEC17C0A1
:101A90002AEC15C02AE413C02CE411C026E30FC0C1
:101AA0002EEC0DC025E50BC025ED09C021EC07C0CB
:101AB00029EC05C021E603C02EE101C027E8822FF2
:101AC0000895CF92DF92FF920F931F93CF93DF93EE
:101AD000EA01109233051092320510923505082F55
:101AE00010E0C62EDD248BE090E0089FF001099FF6
:101AF000F00D189FF00D1124EC0DFD1DE558FD4F64
:101B00008081BA010E94060AF82E882399F12C9749
:101B10002397B8F480911705813099F4F801EE0FFE
:101B2000FF1FEE0FFF1FE00FF11FEC0DFD1DDF018A
:101B3000AE57BC4FFC90E655FC4F80818823A9F03E
:101B400005C0F7FE03C080E8F80E0FC080911705AE
:101B5000823029F482E10E945F0482E104C08AE2BB
:101B60000E945F048AE2809335058F2D0E945F04F6
:101B7000F0923405DF91CF911F910F91FF90DF908C
:101B8000CF900895CF92DF92EF92FF920F931F9321
:101B9000CF93DF93EA0110923405E82EFF24C62E7E
:101BA000DD248BE090E0E89EF001E99EF00DF89EC8
:101BB000F00D1124EC0DFD1DE558FD4F8081BA019B
:101BC0000E94060A182F8823C9F12C972397A8F49E
:101BD00080911705813089F4F701EE0FFF1FEE0F9A
:101BE000FF1FEE0DFF1DEC0DFD1DDF01AE57BC4FBD
:101BF0001C91E655FC4F008106C017FD02C001E0B4
:101C000002C0105800E080911705823029F480EF5F
:101C10000E945F04812F02C0812F80580E945F04C0
:101C2000002361F080911705823029F480EF0E9433
:101C30005F0482E101C08AEA0E945F04DF91CF91D4
:101C40001F910F91FF90EF90DF90CF900895FF923A
:101C50000F931F93F82E062F142F10923305109216
:101C600032051092350580911705442381F58230A5
:101C700029F482E10E945F0482E104C08AE20E94AA
:101C80005F048AE28093350580911705602F70E02C
:101C90002F2D30E0823071F48BE090E0289FF0012E
:101CA000299FF00D389FF00D1124E60FF71FE5581E
:101CB000FD4F0BC0F901EE0FFF1FEE0FFF1FE20FEC
:101CC000F31FE60FF71FEE5CFC4F108122C082303D
:101CD00071F44B3631F0443721F0453711F042377B
:101CE00031F480EE0E945F0480EE80933505809190
:101CF0001705813071F41B3431F01D3421F0183494
:101D000011F0103531F480EE0E945F0480EE809374
:101D10003505812F0E945F04109334051F910F91A8
:101D2000FF9008950F931F93CF93DF93142F10927A
:101D3000340590911705442379F5062F10E0C82F3C
:101D4000D0E09230C1F480EF0E945F048BE090E01D
:101D5000C89FF001C99FF00DD89FF00D1124E00F2E
:101D6000F11FE558FD4F80810E945F0480EF0E94C3
:101D70005F0482E138C0FE01EE0FFF1FEE0FFF1F70
:101D8000EC0FFD1FE00FF11FEE5CFC4F80818058CF
:101D90000E945F048AEA27C0923059F44B3631F032
:101DA000443721F0453711F0423719F480EE0E9494
:101DB0005F0480911705813059F41B3431F01D34D4
:101DC00021F0183411F0103519F480EE0E945F04F0
:101DD00080911705823029F480EF0E945F04812FE3
:101DE00002C0812F80580E945F04DF91CF911F9124
:101DF0000F910895CF92DF92EF92FF920F931F936E
:101E0000CF93DF93342FC82EDD24E62EFF248BE002
:101E100090E0C89EF001C99EF00DD89EF00D1124EF
:101E2000EE0DFF1DE558FD4FE081EC3409F442C092
:101E3000ED34C0F4EC3009F46BC0ED3050F4E43014
:101E400009F45DC0E53009F450C0E13009F00FC17C
:101E500068C0E13409F440C0E934A9F1ED3009F07B
:101E600006C1AAC0EB3609F46EC0EC3650F4E83572
:101E700009F460C0E63609F48DC0E23509F0F7C018
:101E800010C0E43709F47CC0E53720F4E23709F0EC
:101E9000EEC062C0E53709F469C0E63709F0E7C073
:101EA00082C080912805840F8093280597E021E067
:101EB000A4E023C080912805840F8093280597E033
:101EC00021E0A4E081C080912805840F809328053B
:101ED00097E021E0A7E05CC080912805840F809303
:101EE000280597E021E0A7E049C080912705840FED
:101EF0008093270595E020E0A0E080E066C0809117
:101F00002705840F8093270595E020E0A0E040C0DE
:101F100080912705840F8093270595E020E0A0E0BD
:101F20002DC080912705840F8093270595E020E040
:101F3000A3E04AC080912705840F8093270595E090
:101F400020E0A0E041C080912705840F8093270501
:101F500095E020E0A0E008C080912705840F8093E1
:101F6000270595E020E0A3E084E02FC080912705BD
:101F7000840F8093270595E020E0A3E083E025C04F
:101F800080912705840F8093270595E020E0A3E04A
:101F900082E01BC080912705840F8093270595E080
:101FA00020E0A3E0AACF80912705840F8093270526
:101FB00095E020E0A7E0A1CF80912705840F8093D2
:101FC000270595E020E0A7E081E00A2F10E0C82F68
:101FD000D0E04DE050E0049FF001059FF00D149F0C
:101FE000F00D1124EC0FFD1FEB5AFA4F70813F3FAB
:101FF00041F4809127058823F1F4809128058823F6
:10200000D1F4892F90E0849FD001859FB00D949FDB
:10201000B00D1124A20FB11DAB5ABA4FC49EF001EE
:10202000C59EF00DD49EF00D1124EE0DFF1DEB5A50
:10203000FA4F80818C938DE090E0089FD001099F3A
:10204000B00D189FB00D1124AC0FBD1FAB5ABA4F85
:102050007871C89EF001C99EF00DD89EF00D112434
:10206000EE0DFF1DEB5AFA4F8081782B7C93DF91A8
:10207000CF911F910F91FF90EF90DF90CF90089537
:102080006F927F928F929F92AF92BF92CF92DF9288
:10209000EF92FF920F931F93109137051093430512
:1020A0000091380500934405F0903905F0924505FC
:1020B000E0903A05E0924605D0903B05D092470566
:1020C00010923B05C0903C05C092480510923C051B
:1020D000B0903D05B0924905A0903E05A0924A05FA
:1020E00090903F0590924B0510923F0580904005DF
:1020F00080924C05109240057090410570924D05FC
:10210000109241056090420560924E051092420582
:1021100080E49CE90197F1F70E9413030E94C80232
:1021200080913705811761F060E070E0882311F439
:1021300061E070E080915104409117050E945106C2
:1021400080913805801761F060E070E0882311F419
:1021500061E070E080915204409117050E945106A1
:10216000809139058F1561F060E070E0882311F4EB
:1021700061E070E080915304409117050E94510680
:1021800080913A058E1561F060E070E0882311F4CB
:1021900061E070E080915404409117050E9451065F
:1021A00020E030E080913B05882311F421E030E00D
:1021B0008D2D90E028233923232B31F08091550475
:1021C000609117050E948D0620E030E080913C056B
:1021D000882311F421E030E08C2D90E0282339236E
:1021E000232B31F080915604609117050E948D06D3
:1021F00080913D058B1561F060E070E0882311F45B
:1022000061E070E080915704409117050E945106EB
:1022100080913E058A1561F060E070E0882311F43A
:1022200061E070E080915804409117050E945106CA
:1022300080913F05891561F060E070E0882311F41A
:1022400061E070E080915904409117050E945106A9
:1022500080914005881561F060E070E0882311F4FA
:1022600061E070E080915A04409117050E94510688
:1022700080914105871561F060E070E0882311F4DA
:1022800061E070E080915B04409117050E94510667
:1022900080914205861561F060E070E0882311F4BA
:1022A00061E070E080915C04409117050E94510646
:1022B0001F910F91FF90EF90DF90CF90BF90AF9064
:1022C0009F908F907F906F900895EF92FF921F9351
:1022D000CF93DF938091510590915205892B91F412
:1022E00080EF0E945F04809118050E945F041092A5
:1022F000960580EF0E945F04809119050E945F049B
:102300001092B10580911705823009F0D6C084EF94
:1023100091E020E931E0F9013197F1F70197D9F720
:1023200089E20E945F0484EF91E020E931E0F90145
:102330003197F1F70197D9F780EF0E945F0489E2A6
:102340000E945F0484EF91E020E931E0F9013197C8
:10235000F1F70197D9F789E40E945F0484EF91E0D7
:1023600020E931E0F9013197F1F70197D9F780EFD2
:102370000E945F0489E40E945F04809121058130FE
:1023800061F0813088F0823009F097C0C5E7D2E073
:1023900090E9E92E91E0F92E8DC0C9E6D2E080E9FE
:1023A000E82E81E0F82E5BC0CAE5D2E010E9E12E0C
:1023B00011E0F12E29C0F7013197F1F70197D9F714
:1023C0001881812F0E945F0484EF91E0F70131971B
:1023D000F1F70197D9F780EF0E945F04812F0E94E7
:1023E0005F0484EF91E0F7013197F1F70197D9F796
:1023F00086E090E0609121050E942F1C219682E0EA
:10240000C936D80709F459C084EF91E0D4CFF70159
:102410003197F1F70197D9F71881812F0E945F0456
:1024200084EF91E0F7013197F1F70197D9F780EF49
:102430000E945F04812F0E945F0484EF91E0F70106
:102440003197F1F70197D9F786E090E06091210587
:102450000E942F1C219682E0C537D80771F184EFC6
:1024600091E0D5CFF7013197F1F70197D9F71881AE
:10247000812F0E945F0484EF91E0F7013197F1F71B
:102480000197D9F780EF0E945F04812F0E945F04BB
:1024900084EF91E0F7013197F1F70197D9F786E0E2
:1024A00090E0609121050E942F1C219682E0CB379D
:1024B000D80719F084EF91E0D5CF81E08093230510
:1024C00080932405DF91CF911F91FF90EF900895A5
:1024D000FF920F931F93CF93DF93809151059091BB
:1024E0005205892B91F480EF0E945F0480911805BA
:1024F0000E945F041092960580EF0E945F04809115
:1025000019050E945F041092B10585E090E060918A
:1025100051050E942F1C80911705823009F060C080
:1025200084EF91E020E931E0F9013197F1F701976B
:10253000D9F789E20E945F0484EF91E020E931E05D
:10254000F9013197F1F70197D9F780EF0E945F0405
:1025500089E20E945F0484EF91E020E931E0F90113
:102560003197F1F70197D9F789E40E945F0484EF6E
:1025700091E020E931E0F9013197F1F70197D9F7BE
:1025800080EF0E945F0489E40E945F04C0E5D2E00E
:1025900000E911E022C0F8013197F1F70197D9F76E
:1025A000F8808F2D0E945F0484EF91E0F80131974D
:1025B000F1F70197D9F780EF0E945F048F2D0E94F9
:1025C0005F0484EF91E0F8013197F1F70197D9F7B3
:1025D000219682E0CA35D80719F084EF91E0DBCF6D
:1025E00081E08093230580932405DF91CF911F9193
:1025F0000F91FF9008952F923F924F925F926F92AA
:102600007F928F929F92AF92BF92CF92DF92EF9282
:10261000FF920F931F93CF93DF931092230581E0D6
:1026200062E00E948401882309F44DC085E38A9505
:10263000F1F781E062E00E948401882309F466C01A
:1026400080912505813059F58091150590911605E9
:1026500001979093160580931505E0E4FCE9319706
:10266000F1F78436910508F051C080E991E090932C
:10267000160580931505109225052A98C0E9D1E02A
:1026800007C084EC99E0FE013197F1F70197D9F783
:1026900081E062E00E948401882399F737C080E9D5
:1026A00091E0909316058093150581E080932505B0
:1026B0002A9A84EC99E020E931E0F9013197F1F7A9
:1026C0000197D9F723C0809115059091160580597F
:1026D0009140B0F4209A289888EE93E020E931E008
:1026E000F9013197F1F70197D9F72098289A84ECEE
:1026F00099E020E931E0F9013197F1F70197D9F735
:1027000080E991E090931605809315056AE1262EE5
:102710005DE0452E512C45E3342E8091230588231E
:1027200009F08CC036E1632E32E0732E23E2822E54
:1027300022E0922EAA24BB240A2DF3018081F40109
:10274000608140E00E949500F3018081F401608186
:1027500040E00E94BF01822D8A95F1F790E0C92EDA
:1027600092E0D92E8BE0E82E82E0F82EA49CE001C6
:10277000A59CD00DB49CD00D1124CB5ADA4F10E09B
:10278000F6018081F70160810E948401882351F164
:10279000832D8A95F1F7F6018081F70160810E940F
:1027A000840198818823C1F090FF0AC092609883C9
:1027B000083040F1153030F1802F612F40E009C022
:1027C000916098830830F0F01530E0F0802F612F91
:1027D00041E00E94FA0E16C090FF14C09C7F9460E6
:1027E000988306C0888180FF0DC08C7F84608883B9
:1027F000083040F0153030F0802F612F4FEF0E94ED
:10280000FA0E18821F5F0894C11CD11C0894E11CA9
:10281000F11C21961B3009F0B3CFF30181913F01E8
:10282000F40161914F0141E00E9495000894A11CC0
:10283000B11CFDE0AF16B10409F07ECF80915305C5
:10284000882321F1109253054AE555E090E020E0FD
:1028500030E012C0808180FD91E03196E417F507E9
:10286000C9F72F5F3F4FAF01435F5F4F28303105FE
:1028700019F49093530551CF249DF001259DF00D3F
:10288000349DF00D1124EB5AFA4FE4CF80912605C8
:10289000882309F464C08091960582FF0FC01092CE
:1028A00096058091510590915205892B39F480EF5E
:1028B0000E945F04809118050E945F048091B10519
:1028C00082FF0FC01092B105809151059091520581
:1028D000892B39F480EF0E945F04809119050E94D2
:1028E0005F041AE5C12E15E0D12EEE24FF24BDE0D1
:1028F000AB2EB12C1EC0F801808180FF08C08881FA
:1029000090E00E94910890935205809351050F5FCB
:102910001F4F21960C151D0571F70894E11CF11C41
:10292000ADE0CA2ED12CC00ED11EF8E0EF16F10496
:1029300099F0EA9C8001EB9C100DFA9C100D11247B
:102940000B5A1A4FE701CC0FDD1FCC0FDD1FCE0D48
:10295000DF1DCE52DC4FCFCF81E0809323058091E5
:102960002305882309F07DC38091960580FF79C3F4
:102970008091B10580FF75C380912405882309F0FB
:102980006EC380915105909152050C970397E0F426
:102990008091990580FF08C090E0809120058823F0
:1029A00009F491E0909320058091A40580FF03C075
:1029B00081E08093360580ED97E020E931E0F90170
:1029C0003197F1F70197D9F780918C0580FF14C0FA
:1029D00080912105813031F080915105909152050F
:1029E000892B51F010922B0581E08093260580936E
:1029F0002305809353052B9A80911705823009F0A7
:102A000048C28091A60580FF10C080915105909129
:102A10005205892B51F4809121058F5F833008F096
:102A200080E0809321050E9465118091550580FF0B
:102A30000FC080912105823059F080E060E045E0D0
:102A400020E000E0EE24CC24E5E0AE2E0E94380920
:102A50008091560580FF0FC080912105823059F08A
:102A600080E061E046E020E000E0EE24CC2475E068
:102A7000A72E0E9438098091570580FF0FC08091D2
:102A80002105823059F080E062E044E020E000E07F
:102A9000EE24CC2455E0A52E0E94380980915805DB
:102AA00080FF0FC080912105823059F080E063E003
:102AB0004CE020E000E0EE24CC2435E0A32E0E9480
:102AC00038098091590580FF0FC08091210582301F
:102AD00059F080E064E043E020E000E0EE24CC2404
:102AE00095E0A92E0E9438098091800580FF0FC0D3
:102AF00080912105823059F083E064E04BE020E0D2
:102B000000E0EE24CC2415E0A12E0E94380980912B
:102B10007F0580FF0FC080912105823059F083E04E
:102B200063E043E820E000E0EE24CC24B5E0AB2EE7
:102B30000E94380980917E0580FF0FC08091210599
:102B4000823059F083E062E04AE020E000E0EE24C9
:102B5000CC24A5E0AA2E0E94380980917D0580FF33
:102B60000FC080912105823059F083E061E041E09F
:102B700020E000E0EE24CC24F5E0AF2E0E943809DE
:102B800080917C0580FF0FC080912105823059F033
:102B900083E060E049E020E000E0EE24CC24E5E0C2
:102BA000AE2E0E9438098091620580FF0FC080918F
:102BB0002105823059F081E060E048E720E000E044
:102BC000EE24CC2472E3A72E0E943809809163057D
:102BD00080FF0FC080912105823059F081E061E0D3
:102BE00047E020E000E0EE24CC2452E3A52E0E9432
:102BF00038098091700580FF57C0809151059091F0
:102C00005205009709F450C0049709F03BC08AE0D0
:102C10000E945F0484EF91E020E931E0F9013197EF
:102C2000F1F70197D9F789E00E945F0484EF91E002
:102C300020E931E0F9013197F1F70197D9F780EFF9
:102C40000E945F0489E00E945F0480E197E220E92E
:102C500031E0F9013197F1F70197D9F780EF0E9440
:102C60005F048AE00E945F0484EF91E020E931E094
:102C7000F9013197F1F70197D9F781E080932305A6
:102C8000809324058091510590915205039761F43A
:102C900082E061E047E020E000E0EE24E394CC2411
:102CA00035E0A32E0E94380980916F0580FF15C082
:102CB00080912105813031F080915105909152052C
:102CC000892B59F082E060E049E020E000E0EE244A
:102CD000CC2495E0A92E0E94380980918D0580FFB3
:102CE00017C080912105823031F480915105909177
:102CF0005205892B69F084E064E043E020E000E0C5
:102D0000EE24E394CC24C39415E0A12E0E9438094C
:102D10008091B40580FF17C080912105823031F485
:102D20008091510590915205892B69F087E064E00C
:102D300046E620E000E0EE24E394CC24C394B5E022
:102D4000AB2E0E9438098091B30580FF17C0809197
:102D50002105823031F48091510590915205892BE3
:102D600069F087E063E041E720E000E0EE24E394CF
:102D7000CC24C394A5E0AA2E0E9438098091730543
:102D800080FF15C080912105823031F4809151057A
:102D900090915205892B59F082E064E04EE720E0E3
:102DA00000E0EE24CC24F5E0AF2E0E94380980919B
:102DB0009A0580FF0CC080912105813031F080910F
:102DC000510590915205892B11F00E949F06809128
:102DD000980580FF0CC080912105813031F08091F1
:102DE000510590915205892B11F00E946812809133
:102DF000640580FF11C08091510590915205892B87
:102E000059F081E062E04DE721E000E0EE24CC24BF
:102E1000E5E0AE2E0E9438098091650580FF11C063
:102E20008091510590915205892B59F081E063E022
:102E30004AE721E000E0EE24CC2475E0A72E0E94B2
:102E400038098091710580FF11C0809151059091E2
:102E50005205892B59F082E062E04DE721E001E064
:102E6000EE24CC2455E0A52E0E94380980917205ED
:102E700080FFF7C08091510590915205892B09F48C
:102E8000F0C082E063E04AE721E001E0EE24CC24D8
:102E9000E1C0813009F0E5C08091550580FF0CC08C
:102EA00080E060E04BE320E000E0EE24C0903605D7
:102EB00035E0A32E0E9438098091560580FF0CC092
:102EC00080E061E04CE320E000E0EE24C0903605B5
:102ED00095E0A92E0E9438098091570580FF0CC00B
:102EE00080E062E04DE320E000E0EE24C090360593
:102EF00015E0A12E0E9438098091580580FF0CC072
:102F000080E063E04EE320E000E0EE24C090360570
:102F1000B5E0AB2E0E9438098091590580FF0CC0A6
:102F200080E064E04FE320E000E0EE24C09036054E
:102F3000A5E0AA2E0E9438098091800580FF0CC070
:102F400083E064E040E420E000E0EE24C090360539
:102F5000F5E0AF2E0E94380980917F0580FF0CC0FC
:102F600083E063E041E420E000E0EE24C090360519
:102F7000E5E0AE2E0E94380980917E0580FF0CC0EE
:102F800083E062E042E420E000E0EE24C0903605F9
:102F900075E0A72E0E94380980917D0580FF0CC046
:102FA00083E061E043E420E000E0EE24C0903605D9
:102FB00055E0A52E0E94380980917C0580FF0CC049
:102FC00083E060E044E420E000E0EE24C0903605B9
:102FD00035E0A32E0E9438098091620580FF0CC065
:102FE00081E060E047E520E000E0EE24C090360597
:102FF00095E0A92E0E9438098091630580FF0CC0DE
:1030000081E061E048E520E000E0EE24C090360574
:1030100015E0A12E0E9438098091B40580FF0DC0F3
:1030200087E064E04EE020E000E0EE24E394CC246E
:10303000C394B5E0AB2E0E9438098091B30580FFA0
:1030400010C087E063E043E520E000E0EE24E39475
:10305000CC24C394A5E0AA2E0E94380902C0109285
:10306000240580912305882309F086C280915105AB
:1030700090915205892B09F09BC08091960580FFA5
:1030800010C081FD0EC0809118050E945F048091E0
:103090009605826080939605809122058F5F8093CC
:1030A00022058091B10580FF10C081FD0EC0809186
:1030B00019050E945F048091B10582608093B1057B
:1030C000809122058F5F809322058091960582FF73
:1030D0000EC080EF0E945F04809118050E945F047B
:1030E00010929605809122058F5F80932205809132
:1030F000B10582FF0EC080EF0E945F048091190528
:103100000E945F041092B105809122058F5F809329
:10311000220580912205882329F08AE18A95F1F71A
:1031200010922205FAE5CF2EF5E0DF2EEE24FF24E3
:10313000EDE08E2E912C7BE0A72EB12C26C088814D
:1031400080FF06C081FD04C0F80180810E945F04F9
:10315000888182FF08C080EF0E945F04F8018081AF
:103160000E945F04188221960F5F1F4FCC15DD056A
:1031700031F70894E11CF11C8DE090E0C80ED91ED7
:1031800098E0E916F10409F4F7C1E89CE001E99C34
:10319000D00DF89CD00D1124CB5ADA4FEA9C800157
:1031A000EB9C100DFA9C100D112405581D4FC7CF34
:1031B00080912A05882309F040C080912705882343
:1031C000E1F5809128058823C1F58091960580FF5F
:1031D00002C081FF21C08091B10580FF38C081FF0E
:1031E0001BC035C0453019F4992351F004C0473055
:1031F00011F4913029F0808180FF02C051E004C0B9
:103200009F5F3196953071F72F5F3F4F2830310522
:1032100041F450932A051BC050E020E030E06DE0FF
:1032200070E0269FF001279FF00D369FF00D1124CE
:10323000EB5AFA4F90E0422FD5CF8091960580FD52
:1032400006C08091B10580FD02C010922A0500E001
:10325000CC24DD246DE0262E312C5CC1E5E0AE16D9
:1032600021F4BB2009F43DC107C0F7E0AF1621F4FB
:1032700021E0B21609F435C1988190FFA2C091FDFA
:10328000A0C080912A05882369F48091960580FF6B
:1032900002C0986098838091B10580FF03C0888147
:1032A00080618883888183FF0EC084FD0CC080917B
:1032B0001705823011F4F20101C0F30140818A2D1B
:1032C0006B2D0E94270E888184FF0AC083FD08C0F1
:1032D00040915105509152058A2D6B2D0E94610D30
:1032E000888183FD6BC084FD69C080912005909129
:1032F0001705882309F450C0109233051092320547
:10330000109235059230E9F4F7010081043411F48C
:103310000BE614C00D3411F404E710C0053111F4AC
:1033200005E70CC00C3111F402E708C00B3631F090
:10333000043721F0053711F0023719F480EE80933D
:103340003505809117058130E9F4F40100810831D9
:1033500011F40BE414C0093111F40DE410C0003174
:1033600011F408E40CC00E3111F400E508C00B3470
:1033700031F00D3421F0083411F0003519F480EEED
:10338000809335050093340580913505882391F0AD
:1033900080EE0E945F040EC0109233051092320539
:1033A000923011F4F70101C0F4018081809334055B
:1033B00010923505809134050E945F0488818260F7
:1033C0008883888182FF8DC083FF0EC084FD0CC07E
:1033D00080911705823011F4F20101C0F3014081A0
:1033E0008A2D6B2D0E94920E888184FF0AC083FD76
:1033F00008C040915105509152058A2D6B2D0E94B5
:10340000C20D888183FD6CC084FD6AC08091200557
:1034100090911705882309F44DC01092340592301D
:1034200019F5F7010081043411F40BE614C00D34D2
:1034300011F404E710C0053111F405E70CC00C319C
:1034400011F402E708C00B3631F0043721F00537DC
:1034500011F0023719F480EE0E945F0480EF0E94A1
:103460005F04802F0E945F04809117058130C1F5B1
:10347000F4010081083111F40BE414C0093111F496
:103480000DE410C0003111F408E40CC00E3111F449
:1034900000E508C00B3431F00D3421F0083411F090
:1034A000003519F480EE0E945F04802F80580E943E
:1034B0005F0416C0923039F480EF0E945F04F70178
:1034C0001081812F04C0F4011081812F80580E9447
:1034D0005F0480913405811709F480E080933405FE
:1034E0001882B39421960894E11CF11C0894811C65
:1034F000911C0894411C511C0894611C711CF5E03E
:10350000BF1609F0ABCE0894C11CD11C28E0C2162E
:10351000D10491F1AC2CC29CE001C39CD00DD29C93
:10352000D00D1124CB5ADA4F8BE090E0C89E700189
:10353000C99EF00CD89EF00C1124EBE7F2E0EE0EE1
:10354000FF1EC601880F991F880F991F8C0D9D1DA6
:1035500042E3842E43E0942E880E991E3AE0432ED7
:1035600033E0532E480E591E2AE5622E23E0722EB8
:10357000680E791EBB2472CEDF91CF911F910F91FF
:10358000FF90EF90DF90CF90BF90AF909F908F9083
:103590007F906F905F904F903F902F900895DF92B3
:1035A000EF92FF920F931F93DF93CF9300D00F9270
:1035B0000F92CDB7DEB780E8809361001092610072
:1035C000229A2A982098289A239A2B98279A8091B1
:1035D0000B01816080930B010E942E040E94C90799
:1035E0000E94A40710924F051092500581E062E0FE
:1035F00041E00E94950081E062E041E00E94BF014D
:103600008E010F5F1F4FC80160E070E045E050E0A1
:103610000E940D1C41E020E030E0B801FB01E20F08
:10362000F31FD901A55EBA4F90818C91981340E0A9
:103630002F5F3F4F2530310589F74423A9F085E0FE
:1036400090E00E941D1C90E00E94F80790935205A4
:103650008093510586E090E00E941D1C833008F0A5
:1036600080E0809321050DC08BE195E060E070E083
:1036700045E050E00E94251C85E090E060E00E945B
:103680002F1C70EAE72E76E8F72E71E0072F112D38
:10369000DD24D3940E943904882309F46BC08091FF
:1036A0005105909152050C97039708F063C08091E3
:1036B0002B05882309F056C080912C0590912D058B
:1036C000A0912E05B0912F050097A105B10509F035
:1036D00049C050C0809129058093540589E295E046
:1036E0000E945605892BF1F5E0922C05F0922D05EC
:1036F00000932E0510932F05809129058E3E29F405
:103700000E945F04D0922B0503C08AEF0E945F04E1
:1037100090912905923099F0933028F4992341F043
:10372000913001F50CC0923F89F09F3FD9F415C04C
:1037300080915405803FB1F4809117050BC08091B2
:103740005405803F79F4909317050CC08BEA0E94D2
:103750005F0483E80E945F0405C08AEA0E945F0458
:1037600010922B0588EE93E00E944404882309F010
:10377000B1CF90CF80912C0590912D05A0912E0571
:10378000B0912F050097A105B10559F00197A10946
:10379000B10980932C0590932D05A0932E05B0932D
:1037A0002F0580915105909152050C97039780F554
:1037B00080913405882361F1809132059091330521
:1037C000019690933305809332050197895E93406B
:1037D00020F4809117058230D9F4809130059091C2
:1037E0003105019690933105809330050197873913
:1037F000910570F080913505882311F00E945F04D7
:10380000809134050E945F041092310510923005BA
:103810000E94FB120E9440103DCFDC01CB01FC0155
:10382000F999FECF06C0F2BDE1BDF89A319600B419
:103830000D9241505040B8F70895F999FECF92BDCE
:1038400081BDF89A992780B50895DC01CB0103C0AA
:103850002D910E94301C41505040D0F70895262FE2
:10386000F999FECF1FBA92BD81BD20BD0FB6F89465
:0E387000FA9AF99A0FBE01960895F894FFCFC8
:10387E0007010701030507060402000C07040303F2
:10388E000303010101010103050706040200020002
:10389E00060402010101010303030307070C0C0CCC
:1038AE00040506040506050808080202020C0001BC
:1038BE0000030200010845161E26252E363D3E4603
:1038CE00212B342B4B1C1B3324231A224D1C2D2C45
:1038DE00431C4B21443A32441B1A222B3C4B4B21A6
:1038EE00443A32441B1A224D3C2D24161E26252EF8
:1038FE00000000000000151D242D2C00000000000B
:10390E00001C1B232B3400000000000045463E3DEA
:10391E00360000000000004D44433C35000000001E
:10392E000000001A22212A0000000000005A4B421B
:10393E003B3300000000000029003A313200000045
:10394E00000000000000000000000000524C0000CB
:10395E000000004941000000000000000000040CBF
:10396E000558006B000000000074756601007200BF
:10397E00000000000000760D0000065800006B00ED
:10398E000000000000000000006600747572000068
:10399E0000000000000000000D0000000076000096
:1039AE000000020304050610111213141E1F20211D
:1039BE00220B0A0908071918171615002C2D2E2F81
:1039CE001C2625242339003231303C3A00004B00AE
:1039DE000000000000000000000E004D005000002E
:1039EE0000000000000000000F00000000010000B9
:1039FE00000002030405060000003334292B2B1AA5
:103A0E001B0C0B0A2808281B001B1A002700353533
:103A1E00000D0D0C070000343309010101010100F6
:103A2E00000001010101000101010101000101007D
:103A3E000000000001000100000001000100000074
:103A4E0000010102030405FFFF0EFFFF09FF0DFF3A
:103A5E00FF000C080706FFFFFFFFFFFFFFFF0BFF36
:103A6E00FFFFFFFFFFFFFFFFFF0A021A22010321E4
:103A7E004D2104033A1B22040321362504051C2C78
:103A8E001C2D43040332322104051C21442D310424
:103A9E00032A43210404442D432104031B1C3A042E
:103AAE00073B3C4D432C242D04051C4D4D4B24044B
:103ABE00024D2104044D21222C0405423224222CD5
:103ACE00041B0B191A29255322170E100D004850EE
:103ADE004B4D5247494B4F511E302E20122122235F
:103AEE00172425263231181910131F14162F112DD5
:103AFE00152C02030405060708090A0B3B3C3D3E44
:103B0E003F404142434457584F50514B4C4D47480C
:103B1E00495235374A4E1C5345010E341D38461C4A
:103B2E00392A363A290F0D33270075726B74706C73
:103B3E007D71697A1C322123242B3433433B424B53
:103B4E003A31444D152D1B2C3C2A1D22351A161EBA
:103B5E0026252E363D3E46450506040C030B830AEC
:103B6E000109780769727A6B73746C757D704A7C83
:103B7E007B795A717776664914117E5A29125958F3
:103B8E000E0D55414C9001021214015A58554E4FCC
:00000001FF
