:100000000C9434000C9451000C9451000C94510049
:100010000C9451000C9451000C9451000C94880BDA
:100020000C9451000C9451000C9451000C9451000C
:100030000C9451000C9451000C9451000C945100FC
:100040000C9451000C9451000C9451000C945100EC
:100050000C9451000C9451000C9451000C945100DC
:100060000C9451000C94510011241FBECFEFD4E02A
:10007000DEBFCDBF11E0A0E0B1E0E2EBF9E102C0EC
:1000800005900D92A835B107D9F712E0A8E5B1E0C7
:1000900001C01D92A53FB107E1F70E94E9000C9451
:1000A000D70C0C9400002091580130915901832FF6
:1000B000822351F081E080935C0180938C01109247
:1000C00058011092590114C080918C01882321F0AD
:1000D00010925C0110928C0190E08091690188235C
:1000E00009F491E0292320935801392330935901D1
:1000F00020915A0130915B01832F822351F081E0DE
:1001000080935D0180938D0110925A0110925B01E2
:10011000089580918D01882321F010925D01109245
:100120008D0190E080916A01882309F491E02923F0
:1001300020935A01392330935B0108952091720175
:1001400030917301832F822351F081E080937601F7
:1001500080938E01109272011092730114C08091ED
:100160008E01882321F01092760110928E0190E08A
:1001700080918301882309F491E02923209372015F
:100180003923309373012091740130917501832FCD
:10019000822351F081E08093770180938F01109248
:1001A000740110927501089580918F01882321F0C8
:1001B0001092770110928F0190E080918401882342
:1001C00009F491E0292320937401392330937501B8
:1001D00008958F929F92BF92CF92DF92EF92FF92FB
:1001E0000F931F93CF93DF9380E880936100109269
:1001F00061000E944B050E94EB041092ED0280E02A
:1002000090E00E94290810928C0110928D011092AA
:100210008E0110928F010E9488063C983D98449A66
:10022000459A8FEF89B983B18F6183B91AB884B1C8
:10023000807E84B9389A399A409A419ABB24EE2438
:10024000EA94FE2CCFEFDFEF0FEF1FEFCC24DD247D
:1002500090E9892E91E0992E01C0BB240E94EE0501
:1002600080915801809365018091720180937F0194
:100270008091590180936601809173018093800180
:1002800080915A018093670180917401809381016C
:1002900080915B0180936801809175018093820158
:1002A00080915C0180936901809176018093830144
:1002B00080915D0180936A01809177018093840130
:1002C00080915E0180936B0180917801809385011C
:1002D00080915F0180936C01809179018093860108
:1002E0008091600180936D0180917A0180938701F4
:1002F0008091610180936E0180917B0180938801E0
:100300008091620180936F0180917C0180938901CB
:10031000809163018093700180917D0180938A01B7
:1003200080916401809371010E947908882329F0EB
:1003300088E591E00E948E0A0CC088E591E00E9459
:100340007B080E94530082E791E00E94B4090E945A
:100350009E0090915D0180915E01892319F5809145
:100360005C019823F9F420E030E080916401882357
:1003700011F421E030E08091710190E028233923CD
:10038000232B81F440C00E947908882329F088E556
:1003900091E00E948E0A06C088E591E00E947B08E9
:1003A0000E94530080915C01882369F780915D0170
:1003B000882349F780915E01882329F780915801AD
:1003C000882309F7809159018823E9F680915A0121
:1003D0008823C9F680915B018823A9F680ED97E018
:1003E000F4013197F1F70197D9F780E0BB2009F4C8
:1003F00081E0B82EEE24EA94FE2CCFEFDFEF0FEF72
:100400001FEFCC24DD24BB2009F406C120E030E03E
:1004100080915801882311F421E030E0809165013A
:1004200090E028233923232B81F08AE0E816F10499
:100430001CF0EE24FF2403C00894E11CF11CCFEF54
:10044000DFEF0FEF1FEFCC24DD2420E030E08091C0
:100450005901882311F421E030E08091660190E099
:1004600028233923232B89F0C430D10534F0EE241E
:10047000EA94FE2CC0E0D0E004C02196EE24EA9479
:10048000FE2C0FEF1FEFCC24DD2420E030E0809124
:100490005B01882311F421E030E08091680190E055
:1004A00028233923232BA1F00230110544F0EE2438
:1004B000EA94FE2CCFEFDFEF00E010E007C00F5F03
:1004C0001F4FEE24EA94FE2CCFEFDFEFCC24DD2487
:1004D00020E030E080915A01882311F421E030E0DF
:1004E0008091670190E028233923232B51F0EE24DB
:1004F000EA94FE2CCFEFDFEF0FEF1FEF81E0C82E65
:10050000D12C20E030E080915E01882311F421E0BD
:1005100030E080916B0190E028233923232B09F4EC
:1005200071C110925E0110926B018FEFE8168FEF90
:10053000F80659F48FEFCF3FD80739F48FEF0F3F0C
:10054000180739F40E94C8074BC08FEF0F3F1807F8
:1005500099F00115110519F40E9414077ECE01309F
:10056000110519F40E949B0678CE0230110509F09E
:1005700074CE0E94E20671CE8FEFE8168FEFF80678
:1005800059F0F701E050FF4F808140E050E068E40F
:1005900073E40E946B0661CE8FEFCF3FD80701F165
:1005A000209719F40E94480712C0C130D10519F4F0
:1005B00080E090E012C0C230D10519F481E090E0F3
:1005C0000CC0C330D10519F482E090E006C0C430FD
:1005D000D10509F042CE83E090E00E947C073DCE39
:1005E000C114D10449F4BB24EE24EA94FE2CCFEFCD
:1005F000DFEF0FEF1FEF06C186E740E050E060E05D
:1006000070E00E946B06BB24EE24EA94FE2CCFEF30
:10061000DFEF0FEF1FEF22CE90915801809165011F
:10062000981771F060E070E0992311F461E070E0D8
:100630008091E10220E030E040E050E00E942D0691
:100640009091590180916601981771F060E070E017
:10065000992311F461E070E08091E20220E030E043
:1006600040E050E00E942D0690915A018091670170
:10067000981771F060E070E0992311F461E070E088
:100680008091E30220E030E040E050E00E942D063F
:1006900090915B0180916801981771F060E070E0C3
:1006A000992311F461E070E08091E40220E030E0F1
:1006B00040E050E00E942D0620E030E080915C0197
:1006C000882311F421E030E08091690190E0282333
:1006D0003923232B41F08091E50240E050E068E4AB
:1006E00073E40E946B0620E030E080915D01882376
:1006F00011F421E030E080916A0190E02823392351
:10070000232B41F08091E60240E050E068E473E47E
:100710000E946B0690915E0180916B01981771F0B9
:1007200060E070E0992311F461E070E08091E702ED
:1007300020E030E040E050E00E942D0690915F0103
:1007400080916C01981771F060E070E0992311F4CA
:1007500061E070E08091E80220E030E040E050E0AD
:100760000E942D069091600180916D01981771F0A3
:1007700060E070E0992311F461E070E08091E9029B
:1007800020E030E040E050E00E942D0690916101B1
:1007900080916E01981771F060E070E0992311F478
:1007A00061E070E08091EA0220E030E040E050E05B
:1007B0000E942D069091620180916F01981771F04F
:1007C00060E070E0992311F461E070E08091EB0249
:1007D00020E030E040E050E00E942D06909163015F
:1007E00080917001981771F060E070E0992311F426
:1007F00061E070E08091EC0220E030E040E050E009
:100800000E942D069091720180917F01981769F0E6
:1008100060E070E0992311F461E070E083E420E08F
:1008200030E040E050E00E942D06909173018091ED
:100830008001981769F060E070E0992311F461E09D
:1008400070E082E420E030E040E050E00E942D06BD
:100850009091740180918101981769F060E070E0D7
:10086000992311F461E070E08BE320E030E040E098
:1008700050E00E942D069091750180918201981799
:1008800069F060E070E0992311F461E070E08BE4BE
:1008900020E030E040E050E00E942D06909176018B
:1008A00080918301981749F0992339F486E340E059
:1008B00050E068E473E40E946B06909177018091A8
:1008C0008401981749F0992339F48EE140E050E013
:1008D00068E473E40E946B06909178018091850131
:1008E000981769F060E070E0992311F461E070E01E
:1008F0008CE120E030E040E050E00E942D06909135
:10090000790180918601981769F060E070E0992381
:1009100011F461E070E08BE120E030E040E050E075
:100920000E942D0690917A0180918701981769F0B5
:1009300060E070E0992311F461E070E083E220E070
:1009400030E040E050E00E942D0690917B018091C4
:100950008801981769F060E070E0992311F461E074
:1009600070E08BE220E030E040E050E00E942D0695
:1009700090917C0180918901981769F060E070E0A6
:10098000992311F461E070E084E320E030E040E07E
:1009900050E00E942D0690917D0180918A01981768
:1009A00009F45CCC60E070E0992311F461E070E040
:1009B00083E320E030E040E050E00E942D064ECC82
:1009C00020E43CE904C0F9013197F1F70A971816C1
:1009D0001906CCF308951092F2021092F3020895D2
:1009E0002091F30230E0F901EA56FE4F8083F901CD
:1009F000EE0FFF1FEE0FFF1FE852FE4F40835183A3
:100A000062837383C901029662E470E00E94790CEC
:100A10008093F3020895DC018091F202E6E9F1E0AF
:100A2000E80FF11D80818C93E091F202F0E0EE0F6F
:100A3000FF1FEE0FFF1FE852FE4F80819181A281C0
:100A4000B381FB0180839183A283B3838091F202FF
:100A500090E0029662E470E00E94790C8093F202CA
:100A60000895382F662361F027B181E090E002C03D
:100A7000880F991F3A95E2F78095822387B90895E8
:100A800027B181E090E002C0880F991F3A95E2F704
:100A9000282B27B908954398429883E061E00E948B
:100AA000310582E061E00E9431050895329902C06B
:100AB00081E0089586B186958695869580958170AA
:100AC00008950E94F0040895DF92EF92FF920F9331
:100AD0001F93CF93DF93F82E0E945605882309F0C9
:100AE00075C083E060E00E94310515E1812F8A9591
:100AF000F1F782E060E00E9431058AE28A95F1F721
:100B000082E061E00E9431051A95F1F711E000E002
:100B100035E1E32E2AE2D22E8F2D90E0EC01C17058
:100B2000D070F0FE03C083E061E002C083E060E0CB
:100B30000E9431058E2D8A95F1F782E060E00E94D7
:100B400031058D2D8A95F1F782E061E00E94310533
:100B50008E2D8A95F1F7CD2B29F080E0112309F431
:100B600081E0182F0F5F083011F0F694D5CF1123D4
:100B700019F083E061E002C083E060E00E9431058B
:100B800015E1812F8A95F1F782E060E00E9431053E
:100B90000AE2802F8A95F1F782E061E00E94310538
:100BA000812F8A95F1F783E061E00E943105812F62
:100BB0008A95F1F782E060E00E9431050A95F1F72D
:100BC00082E061E00E9431051A95F1F7DF91CF9143
:100BD0001F910F91FF90EF90DF9008959091F30295
:100BE0008091F2029817A1F5089588EC90E00197A2
:100BF000F1F7329B31C008C00E9464059091F30266
:100C00008091F202981741F184EF92E06EEE72E06B
:100C10000E940B058091F402803E71F3803F61F3E6
:100C20000E9464056091EE027091EF028091F002E3
:100C30009091F1020E94AD0B80E49CE905C0FC019B
:100C40003197F1F76A50704016161706C4F30895ED
:100C50000E945605882349F20895CF92DF92EF92C1
:100C6000FF921F93CF93DF93182FEB0169017A0155
:100C7000823791F0833740F4893671F0893698F0E5
:100C80008B56823080F408C0843768F0863720F0B5
:100C90008A3711F08D3739F480EE40E050E060E0A3
:100CA00070E00E94F004112371F0CD2B39F080EF39
:100CB00040E050E060E070E00E94F004812FB70156
:100CC000A6010E94F004DF91CF911F91FF90EF9059
:100CD000DF90CF900895DF92EF92FF920F931F93D2
:100CE000D82E7A018B0160E070E020E030E048EC23
:100CF00052E40E942D068D2D61E070E0A80197015D
:100D00000E942D061F910F91FF90EF90DF900895A4
:100D100085E78093E10282E78093E2028BE680938D
:100D2000E30284E78093E4028AE58093E70286E7A2
:100D30008093E80208958BE440E050E060E070E0CA
:100D40000E946B0684E440E050E060E070E00E94A6
:100D50006B068CE140E050E060E070E00E946B06C2
:100D600083E240E050E060E070E00E946B0689E5BD
:100D700040E050E060E070E00E94F0048EE140E06E
:100D800050E068EC72E40E946B068EE140E050E0B7
:100D900060E070E00E946B0680EF40E050E060E0B1
:100DA00070E00E94F00489E540E050E060E070E00F
:100DB0000E94F0048AE540E050E060E070E00E94AC
:100DC0006B0608958BE340E050E060E070E00E9425
:100DD0006B0689E540E050E060E070E00E94F004BE
:100DE0008EE140E050E068EC72E40E946B068EE118
:100DF00040E050E060E070E00E946B0680EF40E071
:100E000050E060E070E00E94F00489E540E050E0CE
:100E100060E070E00E94F0048AE540E050E060E0AD
:100E200070E00E946B06089584E140E050E060E0CD
:100E300070E00E94F00481E140E050E060E070E08A
:100E40000E94F00483E040E050E060E070E00E9427
:100E50006B0680EF40E050E060E070E00E94F0043C
:100E600081E140E050E060E070E00E94F00480EF3B
:100E700040E050E060E070E00E94F00484E140E077
:100E800050E060E070E00E94F0040E94880608953F
:100E900084E140E050E060E070E00E94F00481E115
:100EA00040E050E060E070E00E94F00481E740E044
:100EB00050E060E070E00E946B0680EF40E050E0A0
:100EC00060E070E00E94F00481E140E050E060E00A
:100ED00070E00E94F00480EF40E050E060E070E0DD
:100EE0000E94F00484E140E050E060E070E00E9485
:100EF000F0040E9488060895CF93DF93EC0184E10B
:100F000040E050E060E070E00E94F00481E140E0E9
:100F100050E060E070E00E94F00486E640E050E0BF
:100F20006AEF73E40E946B0680EF40E050E060E0FF
:100F300070E00E94F00481E140E050E060E070E089
:100F40000E94F00480EF40E050E060E070E00E941A
:100F5000F00484E140E050E060E070E00E94F004C2
:100F60000E948806C230D10539F0C330D10531F076
:100F7000219759F486E703C088E501C086E040E088
:100F800050E068E473E40E946B06DF91CF9108950E
:100F9000DF93CF93CDB7DEB72C970FB6F894DEBFB3
:100FA0000FBECDBF8091ED02882309F049C090E0CB
:100FB0009E012F5F3F4F0AC0E92FF0E0D901AE0F2D
:100FC000BF1FE85DFE4F80818C939F5F9C30A0F334
:100FD0009093E0028091E102853711F085E701C02E
:100FE00089818093E1028091E202823711F082E7E9
:100FF00001C08A818093E2028091E3028B3611F076
:101000008BE601C08B818093E3028091E4028437F8
:1010100011F084E701C08C818093E4028091E702A3
:101020008A3511F08AE501C08F818093E7028091B3
:10103000E802863711F086E701C088858093E802D0
:101040002C960FB6F894DEBF0FBECDBFCF91DF91C7
:10105000089581309105E1F0823091051CF4892BCF
:1010600041F008958230910511F1039709F040C0D5
:101070002FC090E00AC0E92FF0E0DF01A85DBE4F6D
:101080008C91EF51FD4F80839F5F9C30A0F31DC07A
:1010900090E00AC0E92FF0E0DF01AC5CBE4F8C911C
:1010A000EF51FD4F80839F5F9C30A0F30EC090E016
:1010B0000AC0E92FF0E0DF01A05CBE4F8C91EF5138
:1010C000FD4F80839F5F9C30A0F39093E0020895D2
:1010D00090E00AC0E92FF0E0DF01A45BBE4F8C91E5
:1010E000EF51FD4F80839F5F9C30A0F39093E0020F
:1010F000089581E00895FF920F931F93CF93DF939C
:10110000EC01409A7AE4F72E8F2D8A95F1F783B19E
:1011100090E064E0969587956A95E1F701E010E02C
:101120008027912781708C8786B129B190E054E0A7
:10113000969587955A95E1F7802791272027282BA8
:101140002170288326B189B130E045E03695279596
:101150004A95E1F72027312790E0969587958027DB
:101160009127822B8170898389B190E0969587952C
:10117000969587958027912781708A8389B190E021
:10118000A3E096958795AA95E1F78027912781702E
:101190008B8340988F2D8A95F1F789B199B182FDA3
:1011A000C1C093FDBFC089B190E0F4E096958795EA
:1011B000FA95E1F78027912781708E8389B190E0BD
:1011C000E5E096958795EA95E1F78027912781706C
:1011D0008D83409A8F2D8A95F1F789B190E074E064
:1011E000969587957A95E1F78027912781708F836F
:1011F00089B190E065E0969587956A95E1F780273B
:1012000091278170888740988F2D8A95F1F7409AB1
:101210008F2D8A95F1F740988F2D8A95F1F7E6B1D9
:10122000A9B146B129B169B189B190E053E0969571
:1012300087955A95E1F78027912770E07695679515
:1012400076956795602771276823792350E095E0AC
:10125000569547959A95E1F74027512730E0369506
:10126000279520273127242B352BF0E0B4E0F69585
:10127000E795BA95E1F7E027F127B0E0A027B1277D
:10128000AE2BBF2B2A232170822F90E06823792375
:10129000672B09F45FC0409A8F2D8A95F1F786B1CC
:1012A00029B190E0A4E096958795AA95E1F780276B
:1012B00091272027282B21702B8726B189B130E078
:1012C000F5E036952795FA95E1F72027312790E04C
:1012D0009695879580279127822B81708A8789B17F
:1012E00090E09695879596958795802791278170B0
:1012F000898789B190E063E0969587956A95E1F7D3
:101300008027912781708C8340988F2D8A95F1F7E3
:10131000409A8F2D8A95F1F7409880E49FE10197DC
:10132000F1F718C089B190E054E0969587955A95E9
:10133000E1F721E030E08227932781708E8389B125
:1013400090E045E0969587954A95E1F782279327A7
:1013500081708F83409A8AE48A95F1F7DF91CF916B
:101360001F910F91FF9008951F93FC01419A8AE409
:101370008A95F1F789B190E066E0969587956A9530
:10138000E1F721E030E0822793278170808383B1E9
:1013900090E053E0969587955A95E1F78227932739
:1013A0008170818389B1128287FD02C081E08283CE
:1013B00083B190E09695879596958795A1E0B0E0EA
:1013C0008A279B278170838341981AE4812F8A950D
:1013D000F1F789B193B187FD8DC092FD8BC083B1C8
:1013E00090E0969587958A279B278170868383B1A5
:1013F0008A2781708583419A812F8A95F1F783B17D
:1014000090E0969587958A279B278170878383B183
:101410008A27817080874198812F8A95F1F7419AB8
:10142000812F8A95F1F74198812F8A95F1F769B15B
:1014300023B189B143B150E05695479556954795EC
:101440004A275B27992787FD909580959095882757
:10145000990F881F99274823592370E086E07695D5
:1014600067958A95E1F76A277B2730E073E0369528
:1014700027957A95E1F72A273B2721702623822F8B
:1014800090E048235923452B09F442C0419A812F0B
:101490008A95F1F789B190E026E0969587952A958F
:1014A000E1F78A279B278170838783B190E013E05F
:1014B000969587951A95E1F78A279B2781708287F1
:1014C00089B1118687FD02C081E0818783B186954D
:1014D000869580958170848341988AE4982F9A95A7
:1014E000F1F7419A8A95F1F7419880E49FE10197DD
:1014F000F1F70EC083B190E09695879521E030E03A
:10150000822793278170868383B1822781708783A6
:10151000419A8AE48A95F1F71F910895FC0183B1FD
:1015200090E044E0969587954A95E1F741E050E0D8
:10153000842795278170848786B129B190E034E0B3
:10154000969587953A95E1F7842795272427282BA8
:101550002170208326B189B130E095E0369527953A
:101560009A95E1F72427352790E09695879584276B
:101570009527822B8170818389B190E0969587951C
:1015800096958795842795278170828389B190E00D
:1015900073E0969587957A95E1F784279527817072
:1015A000838389B190E064E0969587956A95E1F729
:1015B000842795278170868389B190E035E09695E0
:1015C00087953A95E1F7842795278170878389B1BC
:1015D00090E026E0969587952A95E1F78427952750
:1015E0008170808789B1118687FD02C081E0818783
:1015F00083B121E030E082278170858383B190E060
:1016000096958795822793278170848383B190E094
:1016100096958795969587958227932781708287DF
:1016200083B190E073E0969587957A95E1F78227EC
:10163000932781708387089582E08093B00094E0BF
:101640009093B100809370008AEF8093B300089567
:101650008FB7F894209190013091910140919201BF
:10166000509193018FBFB901CA010895E4E6F0E0FB
:1016700080818F7B8083E0E7F0E0808182608083DF
:101680000895E0E7F0E080818D7F8083E4E6F0E07C
:1016900080818064808308958FB7F89410929001C0
:1016A0001092910110929201109293018FBF0895B0
:1016B000EFB7F894209190013091910140919201FF
:1016C00050919301260F371F481F591F20939001F7
:1016D000309391014093920150939301EFBF08958D
:1016E000EFB7F894209190013091910140919201CF
:1016F00050919301261B370B480B590B20939001F7
:10170000309391014093920150939301EFBF08955C
:101710001F920F920FB60F9211248F939F93AF9346
:10172000BF938091900190919101A0919201B0910D
:1017300093010196A11DB11D809390019093910199
:10174000A0939201B0939301BF91AF919F918F911C
:101750000F900FBE0F901F901895ACE0B0E0E3EB38
:10176000FBE00C94B00C69837A838B839C83CE015D
:101770000196BE016B5F7F4F0E94010C8D8182300C
:1017800061F1823050F1843021F48E81882351F14F
:101790002EC02F81388537FD20C06E812F31310555
:1017A0001CF06623F9F023C08EE190E0821B930BBE
:1017B00029853A854B855C8504C0569547953795B4
:1017C00027958A95D2F76623B1F0509540953095CC
:1017D00021953F4F4F4F5F4F0EC020E030E040E07B
:1017E00050E009C02FEF3FEF4FEF5FE704C020E06C
:1017F00030E040E050E8B901CA012C96E2E00C94D8
:10180000CC0CFC01DB01408151812281622F6F777A
:1018100070E0221F2227221F9381892F880F822B9D
:10182000282F30E0991F9927991F11969C931197A3
:1018300021153105A9F5411551056105710511F411
:1018400082E037C082E89FEF13969C938E931297A5
:101850009A01AB0167E0220F331F441F551F6A95A1
:10186000D1F783E08C930DC0220F331F441F551F07
:1018700012968D919C911397019713969C938E933A
:101880001297203080E0380780E0480780E458074E
:1018900058F314962D933D934D935C9317970895A9
:1018A0002F3F310579F4411551056105710519F492
:1018B00084E08C93089564FF03C081E08C9312C090
:1018C0001C9210C02F57304013963C932E931297C2
:1018D00083E08C9387E0440F551F661F771F8A951E
:1018E000D1F7706414964D935D936D937C93179725
:1018F000089597FB092E07260AD077FD04D00CD057
:1019000006D000201AF4709561957F4F0895F6F780
:10191000909581959F4F0895AA1BBB1B51E107C06D
:10192000AA1FBB1FA617B70710F0A61BB70B881F6F
:10193000991F5A95A9F780959095BC01CD010895FE
:101940002F923F924F925F926F927F928F929F92CF
:10195000AF92BF92CF92DF92EF92FF920F931F93BD
:10196000CF93DF93CDB7DEB7CA1BDB0B0FB6F8946E
:10197000DEBF0FBECDBF09942A88398848885F84AE
:101980006E847D848C849B84AA84B984C884DF801F
:10199000EE80FD800C811B81AA81B981CE0FD11D03
:1019A0000FB6F894DEBF0FBECDBFED010895F894D9
:0219B000FFCF67
:1019B2002D45161E26252E363D3E465B004A004F1B
:1019C20000590032005000530032005D00300030F8
:1019D2000030003600620001151C444D2E16292AE3
:1019E200323134330000000000000000000000002B
:1019F20000000000000000000000000000000000E5
:081A02000000000000000000DC
:00000001FF
