:100000000C9434000C9451000C9451000C94510049
:100010000C9451000C9451000C9451000C9451001C
:100020000C9451000C9451000C9451000C9451000C
:100030000C9451000C9451000C9451000C945100FC
:100040000C9451000C9451000C9451000C945100EC
:100050000C9451000C9451000C9451000C945100DC
:100060000C9451000C94510011241FBECFEFD4E02A
:10007000DEBFCDBF11E0A0E0B1E0E4E1FCE102C0F1
:1000800005900D92AC37B107D9F713E0ACE7B1E0BA
:1000900001C01D92A731B107E1F70E940F010C9436
:1000A000080E0C94000020917C0130917D01832F7B
:1000B000822351F081E0809380018093B0011092FF
:1000C0007C0110927D0114C08091B001882321F041
:1000D000109280011092B00190E080918D018823F0
:1000E00009F491E0292320937C01392330937D0189
:1000F00020917E0130917F01832F822351F081E096
:10010000809381018093B10110927E0110927F0152
:1001100008958091B101882321F0109281011092FD
:10012000B10190E080918E01882309F491E02923A8
:1001300020937E01392330937F0108952091960109
:1001400030919701832F822351F081E080939A01AF
:100150008093B201109296011092970114C0809181
:10016000B201882321F010929A011092B20190E01E
:100170008091A701882309F491E029232093960117
:100180003923309397012091980130919901832F61
:10019000822351F081E080939B018093B301109200
:1001A00098011092990108958091B301882321F05C
:1001B00010929B011092B30190E08091A8018823D6
:1001C00009F491E029232093980139233093990170
:1001D00008951F93182F8091B4019091B501892B38
:1001E00071F4812F40E050E060E070E00E943B0835
:1001F00081E090E09093B5018093B4010EC086E653
:1002000040E050E060E070E00E943B08812F40E059
:1002100050E060E070E00E943B081F9108952F922B
:100220003F924F925F926F927F929F92AF92BF9256
:10023000CF92DF92EF92FF920F931F93CF93DF93B2
:100240001092B5011092B40180E880936100109281
:1002500061000E94F1060E94910610920F0380E057
:1002600090E00E94160A1092B0011092B101109213
:10027000B2011092B3010E9475083C983D98449ACF
:10028000459A8FEF89B983B18F6183B91AB884B168
:10029000807E84B9389A399A409A419A9924AA243E
:1002A000AA94BA2C0FEF1FEFEE24EA94FE2CCC2474
:1002B000CA94DC2C33E2632E712C4424552420E4B0
:1002C000222E2CE9322E01C099240E94940780919D
:1002D0007C0180938901809196018093A301809194
:1002E0007D0180938A01809197018093A401809180
:1002F0007E0180938B01809198018093A50180916C
:100300007F0180938C01809199018093A601809157
:10031000800180938D0180919A018093A7011092B2
:1003200080018091810180938E0180919B01809357
:10033000A801109281018091820180938F018091A8
:100340009C018093A9018091830180939001809109
:100350009D018093AA0180918401809391018091F5
:100360009E018093AB01109284018091850180935E
:10037000920180919F018093AC0110928501809140
:100380008601809393018091A0018093AD0110922A
:10039000860180918701809394018091A1018093CF
:1003A000AE01109287018091880180939501C1016F
:1003B0000197F1F70E94660A882349F08CE791E0E3
:1003C0000E94680A8CE791E00E947A0C0AC08CE7D0
:1003D00091E00E94680A86E991E00E94A10B0E94C8
:1003E0009E000E9453009091810180918201892397
:1003F000A1F480918001982381F420E030E0809185
:100400008801882311F421E030E08091950190E08B
:1004100028233923232B09F471C080E0992009F4A3
:1004200081E0982E882379F510928D0110928E012B
:1004300010928F0128C010928401109285011092B1
:100440008601109287011092800110928101C101F2
:100450000197F1F70E94660A882349F08CE791E042
:100460000E94680A8CE791E00E947A0C0AC08CE72F
:1004700091E00E94680A86E991E00E94A10B0E9427
:100480009E000E945300809180018823A1F68091F4
:100490008101882381F680918201882361F6809111
:1004A0007C01882341F680917D01882321F680918B
:1004B0007E01882309F0BFCF80917F01882309F056
:1004C000BACF23E0E216F10431F40E9475089924B2
:1004D00093E2692E712C80ED97E0E0E9F1E031972D
:1004E000F1F70197D1F7AA24AA94BA2C0FEF1FEFC6
:1004F000EE24EA94FE2CCC24CA94DC2C992009F436
:1005000055C120E030E080917C01882311F421E086
:1005100030E08091890190E028233923232B91F04A
:1005200080E090E02AE0A216B10414F481E090E0AB
:10053000A80EB91E0FEF1FEFEE24EA94FE2CCC2478
:10054000CA94DC2C20E030E080917D01882311F4F6
:1005500021E030E080918A0190E028233923232B89
:1005600091F080E090E00430110514F481E090E017
:10057000080F191FAA24AA94BA2CEE24EA94FE2C80
:10058000CC24CA94DC2C20E030E080917F018823C9
:1005900011F421E030E080918C0190E02823392390
:1005A000232B91F080E090E022E0E216F10414F4B5
:1005B00081E090E0E80EF91EAA24AA94BA2C0FEF6D
:1005C0001FEFCC24CA94DC2C20E030E080917E0127
:1005D000882311F421E030E080918B0190E0282302
:1005E0003923232B91F080E090E027E0E216F1041C
:1005F00014F481E090E0C80ED91EAA24AA94BA2C63
:100600000FEF1FEFEE24EA94FE2C20E030E0809103
:100610008201882311F421E030E080918F0190E085
:1006200028233923232B09F493C2109282011092BC
:100630008F018FEFA8168FEFB80691F42FEF0F3FC1
:10064000120771F48FEFE8168FEFF80671F42FEFB1
:10065000C2162FEFD20609F052C00E94B5094FC052
:100660008FEFE8168FEFF806A9F0E114F10419F402
:100670000E94010929CE21E0E216F10419F40E943A
:10068000880822CE82E0E816F10409F01DCE0E940F
:10069000CF081ACE2FEFA2162FEFB20659F0F501B0
:1006A000E050FF4F808140E050E068E473E40E9436
:1006B0003B080ACE8FEF0F3F180709F1011511050E
:1006C00019F40E94350912C00130110519F480E0B7
:1006D00090E012C00230110519F481E090E00CC0E6
:1006E0000330110519F482E090E006C004301105D2
:1006F00009F0EACD83E090E00E946909E5CD2FEF93
:10070000C2162FEFD20609F41AC2C114D10429F47B
:100710001092B5011092B40124C081E0C816D10432
:1007200041F486E740E050E060E070E00E943B0862
:100730001EC022E0C216D10441F48DE040E050E03A
:1007400060E070E00E943B081EC083E0C816D10440
:1007500041F484E140E050E060E070E00E943B083A
:1007600018C024E0C216D10411F484E105C085E06C
:10077000C816D10441F481E140E050E060E070E04F
:100780000E945808DCC126E0C216D10411F484E0AE
:1007900006C087E0C816D10409F0D1C18CE040E062
:1007A00050E060E070E00E943B08C9C1C114D10470
:1007B00009F0CEC020E030E080918201882311F45E
:1007C00021E030E080918F0190E028233923232B12
:1007D000E9F18091B4019091B501892BB9F180E0E4
:1007E00090E0452811F481E090E02C0186E640E09D
:1007F00050E060E070E00E943B08E301C55FDE4F1F
:1008000041145104D1F089E560E070E020E030E06F
:1008100040E050E00E94D307888140E050E060E073
:1008200070E00E943B0889E561E070E020E030E084
:1008300040E050E00E94D30707C0888140E050E0CC
:1008400060E070E00E943B080E94940780917C0168
:100850008823C1F0809182018823A1F423E26216EB
:10086000710419F46624772403C00894611C711C78
:10087000F301E55FFE4F80810E94E9000E9494072A
:100880004424552480917D018823C1F08091820108
:100890008823A1F41614170424F083E2682E712C27
:1008A00003C0089461087108F301E55FFE4F808181
:1008B0000E94E9000E9494074424552480917F01FE
:1008C000882339F180918C01882319F58091820168
:1008D000882349F089E561E070E020E030E040E005
:1008E00050E00E94D3078091B4019091B501892B0B
:1008F00029F01092B5011092B40107C089E240E0DE
:1009000050E060E070E00E943B080E94940744249D
:10091000552480917E01882309F41AC180918B01AE
:10092000882309F015C180918201882309F010C144
:100930001092B5011092B40186E640E050E060E00C
:1009400070E00E943B080E9494074424552400C193
:1009500090917C0180918901981771F060E070E0BE
:10096000992311F461E070E08091030320E030E00E
:1009700040E050E00E94D30790917D0180918A0170
:10098000981771F060E070E0992311F461E070E075
:100990008091040320E030E040E050E00E94D30763
:1009A00090917E0180918B01981771F060E070E06A
:1009B000992311F461E070E08091050320E030E0BC
:1009C00040E050E00E94D30790917F0180918C011C
:1009D000981771F060E070E0992311F461E070E025
:1009E0008091060320E030E040E050E00E94D30711
:1009F00020E030E080918001882311F421E030E094
:100A000080918D0190E028233923232B41F08091A0
:100A1000070340E050E068E473E40E943B0820E0F4
:100A200030E080918101882311F421E030E0809151
:100A30008E0190E028233923232B41F08091080375
:100A400040E050E068E473E40E943B08909182012A
:100A500080918F01981771F060E070E0992311F494
:100A600061E070E08091090320E030E040E050E078
:100A70000E94D3079091830180919001981771F0A3
:100A800060E070E0992311F461E070E080910A0366
:100A900020E030E040E050E00E94D30790918401D4
:100AA00080919101981771F060E070E0992311F442
:100AB00061E070E080910B0320E030E040E050E026
:100AC0000E94D3079091850180919201981771F04F
:100AD00060E070E0992311F461E070E080910C0314
:100AE00020E030E040E050E00E94D3079091860182
:100AF00080919301981771F060E070E0992311F4F0
:100B000061E070E080910D0320E030E040E050E0D3
:100B10000E94D30790918701809194019817C1F0AA
:100B200060E070E0992311F461E070E080910E03C1
:100B300020E030E040E050E00E94D30709C0992453
:100B4000AA24AA94BA2C0FEF1FEFEE24EA94FE2CED
:100B5000909196018091A301981769F060E070E090
:100B6000992311F461E070E083E420E030E040E09C
:100B700050E00E94D307909197018091A4019817AB
:100B800069F060E070E0992311F461E070E082E4C4
:100B900020E030E040E050E00E94D30790919801BF
:100BA0008091A501981769F060E070E0992311F435
:100BB00061E070E08BE320E030E040E050E00E9434
:100BC000D307909199018091A601981769F060E090
:100BD00070E0992311F461E070E08BE420E030E0F4
:100BE00040E050E00E94D30790919A018091A701C4
:100BF000981749F0992339F486E340E050E068E41F
:100C000073E40E943B0890919B018091A801981782
:100C100049F0992339F48EE140E050E068E473E450
:100C20000E943B0890919C018091A901981769F05E
:100C300060E070E0992311F461E070E08CE120E065
:100C400030E040E050E00E94D30790919D018091F8
:100C5000AA01981769F060E070E0992311F461E04F
:100C600070E08BE120E030E040E050E00E94D307EC
:100C700090919E018091AB01981769F060E070E05F
:100C8000992311F461E070E083E220E030E040E07D
:100C900050E00E94D30790919F018091AC0198177A
:100CA00069F060E070E0992311F461E070E08BE29C
:100CB00020E030E040E050E00E94D3079091A00196
:100CC0008091AD01981769F060E070E0992311F40C
:100CD00061E070E084E320E030E040E050E00E941A
:100CE000D3079091A1018091AE01981709F4EDCA44
:100CF00060E070E0992311F461E070E083E320E0AC
:100D000030E040E050E00E94D307DFCA20E43CE935
:100D100004C0F9013197F1F70A9718161906CCF3B8
:100D2000089510921403109215030895209115034D
:100D300030E0F901E854FE4F8083F901EE0FFF1F08
:100D4000EE0FFF1FE650FE4F408351836283738393
:100D5000C901029662E470E00E94AA0D8093150317
:100D60000895DC0180911403E8EBF1E0E80FF11D38
:100D700080818C93E0911403F0E0EE0FFF1FEE0FE3
:100D8000FF1FE650FE4F80819181A281B381FB015C
:100D900080839183A283B3838091140390E00296B1
:100DA00062E470E00E94AA0D809314030895382F26
:100DB000662361F027B181E090E002C0880F991F9F
:100DC0003A95E2F78095822387B9089527B181E0AB
:100DD00090E002C0880F991F3A95E2F7282B27B9B7
:100DE00008954398429883E061E00E94D70682E02C
:100DF00061E00E94D7060895329902C081E008950B
:100E000086B18695869586958095817008950E9415
:100E100096060895DF92EF92FF920F931F93CF9360
:100E2000DF93F82E0E94FC06882309F075C083E04A
:100E300060E00E94D7061AE6812F8A95F1F782E0DA
:100E400060E00E94D70685ED8A95F1F782E061E0C7
:100E50000E94D7061A95F1F711E000E03AE6E32E7A
:100E600025EDD22E8F2D90E0EC01C170D070F0FEF8
:100E700003C083E061E002C083E060E00E94D70627
:100E80008E2D8A95F1F782E060E00E94D7068D2DC5
:100E90008A95F1F782E061E00E94D7068E2D8A954F
:100EA000F1F7CD2B29F080E0112309F481E0182F10
:100EB0000F5F083011F0F694D5CF112319F083E0BD
:100EC00061E002C083E060E00E94D7061AE6812F4D
:100ED0008A95F1F782E060E00E94D70605ED802F49
:100EE0008A95F1F782E061E00E94D706812F8A950A
:100EF000F1F783E061E00E94D706812F8A95F1F730
:100F000082E060E00E94D7060A95F1F782E061E096
:100F10000E94D7061A95F1F7DF91CF911F910F919B
:100F2000FF90EF90DF900895909115038091140346
:100F30009817A1F5089588EC90E00197F1F7329B9E
:100F400031C008C00E940A079091150380911403D4
:100F5000981741F186E193E060E173E00E94B106E9
:100F600080911603803E71F3803F61F30E940A076F
:100F700060911003709111038091120390911303FB
:100F80000E94DE0C80E49CE905C0FC013197F1F77A
:100F90006A50704016161706C4F308950E94FC06A6
:100FA000882349F20895CF92DF92EF92FF921F9328
:100FB000CF93DF93182FEB0169017A01823791F00B
:100FC000833740F4893671F0893698F08B56823039
:100FD00080F408C0843768F0863720F08A3711F033
:100FE0008D3739F480EE40E050E060E070E00E9420
:100FF0009606112371F0CD2B39F080EF40E050E0E0
:1010000060E070E00E949606812FB701A6010E9461
:101010009606DF91CF911F91FF90EF90DF90CF90D8
:101020000895DF92EF92FF920F931F93CF93DF9378
:10103000D82EEB0179018A0180EE40E050E060E0BB
:1010400070E00E949606DD2071F0CD2B39F080EF24
:1010500040E050E060E070E00E9496068D2DB801FF
:10106000A7010E949606DF91CF911F910F91FF90EB
:10107000EF90DF900895DF92EF92FF920F931F930E
:10108000D82E7A018B0160E070E020E030E048EC7F
:1010900052E40E94D3078D2D61E070E0A801970112
:1010A0000E94D3071F910F91FF90EF90DF9008955A
:1010B000DF92EF92FF920F931F93D82E7A018B014C
:1010C00060E070E020E030E048EC52E40E9411085B
:1010D0008D2D61E070E0A80197010E9411081F9119
:1010E0000F91FF90EF90DF90089585E780930303C1
:1010F00082E7809304038BE68093050384E7809363
:1011000006038AE58093090386E780930A0308951E
:101110008BE440E050E060E070E00E943B0884E433
:1011200040E050E060E070E00E943B088CE140E06D
:1011300050E060E070E00E943B0883E240E050E055
:1011400060E070E00E943B0889E540E050E060E02C
:1011500070E00E9496068EE140E050E068EC72E498
:101160000E943B088EE140E050E060E070E00E94A9
:101170003B0880EF40E050E060E070E00E9496069F
:1011800089E540E050E060E070E00E9496068AE564
:1011900040E050E060E070E00E943B0808958BE37F
:1011A00040E050E060E070E00E943B0889E540E0EC
:1011B00050E060E070E00E9496068EE140E050E072
:1011C00068EC72E40E943B088EE140E050E060E091
:1011D00070E00E943B0880EF40E050E060E070E08B
:1011E0000E94960689E540E050E060E070E00E94D1
:1011F00096068AE540E050E060E070E00E943B081F
:10120000089584E140E050E060E070E00E949606BE
:1012100081E140E050E060E070E00E94960683E0EB
:1012200040E050E060E070E00E943B0880EF40E06A
:1012300050E060E070E00E94960681E140E050E0FE
:1012400060E070E00E94960680EF40E050E060E0D1
:1012500070E00E94960684E140E050E060E070E0BB
:101260000E9496060E947508089584E140E050E0CF
:1012700060E070E00E94960681E140E050E060E0AE
:1012800070E00E94960681E740E050E060E070E088
:101290000E943B0880EF40E050E060E070E00E9478
:1012A000960681E140E050E060E070E00E94960622
:1012B00080EF40E050E060E070E00E94960684E13C
:1012C00040E050E060E070E00E9496060E947508E1
:1012D0000895CF93DF93EC0184E140E050E060E0BB
:1012E00070E00E94960681E140E050E060E070E02E
:1012F0000E94960686E640E050E06AEF73E40E94A2
:101300003B0880EF40E050E060E070E00E9496060D
:1013100081E140E050E060E070E00E94960680EFDE
:1013200040E050E060E070E00E94960684E140E01A
:1013300050E060E070E00E9496060E947508C2309E
:10134000D10539F0C330D10531F0219759F486E742
:1013500003C088E501C086E040E050E068E473E443
:101360000E943B08DF91CF910895DF93CF93CDB7D3
:10137000DEB72C970FB6F894DEBF0FBECDBF8091BD
:101380000F03882309F049C090E09E012F5F3F4F73
:101390000AC0E92FF0E0D901AE0FBF1FE45BFE4F9A
:1013A00080818C939F5F9C30A0F390930203809187
:1013B0000303853711F085E701C08981809303031A
:1013C00080910403823711F082E701C08A81809303
:1013D0000403809105038B3611F08BE601C08B81ED
:1013E0008093050380910603843711F084E701C0E0
:1013F0008C8180930603809109038A3511F08AE578
:1014000001C08F818093090380910A03863711F010
:1014100086E701C0888580930A032C960FB6F8945E
:10142000DEBF0FBECDBFCF91DF9108958130910512
:10143000E1F0823091051CF4892B41F0089582304F
:10144000910511F1039709F040C02FC090E00AC048
:10145000E92FF0E0DF01A45BBE4F8C91ED5FFC4F04
:1014600080839F5F9C30A0F31DC090E00AC0E92FED
:10147000F0E0DF01A85ABE4F8C91ED5FFC4F8083F6
:101480009F5F9C30A0F30EC090E00AC0E92FF0E00F
:10149000DF01AC59BE4F8C91ED5FFC4F80839F5FA5
:1014A0009C30A0F390930203089590E00AC0E92FC6
:1014B000F0E0DF01A059BE4F8C91ED5FFC4F8083BF
:1014C0009F5F9C30A0F390930203089580E00895FD
:1014D000FF920F931F93CF93DF93EC01409A7AE42E
:1014E000F72E8F2D8A95F1F783B190E064E0969501
:1014F00087956A95E1F701E010E0802791278170D8
:101500008C8786B129B190E054E0969587955A95DD
:10151000E1F7802791272027282B2170288326B1E7
:1015200089B130E045E0369527954A95E1F72027C7
:10153000312790E09695879580279127822B81709F
:10154000898389B190E096958795969587958027B0
:10155000912781708A8389B190E0A3E09695879561
:10156000AA95E1F78027912781708B8340988F2D72
:101570008A95F1F789B199B182FDC1C093FDBFC0D1
:1015800089B190E0F4E096958795FA95E1F7802788
:10159000912781708E8389B190E0E5E096958795DB
:1015A000EA95E1F78027912781708D83409A8F2DEE
:1015B0008A95F1F789B190E074E0969587957A95D0
:1015C000E1F78027912781708F8389B190E065E0F2
:1015D000969587956A95E1F780279127817088878E
:1015E00040988F2D8A95F1F7409A8F2D8A95F1F7C3
:1015F00040988F2D8A95F1F7E6B1A9B146B129B18E
:1016000069B189B190E053E0969587955A95E1F7D5
:101610008027912770E07695679576956795602786
:1016200071276823792350E095E0569547959A9560
:10163000E1F74027512730E03695279520273127BD
:10164000242B352BF0E0B4E0F695E795BA95E1F759
:10165000E027F127B0E0A027B127AE2BBF2B2A232C
:101660002170822F90E068237923672B09F442C010
:10167000409A8F2D8A95F1F786B129B190E0A4E0C8
:1016800096958795AA95E1F7802791272027282B03
:1016900021702B8726B189B130E0F5E0369527958A
:1016A000FA95E1F72027312790E0969587958027D6
:1016B0009127822B81708A8789B190E096958795D2
:1016C00096958795802791278170898789B190E0C9
:1016D00063E0969587956A95E1F780279127817059
:1016E0008C8340988F2D8A95F1F7409A8F2D8A959B
:1016F000F1F7409880E49FE10197F1F718C089B1B4
:1017000090E054E0969587955A95E1F721E030E016
:101710008227932781708E8389B190E045E096956A
:1017200087954A95E1F78227932781708F83409AA6
:101730008AE48A95F1F7DF91CF911F910F91FF9085
:1017400008951F93FC01419A8AE48A95F1F789B1C3
:1017500090E066E0969587956A95E1F721E030E0A4
:10176000822793278170808383B190E053E0969520
:1017700087955A95E1F7822793278170818389B1F4
:10178000128287FD02C081E0828383B190E096954A
:10179000879596958795A1E0B0E08A279B27817071
:1017A000838341981AE4812F8A95F1F789B193B127
:1017B00087FD8CC092FD8AC083B190E09695879595
:1017C0008A279B278170868383B18A2781708583CE
:1017D000419A812F8A95F1F783B190E0969587958C
:1017E0008A279B278170878383B18A2781708087AE
:1017F0004198812F8A95F1F7419A812F8A95F1F7C7
:101800004198812F8A95F1F769B123B189B143B12C
:1018100050E056954795569547954A275B27992757
:1018200087FD9095809590958827990F881F992717
:101830004823592370E086E0769567958A95E1F70D
:101840006A277B2730E073E0369527957A95E1F794
:101850002A273B2721702623822F90E048235923F3
:10186000452B79F1419A812F8A95F1F789B190E062
:1018700026E0969587952A95E1F78A279B27817020
:10188000838783B190E013E0969587951A95E1F7E9
:101890008A279B278170828789B1118687FD02C0C4
:1018A00081E0818783B18695869580958170848358
:1018B00041988AE4982F9A95F1F7419A8A95F1F721
:1018C000419880E49FE10197F1F70EC083B190E069
:1018D0009695879521E030E0822793278170868353
:1018E00083B1822781708783419A8AE48A95F1F7D0
:1018F0001F910895FC018085882319F081E090E014
:101900000BC089B190E036E0969587953A95E1F75E
:10191000809590958170907080878185882319F0DB
:1019200081E090E00AC089B1992787FD9095809564
:1019300090958827990F881F99278187858188230B
:1019400019F081E090E006C083B190E08095909519
:101950008170907085838481882319F081E090E004
:1019600008C083B190E09695879580959095817099
:10197000907084838285882319F081E090E00AC00A
:1019800083B190E0969587959695879580959095EB
:101990008170907082878385882319F081E090E0C0
:1019A0000BC083B190E073E0969587957A95E1F747
:1019B000809590958170907083870895ACE0B0E039
:1019C000E4EEFCE00C94E10D69837A838B839C83C5
:1019D000CE010196BE016B5F7F4F0E94320D8D815B
:1019E000823061F1823050F1843021F48E8188237D
:1019F00051F12EC02F81388537FD20C06E812F31E7
:101A000031051CF06623F9F023C08EE190E0821BC3
:101A1000930B29853A854B855C8504C0569547957F
:101A2000379527958A95D2F76623B1F05095409562
:101A3000309521953F4F4F4F5F4F0EC020E030E073
:101A400040E050E009C02FEF3FEF4FEF5FE704C0E9
:101A500020E030E040E050E8B901CA012C96E2E015
:101A60000C94FD0DFC01DB01408151812281622F2C
:101A70006F7770E0221F2227221F9381892F880F02
:101A8000822B282F30E0991F9927991F11969C933C
:101A9000119721153105A9F541155105610571050C
:101AA00011F482E037C082E89FEF13969C938E93E7
:101AB00012979A01AB0167E0220F331F441F551F95
:101AC0006A95D1F783E08C930DC0220F331F441F1A
:101AD000551F12968D919C911397019713969C9385
:101AE0008E931297203080E0380780E0480780E42A
:101AF000580758F314962D933D934D935C93179785
:101B000008952F3F310579F441155105610571059F
:101B100019F484E08C93089564FF03C081E08C93F2
:101B200012C01C9210C02F57304013963C932E9336
:101B3000129783E08C9387E0440F551F661F771F31
:101B40008A95D1F7706414964D935D936D937C9351
:101B50001797089597FB092E07260AD077FD04D022
:101B60000CD006D000201AF4709561957F4F08952F
:101B7000F6F7909581959F4F0895AA1BBB1B51E1E5
:101B800007C0AA1FBB1FA617B70710F0A61BB70BED
:101B9000881F991F5A95A9F780959095BC01CD0192
:101BA00008952F923F924F925F926F927F928F9201
:101BB0009F92AF92BF92CF92DF92EF92FF920F93DC
:101BC0001F93CF93DF93CDB7DEB7CA1BDB0B0FB6E6
:101BD000F894DEBF0FBECDBF09942A8839884888A3
:101BE0005F846E847D848C849B84AA84B984C88439
:101BF000DF80EE80FD800C811B81AA81B981CE0F30
:101C0000D11D0FB6F894DEBF0FBECDBFED01089514
:041C1000F894FFCF76
:101C14002D45161E26252E363D3E461C32212324F4
:101C24002B3433433B424B3A31444D152D1B2C3C52
:101C34002A1D22351A161E26252E363D3E46455BA4
:101C4400004A004F00590032005000530032005D3A
:101C5400003000300030003800620000151C444D94
:101C64002E16292A3231343300000000000000000F
:101C74000000000000000000000000000000000060
:0C1C840000000000000000000000000054
:00000001FF
