:100000000C9434000C9451000C9451000C94510049
:100010000C9451000C9451000C9451000C9451001C
:100020000C9451000C9451000C9451000C9451000C
:100030000C9451000C9451000C9451000C945100FC
:100040000C9451000C9451000C9451000C945100EC
:100050000C9451000C9451000C9451000C945100DC
:100060000C9451000C94510011241FBECFEFD4E02A
:10007000DEBFCDBF12E0A0E0B1E0E8E5F3E202C0F0
:1000800005900D92A033B107D9F713E0A0E3B2E0D9
:1000900001C01D92AD3DB107E1F70E9415010C941E
:1000A000AA110C9400002091300230913102832F6C
:1000B000822351F081E08093340280936402109295
:1000C00030021092310214C080916402882321F022
:1000D000109234021092640290E0809141028823D1
:1000E00009F491E02923209330023923309331021F
:1000F0002091320230913302832F822351F081E02C
:10010000809335028093650210923202109233027E
:10011000089580916502882321F010923502109293
:10012000650290E080914202882309F491E029233E
:1001300020933202392330933302089520914A02EA
:1001400030914B02832F822351F081E080934E0245
:100150008093660210924A0210924B0214C0809162
:100160006602882321F010924E021092660290E0FF
:1001700080915B02882309F491E0292320934A02AD
:10018000392330934B0220914C0230914D02832F42
:10019000822351F081E080934F0280936702109296
:1001A0004C0210924D02089580916702882321F03D
:1001B00010924F021092670290E080915C028823B7
:1001C00009F491E0292320934C02392330934D0206
:1001D00008951F93182F8091680290916902892BCE
:1001E00081F4812F40E050E060E070E02091B002A7
:1001F0000E94500B81E090E0909369028093680226
:1002000012C08DE440E050E060E070E02091B00268
:100210000E94500B812F40E050E060E070E02091A0
:10022000B0020E94500B1F9108952F923F924F925F
:100230005F926F927F928F929F92AF92BF92CF9276
:10024000DF92EF92FF920F931F93CF93DF9381E0A2
:100250008093AF021092D0031092CF0310926902E4
:100260001092680284E08093C7030E9448080E94AD
:10027000E8078091D00390E00E94980D8091CF0311
:1002800090E00E94D10D10926402109265021092CB
:100290006602109267020E94730B3C983D98449A44
:1002A000459A8FEF89B983B18F6183B91AB884B148
:1002B000807E84B9389A399A409A419A10926C0299
:1002C00082E08093B00210E03324339488248A942F
:1002D000982CEE24EA94FE2CCC24CA94DC2CAA247C
:1002E000AA94BA2C23E2622E712C4424552494E063
:1002F000292E01C011E0332009F444C00E945308A4
:10030000882309F43FC037C080916C028093B90301
:100310008CE692E00E947608892B69F580916C0248
:100320008E3E09F08AEF0E949D0990916C029230F6
:1003300099F0933028F4992341F09130E1F40CC006
:10034000923F89F09F3FB9F413C08091B903803F79
:1003500091F48091B0020DC08091B903803F59F4AF
:100360009093B00208C08BEA0E949D0983E801C007
:100370008AEA0E949D0988EE93E00E946108892B19
:1003800019F602C00E94C40A8091300280933D0297
:1003900080914A02809357028091310280933E02FD
:1003A00080914B02809358028091320280933F02E9
:1003B00080914C02809359028091330280934002D5
:1003C00080914D0280935A028091340280934102C1
:1003D00080914E0280935B0210923402809135022C
:1003E0008093420280914F0280935C02109235020A
:1003F00080913602809343028091500280935D0287
:1004000080913702809344028091510280935E0272
:1004100080913802809345028091520280935F025E
:1004200010923802809139028093460280915302E3
:10043000809360021092390280913A0280934702C1
:10044000809154028093610210923A0280913B02A3
:1004500080934802809155028093620210923B0281
:1004600080913C028093490280E49CE90197F1F776
:100470008091AF02882349F080E392E00E940A0E47
:1004800080E392E00E941C100AC080E392E00E9488
:100490000A0E8AE492E00E94430F0E949E000E948E
:1004A000530090913502809136028923A1F4809106
:1004B0003402982381F420E030E080913C028823CC
:1004C00011F421E030E08091490290E028233923A3
:1004D000232B09F46EC080E0112309F481E0182F6A
:1004E0008823A9F510924102109242021092430211
:1004F00080E0332009F481E0382E29C010923802C0
:100500001092390210923A0210923B021092340279
:100510001092350280E49CE90197F1F78091AF02D7
:10052000882349F080E392E00E940A0E80E392E083
:100530000E941C100AC080E392E00E940A0E8AE426
:1005400092E00E94430F0E949E000E9453008091FF
:100550003402882399F680913502882379F68091B8
:100560003602882359F680913002882339F680912B
:100570003102882319F680913202882309F0BECF18
:1005800080913302882309F0B9CF80ED97E0E0E94C
:10059000F1E03197F1F70197D1F788248A94982CEC
:1005A000EE24EA94FE2CCC24CA94DC2CAA24AA942F
:1005B000BA2C112309F4DBC1809135028823A1F103
:1005C00080913D028823B1F080913002882391F41C
:1005D0008091C703823018F081508093C703109236
:1005E0003D0280ED97E0E0E9F1E03197F1F7019706
:1005F000D1F780CE80913E028823B1F08091310204
:10060000882391F48091C703843018F48F5F80931E
:10061000C70310923E0280ED97E0E0E9F1E03197E8
:10062000F1F70197D1F766CE20E030E080913002FB
:10063000882311F421E030E080913D0290E02823EE
:100640003923232B99F080E090E02AE08216910470
:1006500014F481E090E0880E991EEE24EA94FE2CBA
:10066000CC24CA94DC2CAA24AA94BA2C20E030E032
:1006700080913102882311F421E030E080913E0224
:1006800090E028233923232B99F080E090E024E0A8
:10069000E216F10414F481E090E0E80EF91E8824DB
:1006A0008A94982CCC24CA94DC2CAA24AA94BA2C20
:1006B00020E030E080913302882311F421E030E023
:1006C0008091400290E028233923232B99F080E089
:1006D00090E022E0C216D10414F481E090E0C80E4C
:1006E000D91E88248A94982CEE24EA94FE2CAA24FD
:1006F000AA94BA2C20E030E080913202882311F4D1
:1007000021E030E080913F0290E028233923232B21
:1007100099F080E090E023E0A216B10414F481E0A7
:1007200090E0A80EB91E88248A94982CEE24EA94AE
:10073000FE2CCC24CA94DC2C20E030E080915002C6
:10074000882311F421E030E080915D0290E02823BD
:100750003923232B11F411E01DC010925002109286
:100760005D028FEFA8168FEFB80699F022E0A2166F
:10077000B10479F48091CF03833020F48F5F8093AC
:10078000CF0302C01092CF038091CF0390E00E946C
:10079000D10D10E0809136028823A9F080913702B4
:1007A000882389F010923602109237021092430289
:1007B0001092440290E08091AF02882309F491E006
:1007C0009093AF0210E020E030E080913602882361
:1007D00011F421E030E08091430290E02823392396
:1007E000232B09F4DEC210923602109243028FEFDF
:1007F00088168FEF980699F42FEFE2162FEFF20686
:1008000071F48FEFC8168FEFD80671F42FEFA21690
:100810002FEFB20609F074C00E94370D71C08FEF40
:10082000C8168FEFD806D1F0C114D10429F48091F5
:10083000B0020E94280C23C021E0C216D10429F482
:100840008091B0020E94860B1AC082E0C816D104C3
:10085000B1F48091B0020E94E30B11C02FEF821619
:100860002FEF920671F0F401E050FF4F808140E0DD
:1008700050E068E473E42091B0020E94500B10E055
:100880003ACD8FEFE8168FEFF806D1F11092D00332
:100890001092CF0380E090E00E94980D8091CF03EA
:1008A00090E00E94D10D2092C703E114F10429F4D5
:1008B0008091B0020E947A0C15C021E0E216F1048A
:1008C00019F480E090E014C082E0E816F10419F415
:1008D00081E090E00DC023E0E216F10419F482E01B
:1008E00090E006C084E0E816F10431F483E090E083
:1008F0006091B0020E94CC0C10E033243394FECC03
:100900002FEFA2162FEFB20609F441C2A114B104D1
:1009100029F4109269021092680239C281E0A81687
:10092000B10411F48CE41AC022E0A216B10481F4DF
:100930008091D003833020F48F5F8093D00302C076
:100940001092D0038091D00390E00E94980D1FC2B6
:1009500083E0A816B10409F01AC281E540E050E036
:1009600060E070E02091B0020E94500B10C2A11410
:10097000B10409F0FDC020E030E080913602882308
:1009800011F421E030E08091430290E028233923E4
:10099000232B09F448C08091680290916902892B49
:1009A00009F441C080E090E0452811F481E090E036
:1009B0002C018DE440E050E060E070E02091B00256
:1009C0000E94500BE301C55FDE4F4114510401F159
:1009D00085E560E070E020E030E040E050E000912C
:1009E000B0020E94FC0A888140E050E060E070E0C4
:1009F0002091B0020E94500B85E561E070E020E09C
:100A000030E040E050E00091B0020E94FC0A09C0D2
:100A1000888140E050E060E070E02091B0020E94E8
:100A2000500B0E94C40A809130028823C1F080914B
:100A300036028823A1F423E26216710419F46624B5
:100A4000772403C00894611C711CF301E55FFE4F1D
:100A500080810E94E9000E94C40A442455248091A8
:100A600031028823C1F0809136028823A1F4161444
:100A7000170424F083E2682E712C03C008946108E7
:100A80007108F301E55FFE4F80810E94E9000E943A
:100A9000C40A4424552480913302882359F180915B
:100AA0004002882339F580913602882359F085E584
:100AB00061E070E020E030E040E050E00091B00202
:100AC0000E94FC0A8091680290916902892B29F0AA
:100AD000109269021092680209C083E540E050E07C
:100AE00060E070E02091B0020E94500B0E94C40AA6
:100AF00044245524809132028823C9F080913F021A
:100B00008823A9F480913602882389F4109269021F
:100B1000109268028DE440E050E060E070E02091C7
:100B2000B0020E94500B0E94C40A442455248091B4
:100B30003702882309F435C180914402882309F0E3
:100B400030C180913602882309F02BC110926902CE
:100B50001092680282E540E050E060E070E0209191
:100B6000B0020E94500B0E94C40A4424552419C1AB
:100B70009091300280913D02981781F060E070E022
:100B8000992311F461E070E08091BA0320E030E035
:100B900040E050E00091B0020E94FC0A90913102C6
:100BA00080913E02981781F060E070E0992311F483
:100BB00061E070E08091BB0320E030E040E050E075
:100BC0000091B0020E94FC0A9091320280913F0293
:100BD000981781F060E070E0992311F461E070E013
:100BE0008091BC0320E030E040E050E00091B00292
:100BF0000E94FC0A9091330280914002981781F084
:100C000060E070E0992311F461E070E08091BD0331
:100C100020E030E040E050E00091B0020E94FC0A89
:100C200020E030E080913402882311F421E030E0AC
:100C30008091410290E028233923232B51F08091A9
:100C4000BE0340E050E068E473E42091B0020E94EB
:100C5000500B20E030E080913502882311F421E030
:100C600030E08091420290E028233923232B51F079
:100C70008091BF0340E050E068E473E42091B0024B
:100C80000E94500B9091360280914302981781F098
:100C900060E070E0992311F461E070E08091C0039E
:100CA00020E030E040E050E00091B0020E94FC0AF9
:100CB0009091370280914402981781F060E070E0D3
:100CC000992311F461E070E08091C10320E030E0ED
:100CD00040E050E00091B0020E94FC0A909138027E
:100CE00080914502981781F060E070E0992311F43B
:100CF00061E070E08091C20320E030E040E050E02D
:100D00000091B0020E94FC0A909139028091460243
:100D1000981781F060E070E0992311F461E070E0D1
:100D20008091C30320E030E040E050E00091B00249
:100D30000E94FC0A90913A0280914702981781F034
:100D400060E070E0992311F461E070E08091C403E9
:100D500020E030E040E050E00091B0020E94FC0A48
:100D600090913B02809148029817D9F060E070E0C2
:100D7000992311F461E070E08091C50320E030E038
:100D800040E050E00091B0020E94FC0A0AC010E06E
:100D900088248A94982CEE24EA94FE2CCC24CA94BD
:100DA000DC2C90914A0280915702981781F060E004
:100DB00070E0992311F461E070E08091D10320E0AC
:100DC00030E040E050E00091B0020E94FC0A9091B7
:100DD0004B0280915802981781F060E070E09923EF
:100DE00011F461E070E08091D20320E030E040E057
:100DF00050E00091B0020E94FC0A90914C02809158
:100E00005902981781F060E070E0992311F461E0D5
:100E100070E08091D30320E030E040E050E00091AA
:100E2000B0020E94FC0A90914D0280915A029817DC
:100E300081F060E070E0992311F461E070E080914E
:100E4000D40320E030E040E050E00091B0020E9486
:100E5000FC0A90914E0280915B02981761F09923F1
:100E600051F48091D50340E050E068E473E42091B0
:100E7000B0020E94500B90914F0280915C02981733
:100E800061F0992351F48091D60340E050E068E48A
:100E900073E42091B0020E94500B90915002809117
:100EA0005D02981781F060E070E0992311F461E031
:100EB00070E08091D70320E030E040E050E0009106
:100EC000B0020E94FC0A9091510280915E02981734
:100ED00081F060E070E0992311F461E070E08091AE
:100EE000D80320E030E040E050E00091B0020E94E2
:100EF000FC0A9091520280915F02981781F060E0A5
:100F000070E0992311F461E070E08091D90320E052
:100F100030E040E050E00091B0020E94FC0A909165
:100F2000530280916002981781F060E070E099238D
:100F300011F461E070E08091DA0320E030E040E0FD
:100F400050E00091B0020E94FC0A909154028091FE
:100F50006102981781F060E070E0992311F461E07C
:100F600070E08091DB0320E030E040E050E0009151
:100F7000B0020E94FC0A909155028091620298177B
:100F800009F4B9C960E070E0992311F461E070E000
:100F90008091DC0320E030E040E050E00091B002BE
:100FA0000E94FC0AA8C920E43CE904C0F901319779
:100FB000F1F70A9718161906CCF3089535E104C025
:100FC000232F2A95F1F7049718161906CCF30895E4
:100FD0001092CC031092CD0308952091CD0330E000
:100FE000F901E359FD4F8083F901EE0FFF1FEE0F6A
:100FF000FF1FEF54FD4F4083518362837383C90108
:10100000029662E470E00E944C118093CD03089533
:10101000DC018091CC03EDE6F2E0E80FF11D808168
:101020008C93E091CC03F0E0EE0FFF1FEE0FFF1F5B
:10103000EF54FD4F80819181A281B381FB018083B8
:101040009183A283B3838091CC0390E0029662E403
:1010500070E00E944C118093CC030895382F6623D2
:1010600061F027B181E090E002C0880F991F3A95A6
:10107000E2F78095822387B9089527B181E090E057
:1010800002C0880F991F3A95E2F7282B27B90895D7
:101090004398429883E061E00E942E0882E061E07C
:1010A0000E942E080895329902C081E0089586B109
:1010B0008695869586958095817008950E94ED07A6
:1010C000089520E030E05AE10AC02F5F3F4F339986
:1010D00003C021E030E008C0452F4A95F1F72817FA
:1010E00039079CF320E030E0C9010895AF92BF9228
:1010F000CF92DF92EF92FF920F931F93CF93DF93E4
:101100005C013399FECF329BFECF8091C70390E004
:10111000880F991F880F991F35E104C0232F2A9546
:10112000F1F7049718161906CCF382E060E00E94EC
:101130002E088091C70390E003E0880F991F0A955D
:10114000E1F735E104C0232F2A95F1F7049718162B
:101150001906CCF382E061E00E942E088091C7035B
:1011600090E0880F991F880F991F35E104C0232F45
:101170002A95F1F7049718161906CCF3FF2411E00D
:10118000C0E0D0E0B1E0CB2ED12CEE24E39405E119
:10119000339B09C0C6010C2E02C0880F991F0A9408
:1011A000E2F7F82A1E258091C70390E0880F991F67
:1011B000880F991F04C0202F2A95F1F7049718165D
:1011C0001906CCF382E060E00E942E088091C703EC
:1011D00090E0F3E0880F991FFA95E1F704C0202F03
:1011E0002A95F1F7049718161906CCF382E061E00E
:1011F0000E942E084091C703842F90E0880F991F0A
:10120000880F991F04C0202F2A95F1F7049718160C
:101210001906CCF32196C830D10509F0B9CF86B1B3
:1012200090E073E0969587957A95E1F781709070DC
:10123000212F30E08217930719F02FEF3FEF71C095
:10124000842F90E0880F991F880F991F35E104C003
:10125000232F2A95F1F7049718161906CCF382E08C
:1012600060E00E942E088091C70390E053E0880F51
:10127000991F5A95E1F735E104C0232F2A95F1F71C
:10128000049718161906CCF382E061E00E942E083C
:101290008091C70390E0880F991F880F991F35E14F
:1012A00004C0232F2A95F1F7049718161906CCF3DA
:1012B00083E060E00E942E088091C70390E0880FD1
:1012C000991F880F991F35E104C0232F2A95F1F744
:1012D000049718161906CCF382E060E00E942E08ED
:1012E0008091C70390E023E0880F991F2A95E1F7CA
:1012F00035E104C0232F2A95F1F704971816190633
:10130000CCF382E061E00E942E0883E061E00E945D
:101310002E0880E991E00197F1F7F501F08220E0D5
:1013200030E0C901DF91CF911F910F91FF90EF90B5
:10133000DF90CF90BF90AF900895EF92FF920F9300
:101340001F93CF93DF93082F0E9453088823E1F760
:1013500083E060E00E942E088091C70390E0880F30
:10136000991F880F991F35E104C0232F2A95F1F7A3
:10137000049718161906CCF382E060E00E942E084C
:101380008091C70390E023E0880F991F2A95E1F729
:1013900035E104C0232F2A95F1F704971816190692
:1013A000CCF382E061E00E942E088091C70390E0B8
:1013B000880F991F880F991F35E104C0232F2A95A4
:1013C000F1F7049718161906CCF311E0C0E0D0E04D
:1013D000E02EFF2405E1C7010C2E02C095958795EC
:1013E0000A94E2F780FF07C083E061E00E942E08C4
:1013F00081E0182704C083E060E00E942E088091FD
:10140000C70390E0880F991F880F991F04C0202FF1
:101410002A95F1F7049718161906CCF382E060E0DC
:101420000E942E088091C70390E0A3E0880F991FC7
:10143000AA95E1F704C0202F2A95F1F70497181612
:101440001906CCF382E061E00E942E088091C70368
:1014500090E0880F991F880F991F04C0202F2A95AC
:10146000F1F7049718161906CCF32196C830D10568
:1014700009F0B1CF112319F083E061E002C083E0ED
:1014800060E00E942E088091C70390E0880F991FAA
:10149000880F991F35E104C0232F2A95F1F704978F
:1014A00018161906CCF382E060E00E942E088091A5
:1014B000C70390E073E0880F991F7A95E1F735E153
:1014C00004C0232F2A95F1F7049718161906CCF3B8
:1014D00082E061E00E942E088091C70390E0880FAF
:1014E000991F880F991F35E104C0232F2A95F1F722
:1014F000049718161906CCF383E061E00E942E08C9
:101500008091C70390E0880F991F880F991F35E1DC
:1015100004C0232F2A95F1F7049718161906CCF367
:1015200082E060E00E942E088091C70390E043E0D3
:10153000880F991F4A95E1F735E104C0232F2A95BA
:10154000F1F7049718161906CCF382E061E00E94C7
:101550002E088091C70390E0880F991F880F991F6C
:1015600035E104C0232F2A95F1F7049718161906C0
:10157000CCF388EC90E00197F1F7DF91CF911F91C8
:101580000F91FF90EF9008959091CD038091CC033F
:10159000981769F508950E949D099091CD03809157
:1015A000CC03981741F18EEC93E068EC73E00E9455
:1015B00008088091CE03803E71F3803F61F30E9462
:1015C0009D096091C8037091C9038091CA039091ED
:1015D000CB030E94801080E49CE905C0FC01319798
:1015E000F1F76A50704016161706C4F308950E946A
:1015F00053088823C1F20895CF92DF92EF92FF92B1
:101600000F931F93CF93DF93182FEB0169017A019A
:10161000853441F0863420F481508A3050F402C081
:10162000893439F480EE40E050E060E070E00E94E0
:10163000ED07112361F1CD2B49F0013099F4E12F31
:10164000F0E0E958FE4F8081805807C00130A1F4D6
:10165000E12FF0E0E958FE4F808140E050E060E08B
:1016600070E013C0023099F480EF40E050E060E099
:1016700070E00E94ED0702C0023049F4E12FF0E073
:10168000ED52FE4F8081B701A6010E94ED07DF9168
:10169000CF911F910F91FF90EF90DF90CF90089521
:1016A000BF92CF92DF92EF92FF920F931F93182F6A
:1016B0006A017B01B22E60E070E020E030E048EC8F
:1016C00052E40B2D0E94FC0A812F61E070E0A7011B
:1016D00096010E94FC0A1F910F91FF90EF90DF90FE
:1016E000CF90BF90089581E08093BA0382E0809309
:1016F000BB0383E08093BC0384E08093BD0382E559
:101700008093C0038CE48093C10308951F93182F26
:1017100086E140E050E060E070E0212F0E94500B35
:1017200089E140E050E060E070E0212F0E94500B22
:101730008BE040E050E060E070E0212F0E94500B11
:101740008EE040E050E060E070E0212F0E94500BFE
:10175000113011F486E303C0123039F489E540E01A
:1017600050E060E070E00E94ED0786E240E050E06B
:1017700068EC72E4212F0E94500B86E240E050E0BA
:1017800060E070E0212F0E94500B113011F489EDC0
:101790000AC0123071F480EF40E050E060E070E089
:1017A0000E94ED0789E540E050E060E070E00E94B3
:1017B000ED0782E540E050E060E070E0212F0E94FC
:1017C000500B1F9108951F93182F84E140E050E0C3
:1017D00060E070E0212F0E94500B113011F486E37D
:1017E00003C0123039F489E540E050E060E070E079
:1017F0000E94ED0786E240E050E068EC72E4212FA1
:101800000E94500B86E240E050E060E070E0212F43
:101810000E94500B113011F489ED0AC0123071F49E
:1018200080EF40E050E060E070E00E94ED0789E565
:1018300040E050E060E070E00E94ED0782E540E0AB
:1018400050E060E070E0212F0E94500B1F9108953E
:101850001F93182F813049F48DE140E050E060E0A3
:1018600070E00E94ED0788E30AC0823071F484E1E1
:1018700040E050E060E070E00E94ED0781E140E070
:1018800050E060E070E00E94ED0783E340E050E04C
:1018900060E070E0212F0E94500B113049F488EB7A
:1018A00040E050E060E070E00E94ED078DE918C074
:1018B0001230E1F480EF40E050E060E070E00E9420
:1018C000ED0781E140E050E060E070E00E94ED074C
:1018D00080EF40E050E060E070E00E94ED0784E1BE
:1018E00040E050E060E070E00E94ED070E94730B62
:1018F0001F9108951F93182F813049F48DE140E026
:1019000050E060E070E00E94ED0788E30AC082309A
:1019100071F484E140E050E060E070E00E94ED0787
:1019200081E140E050E060E070E00E94ED0788E077
:1019300040E050E060E070E0212F0E94500B113039
:1019400049F488EB40E050E060E070E00E94ED0771
:101950008DE918C01230E1F480EF40E050E060E023
:1019600070E00E94ED0781E140E050E060E070E04F
:101970000E94ED0780EF40E050E060E070E00E94E0
:10198000ED0784E140E050E060E070E00E94ED0788
:101990000E94730B1F9108951F93CF93DF93EC0167
:1019A000162F613049F48DE140E050E060E070E0D6
:1019B0000E94ED0788E30AC0623071F484E140E0E0
:1019C00050E060E070E00E94ED0781E140E050E00F
:1019D00060E070E00E94ED078DE440E050E06AEFC7
:1019E00073E4212F0E94500B113049F488EB40E042
:1019F00050E060E070E00E94ED078DE918C0123001
:101A0000E1F480EF40E050E060E070E00E94ED071C
:101A100081E140E050E060E070E00E94ED0780EF7F
:101A200040E050E060E070E00E94ED0784E140E0BB
:101A300050E060E070E00E94ED070E94730BC2303E
:101A4000D10539F0C330D10531F0219761F48CE430
:101A500003C086E501C080E340E050E068E473E441
:101A6000212F0E94500BDF91CF911F910895DF939A
:101A7000CF93CDB7DEB72C970FB6F894DEBF0FBE6D
:101A8000CDBF8091D003882309F049C090E09E012A
:101A90002F5F3F4F0AC0E92FF0E0D901AE0FBF1F03
:101AA000E15DFE4F80818C939F5F9C30A0F390930B
:101AB000C6038091BA03813011F081E001C08981B1
:101AC0008093BA038091BB03823011F082E001C0A1
:101AD0008A818093BB038091BC03833011F083E043
:101AE00001C08B818093BC038091BD03843011F0D1
:101AF00084E001C08C818093BD038091C003823556
:101B000011F082E501C08F818093C0038091C103F1
:101B10008C3411F08CE401C088858093C1032C962D
:101B20000FB6F894DEBF0FBECDBFCF91DF91089501
:101B300081309105A1F08230910511F1892B81F559
:101B400090E00AC0E92FF0E0DF01A15DBE4F8C916B
:101B5000E654FC4F80839F5F9C30A0F30EC090E062
:101B60000AC0E92FF0E0DF01A95BBE4F8C91E6547B
:101B7000FC4F80839F5F9C30A0F39093C603089531
:101B800090E00AC0E92FF0E0DF01A15ABE4F8C912E
:101B9000E654FC4F80839F5F9C30A0F39093C60374
:101BA000089581309105A1F08230910511F1892BC2
:101BB00081F590E00AC0E92FF0E0DF01A55CBE4F9F
:101BC0008C91EF52FC4F80839F5F9C30A0F30EC03E
:101BD00090E00AC0E92FF0E0DF01AD5ABE4F8C91D2
:101BE000EF52FC4F80839F5F9C30A0F39093C6031D
:101BF000089590E00AC0E92FF0E0DF01A559BE4F3B
:101C00008C91EF52FC4F80839F5F9C30A0F39093A8
:101C1000C6030895FF920F931F93CF93DF93EC01B8
:101C2000409A7AE4F72E8F2D8A95F1F783B190E0F0
:101C300064E0969587956A95E1F701E010E08027CA
:101C4000912781708C8786B129B190E054E09695F8
:101C500087955A95E1F7802791272027282B217017
:101C6000288326B189B130E045E0369527954A951D
:101C7000E1F72027312790E09695879580279127D7
:101C8000822B8170898389B190E09695879596958E
:101C900087958027912781708A8389B190E0A3E09E
:101CA00096958795AA95E1F78027912781708B8378
:101CB00040988F2D8A95F1F789B199B182FDC1C005
:101CC00093FDBFC089B190E0F4E096958795FA95B1
:101CD000E1F78027912781708E8389B190E0E5E05C
:101CE00096958795EA95E1F78027912781708D83F6
:101CF000409A8F2D8A95F1F789B190E074E096951E
:101D000087957A95E1F78027912781708F8389B134
:101D100090E065E0969587956A95E1F78027912791
:101D20008170888740988F2D8A95F1F7409A8F2D82
:101D30008A95F1F740988F2D8A95F1F7E6B1A9B110
:101D400046B129B169B189B190E053E09695879584
:101D50005A95E1F78027912770E0769567957695FB
:101D60006795602771276823792350E095E05695A1
:101D700047959A95E1F74027512730E0369527950A
:101D800020273127242B352BF0E0B4E0F695E7959A
:101D9000BA95E1F7E027F127B0E0A027B127AE2BF5
:101DA000BF2B2A232170822F90E068237923672B91
:101DB00009F442C0409A8F2D8A95F1F786B129B176
:101DC00090E0A4E096958795AA95E1F78027912762
:101DD0002027282B21702B8726B189B130E0F5E030
:101DE00036952795FA95E1F72027312790E09695CB
:101DF000879580279127822B81708A8789B190E00F
:101E000096958795969587958027912781708987E4
:101E100089B190E063E0969587956A95E1F7802710
:101E2000912781708C8340988F2D8A95F1F7409A85
:101E30008F2D8A95F1F7409880E49FE10197F1F7A3
:101E400018C089B190E054E0969587955A95E1F7CE
:101E500021E030E08227932781708E8389B190E062
:101E600045E0969587954A95E1F7822793278170FB
:101E70008F83409A8AE48A95F1F7DF91CF911F9181
:101E80000F91FF9008951F93FC01419A8AE48A956F
:101E9000F1F789B190E066E0969587956A95E1F74C
:101EA00021E030E0822793278170808383B190E026
:101EB00053E0969587955A95E1F78227932781708D
:101EC000818389B1128287FD02C081E0828383B160
:101ED00090E09695879596958795A1E0B0E08A2742
:101EE0009B278170838341981AE4812F8A95F1F7AB
:101EF00089B193B187FD8CC092FD8AC083B190E017
:101F0000969587958A279B278170868383B18A2738
:101F100081708583419A812F8A95F1F783B190E092
:101F2000969587958A279B278170878383B18A2717
:101F3000817080874198812F8A95F1F7419A812F8E
:101F40008A95F1F74198812F8A95F1F769B123B10C
:101F500089B143B150E056954795569547954A2724
:101F60005B27992787FD9095809590958827990FF5
:101F7000881F99274823592370E086E07695679556
:101F80008A95E1F76A277B2730E073E0369527953D
:101F90007A95E1F72A273B2721702623822F90E0AC
:101FA00048235923452B79F1419A812F8A95F1F7DE
:101FB00089B190E026E0969587952A95E1F78A27E2
:101FC0009B278170838783B190E013E09695879576
:101FD0001A95E1F78A279B278170828789B111863C
:101FE00087FD02C081E0818783B1869586958095C3
:101FF0008170848341988AE4982F9A95F1F7419AE9
:102000008A95F1F7419880E49FE10197F1F70EC0BE
:1020100083B190E09695879521E030E08227932761
:102020008170868383B1822781708783419A8AE495
:102030008A95F1F71F910895FC018085882319F096
:1020400081E090E00BC089B190E036E096958795ED
:102050003A95E1F7809590958170907080878185A1
:10206000882319F081E090E00AC089B1992787FDA3
:102070009095809590958827990F881F992781873B
:102080008581882319F081E090E006C083B190E05B
:10209000809590958170907085838481882319F054
:1020A00081E090E008C083B190E096958795809597
:1020B00090958170907084838285882319F081E0E7
:1020C00090E00AC083B190E09695879596958795A4
:1020D000809590958170907082878385882319F010
:1020E00081E090E00BC083B190E073E09695879516
:1020F0007A95E1F780959095817090708387089527
:10210000ACE0B0E0E6E8F0E10C94831169837A83F7
:102110008B839C83CE010196BE016B5F7F4F0E9433
:10212000D4108D81823061F1823050F1843021F4FD
:102130008E81882351F12EC02F81388537FD20C034
:102140006E812F3131051CF06623F9F023C08EE13A
:1021500090E0821B930B29853A854B855C8504C0F2
:1021600056954795379527958A95D2F76623B1F00E
:1021700050954095309521953F4F4F4F5F4F0EC082
:1021800020E030E040E050E009C02FEF3FEF4FEF9C
:102190005FE704C020E030E040E050E8B901CA0148
:1021A0002C96E2E00C949F11FC01DB0140815181EF
:1021B0002281622F6F7770E0221F2227221F9381D6
:1021C000892F880F822B282F30E0991F9927991F7C
:1021D00011969C93119721153105A9F541155105CB
:1021E0006105710511F482E037C082E89FEF139614
:1021F0009C938E9312979A01AB0167E0220F331FD5
:10220000441F551F6A95D1F783E08C930DC0220FB0
:10221000331F441F551F12968D919C911397019760
:1022200013969C938E931297203080E0380780E0BD
:10223000480780E4580758F314962D933D934D9327
:102240005C93179708952F3F310579F44115510597
:102250006105710519F484E08C93089564FF03C04F
:1022600081E08C9312C01C9210C02F5730401396FF
:102270003C932E93129783E08C9387E0440F551F75
:10228000661F771F8A95D1F7706414964D935D93FE
:102290006D937C931797089597FB092E07260AD014
:1022A00077FD04D00CD006D000201AF4709561950B
:1022B0007F4F0895F6F7909581959F4F0895AA1B3B
:1022C000BB1B51E107C0AA1FBB1FA617B70710F021
:1022D000A61BB70B881F991F5A95A9F78095909553
:1022E000BC01CD0108952F923F924F925F926F9261
:1022F0007F928F929F92AF92BF92CF92DF92EF9296
:10230000FF920F931F93CF93DF93CDB7DEB7CA1B16
:10231000DB0B0FB6F894DEBF0FBECDBF09942A8841
:10232000398848885F846E847D848C849B84AA84E9
:10233000B984C884DF80EE80FD800C811B81AA8176
:10234000B981CE0FD11D0FB6F894DEBF0FBECDBF41
:08235000ED010895F894FFCFA0
:102358001C2E25262728292A2B2C2D0B0C0D0E0F79
:10236800101112131415161718191A1B1C1D1E1FED
:10237800202122232425262728292A2B2C2D2E1BF1
:102388000B191A2925530F1C0E100D131514162A94
:10239800261211180C231E211D0B0E2925100F1CA7
:1023A8000E100D131514162A261211180C231E01CF
:1023B80002030429254F50535424221C100E112ABD
:1023C800260B1D1B210F1E0048504B4D5247494BF1
:1023D8004F511E302E201221222317242526323158
:1023E800181910131F14162F112D152C020304058C
:1023F800060708090A0B3B3C3D3E3F404142434427
:1024080057584F50514B4C4D4748495235374A4E13
:102418001C5345010E341D38461C392A363A290FFB
:102428000D33270075726B74706C7D71697A1C327C
:102438002123242B3433433B424B3A31444D152D51
:102448001B2C3C2A1D22351A161E26252E363D3EEB
:1024580046450506040C030B830A010978076972CF
:102468007A6B73746C757D704A7C7B795A71777658
:10247800664914117E5A291259580E0D55414C00BF
:00000001FF
