:100000000C9434000C9451000C9451000C94510049
:100010000C9451000C9451000C9451000C9451001C
:100020000C9451000C9451000C9451000C9451000C
:100030000C9451000C9451000C9451000C945100FC
:100040000C9451000C9451000C9451000C945100EC
:100050000C9451000C9451000C9451000C945100DC
:100060000C9451000C94510011241FBECFEFD4E02A
:10007000DEBFCDBF11E0A0E0B1E0E2EBFBE002C0EB
:1000800005900D92A038B107D9F711E0A0E8B1E0D2
:1000900001C01D92AD38B107E1F70E9447020C94F0
:1000A000D7050C940000382F662361F027B181E05A
:1000B00090E002C0880F991F3A95E2F7809582235D
:1000C00087B9089527B181E090E002C0880F991F99
:1000D0003A95E2F7282B27B908954398429883E090
:1000E00061E00E94530082E061E00E9453000895A5
:1000F000329902C081E0089586B1869586958695ED
:10010000809581700895DF92EF92FF920F931F9375
:10011000CF93DF93F82E0E947800882309F079C0EE
:1001200083E060E00E9453001AE6812F8A95F1F780
:1001300082E060E00E94530085ED8A95F1F782E04D
:1001400061E00E9453001A95F1F711E000E09AE691
:10015000E92E85EDD82E8F2D90E0EC01C170D07086
:10016000F0FE03C083E061E002C083E060E00E9433
:1001700053008E2D8A95F1F782E060E00E945300D3
:100180008D2D8A95F1F782E061E00E9453008E2D5B
:100190008A95F1F7CD2B29F080E0112309F481E055
:1001A000182F0F5F083011F0F694D5CF112319F0F6
:1001B00083E061E002C083E060E00E9453001AE641
:1001C000812F8A95F1F782E060E00E94530005EDEF
:1001D000802F8A95F1F782E061E00E945300812F21
:1001E0008A95F1F783E061E00E945300812F8A95A0
:1001F000F1F782E060E00E9453000A95F1F782E097
:1002000061E00E9453001A95F1F780E197E20197AF
:10021000F1F7DF91CF911F910F91FF90EF90DF9059
:1002200008951F93CF93DF93182FEB01823791F03E
:10023000833740F4893671F0893678F08B568230F6
:1002400060F408C0843748F0863720F08A3711F010
:100250008D3719F480EE0E948300112341F0CD2BDD
:1002600019F080EF0E948300812F0E948300DF91AC
:10027000CF911F9108951F93E82FF0E0E050FF4FBA
:100280001081812F60E070E00E94110188EE93E000
:1002900020E931E0F9013197F1F70197D9F7812F82
:1002A00061E070E00E9411011F9108958CE40E94AA
:1002B0003B018FE40E943B0181E40E943B0184E406
:1002C0000E943B0189E50E94830082E30E943B017A
:1002D00088EE93E020E931E0F9013197F1F70197D9
:1002E000D9F782E30E943B0180EF0E94830089E5F9
:1002F0000E9483008DE00E943B0108958AE40E94E1
:100300003B0189E50E94830082E30E943B0188EE65
:1003100093E020E931E0F9013197F1F70197D9F73E
:1003200082E30E943B0180EF0E94830089E50E94E6
:1003300083008DE00E943B01089584E10E948300C8
:1003400081E10E94830084E70E943B0180EF0E94CC
:10035000830081E10E94830080EF0E94830084E19A
:100360000E94830085E780938A0182E78093890158
:100370008BE68093820184E78093870180ED97E08C
:1003800020E931E0F9013197F1F70197D9F70895A4
:1003900084E10E94830081E10E9483008EE20E943A
:1003A0003B0180EF0E94830081E10E94830080EF87
:1003B0000E94830084E10E94830085E780938A0184
:1003C00082E7809389018BE68093820184E78093A2
:1003D0008701089584E10E94830081E10E948300E7
:1003E00088E00E943B0180EF0E94830081E10E942F
:1003F000830080EF0E94830084E10E94830085E7F0
:1004000080938A0182E7809389018BE68093820141
:1004100084E78093870180ED97E020E931E0F901DE
:100420003197F1F70197D9F7089580918A018537BF
:1004300011F085E701C085E180938A0180918901EF
:10044000823711F082E701C08CE1809389018091AD
:1004500082018B3611F08BE601C084E48093820127
:1004600080918701843711F084E701C08DE4809387
:100470008701089585E780938A0182E78093890147
:100480008BE68093820184E7809387010895CF9360
:10049000DF9380E880936100109261000E946D00FC
:1004A0001092880185E780938A0182E78093890111
:1004B0008BE68093820184E7809387018FEF89B96F
:1004C00083B18F6183B91AB884B1807E84B98FEF0C
:1004D0009FEF9093840180938301E09188012091A4
:1004E00083013091840101C09B0183B199B1D82F60
:1004F000C0E0BE01690F711D706EA9014627572724
:100500004115510591F38FEF6F3F7807F1F4FFEE3E
:100510002F3F3F0709F0AFC05093860140938501FC
:1005200070938101609380017093840160938301D3
:1005300030938C0120938B01E33018F010928801E6
:1005400033C3EF5FE09388012FC38FEE6F3E7807D0
:1005500009F5FFEE2F3F3F0709F041C05093860198
:1005600040938501709381016093800170938401B1
:100570006093830130938C0120938B01109288014A
:1005800080ED97E020E931E0F9013197F1F701972B
:10059000D9F70AC38FEE6F3D780709F5FFEE2F3FBD
:1005A0003F07E9F4509386014093850170938101E0
:1005B00060938001709384016093830130938C0178
:1005C00020938B0181E08093880180ED97E020E902
:1005D00031E0F9013197F1F70197D9F7E5C28FEED4
:1005E0006F3B780711F5FFEE2F3F3F0709F043C03F
:1005F000509386014093850170938101609380013F
:10060000709384016093830130938C0120938B015C
:1006100082E08093880180ED97E020E931E0F901E4
:100620003197F1F70197D9F7BFC28FEE6F3778078F
:1006300011F5FFEE2F3F3F0709F043C050938601AD
:1006400040938501709381016093800170938401D0
:100650006093830130938C0120938B0183E080931E
:10066000880180ED97E020E931E0F9013197F1F759
:100670000197D9F799C28DEF6F3E780711F5FDEF1D
:100680002F3F3F0709F043C05093860140938501F7
:100690007093810160938001709384016093830162
:1006A00030938C0120938B0181E30E943B0180ED0C
:1006B00097E020E931E0F9013197F1F70197D9F797
:1006C00073C28DEF6F3D780711F5FDEF2F3F3F07A8
:1006D00009F043C0509386014093850170938101D6
:1006E00060938001709384016093830130938C0147
:1006F00020938B0182E30E943B0180ED97E020E98B
:1007000031E0F9013197F1F70197D9F74DC28DEF3B
:100710006F3B780711F5FDEF2F3F3F0709F043C00E
:10072000509386014093850170938101609380010D
:10073000709384016093830130938C0120938B012B
:1007400083E30E943B0180ED97E020E931E0F9016D
:100750003197F1F70197D9F727C28DEF6F377807F7
:1007600011F5FDEF2F3F3F0709F042C0509386017E
:10077000409385017093810160938001709384019F
:100780006093830130938C0120938B0184E30E945A
:100790003B0180ED97E020E931E0F9013197F1F775
:1007A0000197D9F701C28CEF6F3F780709F5FDEF8C
:1007B0002F3F3F0709F042C05093860140938501C7
:1007C0007093810160938001709384016093830131
:1007D00030938C0120938B010E94150280ED97E0ED
:1007E00020E931E0F9013197F1F70197D9F7DCC140
:1007F0008DEF673F780711F5FDEF2F3F3F0709F0B9
:1008000043C05093860140938501709381016093AA
:100810008001709384016093830130938C01209355
:100820008B0181E70E943B0180ED97E020E931E0F8
:10083000F9013197F1F70197D9F7B6C18DEF6B3F09
:10084000780711F5FDEF2F3F3F0709F042C05093A5
:1008500086014093850170938101609380017093BC
:1008600084016093830130938C0120938B0184E198
:100870000E943B0180ED97E020E931E0F9013197DA
:10088000F1F70197D9F790C18DEF6E3F780709F521
:10089000FDEF2F3F3F0709F041C050938601409381
:1008A000850170938101609380017093840160934E
:1008B000830130938C0120938B010E94C80180ED4D
:1008C00097E020E931E0F9013197F1F70197D9F785
:1008D0006BC18DEF6D3F780709F5FDEF2F3F3F07A7
:1008E00009F041C0509386014093850170938101C6
:1008F00060938001709384016093830130938C0135
:1009000020938B010E94EA0180ED97E020E931E01D
:10091000F9013197F1F70197D9F746C18EEF6B3F97
:10092000780709F5FEEF2F3F3F0709F041C05093CC
:1009300086014093850170938101609380017093DB
:1009400084016093830130938C0120938B010E947A
:10095000560180ED97E020E931E0F9013197F1F798
:100960000197D9F721C18EEF673F780709F5FEEFB0
:100970002F3F3F0709F040C0509386014093850107
:10098000709381016093800170938401609383016F
:1009900030938C0120938B010E947E0180ED97E0C3
:1009A00020E931E0F9013197F1F70197D9F7FCC05F
:1009B0008EEF6F3E780701F5FEEF2F3F3F07E1F422
:1009C000509386014093850170938101609380016B
:1009D000709384016093830130938C0120938B0189
:1009E0000E949D0180ED97E020E931E0F901319707
:1009F000F1F70197D9F7D8C0EE2309F075CD8FEF45
:100A00006F3F780771F5FEEF2F3F3F0791F450934A
:100A100086014093850170938101609380017093FA
:100A200084016093830130938C0120938B018DE0CE
:100A300015C08DEF2F3F3807A1F4509386014093E6
:100A400085017093810160938001709384016093AC
:100A5000830130938C0120938B018BE10E943B0139
:100A6000A3C0CB01807093708050934009F03CCDBF
:100A7000C901807093708050934009F035CD409348
:100A8000850150938601709381016093800170937A
:100A900084016093830130938C0120938B0140FF8C
:100AA00006C06170707080918A010E94110180916E
:100AB000850181FF0AC0609180017091810162709F
:100AC0007070809189010E9411018091850182FFDF
:100AD0000AC0609180017091810164707070809192
:100AE00082010E9411018091850183FF0AC06091FB
:100AF00080017091810168707070809187010E94FF
:100B000011018091850184FF09C06091800170917D
:100B100081016071707089E20E94110180918501EC
:100B200085FF09C0609180017091810160727070D1
:100B30008AE20E9411018091850186FF09C06091BF
:100B40008001709181016074707082E30E941101D4
:100B50008091850187FF09C06091800170918101BA
:100B60006078707081E30E941101809185019091FD
:100B7000860192FF09C060918001709181016070CF
:100B8000747084E30E941101809185019091860127
:100B900093FFA3CC609180017091810160707870A7
:100BA00083E30E94110199CCDF91CF910895F894CD
:020BB000FFCF75
:100BB2000000000000000000660D0000005A000066
:100BC200121411005800000000000076000000001E
:100BD200297D7A696C6B7574720000000070714A2D
:100BE20045161E26252E363D3E4649414A4C4E0E9E
:100BF200521C322123242B3433433B424B3A31449F
:100C02004D152D1B2C3C2A1D22351A545B55000014
:100C12007069727A6B73746C757D7C795A7B714AD8
:100C22000506040C030B830A010978070000000083
:00000001FF
