:100000000C9434000C9451000C9451000C94510049
:100010000C9451000C9451000C9451000C9451001C
:100020000C9451000C9451000C9451000C9451000C
:100030000C9451000C9451000C9451000C945100FC
:100040000C9451000C9451000C9451000C945100EC
:100050000C9451000C9451000C9451000C945100DC
:100060000C9451000C94510011241FBECFEFD4E02A
:10007000DEBFCDBF12E0A0E0B1E0E0E5F6E202C0F5
:1000800005900D92A033B107D9F713E0A0E3B2E0D9
:1000900001C01D92AE3DB107E1F70E9469010C94C9
:1000A00026130C94000090913002992371F08091F6
:1000B0003102882351F081E08093340280936402FE
:1000C000109230021092310228C08091640288237D
:1000D00021F01092340210926402992319F480E006
:1000E00090E008C090E080914102811191E081E0B0
:1000F0009827892F8093300280913102882319F448
:1001000080E090E008C090E080914102811191E090
:1001100081E09827892F80933102909132029923B0
:1001200071F080913302882351F081E08093350291
:1001300080936502109232021092330208958091EA
:100140006502882321F010923502109265029923EE
:1001500019F480E090E008C090E0809142028111A3
:1001600091E081E09827892F8093320280913302B9
:10017000882319F480E090E008C090E0809142026A
:10018000811191E081E09827892F809333020895AF
:1001900090914A02992371F080914B02882351F08B
:1001A00081E080934E028093660210924A02109280
:1001B0004B0228C080916602882321F010924E02E3
:1001C00010926602992319F480E090E008C090E054
:1001D00080915B02811191E081E09827892F8093C3
:1001E0004A0280914B02882319F480E090E008C015
:1001F00090E080915B02811191E081E09827892F46
:1002000080934B0290914C02992371F080914D02A2
:10021000882351F081E080934F028093670210920F
:100220004C0210924D02089580916702882321F0BC
:1002300010924F0210926702992319F480E090E027
:1002400008C090E080915C02811191E081E09827E4
:10025000892F80934C0280914D02882319F480E00D
:1002600090E008C090E080915C02811191E081E013
:100270009827892F80934D0208951F93182F8091FE
:10028000680290916902892B81F4812F40E050E04F
:1002900060E070E02091B0020E944F0C81E090E09D
:1002A000909369028093680212C08DE440E050E0B0
:1002B00060E070E02091B0020E944F0C812F40E07E
:1002C00050E060E070E02091B0020E944F0C1F915E
:1002D00008952F923F924F925F926F927F928F92EA
:1002E0009F92AF92BF92CF92DF92EF92FF920F93C5
:1002F0001F93DF93CF9300D000D0CDB7DEB710921D
:10030000AF021092C8031092D1031092D003109242
:1003100069021092680284E08093C7030E9440093A
:100320000E94E00810926402109265021092660228
:10033000109267023C983D98449A459A8FEF89B98C
:1003400083B18F6183B91AB884B1807E84B9389A39
:10035000399A409A419A10926C0282E08093B002DE
:10036000259A2D9A8091D10390E00E94970E80915A
:10037000D00390E00E94D00E0E94720C8091AF02D8
:10038000882319F01A8219821AC04A9B06C04B9B17
:1003900004C00E948C118A8301C01A824F9B06C040
:1003A0001A9B04C00E94E611898301C019820E9431
:1003B0008C118823E1F70E94E6118823E1F710E011
:1003C00088248A94982CEE24EA94FE2CCC24CA9497
:1003D000DC2CAA24AA94BA2C53E2652E712C442456
:1003E000552440E9242E41E0342E01C010E08091D4
:1003F000C803812B09F445C00E944B09882309F4E6
:1004000040C038C080916C028093B9038CE692E0C2
:100410000E946E09892B71F580916C028E3E09F065
:100420008AEF0E94950A90916C02923099F0933075
:1004300028F4992341F09130E9F40CC0923F91F0F7
:100440009F3FC1F414C08091B903803F99F480911B
:10045000B0020EC08091B903803F61F49093B00266
:1004600010E008C08BEA0E94950A83E801C08AEA7E
:100470000E94950A88EE93E00E945909892B11F693
:1004800002C00E94BE0B8091300280933D02809199
:100490004A02809357028091310280933E028091FC
:1004A0004B02809358028091320280933F028091E8
:1004B0004C028093590280913302809340028091D4
:1004C0004D0280935A0280913402809341028091C0
:1004D0004E0280935B021092340280913502809329
:1004E000420280914F0280935C021092350280910B
:1004F0003602809343028091500280935D02809186
:100500003702809344028091510280935E02809171
:100510003802809345028091520280935F021092CC
:100520003802809139028093460280915302809371
:1005300060021092390280913A02809347028091C2
:1005400054028093610210923A0280913B028093A0
:100550004802809155028093620210923B02809182
:100560003C028093490280E49CE90197F1F7809175
:10057000AF02882349F080E392E00E94090F80E3F4
:1005800092E00E94E4101CC02A81222329F080E31B
:1005900092E00E945A1106C080E392E00E94090F87
:1005A0000E9453003981332329F08AE492E00E94AB
:1005B000B41106C08AE492E00E940B100E94C800A9
:1005C00083B190E034E0969587953A95E1F7E1E0C4
:1005D000F0E08E279F27282F217020933C029091D6
:1005E0003502992321F080913602882371F480919D
:1005F0003402882311F0992341F480914902882321
:1006000009F4B4C0222309F0B1C080E0112309F439
:1006100081E0182F882309F073C0109241021092D4
:100620004202109243028091AF02882309F068C011
:1006300080914902882309F463C080913C02882399
:1006400009F05EC04A9B05C04B9B03C00E948C1101
:100650008A834F9B05C01A9B03C00E94E6118983C1
:100660000E948C118823E1F70E94E6118823E1F7AC
:1006700047C0109238021092390210923A0210923A
:100680003B02109234021092350280E49CE90197FB
:10069000F1F78091AF02882349F080E392E00E9455
:1006A000090F80E392E00E94E4101CC0FA81FF234E
:1006B00029F080E392E00E945A1106C080E392E0A4
:1006C0000E94090F0E9453002981222329F08AE405
:1006D00092E00E94B41106C08AE492E00E940B10DE
:1006E0000E94C80083B190E024E0969587952A95F2
:1006F000E1F7E1E0F0E08E279F27817080933C02D4
:1007000080913402882309F0B4CF80913502882388
:1007100009F0AFCF80913602882309F0AACF8091EB
:100720003002882309F0A5CF80913102882309F097
:10073000A0CF80913202882309F09BCF80913302B1
:10074000882309F096CF80ED97E0F1013197F1F71A
:100750000197D9F788248A94982CEE24EA94FE2CE9
:10076000CC24CA94DC2CAA24AA94BA2C112309F410
:1007700004C280913502882391F180913D02882343
:10078000A9F080913002882389F48091C7038230D8
:1007900018F081508093C70310923D0280ED97E0DE
:1007A000F1013197F1F70197D9F721CE80913E02FF
:1007B0008823A9F080913102882389F48091C703AE
:1007C000843018F48F5F8093C70310923E0280ED4F
:1007D00097E0F1013197F1F70197D9F708CE8091B1
:1007E0003D028823B9F080913002882399F480E09B
:1007F00090E0FAE08F16910414F481E090E0880E06
:10080000991EEE24EA94FE2CCC24CA94DC2CAA2453
:10081000AA94BA2C80913E028823B9F080913102CB
:10082000882399F480E090E024E0E216F10414F4C7
:1008300081E090E0E80EF91E88248A94982CCC245C
:10084000CA94DC2CAA24AA94BA2C80914002882352
:10085000B9F080913302882399F480E090E032E08F
:10086000C316D10414F481E090E0C80ED91E882488
:100870008A94982CEE24EA94FE2CAA24AA94BA2CEA
:1008800080913F028823B9F080913202882399F445
:1008900080E090E0E3E0AE16B10414F481E090E073
:1008A000A80EB91E88248A94982CEE24EA94FE2C73
:1008B000CC24CA94DC2C80915D02882341F1809184
:1008C0005002882321F580ED97E0F1013197F1F78F
:1008D0000197D9F71092500210925D02FFEFAF1608
:1008E000FFEFBF0699F022E0A216B10479F48091DF
:1008F000D003833020F48F5F8093D00302C0109226
:10090000D0038091D00390E00E94D00E10E080913F
:1009100036028823E1F0809137028823C1F088E80D
:1009200093E1F1013197F1F70197D9F7109236026F
:1009300010923702109243021092440290E080918C
:10094000AF02882309F491E09093AF0210E0809108
:100950003602882309F1809132028823E9F088E881
:1009600093E1F1013197F1F70197D9F78091B00246
:10097000823021F431E03093B00203C082E08093F2
:10098000B00210923602109232021092430210927C
:100990003F021092C80310E0809136028823B9F01C
:1009A00080913302882399F088E893E1F10131972F
:1009B000F1F70197D9F71092360210923302109294
:1009C00043021092400291E09093C80310E080919E
:1009D0004302882309F4DDC280913602882309F09E
:1009E000D8C280ED97E0F1013197F1F70197D9F77F
:1009F0001092360210924302EFEF8E16EFEF9E0632
:100A000099F4FFEFEF16FFEFFF0671F42FEFC21618
:100A10002FEFD20671F43FEFA3163FEFB30609F0B4
:100A200075C00E94360E72C08FEFC8168FEFD806C1
:100A3000D9F0C114D10429F48091B0020E94270D8D
:100A4000D5CC91E0C916D10429F48091B0020E945E
:100A5000850CCCCCE2E0CE16D10409F0C7CC809155
:100A6000B0020E94E20CC2CCFFEF8F16FFEF9F0690
:100A700069F0F401E050FF4F808140E050E068E40D
:100A800073E42091B0020E944F0CB0CC2FEFE2161D
:100A90002FEFF206D9F11092D1031092D00380E02B
:100AA00090E00E94970E8091D00390E00E94D00EBB
:100AB00034E03093C7031092C803E114F10429F421
:100AC0008091B0020E94790D15C081E0E816F10412
:100AD00019F480E090E015C092E0E916F10419F4F1
:100AE00081E090E00EC0E3E0EE16F10419F482E03C
:100AF00090E007C0F4E0EF16F10409F077CC83E052
:100B000090E06091B0020E94CB0D70CC2FEFA21646
:100B10002FEFB20609F433C2A114B10429F41092E4
:100B20006902109268022BC231E0A316B10411F4DD
:100B30008CE41AC082E0A816B10481F48091D1033C
:100B4000833020F48F5F8093D10302C01092D103D1
:100B50008091D10390E00E94970E11C293E0A916F4
:100B6000B10409F00CC281E540E050E060E070E0C3
:100B70002091B0020E944F0C02C2A114B10409F0EE
:100B8000FDC080914302882309F453C0809136024E
:100B9000882309F04EC08091680290916902892BE8
:100BA00009F447C080E090E0452811F481E090E02E
:100BB0002C018DE440E050E060E070E02091B00254
:100BC0000E944F0CF301E55FFE4FFC83EB83411461
:100BD000510411F185E560E070E020E030E040E094
:100BE00050E00091B0020E94FB0BEB81FC81808100
:100BF00040E050E060E070E02091B0020E944F0CB5
:100C000085E561E070E020E030E040E050E00091F8
:100C1000B0020E94FB0B0BC0EB81FC81808140E0A5
:100C200050E060E070E02091B0020E944F0C0E9402
:100C3000BE0B809130028823C1F080913602882358
:100C4000A1F4F3E26F16710419F46624772403C04B
:100C50000894611C711CF301E55FFE4F80810E94C6
:100C60003D010E94BE0B442455248091310288230B
:100C7000C1F0809136028823A1F41614170424F0E1
:100C800083E2682E712C03C0089461087108F30197
:100C9000E55FFE4F80810E943D010E94BE0B44240F
:100CA000552480913302882359F180914002882392
:100CB00039F580913602882359F085E561E070E0CE
:100CC00020E030E040E050E00091B0020E94FB0BD9
:100CD0008091680290916902892B29F01092690233
:100CE0001092680209C083E540E050E060E070E0E7
:100CF0002091B0020E944F0C0E94BE0B4424552448
:100D0000809132028823C9F080913F028823A9F4A0
:100D100080913602882389F4109269021092680249
:100D20008DE440E050E060E070E02091B0020E946D
:100D30004F0C0E94BE0B4424552480913702882317
:100D400009F427C180914402882309F022C18091CF
:100D50003602882309F01DC11092690210926802C0
:100D600082E540E050E060E070E02091B0020E9437
:100D70004F0C0E94BE0B442455240BC190913002AD
:100D800080913D02981781F060E070E0992311F4A2
:100D900061E070E08091BA0320E030E040E050E094
:100DA0000091B0020E94FB0B9091310280913E02B3
:100DB000981781F060E070E0992311F461E070E031
:100DC0008091BB0320E030E040E050E00091B002B1
:100DD0000E94FB0B9091320280913F02981781F0A4
:100DE00060E070E0992311F461E070E08091BC0351
:100DF00020E030E040E050E00091B0020E94FB0BA8
:100E00009091330280914002981781F060E070E089
:100E1000992311F461E070E08091BD0320E030E09F
:100E200040E050E00091B0020E94FB0B9091340230
:100E300080914102981761F0992351F48091BE038B
:100E400040E050E068E473E42091B0020E944F0C4F
:100E50009091350280914202981761F0992351F4E4
:100E60008091BF0340E050E068E473E42091B00259
:100E70000E944F0C9091360280914302981781F0A6
:100E800060E070E0992311F461E070E08091C003AC
:100E900020E030E040E050E00091B0020E94FB0B07
:100EA0009091370280914402981781F060E070E0E1
:100EB000992311F461E070E08091C10320E030E0FB
:100EC00040E050E00091B0020E94FB0B909138028C
:100ED00080914502981781F060E070E0992311F449
:100EE00061E070E08091C20320E030E040E050E03B
:100EF0000091B0020E94FB0B909139028091460252
:100F0000981781F060E070E0992311F461E070E0DF
:100F10008091C30320E030E040E050E00091B00257
:100F20000E94FB0B90913A0280914702981781F042
:100F300060E070E0992311F461E070E08091C403F7
:100F400020E030E040E050E00091B0020E94FB0B56
:100F500090913B02809148029817D9F060E070E0D0
:100F6000992311F461E070E08091C50320E030E046
:100F700040E050E00091B0020E94FB0B0AC010E07C
:100F800088248A94982CEE24EA94FE2CCC24CA94CB
:100F9000DC2C90914A0280915702981781F060E012
:100FA00070E0992311F461E070E08091D20320E0B9
:100FB00030E040E050E00091B0020E94FB0B9091C5
:100FC0004B0280915802981781F060E070E09923FD
:100FD00011F461E070E08091D30320E030E040E064
:100FE00050E00091B0020E94FB0B90914C02809166
:100FF0005902981781F060E070E0992311F461E0E4
:1010000070E08091D40320E030E040E050E00091B7
:10101000B0020E94FB0B90914D0280915A029817EA
:1010200081F060E070E0992311F461E070E080915C
:10103000D50320E030E040E050E00091B0020E9493
:10104000FB0B90914E0280915B02981761F09923FF
:1010500051F48091D60340E050E068E473E42091BD
:10106000B0020E944F0C90914F0280915C02981741
:1010700061F0992351F48091D70340E050E068E497
:1010800073E42091B0020E944F0C90915002809125
:101090005D02981781F060E070E0992311F461E03F
:1010A00070E08091D80320E030E040E050E0009113
:1010B000B0020E94FB0B9091510280915E02981742
:1010C00081F060E070E0992311F461E070E08091BC
:1010D000D90320E030E040E050E00091B0020E94EF
:1010E000FB0B9091520280915F02981781F060E0B3
:1010F00070E0992311F461E070E08091DA0320E060
:1011000030E040E050E00091B0020E94FB0B909173
:10111000530280916002981781F060E070E099239B
:1011200011F461E070E08091DB0320E030E040E00A
:1011300050E00091B0020E94FB0B9091540280910C
:101140006102981781F060E070E0992311F461E08A
:1011500070E08091DC0320E030E040E050E000915E
:10116000B0020E94FB0B9091550280916202981789
:1011700009F43DC960E070E0992311F461E070E08A
:101180008091DD0320E030E040E050E00091B002CB
:101190000E94FB0B2CC920E43CE904C0F901319703
:1011A000F1F70A9718161906CCF3089535E104C033
:1011B000232F2A95F1F7049718161906CCF30895F2
:1011C0001092CD031092CE0308952091CE0330E00B
:1011D000F901E359FD4F8083F901EE0FFF1FEE0F78
:1011E000FF1FEF54FD4F4083518362837383C90116
:1011F000029662E470E00E94C8128093CE030895C4
:10120000DC018091CD03EDE6F2E0E80FF11D808175
:101210008C93E091CD03F0E0EE0FFF1FEE0FFF1F68
:10122000EF54FD4F80819181A281B381FB018083C6
:101230009183A283B3838091CD0390E0029662E410
:1012400070E00E94C8128093CD030895382F662362
:1012500061F027B181E090E002C0880F991F3A95B4
:10126000E2F78095822387B9089527B181E090E065
:1012700002C0880F991F3A95E2F7282B27B90895E5
:101280004398429883E061E00E94260982E061E091
:101290000E9426090895329902C081E0089586B11E
:1012A0008695869586958095817008950E94E508BB
:1012B000089520E030E05AE10AC02F5F3F4F339994
:1012C00003C021E030E008C0452F4A95F1F7281708
:1012D00039079CF320E030E0C9010895AF92BF9236
:1012E000CF92DF92EF92FF920F931F93CF93DF93F2
:1012F0005C013399FECF329BFECF8091C70390E013
:10130000880F991F880F991F35E104C0232F2A9554
:10131000F1F7049718161906CCF382E060E00E94FA
:1013200026098091C70390E003E0880F991F0A9572
:10133000E1F735E104C0232F2A95F1F70497181639
:101340001906CCF382E061E00E9426098091C70370
:1013500090E0880F991F880F991F35E104C0232F53
:101360002A95F1F7049718161906CCF3FF2411E01B
:10137000C0E0D0E0B1E0CB2ED12CEE24E39405E127
:10138000339B09C0C6010C2E02C0880F991F0A9416
:10139000E2F7F82A1E258091C70390E0880F991F75
:1013A000880F991F04C0202F2A95F1F7049718166B
:1013B0001906CCF382E060E00E9426098091C70301
:1013C00090E0F3E0880F991FFA95E1F704C0202F11
:1013D0002A95F1F7049718161906CCF382E061E01C
:1013E0000E9426094091C703842F90E0880F991F1F
:1013F000880F991F04C0202F2A95F1F7049718161B
:101400001906CCF32196C830D10509F0B9CF86B1C1
:1014100090E073E0969587957A95E1F781709070EA
:10142000212F30E08217930719F02FEF3FEF71C0A3
:10143000842F90E0880F991F880F991F35E104C011
:10144000232F2A95F1F7049718161906CCF382E09A
:1014500060E00E9426098091C70390E053E0880F66
:10146000991F5A95E1F735E104C0232F2A95F1F72A
:10147000049718161906CCF382E061E00E94260951
:101480008091C70390E0880F991F880F991F35E15D
:1014900004C0232F2A95F1F7049718161906CCF3E8
:1014A00083E060E00E9426098091C70390E0880FE6
:1014B000991F880F991F35E104C0232F2A95F1F752
:1014C000049718161906CCF382E060E00E94260902
:1014D0008091C70390E023E0880F991F2A95E1F7D8
:1014E00035E104C0232F2A95F1F704971816190641
:1014F000CCF382E061E00E94260983E061E00E9473
:10150000260980E991E00197F1F7F501F08220E0EA
:1015100030E0C901DF91CF911F910F91FF90EF90C3
:10152000DF90CF90BF90AF900895EF92FF920F930E
:101530001F93CF93DF93082F0E944B098823E1F775
:101540002D9883E060E00E9426098091C70390E017
:10155000880F991F880F991F35E104C0232F2A9502
:10156000F1F7049718161906CCF382E060E00E94A8
:1015700026098091C70390E023E0880F991F2A95E0
:10158000E1F735E104C0232F2A95F1F704971816E7
:101590001906CCF382E061E00E9426098091C7031E
:1015A00090E0880F991F880F991F35E104C0232F01
:1015B0002A95F1F7049718161906CCF311E0C0E04C
:1015C000D0E0E02EFF2405E1C7010C2E02C0959566
:1015D00087950A94E2F780FF07C083E061E00E94EC
:1015E000260981E0182704C083E060E00E942609F4
:1015F0008091C70390E0880F991F880F991F04C03E
:10160000202F2A95F1F7049718161906CCF382E0DB
:1016100060E00E9426098091C70390E0A3E0880F54
:10162000991FAA95E1F704C0202F2A95F1F7049796
:1016300018161906CCF382E061E00E942609809119
:10164000C70390E0880F991F880F991F04C0202FAF
:101650002A95F1F7049718161906CCF32196C8308D
:10166000D10509F0B1CF112319F083E061E002C088
:1016700083E060E00E9426098091C70390E0880F14
:10168000991F880F991F35E104C0232F2A95F1F780
:10169000049718161906CCF382E060E00E94260930
:1016A0008091C70390E073E0880F991F7A95E1F766
:1016B00035E104C0232F2A95F1F70497181619066F
:1016C000CCF382E061E00E9426098091C70390E09C
:1016D000880F991F880F991F35E104C0232F2A9581
:1016E000F1F7049718161906CCF383E061E00E9425
:1016F00026098091C70390E0880F991F880F991FD2
:1017000035E104C0232F2A95F1F70497181619061E
:10171000CCF382E060E00E9426098091C70390E04C
:1017200043E0880F991F4A95E1F735E104C0232F64
:101730002A95F1F7049718161906CCF382E061E0B8
:101740000E9426098091C70390E0880F991F880F97
:10175000991F35E104C0232F2A95F1F70497181635
:101760001906CCF388EC90E00197F1F72D9ADF9100
:10177000CF911F910F91FF90EF90089531C00E947B
:101780004B09882369F508C00E94950A9091CE0301
:101790008091CD03981771F18FEC93E069EC73E0C1
:1017A0000E9400098091CF03803E71F3803F61F376
:1017B0000E94950A6091C9037091CA038091CB037E
:1017C0009091CC030E94FC1180E49CE905C0FC01CF
:1017D0003197F1F76A50704016161706C4F3089552
:1017E0009091CE038091CD03981721F00E944B0970
:1017F000882329F20895CF92DF92EF92FF920F9300
:101800001F93CF93DF93182FEB0169017A01853481
:1018100041F0863420F481508A3050F402C089347B
:1018200039F480EE40E050E060E070E00E94E508AE
:10183000112361F1CD2B49F0013099F4E12FF0E053
:10184000E958FE4F808180581DC00130A1F4E12F7E
:10185000F0E0E958FE4F808140E050E060E070E049
:1018600013C0023099F480EF40E050E060E070E097
:101870000E94E50802C0023049F4E12FF0E0ED5289
:10188000FE4F8081B701A6010E94E508DF91CF914C
:101890001F910F91FF90EF90DF90CF900895BF922E
:1018A000CF92DF92EF92FF920F931F93182F6A014E
:1018B0007B01B22E60E070E020E030E048EC52E4C2
:1018C0000B2D0E94FB0B812F61E070E0A7019601B8
:1018D0000E94FB0B1F910F91FF90EF90DF90CF9034
:1018E000BF90089581E08093BA0382E08093BB03A8
:1018F00083E08093BC0384E08093BD0382E5809302
:10190000C0038CE48093C10308951F93182F86E1D0
:1019100040E050E060E070E0212F0E944F0C89E130
:1019200040E050E060E070E0212F0E944F0C8BE01F
:1019300040E050E060E070E0212F0E944F0C8EE00C
:1019400040E050E060E070E0212F0E944F0C113029
:1019500011F486E303C0123039F489E540E050E029
:1019600060E070E00E94E50886E240E050E068EC4C
:1019700072E4212F0E944F0C86E240E050E060E0CC
:1019800070E0212F0E944F0C113011F489ED0AC034
:10199000123071F480EF40E050E060E070E00E94AF
:1019A000E50889E540E050E060E070E00E94E5086D
:1019B00082E540E050E060E070E0212F0E944F0C93
:1019C0001F9108951F93182F84E140E050E060E0DC
:1019D00070E0212F0E944F0C113011F486E303C0F8
:1019E000123039F489E540E050E060E070E00E9498
:1019F000E50886E240E050E068EC72E4212F0E94A6
:101A00004F0C86E240E050E060E070E0212F0E9441
:101A10004F0C113011F489ED0AC0123071F480EFCF
:101A200040E050E060E070E00E94E50889E540E0B9
:101A300050E060E070E00E94E50882E540E050E0A0
:101A400060E070E0212F0E944F0C1F9108951F93BA
:101A5000182F813049F48DE140E050E060E070E003
:101A60000E94E50888E30AC0823071F484E140E016
:101A700050E060E070E00E94E50881E140E050E065
:101A800060E070E00E94E50883E340E050E060E041
:101A900070E0212F0E944F0C113049F488EB40E098
:101AA00050E060E070E00E94E5088DE918C0123057
:101AB000E1F480EF40E050E060E070E00E94E50873
:101AC00081E140E050E060E070E00E94E50880EFD6
:101AD00040E050E060E070E00E94E50884E140E012
:101AE00050E060E070E00E94E5080E94720C1F91D7
:101AF00008951F93182F813049F48DE140E050E0A4
:101B000060E070E00E94E50888E30AC0823071F46A
:101B100084E140E050E060E070E00E94E50881E18F
:101B200040E050E060E070E00E94E50888E040E0BE
:101B300050E060E070E0212F0E944F0C113049F41A
:101B400088EB40E050E060E070E00E94E5088DE93D
:101B500018C01230E1F480EF40E050E060E070E047
:101B60000E94E50881E140E050E060E070E00E9402
:101B7000E50880EF40E050E060E070E00E94E5089A
:101B800084E140E050E060E070E00E94E5080E94DF
:101B9000720C1F9108951F93CF93DF93EC01162FC2
:101BA000613049F48DE140E050E060E070E00E9477
:101BB000E50888E30AC0623071F484E140E050E057
:101BC00060E070E00E94E50881E140E050E060E004
:101BD00070E00E94E5088DE440E050E06AEF73E4B5
:101BE000212F0E944F0C113049F488EB40E050E067
:101BF00060E070E00E94E5088DE918C01230E1F461
:101C000080EF40E050E060E070E00E94E50881E194
:101C100040E050E060E070E00E94E50880EF40E0C6
:101C200050E060E070E00E94E50884E140E050E0B0
:101C300060E070E00E94E5080E94720CC230D1059D
:101C400039F0C330D10531F0219761F48CE403C041
:101C500086E501C080E340E050E068E473E4212FB2
:101C60000E944F0CDF91CF911F910895DF93CF9386
:101C7000CDB7DEB72C970FB6F894DEBF0FBECDBF41
:101C80008091D103882309F049C090E09E012F5F25
:101C90003F4F0AC0E92FF0E0D901AE0FBF1FE15D51
:101CA000FE4F80818C939F5F9C30A0F39093C6037E
:101CB0008091BA03813011F081E001C08981809365
:101CC000BA038091BB03823011F082E001C08A81A7
:101CD0008093BB038091BC03833011F083E001C08B
:101CE0008B818093BC038091BD03843011F084E02C
:101CF00001C08C818093BD038091C003823511F0B7
:101D000082E501C08F818093C0038091C1038C3430
:101D100011F08CE401C088858093C1032C960FB626
:101D2000F894DEBF0FBECDBFCF91DF910895813013
:101D30009105A1F08230910511F1892B81F590E098
:101D40000AC0E92FF0E0DF01A15DBE4F8C91E6549F
:101D5000FC4F80839F5F9C30A0F30EC090E00AC0D0
:101D6000E92FF0E0DF01A95BBE4F8C91E654FC4FF8
:101D700080839F5F9C30A0F39093C603089590E00A
:101D80000AC0E92FF0E0DF01A15ABE4F8C91E65462
:101D9000FC4F80839F5F9C30A0F39093C60308950F
:101DA00081309105A1F08230910511F1892B81F5E7
:101DB00090E00AC0E92FF0E0DF01A55CBE4F8C91F6
:101DC000EE52FC4F80839F5F9C30A0F30EC090E0EA
:101DD0000AC0E92FF0E0DF01AD5ABE4F8C91EE5200
:101DE000FC4F80839F5F9C30A0F39093C6030895BF
:101DF00090E00AC0E92FF0E0DF01A559BE4F8C91B9
:101E0000EE52FC4F80839F5F9C30A0F39093C603FB
:101E100008951F93FC01409A1AE4812F8A95F1F7E7
:101E200086B190E074E0969587957A95E1F7A1E008
:101E3000B0E08A279B278170808386B190E065E0BF
:101E4000969587956A95E1F78A279B27817081830C
:101E500089B190E096958795969587958A279B27D7
:101E60008170828389B190E043E0969587954A9589
:101E7000E1F78A279B27817083834098812F8A9579
:101E8000F1F789B199B182FDA8C093FDA6C089B1CF
:101E900090E034E0969587953A95E1F78A279B275D
:101EA0008170868389B190E025E0969587952A9583
:101EB000E1F78A279B2781708583409A812F8A9535
:101EC000F1F789B190E074E0969587957A95E1F7FE
:101ED0008A279B278170878389B190E065E096957A
:101EE00087956A95E1F78A279B27817080874098BC
:101EF000812F8A95F1F7409A812F8A95F1F74098C2
:101F0000812F8A95F1F766B126B149B189B190E088
:101F100053E0969587955A95E1F78A279B2750E0DD
:101F200056954795569547954A275B274823592349
:101F300070E084E0769567958A95E1F76A277B27BC
:101F400030E075E0369527957A95E1F72A273B270B
:101F500021702623822F90E048235923452BC1F17D
:101F6000409A812F8A95F1F786B190E034E09695FA
:101F700087953A95E1F78A279B278170838786B1F9
:101F800090E025E0969587952A95E1F78A279B278B
:101F90008170828789B190E096958795969587950F
:101FA0008A279B278170818789B190E063E09695AD
:101FB00087956A95E1F78A279B27817084834098EB
:101FC000812F8A95F1F7409A812F8A95F1F74098F1
:101FD00080E49FE10197F1F718C089B190E054E0E7
:101FE000969587955A95E1F721E030E0822793276F
:101FF0008170868389B190E045E0969587954A95F2
:10200000E1F78227932781708783409A8AE48A9533
:10201000F1F71F9108951F93FC01419A8AE48A9574
:10202000F1F789B190E066E0969587956A95E1F7BA
:1020300021E030E0822793278170808383B190E094
:1020400053E0969587955A95E1F7822793278170FB
:10205000818389B1128287FD02C081E0828383B1CE
:1020600090E09695879596958795A1E0B0E08A27B0
:102070009B278170838341981AE4812F8A95F1F719
:1020800089B193B187FD8CC092FD8AC083B190E085
:10209000969587958A279B278170868383B18A27A7
:1020A00081708583419A812F8A95F1F783B190E001
:1020B000969587958A279B278170878383B18A2786
:1020C000817080874198812F8A95F1F7419A812FFD
:1020D0008A95F1F74198812F8A95F1F769B123B17B
:1020E00089B143B150E056954795569547954A2793
:1020F0005B27992787FD9095809590958827990F64
:10210000881F99274823592370E086E076956795C4
:102110008A95E1F76A277B2730E073E036952795AB
:102120007A95E1F72A273B2721702623822F90E01A
:1021300048235923452B79F1419A812F8A95F1F74C
:1021400089B190E026E0969587952A95E1F78A2750
:102150009B278170838783B190E013E096958795E4
:102160001A95E1F78A279B278170828789B11186AA
:1021700087FD02C081E0818783B186958695809531
:102180008170848341988AE4982F9A95F1F7419A57
:102190008A95F1F7419880E49FE10197F1F70EC02D
:1021A00083B190E09695879521E030E082279327D0
:1021B0008170868383B1822781708783419A8AE404
:1021C0008A95F1F71F910895FC018085882319F005
:1021D00081E090E00BC089B190E036E0969587955C
:1021E0003A95E1F780959095817090708087818510
:1021F000882319F081E090E00AC089B1992787FD12
:102200009095809590958827990F881F99278187A9
:102210008581882319F081E090E006C083B190E0C9
:10222000809590958170907085838481882319F0C2
:1022300081E090E008C083B190E096958795809505
:1022400090958170907084838285882319F081E055
:1022500090E00AC083B190E0969587959695879512
:10226000809590958170907082878385882319F07E
:1022700081E090E00BC083B190E073E09695879584
:102280007A95E1F780959095817090708387089595
:1022900080E020E030E88695359B80685B98932F3E
:1022A0009A95F1F75B9A932F9A95F1F72F5F283063
:1022B00091F708950F931F938C013D98459A529A78
:1022C0005A9A539A5B9A80EC90E00197F1F75A98EA
:1022D00080E88A95F1F70E944811982F9170F801D3
:1022E0009683982F92709783982F94709483982F49
:1022F00098709583982F90719083982F9072918306
:10230000982F907492838078838352985A9A539826
:102310005B9A1F910F9108953D98459A529A5A9A47
:10232000539A5B9A80EC90E00197F1F75A9880E815
:102330008A95F1F70E94481152985A9A53985B9ADD
:102340008470089580E020E030E886951B9B8068CB
:102350002A98932F9A95F1F72A9A932F9A95F1F745
:102360002F5F283091F708950F931F938C012398C6
:102370002B9A579A5F9A229A2A9A80EC90E00197BA
:10238000F1F75F9880E88A95F1F70E94A211982FE3
:102390009170F8019683982F92709783982F94707C
:1023A0009483982F98709583982F90719083982F8D
:1023B00090729183982F907492838078838357983A
:1023C0005F9A22982A9A1F910F91089523982B9A29
:1023D000579A5F9A229A2A9A80EC90E00197F1F737
:1023E0005F9880E88A95F1F70E94A21157985F9A4A
:1023F00022982A9A84700895ACE0B0E0E2E0F2E11D
:102400000C94FF1269837A838B839C83CE0101969F
:10241000BE016B5F7F4F0E9450128D81823061F14F
:10242000823050F1843021F48E81882351F12EC006
:102430002F81388537FD20C06E812F3131051CF08A
:102440006623F9F023C08EE190E0821B930B29856F
:102450003A854B855C8504C05695479537952795F9
:102460008A95D2F76623B1F0509540953095219525
:102470003F4F4F4F5F4F0EC020E030E040E050E054
:1024800009C02FEF3FEF4FEF5FE704C020E030E0DF
:1024900040E050E8B901CA012C96E2E00C941B130D
:1024A000FC01DB01408151812281622F6F7770E056
:1024B000221F2227221F9381892F880F822B282FEA
:1024C00030E0991F9927991F11969C931197211518
:1024D0003105A9F5411551056105710511F482E039
:1024E00037C082E89FEF13969C938E9312979A01C0
:1024F000AB0167E0220F331F441F551F6A95D1F7C8
:1025000083E08C930DC0220F331F441F551F12967A
:102510008D919C911397019713969C938E9312978C
:10252000203080E0380780E0480780E4580758F3FF
:1025300014962D933D934D935C93179708952F3FD9
:10254000310579F4411551056105710519F484E0EF
:102550008C93089564FF03C081E08C9312C01C9299
:1025600010C02F57304013963C932E93129783E060
:102570008C9387E0440F551F661F771F8A95D1F70C
:10258000706414964D935D936D937C9317970895A3
:1025900097FB092E07260AD077FD04D00CD006D071
:1025A00000201AF4709561957F4F0895F6F7909585
:1025B00081959F4F0895AA1BBB1B51E107C0AA1F1D
:1025C000BB1FA617B70710F0A61BB70B881F991FD4
:1025D0005A95A9F780959095BC01CD0108952F9249
:1025E0003F924F925F926F927F928F929F92AF92A3
:1025F000BF92CF92DF92EF92FF920F931F93CF93F0
:10260000DF93CDB7DEB7CA1BDB0B0FB6F894DEBF86
:102610000FBECDBF09942A88398848885F846E84AC
:102620007D848C849B84AA84B984C884DF80EE80F6
:10263000FD800C811B81AA81B981CE0FD11D0FB6FF
:10264000F894DEBF0FBECDBFED010895F894FFCF23
:102650001C2E25262728292A2B2C2D0B0C0D0E0F7E
:10266000101112131415161718191A1B1C1D1E1FF2
:10267000202122232425262728292A2B2C2D2E1BF6
:102680000B191A29255322170E100D131514162A8B
:10269000261223180C231E211D0B0E2925101C0F9A
:1026A0000E100D131514162A261223180C231E01C2
:1026B00002030429254F50535424221C100E112AC2
:1026C000260B1D1B210F1E0048504B4D5247494BF6
:1026D0004F511E302E20122122231724252632315D
:1026E000181910131F14162F112D152C0203040591
:1026F000060708090A0B3B3C3D3E3F40414243442C
:1027000057584F50514B4C4D4748495235374A4E18
:102710001C5345010E341D38461C392A363A290F00
:102720000D33270075726B74706C7D71697A1C3281
:102730002123242B3433433B424B3A31444D152D56
:102740001B2C3C2A1D22351A161E26252E363D3EF0
:1027500046450506040C030B830A010978076972D4
:102760007A6B73746C757D704A7C7B795A7177765D
:10277000664914117E5A291259580E0D55414C00C4
:00000001FF
