:100000000C9434000C9451000C9451000C94510049
:100010000C9451000C9451000C9451000C9451001C
:100020000C9451000C9451000C9451000C9451000C
:100030000C9451000C9451000C9451000C945100FC
:100040000C9451000C9451000C9451000C945100EC
:100050000C9451000C9451000C9451000C945100DC
:100060000C9451000C94510011241FBECFEFD8E026
:10007000DEBFCDBF12E0A0E0B1E0EAEDF0E202C0E9
:1000800005900D92A033B107D9F723E0A0E3B2E0C9
:1000900001C01D92AE3DB207E1F70E94C9080C9461
:1000A0006B100C94000080915D0290915E02882399
:1000B00061F0992351F081E08093610280933502D1
:1000C00010925D0210925E021AC020913502222326
:1000D00021F01092610210923502882321F081E014
:1000E00020915402211180E080935D02992321F038
:1000F00081E090915402911180E080935E028091A2
:100100005F0290916002882361F0992351F081E0B1
:10011000809362028093340210925F021092600218
:10012000089520913402222321F01092620210924D
:100130003402882321F081E020915502211180E0D2
:1001400080935F02992321F081E0909155029111F3
:1001500080E0809360020895809143029091440270
:10016000882361F0992351F081E0809347028093C6
:10017000330210924302109244021AC020913302BB
:10018000222321F01092470210923302882321F09B
:1001900081E020913A02211180E08093430299236B
:1001A00021F081E090913A02911180E08093440225
:1001B0008091450290914602882361F0992351F085
:1001C00081E080934802809332021092450210929F
:1001D0004602089520913202222321F01092480213
:1001E00010923202882321F081E020913B022111FC
:1001F00080E080934502992321F081E090913B02B9
:10020000911180E0809346020895CF93C82F80918A
:100210003002909131022091B00240E050E0BA01EA
:10022000892B59F48C2F0E94BD0381E090E09093BC
:10023000310280933002CF9108958DE40E94BD0376
:100240002091B00240E050E0BA018C2FCF910C9485
:10025000BD0397B121E030E001C0220F8A95EAF793
:100260002095292327B908951816190644F4EFE3B9
:10027000FCE93197F1F700C000000A97F5CF089527
:100280001816190634F425E12A95F1F700000497B1
:10029000F7CF08951092CD031092CE0308952091C8
:1002A000CE0330E0F901E359FD4F8083F901EE0FF1
:1002B000FF1FEE0FFF1FEF54FD4F408351836283FA
:1002C0007383C901029662E470E00E94E40F809398
:1002D000CE0308950F931F93E091CD03F0E0E3590F
:1002E000FD4F2081FC0120838091CD0390E0FC0133
:1002F000EE0FFF1FEE0FFF1FEF54FD4F0081118126
:1003000022813381FB010083118322833383029690
:1003100062E470E00E94E40F8093CD031F910F917F
:10032000089561110C94290147B121E030E0B90131
:1003300002C0660F771F8A95E2F7CB01842B87B93D
:1003400008954398429883E00E94290182E00C942A
:100350002901329B07C086B183FB882780F991E091
:100360008927089581E008950C944F0120E030E042
:10037000281739074CF42F5F3F4F339B08C04AE1E1
:100380004A95F1F700C0F4CF80E090E0089581E055
:1003900090E008959F92AF92BF92CF92DF92EF923A
:1003A000FF920F931F93CF93DF936C013399FECF8E
:1003B000329BFECF8091C70324E0829FC0011124AD
:1003C0000E9440013A9A8091C703E8E08E9FC001E5
:1003D00011240E94400182E00E9429018091C703FC
:1003E000F4E08F9FC00111240E94400100E010E062
:1003F000C1E0D0E0AA24A394B12C99249394339B18
:1004000008C0C501002E01C0880F0A94EAF7D82B56
:10041000C9258091C70324E0829FC00111240E9456
:1004200040013A9A8091C703E8E08E9FC0011124F1
:100430000E94400182E00E9429018091C703F4E0FC
:100440008F9FC00111240E9440010F5F1F4F083091
:100450001105A9F686B183FBEE24E0F8F12C8C2F70
:1004600090E0E816F90609F03FC08091C70324E048
:10047000829FC00111240E9440013A9A8091C703D3
:10048000E8E08E9FC00111240E94400182E00E949A
:1004900029018091C703F4E08F9FC00111240E94BD
:1004A00040013B9A8091C70324E0829FC001112440
:1004B0000E9440013A9A8091C703E8E08E9FC001F4
:1004C00011240E94400182E00E94290183E00E94E1
:1004D00029018FE891E00197F1F700C00000F601D3
:1004E000D08380E090E002C08FEF9FEFDF91CF914B
:1004F0001F910F91FF90EF90DF90CF90BF90AF9042
:100500009F900895EF92FF920F931F93CF93DF93E5
:10051000E82E0E94A9018111FCCF2D983B9A809171
:10052000C70324E0829FC00111240E9440013A9A2F
:100530008091C70328E0829FC00111240E944001DE
:1005400082E00E9429018091C70324E0829FC001BC
:1005500011240E944001C0E0D0E011E0F12C01E044
:10056000C7010C2E02C0959587950A94E2F780FF8B
:1005700005C083E00E942901102701C03B9A8091A9
:10058000C70324E0829FC00111240E9440013A9ACF
:100590008091C70328E0829FC00111240E9440017E
:1005A00082E00E9429018091C70324E0829FC0015C
:1005B00011240E9440012196C830D10589F61123EB
:1005C00021F083E00E94290101C03B9A8091C7037A
:1005D00024E0829FC00111240E9440013A9A809138
:1005E000C70328E0829FC00111240E94400182E0DD
:1005F0000E9429018091C70324E0829FC001112439
:100600000E94400183E00E9429018091C70324E0F9
:10061000829FC00111240E9440013A9A8091C70331
:1006200028E0829FC00111240E94400182E00E94C4
:1006300029018091C70324E0829FC00111240E94F8
:10064000400187EC90E00197F1F700C000002D9A7F
:10065000DF91CF911F910F91FF90EF9008959091AE
:10066000CE038091CD03981761F10E94A9018111F9
:1006700028C00E94A9018111F2CF69EC73E08FECD0
:1006800093E00E946A018091CF03982F9F7E903E55
:1006900049F40E9482029091CE038091CD03981379
:1006A000ECCF0FC00E9482026091C9037091CA030F
:1006B0008091CB039091CC030E940C10CB010C9441
:1006C00034010895AF92BF92CF92DF92EF92FF92E2
:1006D0000F93CF93C82F5B0169017A01853459F1DB
:1006E00028F48FEF8C0F8A3018F425C0893419F163
:1006F000CC23D1F1AB2859F0013069F5EC2FF0E0B3
:10070000E557FE4F8081B701A60180580AC001302D
:10071000C9F4EC2FF0E0E557FE4F40E050E0BA019D
:100720008081CF910F91FF90EF90DF90CF90BF909D
:10073000AF900C944F0140E050E0BA0180EE0E946F
:100740004F01D8CF023081F4EC2FF0E0E15DFE4F95
:10075000B701A601E5CF023039F440E050E0BA011C
:1007600080EF0E944F01F0CFCF910F91FF90EF905B
:10077000DF90CF90BF90AF900895CF92DF92EF922D
:10078000FF920F93CF93DF93C82F6A017B01022F53
:1007900020E030E048EC52E460E070E00E94620348
:1007A000A701960161E070E08C2F0E946203DF9147
:1007B000CF910F91FF90EF90DF90CF900895EAEBEB
:1007C000F3E081E0808382E0818383E0828384E0C0
:1007D000838382E586838CE487830895CF93C82F33
:1007E000282F40E050E0BA0186E10E94BD032C2F83
:1007F00040E050E0BA0189E10E94BD032C2F40E0A7
:1008000050E0BA018BE00E94BD032C2F40E050E085
:10081000BA018EE00E94BD03C13029F440E050E0EF
:10082000BA0186E306C0C23031F440E050E0BA01BC
:1008300089E50E944F012C2F40E050E068EC72E403
:1008400086E20E94BD032C2F40E050E0BA0186E210
:100850000E94BD03C13029F440E050E0BA0189EDA7
:100860000CC0C23061F440E050E0BA0180EF0E9459
:100870004F0140E050E0BA0189E50E944F012C2F62
:1008800040E050E0BA0182E5CF910C94BD03CF93D4
:10089000C82F282F40E050E0BA0184E10E94BD0338
:1008A000C13029F440E050E0BA0186E306C0C2300E
:1008B00031F440E050E0BA0189E50E944F012C2F4D
:1008C00040E050E068EC72E486E20E94BD032C2F09
:1008D00040E050E0BA0186E20E94BD03C13029F435
:1008E00040E050E0BA0189ED0CC0C23061F440E054
:1008F00050E0BA0180EF0E944F0140E050E0BA01A1
:1009000089E50E944F012C2F40E050E0BA0182E5BA
:10091000CF910C94BD03CF93C82F813059F440E0A0
:1009200050E0BA018DE10E944F0140E050E0BA0171
:1009300088E30CC0823061F440E050E0BA0184E109
:100940000E944F0140E050E0BA0181E10E944F0156
:100950002C2F40E050E0BA0183E30E94BD03C13078
:1009600059F440E050E0BA0188EB0E944F0140E0AA
:1009700050E0BA018DE918C0C230C1F440E050E047
:10098000BA0180EF0E944F0140E050E0BA0181E1DE
:100990000E944F0140E050E0BA0180EF0E944F01F9
:1009A00040E050E0BA0184E10E944F01CF910C94E5
:1009B000DF03CF93C82F813059F440E050E0BA01F3
:1009C0008DE10E944F0140E050E0BA0188E30CC085
:1009D000823061F440E050E0BA0184E10E944F01AE
:1009E00040E050E0BA0181E10E944F012C2F40E02D
:1009F00050E0BA0188E00E94BD03C13059F440E0E4
:100A000050E0BA0188EB0E944F0140E050E0BA018B
:100A10008DE918C0C230C1F440E050E0BA0180EF67
:100A20000E944F0140E050E0BA0181E10E944F0175
:100A300040E050E0BA0180EF0E944F0140E050E0FA
:100A4000BA0184E10E944F01CF910C94DF030F9310
:100A50001F93CF938C01C62F613059F440E050E0D2
:100A6000BA018DE10E944F0140E050E0BA0188E3F5
:100A70000CC0623061F440E050E0BA0184E10E94B1
:100A80004F0140E050E0BA0181E10E944F012C2F5C
:100A900040E050E06AEF73E48DE40E94BD03C13092
:100AA00059F440E050E0BA0188EB0E944F0140E069
:100AB00050E0BA018DE918C0C230C1F440E050E006
:100AC000BA0180EF0E944F0140E050E0BA0181E19D
:100AD0000E944F0140E050E0BA0180EF0E944F01B8
:100AE00040E050E0BA0184E10E944F010E94DF0320
:100AF0000230110569F00330110589F0013011054C
:100B0000C9F42C2F40E050E068E473E48CE40DC09D
:100B10002C2F40E050E068E473E486E506C02C2FFB
:100B200040E050E068E473E480E3CF911F910F91BF
:100B30000C94BD03CF911F910F910895CF93DF9334
:100B4000CDB7DEB72C970FB6F894DEBF0FBECDBF82
:100B50008091D103811148C0282F30E0E1E0F0E01E
:100B6000EC0FFD1FE20FF31FD901AD5DBD4F9C914E
:100B700090838F5F8C3081F78093C6038091BA0396
:100B8000813011F4898101C081E08093BA038091A2
:100B9000BB03823011F48A8101C082E08093BB03E1
:100BA0008091BC03833011F48B8101C083E080937A
:100BB000BC038091BD03843011F48C8101C084E0BA
:100BC0008093BD038091C003823511F48F8101C0F1
:100BD00082E58093C0038091C1038C3411F4888531
:100BE00001C08CE48093C1032C960FB6F894DEBF4D
:100BF0000FBECDBFDF91CF91089581309105A1F057
:100C00008230910501F1892B71F580E0282F30E0C9
:100C1000F901E654FC4FD901AD5DBD4F9C91908325
:100C20008F5F8C3099F71DC080E0282F30E0F901EC
:100C3000E654FC4FD901A55FBD4F9C9190838F5F17
:100C40008C3099F70EC080E0282F30E0F901E6548F
:100C5000FC4FD901AD50BE4F9C9190838F5F8C307B
:100C600099F78093C603089581309105A1F08230F1
:100C7000910501F1892B71F580E0282F30E0F90111
:100C8000EE52FC4FD901A95EBD4F9C9190838F5FBE
:100C90008C3099F71DC080E0282F30E0F901EE522A
:100CA000FC4FD901A150BE4F9C9190838F5F8C3037
:100CB00099F70EC080E0282F30E0F901EE52FC4F8A
:100CC000D901A951BE4F9C9190838F5F8C3099F7C9
:100CD0008093C6030895FC01409A8AE48A95F1F74F
:100CE00000C086B191E0829581708927808386B1AA
:100CF00085FB882780F98927818389B182FB882732
:100D000080F98927828389B183FB882780F9892725
:100D1000838340988AE48A95F1F700C029B189B1AC
:100D200022FB222720F9291709F475C083FB8827A5
:100D300080F9891709F46FC089B18295817089277C
:100D4000868389B185FB882780F989278583409A26
:100D50008AE48A95F1F700C089B18295817089276C
:100D6000878389B185FB882780F989278087409808
:100D70008AE48A95F1F700C0409A8AE48A95F1F7EF
:100D800000C040988AE48A95F1F700C086B136B178
:100D900029B149B182958170892735FB332730F914
:100DA0003927832322FB222720F92927822361F177
:100DB00043FB882780F9891739F1409A8AE48A959C
:100DC000F1F700C086B1829581708927838786B14B
:100DD00085FB882780F98927828789B182FB88274C
:100DE00080F98927818789B183FB882780F9982733
:100DF000948340989AE49A95F1F700C0409A8AE467
:100E00008A95F1F700C040988FE39FE10197F1F7D1
:100E100000C000000CC089B191E0829581708927E3
:100E2000868389B185FB882780F998279783409A24
:100E30009AE49A95F1F700C00895FC01419A8AE47A
:100E40008A95F1F700C089B191E086FB882780F987
:100E50008927808383B183FB882780F98927818351
:100E600089B18095881F8827881F828383B182FB80
:100E7000882780F98927838341988AE48A95F1F746
:100E800000C029B183B182FB882780F9891709F452
:100E900070C027FD6EC083B18695817089278683D7
:100EA00083B1817089278583419A8AE48A95F1F715
:100EB00000C083B1869581708927878383B1817053
:100EC0008927808741988AE48A95F1F700C0419A82
:100ED0008AE48A95F1F700C041988AE48A95F1F78F
:100EE00000C089B133B129B153B186FB882780F99D
:100EF000482F492733FB882780F9892784232095A9
:100F0000221F2227221F822369F152FB882780F9A2
:100F1000891741F1419A8AE48A95F1F700C089B1B5
:100F200086FB882780F98927838783B183FB8827FD
:100F300080F98927828789B18095881F8827881F33
:100F4000818783B182FB882780F998279483419811
:100F50009AE49A95F1F700C0419A8AE48A95F1F7EC
:100F600000C041988FE39FE10197F1F700C00000B6
:100F70000AC083B191E0869581708927868383B109
:100F8000817098279783419A9AE49A95F1F700C067
:100F90000895FC018085811107C089B186FB9927DE
:100FA00090F981E0892701C081E0808781858111E6
:100FB0000BC089B1082E000C990B80959095892F54
:100FC000881F8827881F01C081E081878581811162
:100FD00004C083B18095817001C081E085838481E4
:100FE000811106C083B18695817091E0892701C087
:100FF00081E084838285811107C083B182FB9927B8
:1010000090F981E0892701C081E082878385811181
:1010100007C083B183FB992790F981E0892701C03C
:1010200081E08387089598E080E08695359B80680D
:101030005B9820E82A95F1F75B9A20E82A95F1F76A
:10104000915099F708953D98459A529A5A9A539A11
:101050005B9A8FEB90E00197F1F700C000005A987F
:1010600090E89A95F1F70E94130852985A9A53986B
:101070005B9A84700895CF93DF93EC013D98459A75
:10108000529A5A9A539A5B9A8FEB90E00197F1F734
:1010900000C000005A9890E89A95F1F70E94130852
:1010A000982F91709E83982F92709F83982F9470A1
:1010B0009C83982F98709D83982F90719883982F78
:1010C00090729983982F90749A8380788B8352982A
:1010D0005A9A53985B9ADF91CF91089598E080E0F7
:1010E00086951B9B80682A9820E82A95F1F72A9A12
:1010F00020E82A95F1F7915099F7089523982B9AB3
:10110000579A5F9A229A2A9A8FEB90E00197F1F70B
:1011100000C000005F9890E89A95F1F70E946E0871
:1011200057985F9A22982A9A84700895CF93DF93F4
:10113000EC0123982B9A579A5F9A229A2A9A8FEB5E
:1011400090E00197F1F700C000005F9890E89A9551
:10115000F1F70E946E08982F91709E83982F9270DD
:101160009F83982F94709C83982F98709D83982FBD
:1011700090719883982F90729983982F90749A8386
:1011800080788B8357985F9A22982A9ADF91CF9123
:101190000895CF93DF9300D000D0CDB7DEB7109283
:1011A000AF021092C8031092D1031092D003109294
:1011B00031021092300284E08093C7030E94A101A3
:1011C0000E944A01109235021092340210923302AA
:1011D000109232023C983D98449A459A8FEF89B913
:1011E00083B18F6183B91AB884B1807E84B9389A8B
:1011F000399A409A419A10926C0282E08093B00230
:10120000259A2D9A8091D10390E00E94FD0580914E
:10121000D00390E00E9434060E94DF038091AF0269
:1012200081111BC04A9B06C04B9B04C00E9423082F
:10123000682E01C0612C4F9B06C01A9B04C00E94FF
:101240007E08782E01C0712C0E9423088111FCCFEA
:101250000E947E088111FCCF02C0712C612C212CD0
:10126000312C23E2A22EB12C2FEF3FEF3C832B83B6
:10127000CC24CA94DC2CEE24EA94FE2C44244A9418
:10128000542C10E08091C803812B09F441C00E94C6
:10129000A9018823E9F188EE93E00E94B601892B29
:1012A000C9F180916C028093B9038CE692E00E94B0
:1012B000CA01892B81F780916C028E3E09F08AEF7A
:1012C0000E94820280916C02823099F028F4882377
:1012D00049F0813071F0DFCF823F99F08F3FD9F62E
:1012E0008AEA13C08091B903803FA9F68091B002C9
:1012F0000CC09091B903903F71F68093B00210E05A
:10130000CACF8BEA0E94820283E80E948202C3CF86
:101310000E942F0380915D028093500280914302CE
:101320008093360280915E02809351028091440244
:101330008093370280915F02809352028091450230
:10134000809338028091600280935302809146021C
:101350008093390280916102809354028091470208
:1013600080933A021092610280916202809355024A
:101370008091480280933B02109262028091630246
:10138000809356028091490280933C0280916402CE
:101390008093570280914A0280933D0280916502BA
:1013A0008093580280914B0280933E021092650216
:1013B000809166028093590280914C0280933F0293
:1013C000109266028091670280935A0280914D02CA
:1013D00080934002109267028091680280935B02C2
:1013E00080914E02809341021092680280916902BE
:1013F00080935C028FE39CE90197F1F700C0000045
:101400008091AF02882349F08DE592E00E946B063F
:101410008DE592E00E94C90716C08DE592E0662036
:1014200019F00E943B0804C00E946B060E94530002
:1014300083E492E0772019F00E94960804C00E948D
:101440001D070E94AC0023B191E0822F807124FD22
:1014500090E09093690290916202992321F020918B
:10146000630221110EC020916102222311F091111B
:1014700008C090915C02992309F4A2C0882309F462
:101480009FC0112309F453C01092540210925502C8
:10149000109256029091AF02911149C090915C0256
:1014A000992309F444C0882309F441C04A9B05C02C
:1014B0004B9B03C00E942308682E4F9B05C01A9BBC
:1014C00003C00E947E08782E0E9423088111FCCF61
:1014D0000E947E088111FCCF2AC08091620288237D
:1014E00009F441C0109265021092660210926702E0
:1014F000109268021092610210926202EFE3FCE91E
:101500003197F1F700C000008091AF028823A1F06D
:101510008DE592E00E946B068DE592E00E94C9077E
:1015200083B182958170F1E08F2780936902809169
:101530006102882391F2D6CF8DE592E0662019F002
:101540000E943B0804C00E946B060E94530083E483
:1015500092E0772019F00E949608E2CF0E941D07C2
:101560000E94AC00DDCF809163028111BBCF8091DE
:101570005D028111B7CF80915E028111B3CF80915E
:101580005F028111AFCF809160028111ABCF2FEF4D
:1015900033EC89E0215030408040E1F700C000008A
:1015A000112391F0EFEFFFEFFC83EB83CC24CA947F
:1015B000DC2CEE24EA94FE2C44244A94542C8BC256
:1015C000112309F492C10EC02FEF3FEF3C832B8310
:1015D000CC24CA94DC2CEE24EA94FE2C44244A94B5
:1015E000542C11E09091620280915002992391F164
:1015F0008823A9F090915D02911111C08091C703D9
:10160000823018F081508093C703109250023FEF50
:1016100083EC99E0315080409040E1F718C0909100
:1016200051029923B9F090915E02911113C08091FB
:10163000C703843018F48F5F8093C7031092510260
:10164000EFEFF3EC29E0E150F0402040E1F700C07B
:10165000000018CE8823C1F080915D02811114C072
:1016600081E090E03AE04316510414F080E090E00D
:10167000480E591E8FEF9FEF9C838B83CC24CA9416
:10168000DC2CEE24EA94FE2C809151028823C1F0D8
:1016900080915E02811114C081E090E0E4E0EE16DA
:1016A000F10414F080E090E0E80EF91E2FEF3FEF18
:1016B0003C832B83CC24CA94DC2C44244A94542CA1
:1016C000809153028823C1F080916002811114C07F
:1016D00081E090E032E0C316D10414F080E090E0A5
:1016E000C80ED91E8FEF9FEF9C838B83EE24EA9464
:1016F000FE2C44244A94542C809152028823D9F021
:1017000080915F02811117C081E090E0EB81FC8144
:10171000339714F080E090E02B813C81280F391F33
:101720003C832B83CC24CA94DC2CEE24EA94FE2C3C
:1017300044244A94542C80913C02882329F18091BE
:101740004902811121C03FEF83EC99E03150804084
:101750009040E1F700C000001092490210923C0254
:10176000EB81FC81329779F48091D003833020F4AF
:101770008F5F8093D00302C01092D0038091D0037A
:1017800090E00E94340610E0809163028823E9F023
:10179000809164028823C9F0FFEF29E638E1F15017
:1017A00020403040E1F700C0000010926302109228
:1017B0006402109256021092570281E09091AF029B
:1017C000911180E08093AF0210E080916302882342
:1017D00019F180915F028823F9F08FEF99E6E8E133
:1017E00081509040E040E1F700C000008091B002DD
:1017F000823021F4F1E0F093B00203C022E02093A4
:10180000B0021092630210925F0210925602109280
:1018100052021092C80310E0809163028823C9F03D
:10182000809160028823A9F03FEF89E698E131506A
:1018300080409040E1F700C00000109263021092D7
:1018400060021092560210925302E1E0E093C80346
:1018500010E080915602882309F434C2809163021B
:10186000811130C2FFEF23EC39E0F15020403040CD
:10187000E1F700C0000010926302109256028FEF51
:101880004816580609F016C39FEFE916F90669F4E1
:10189000EFEFCE16DE0671F42B813C812F3F3F4FD8
:1018A00009F05BC30E949E050CC2EFEFCE16DE0668
:1018B00009F412C3C114D10429F48091B0020E942A
:1018C0008B04DFCC91E0C916D10429F48091B002D9
:1018D0000E94EE03D6CCE2E0CE16D10409F0D1CCC2
:1018E0008091B0020E944704CCCCEB81FC81EF2BAD
:1018F00009F0F1C080915602882309F44DC080910F
:101900006302811149C08091300290913102892B8C
:1019100009F442C081E02114310409F080E0882EEE
:10192000912C2091B00240E050E0BA018DE40E9479
:10193000BD03950120503F4F3A8329832328F9F4B2
:101940000091B00220E030E0A90160E070E085E5A0
:101950000E9462032091B00240E050E0BA01E981A8
:10196000FA8180810E94BD030091B00220E030E046
:10197000A90161E070E085E50E9462030AC0209140
:10198000B00240E050E0BA01E981FA8180810E9412
:10199000BD030E942F03140180915D028823C1F0D2
:1019A00080916302811114C0F3E2AF16B10421F0FB
:1019B0002FEFA21AB20A02C0A12CB12CF501E050FF
:1019C000FF4F80810E9405010E942F03212C312CA2
:1019D00080915E028823C1F080916302811114C05E
:1019E0001A141B0424F431E0A31AB10803C083E2E3
:1019F000A82EB12CF501E050FF4F80810E94050117
:101A00000E942F03212C312C80916002882349F100
:101A100080915302811125C080916302882351F087
:101A20000091B00220E030E0A90161E070E085E5BE
:101A30000E9462038091300290913102892B29F03B
:101A4000109231021092300208C02091B00240E0A2
:101A500050E0BA0183E50E94BD030E942F03212CB0
:101A6000312C80915F028823C1F080915202811154
:101A700014C080916302811110C010923102109243
:101A800030022091B00240E050E0BA018DE40E94A3
:101A9000BD030E942F03212C312C809164028823E6
:101AA00009F410C18091570281110CC18091630229
:101AB000811108C110923102109230022091B002BF
:101AC00040E050E0BA0182E50E94BD030E942F036E
:101AD000212C312CF7C080915D0290915002891722
:101AE00079F061E070E0882311F060E070E000912F
:101AF000B00220E030E0A9018091BA030E946203A5
:101B000080915E0290915102891779F061E070E056
:101B1000882311F060E070E00091B00220E030E036
:101B2000A9018091BB030E94620380915F029091A2
:101B30005202891779F061E070E0882311F060E0CB
:101B400070E00091B00220E030E0A9018091BC0378
:101B50000E9462038091600290915302891779F08C
:101B600061E070E0882311F060E070E00091B00265
:101B700020E030E0A9018091BD030E9462038091C2
:101B8000610290915402891761F081110AC020917D
:101B9000B00240E050E068E473E48091BE030E942C
:101BA000BD038091620290915502891761F0811105
:101BB0000AC02091B00240E050E068E473E48091F4
:101BC000BF030E94BD038091630290915602891762
:101BD00079F061E070E0882311F060E070E000913E
:101BE000B00220E030E0A9018091C0030E946203AE
:101BF0008091640290915702891779F061E070E05A
:101C0000882311F060E070E00091B00220E030E045
:101C1000A9018091C1030E946203809165029091A5
:101C20005802891779F061E070E0882311F060E0D4
:101C300070E00091B00220E030E0A9018091C20381
:101C40000E9462038091660290915902891779F08F
:101C500061E070E0882311F060E070E00091B00274
:101C600020E030E0A9018091C3030E9462038091CB
:101C7000670290915A02891779F061E070E0882339
:101C800011F060E070E00091B00220E030E0A901C6
:101C90008091C4030E9462038091680290915B026C
:101CA000891779F061E070E0882311F060E070E05E
:101CB0000091B00220E030E0A9018091C5030E94AC
:101CC000620310E08091430290913602891779F007
:101CD00061E070E0882311F060E070E00091B002F4
:101CE00020E030E0A9018091D2030E94620380913C
:101CF000440290913702891779F061E070E08823FF
:101D000011F060E070E00091B00220E030E0A90145
:101D10008091D3030E946203809145029091380222
:101D2000891779F061E070E0882311F060E070E0DD
:101D30000091B00220E030E0A9018091D4030E941C
:101D400062038091460290913902891779F061E02F
:101D500070E0882311F060E070E00091B00220E0B4
:101D600030E0A9018091D5030E946203809147026F
:101D700090913A02891761F081110AC02091B00256
:101D800040E050E068E473E48091D6030E94BD0314
:101D90008091480290913B02891761F081110AC03D
:101DA0002091B00240E050E068E473E48091D703F2
:101DB0000E94BD038091490290913C02891779F0FD
:101DC00061E070E0882311F060E070E00091B00203
:101DD00020E030E0A9018091D8030E946203809145
:101DE0004A0290913D02891779F061E070E0882302
:101DF00011F060E070E00091B00220E030E0A90155
:101E00008091D9030E94620380914B0290913E021F
:101E1000891779F061E070E0882311F060E070E0EC
:101E20000091B00220E030E0A9018091DA030E9425
:101E3000620380914C0290913F02891779F061E032
:101E400070E0882311F060E070E00091B00220E0C3
:101E500030E0A9018091DB030E94620380914D0272
:101E600090914002891779F061E070E0882311F0C9
:101E700060E070E00091B00220E030E0A9018091C4
:101E8000DC030E94620380914E0290914102891707
:101E900009F4F8C961E070E0882311F060E070E0B7
:101EA0000091B00220E030E0A9018091DD030E94A2
:101EB0006203E8C98FEFC816D80609F0FBCC209161
:101EC000B00240E050E068E473E4F201EC5DFE4FE4
:101ED00080810E94BD03D5C91092D1031092D00316
:101EE00080E090E00E94FD058091D00390E00E9488
:101EF000340694E09093C7031092C803E114F104F0
:101F000029F48091B0020E94D904BBC9F1E0EF1618
:101F1000F10429F46091B00280E090E01BC022E05F
:101F2000E216F10429F46091B00281E090E012C061
:101F300033E0E316F10429F46091B00282E090E00E
:101F400009C084E0E816F10409F09BC96091B00271
:101F500083E090E00E94270594C92B813C81232BCC
:101F600029F41092310210923002ABCEEB81FC8149
:101F7000319739F42091B00240E050E0BA018CE48E
:101F800020C02B813C812230310581F48091D10326
:101F9000833020F48F5F8093D10302C01092D1036D
:101FA0008091D10390E00E94FD058BCE8B819C81B6
:101FB000039709F086CE2091B00240E050E0BA01CC
:101FC00081E50E94BD037DCE97FB072E16F4009499
:101FD00007D077FD09D00E94F80F07FC05D03EF42A
:101FE000909581959F4F0895709561957F4F0895C5
:101FF000AA1BBB1B51E107C0AA1FBB1FA617B7072F
:1020000010F0A61BB70B881F991F5A95A9F780954A
:102010009095BC01CD0108950E9413106894B111F0
:102020000C94651008950E944A1088F09F5798F00C
:10203000B92F9927B751B0F0E1F0660F771F881FCD
:10204000991F1AF0BA95C9F714C0B13091F00E94E7
:102050006410B1E008950C946410672F782F8827DE
:10206000B85F39F0B93FCCF3869577956795B3950E
:10207000D9F73EF490958095709561957F4F8F4F7D
:102080009F4F089557FD9058440F551F59F05F3FDB
:1020900071F04795880F97FB991F61F09F3F79F08A
:1020A00087950895121613061406551FF2CF46950C
:1020B000F1DF08C0161617061806991FF1CF86958E
:1020C0007105610508940895E894BB276627772772
:0A20D000CB0197F90895F894FFCFB3
:1020DA000B0C0D0E0F101112131415161718191ACE
:1020EA001B1C1D1E1F202122232425262728292ABE
:1020FA002B2C2D2E1C2E25262728292A2B2C2D0069
:10210A0075726B74706C7D71697A1C322123242B71
:10211A003433433B424B3A31444D152D1B2C3C2A58
:10212A001D22351A161E26252E363D3E4645050623
:10213A00040C030B830A0109780769727A6B7374BA
:10214A006C757D704A7C7B795A7177766649141171
:10215A007E5A291259580E0D55414C0048504B4D84
:10216A005247494B4F511E302E2012212223172449
:10217A0025263231181910131F14162F112D152C5C
:10218A0002030405060708090A0B3B3C3D3E3F4093
:10219A004142434457584F50514B4C4D474849527E
:1021AA0035374A4E1C5345010E341D38461C392A10
:1021BA00363A290F0D33271C100E112A260B1D1B28
:1021CA00210F1E0102030429254F505354242213C0
:1021DA001514162A261223180C231E211D0B0E294C
:1021EA0025101C0F0E100D131514162A261223186B
:1021FA000C231E1B0B191A29255322170E100D002A
:00000001FF
